:10000000027C84027F1DC2CFC2CA3202855675911E
:10001000003222029AE112951C9007AAE0B507036C
:100020007F00229007AAEFF07F0122020006EFB4C2
:100030000106E490D344800590D3447401F090D33A
:1000400046F02202000E02019AEC5D046005E859B8
:1000500004700302019012015B580460F6EC4860E2
:10006000F2EC7004FDFEFF22C860DB2481C8500959
:10007000C398600250060201979850CAF582E92998
:100080004B4A7005AB8202018675F0007C1A7880BD
:10009000C3EF9BEE9AED99400DC3EF9BFFEE9AFEE6
:1000A000ED99FDE842F0DC23ACF0D0E0FFD0E0FEBB
:1000B000D0E0FDAB8220E7101BEB60BAEC2CFCEF2C
:1000C00033FFEE33FEED33FD020172E803F830E753
:1000D00005C0F075F000EF2FFFEE33FEED33FD406D
:1000E000B830E7C280AA75F020800E75F010800548
:1000F00075F0087D007E007F003392D530D5031265
:1001000009E2EC334010EF33FFEE33FEED33FDEC4C
:1001100033FCD5F0ED22E5F0247EA2D513CC92E796
:10012000CDCEFF22EDD2E7CD33EC3392D524814002
:1001300006E4FFFEFDFC22FCE4CFCECDCC24E05053
:100140001174FF80EDC3CC13CCCD13CDCE13CECF25
:1001500013CF0470F030D5DE0209E2E9D2E7C933EB
:10016000E833F892D5EDD2E7CD33EC33FC5002B250
:10017000D522EC30E7100FBF000C0EBE00080DBDFD
:1001800000040BEB6014A2D5EB13FCED92E7FD220B
:1001900074FFFCFDFEFF22E480F8A2D574FF13FC7F
:1001A0007D80E480EF020190E86480F8E933E83371
:1001B00060110460F0ED33EC337009E8FCE9FDEA0E
:1001C000FEEBFF220460DED3EB9FEA9EE99DE8C2CE
:1001D000E78CF0C2F795F0400CE8CCF8E9CDF9EAED
:1001E000CEFAEBCFFB12015B85D0F05804700320F0
:1001F000D5B3E80470075002B2D502019A92D5EC4B
:100200000460F7E4CCC0E0C398F8603B9418600841
:10021000400DD0E0FB020172E4FBFAC9FC8028E843
:1002200030E406E4C9FBE4CAFCE830E305E4C9CAEB
:10023000CBFCE854076010F8C3E913F9EA13FAEBB2
:1002400013FBEC13FCD8F130F52FC3E49CFCEF9BBF
:10025000FFEE9AFEED99FDD0E0FBEF4E4D4C701293
:1002600022DB03020197EC2CFCEF33FFEE33FEEDB3
:1002700033FDED30E7EB020172EF2BFFEE3AFEEDBE
:1002800039FDD0E0FB50130BBB000302019AED13C4
:10029000FDEE13FEEF13FFEC13FC02017274F8CCB9
:1002A0006480CCC86480C8F58204604FC3EB9FF5BE
:1002B000F0EA9E42F0E99D42F0E89C45F0603C5037
:1002C0001DE5825FFFE582D313CB5BCBF42B558218
:1002D000FB50280ABA002409B9002008801DE582D5
:1002E0005BFBE582D313CF5FCFF4C3132F5582FF9F
:1002F00050090EBE00050DBD00010CC3EB9FF5F0CB
:10030000EA9E42F0E99D42F0E89C45F06007CC4847
:1003100020E701B3EC22F920E73624F950037907EE
:10032000E4F42402FBE582158270021583DBF6E01B
:1003300024FB501BE96014E4F0E58215827002157D
:1003400083E004F0B40A08E4F0D9EE7401F00A2264
:10035000C2D522ED33EC3392D5FA602AB4FF33EDE7
:10036000C2E77BFF60067A037978E4227A03798119
:1003700020D5047A03797C224E614E002B494E46EB
:10038000002D494E4600E47A08F0A3DAFC7B0074A5
:100390000722C083C082ECC0E0EDC0E0EEC0E0EF19
:1003A000C0E0EA75F010A4CAABF075F04DA42BFBC9
:1003B000E435F0FCEA2410FAEB34C5FBEC34D9FC4C
:1003C000EDC2E7FF75F056A4F42411C5F0F434C56E
:1003D0008FF0A42AE5F03BE43CF020E71412058EF0
:1003E000D0E0FFD0E0FED0E0FDD0E0FC120049807C
:1003F00014F40412058ED0E0FFD0E0FED0E0FDD072
:10040000E0FC120458D082D083E0FAEDD2E7CD337D
:10041000EC332482FBE4C3CF33CFCE33CECD33CD08
:1004200033DBF37B0775F00A846004F0A31B0AE555
:10043000F0F0A38FF0740AA4FFACF08EF0740AA45D
:100440002CFEACF050010C8DF0740AA42CFDE435A8
:10045000F0F0A3DBDE740722EC4D6011E849701761
:10046000ED33EC3304600DE4FCFFFEFD22E933E8DC
:10047000330470F802019012015B58046009E4CC67
:100480002481500628500902019A2840030201974E
:10049000C0E0EB4A7044B98006D0E0FB020186EF71
:1004A0004E701CBD8008EBFFEAFEE9FD80EBE98D94
:1004B000F0A4FEE5F0020541E9CDF9EAFEEBFFEF1D
:1004C00089F0A4FCE5F0CE89F0A42EFFE435F0CD50
:1004D00089F0A42DFEE435F08067EF4E7005BD80F5
:1004E000D780C3EF8BF0A4ACF0EE8BF0A42CFCE42F
:1004F00035F0F8EF8AF0A42CE5F038FCE433CB8D2E
:10050000F0A42CFCE5F03BF8EE8AF0A42CFCE5F01E
:1005100038F8E433CF89F0A42CFCE5F038CF340070
:10052000CE89F0A42FFFE5F03EFEE433C98DF0A4A0
:100530002EFEE5F039CD8AF0A42FFFE5F03EFEE473
:100540003DFD33D0E0FB50070BBB000F02019AECDE
:100550002CFCEF33FFEE33FEED33FD0201723F80E2
:1005600000004120000042C80000447A0000461C00
:10057000400047C35000497424004B1896804CBE7D
:10058000BC205A0E1BCA6753C21C749DC5AEFB60CB
:10059000065407601C23231205BCEB543860091273
:1005A00005A81205B7120458ECF8EDF9EEFAEFCBF6
:1005B00022EB1205B780F1543803241C90055EFE2F
:1005C00093FC0EEE93FD0EEE930ECE93FF22E70901
:1005D000F608DFFA8046E709F208DFFA803E8882F3
:1005E0008C83E709F0A3DFFA8032E309F608DFFA2B
:1005F0008078E309F208DFFA807088828C83E3094F
:10060000F0A3DFFA806489828A83E0A3F608DFFA28
:10061000805889828A83E0A3F208DFFA804C80D276
:1006200080FA80C680D4806980F28033801080A6F2
:1006300080EA809A80A880DA80E280CA803389824A
:100640008A83ECFAE493A3C8C582C8CCC583CCF0F6
:10065000A3C8C582C8CCC583CCDFE9DEE7800D899D
:10066000828A83E493A3F608DFF9ECFAA9F0EDFBA4
:100670002289828A83ECFAE0A3C8C582C8CCC583EC
:10068000CCF0A3C8C582C8CCC583CCDFEADEE88045
:10069000DB89828A83E493A3F208DFF980CC88F0B7
:1006A000EF60010E4E60C388F0ED2402B4040050E8
:1006B000B9F582EB2402B4040050AF232345822312
:1006C00090061E73BB010689828A83E0225002E7EE
:1006D00022BBFE02E32289828A83E49322BB010CBF
:1006E000E58229F582E5833AF583E0225006E92583
:1006F00082F8E622BBFE06E92582F8E222E582299D
:10070000F582E5833AF583E49322BB010FF8E58295
:1007100029F582E5833AF583E028F0225009C58265
:1007200029F8E58226F622BBFE09C58229F8E225D2
:1007300082F222F8EA2583F583E9932822BB010699
:1007400089828A83F0225002F722BBFE01F322F84D
:10075000BB010DE58229F582E5833AF583E8F022B5
:100760005006E92582C8F622BBFE05E92582C8F2BB
:1007700022EF8DF0A4A8F0CF8CF0A428CE8DF0A4A9
:100780002EFE22BC000BBE0029EF8DF084FFADF0E1
:1007900022E4CCF875F008EF2FFFEE33FEEC33FCCB
:1007A000EE9DEC984005FCEE9DFE0FD5F0E9E4CE01
:1007B000FD22EDF8F5F0EE8420D21CFEADF075F0D0
:1007C00008EF2FFFED33FD4007985006D5F0F222D9
:1007D000C398FD0FD5F0EA22C5F0F8A3E028F0C5D4
:1007E000F0F8E582158270021583E038F022BB0133
:1007F0000A89828A83E0F5F0A3E022500687F00997
:10080000E71922BBFE07E3F5F009E3192289828A82
:1008100083E493F5F074019322BB0110E58229F57E
:1008200082E5833AF583E0F5F0A3E0225009E9255B
:1008300082F886F008E622BBFE0AE92582F8E2F596
:10084000F008E222E5832AF583E993F5F0A3E99322
:1008500022BB010A89828A83F0E5F0A3F0225006C8
:10086000F709A7F01922BBFE06F3E5F009F31922F8
:10087000F8BB0111E58229F582E5833AF583E8F0BA
:10088000E5F0A3F0225009E92582C8F608A6F02277
:10089000BBFE09E92582C8F2E5F008F222EF2BFF42
:1008A000EE3AFEED39FDEC38FC22C3EF9BFFEE9AE9
:1008B000FEED99FDEC98FC22E88FF0A4CC8BF0A41F
:1008C0002CFCE98EF0A42CFC8AF0EDA42CFCEA8E22
:1008D000F0A4CDA8F08BF0A42DCC3825F0FDE98F45
:1008E000F0A42CCD35F0FCEB8EF0A4FEA9F0EB8F3C
:1008F000F0A4CFC5F02ECD39FEE43CFCEAA42DCE09
:1009000035F0FDE43CFC2275F008758200EF2FFF06
:10091000EE33FECD33CDCC33CCC58233C5829BEDD7
:100920009AEC99E58298400CF582EE9BFEED9AFDDB
:10093000EC99FC0FD5F0D6E4CEFBE4CDFAE4CCF98B
:10094000A88222B800C1B90059BA002DEC8BF084FE
:10095000CFCECDFCE5F0CBF97818EF2FFFEE33FECC
:10096000ED33FDEC33FCEB33FB10D703994004EB84
:1009700099FB0FD8E5E4F9FA227818EF2FFFEE3350
:10098000FEED33FDEC33FCC933C910D7059BE99A62
:100990004007EC9BFCE99AF90FD8E0E4C9FAE4CCF3
:1009A000FB2275F010EF2FFFEE33FEED33FDCC335D
:1009B000CCC833C810D7079BEC9AE899400AED9B46
:1009C000FDEC9AFCE899F80FD5F0DAE4CDFBE4CC25
:1009D000FAE4C8F922EF4BFFEE4AFEED49FDEC4880
:1009E000FC22C3E49FFFE49EFEE49DFDE49CFC2208
:1009F000EB9FF5F0EA9E42F0E99D42F0E89C45F05D
:100A000022E8600FECC313FCED13FDEE13FEEF13B1
:100A1000FFD8F122E8600FEFC333FFEE33FEED3372
:100A2000FDEC33FCD8F122BB010789828A83020ADC
:100A3000915005E9F8020B8EBBFE05E9F8020B9A0E
:100A400089828A83020BA6BB010DE58229F582E526
:100A5000833AF583020A915007E92582F8020B8E4A
:100A6000BBFE07E92582F8020B9AE58229F582E5AB
:100A7000833AF583020BA6BB010789828A83020AA7
:100A8000A95005E9F8020BB6BBFE05E9F8020BC256
:100A900022E0FCA3E0FDA3E0FEA3E0FF22E0F8A338
:100AA000E0F9A3E0FAA3E0FB22ECF0A3EDF0A3EE63
:100AB000F0A3EFF022A8828583F0D083D082120ABF
:100AC000CC120ACC120ACC120ACCE473E493A3C56C
:100AD00083C5F0C583C8C582C8F0A3C583C5F0C56A
:100AE00083C8C582C822E0FBA3E0FAA3E0F922F89C
:100AF000E0FBA3A3E0F925F0F0E582158270021572
:100B000083E0FA38F022EBF0A3EAF0A3E9F022D078
:100B100083D082F8E4937012740193700DA3A393B1
:100B2000F8740193F5828883E4737402936860EF2C
:100B3000A3A3A380DFEC8EF0A4CCC5F0CCCDF8EF5E
:100B4000A4CEC5F02DFDE43CFCE8A42EC8C5F03DC4
:100B5000FDE43CFCEFA4FFE5F028FEE43DFDE43CB1
:100B6000FC22EF4E6012EF60010EEDBB010B89829B
:100B70008A83F0A3DFFCDEFA2289F05007F709DF51
:100B8000FCA9F022BBFEFCF309DFFCA9F022E6FC85
:100B900008E6FD08E6FE08E6FF22E2FC08E2FD08A2
:100BA000E2FE08E2FF22E493FC740193FD740293D9
:100BB000FE740393FF22ECF608EDF608EEF608EF5C
:100BC000F622ECF208EDF208EEF208EFF2229009BC
:100BD000B1EFF07F011297ED1297FD783DE6B40F6B
:100BE00003020FA6E490F103F090F104F090F105F8
:100BF000F0783DE6701D08E6B4221808E6FFD394AD
:100C00000F5010E490F103F090F104F090F105EF33
:100C1000F08013783DE690F103F008E690F104F0DF
:100C200008E690F105F0E47813F69009B1E0FF785A
:100C300013E6FEC39F5026EE601390F105E0B4FF6B
:100C40000690F104E004F090F105E004F090F15416
:100C5000E0FF74502EF8A60778130680CD783DE6A5
:100C6000FC706F08E6706B7812F6783FE6247F60C0
:100C70002314603614604924036003020FF17812D4
:100C8000E6FF1290A89009B1E0FF781206E66F70B7
:100C900003020FF17812E6FF1284BC9009B1E0FF65
:100CA000781206E66F7003020FF17812E6FF129ACF
:100CB000889009B1E0FF781206E66F7003020FF129
:100CC0007812E6FF129A8F9009B1E0FF781206E6DB
:100CD0006F22EC6003020E0B783EE66402600302B2
:100CE0000E0B7812F6783FE6120B0F0D13000D294C
:100CF000010D3F020D55030D6B040D81050D970687
:100D00000DAD070DBF100DD3120DE7140DFB16002E
:100D1000000FF17812E6FF1295D39009B1E0FF7849
:100D20001206E66F7003020FF17812E6FF1295E6E5
:100D30009009B1E0FF781206E66F7003020FF178B8
:100D400012E6FF1277EF9009B1E0FF781206E66F26
:100D50007003020FF17812E6FF1279259009B1E0D5
:100D6000FF781206E66F7003020FF17812E6FF12A9
:100D700082CD9009B1E0FF781206E66F7003020F92
:100D8000F17812E6FF129A439009B1E0FF7812065B
:100D9000E66F7003020FF17812E6FF1288EF9009F8
:100DA000B1E0FF781206E66F7003020FF17812E6E9
:100DB000FF1290CD9009B1E0FF781206E66F22E4B1
:100DC000FF12870E9009B1E0FF781206E66F7003FC
:100DD000020FF17F0112870E9009B1E0FF78120631
:100DE000E66F7003020FF17F0212870E9009B1E0E7
:100DF000FF781206E66F7003020FF17F0312870E71
:100E00009009B1E0FF781206E66F22783DE66003B4
:100E1000020F4708E664206003020F477812F67855
:100E20003FE6120B0F0E53020E69030E7F040E8E67
:100E3000050E9D060EAC070EBB080ECA090ED90A98
:100E40000EE80B0EF70C0F0D0D0F230E0F350F00D4
:100E5000000FF17812E6FF1295D39009B1E0FF7808
:100E60001206E66F7003020FF17812E6FF1295E6A4
:100E70009009B1E0FF781206E66F7003020FF1905F
:100E800009B1E0FF781206E66F7003020FF19009D6
:100E9000B1E0FF781206E66F7003020FF19009B11E
:100EA000E0FF781206E66F7003020FF19009B1E0DF
:100EB000FF781206E66F7003020FF19009B1E0FFB0
:100EC000781206E66F7003020FF19009B1E0FF7827
:100ED0001206E66F7003020FF19009B1E0FF78127D
:100EE00006E66F7003020FF19009B1E0FF78120679
:100EF000E66F7003020FF17812E6FF1277EF9009A8
:100F0000B1E0FF781206E66F7003020FF17812E687
:100F1000FF1279259009B1E0FF781206E66F7003A1
:100F2000020FF17812E6FF1282CD9009B1E0FF784E
:100F30001206E66F227812E6FF129A439009B1E09A
:100F4000FF781206E66F22783DE6FF700C08E6B4E3
:100F5000040708E67003020FF1EF7040783EE66484
:100F60002270397812F6783FE614601824F1602276
:100F700024FC6023241470799009B1E0FF781206F4
:100F8000E66F606D9007A4E0FF7812E62450F8A6A3
:100F900007227850760822E47850F622783DE6B4AD
:100FA0000F1608E670129009B1E0FF7E007D007B0D
:100FB000007A007950020B62783DE66406703208D0
:100FC000E6FFB4801408E6B4290F7862E6B4012184
:100FD00078507604E47862F622EFB49414783FE611
:100FE000B4930E7863E6B4010878507610E4786321
:100FF000F622E490058EF0A3F0A3F0A3F0A3F02274
:1010000021052408080179010000410B3800440B38
:1010100034000000006200059500FFFFFFFFFFFFA6
:1010200000506CD40311000000011E0104A50C0740
:10103000780EEE95A3544C99260F4F4F00000001F7
:101040000101010101010101010101010101010889
:10105000E80030F2705A80B0588A00408463000083
:101060001E08E80030F2705A80B0588A004084634D
:1010700000001E000000FD00374132463C000A20FF
:101080002020202020000000FC00445020494E0A6F
:10109000202020202020200133020312404510048C
:1010A000010312230F0407834F000000000000001B
:1010B0000000000000000000000000000000000030
:1010C0000000000000000000000000000000000020
:1010D0000000000000000000000000000000000010
:1010E0000000000000000000000000000000000000
:1010F00000000000000000000000000000000000F0
:1011000000000000000000000000000000000000DF
:1011100000000000000000002B00000000000000A4
:1011200000000000000000000000000000000000BF
:1011300000000000000000000000000000000000AF
:10114000000000000000000000000000000000009F
:10115000000000000000000000000000000000008F
:10116000000000000000000000000000000000007F
:10117000000000000000000000000000000000006F
:10118000000000000000000000000000000000005F
:10119000000000000000000000000000000000004F
:1011A000000000000000000000000000000000003F
:1011B000000000000000000000000000000000002F
:1011C000000000000000000000000000000000001F
:1011D000000000000000000000000000000000000F
:1011E00000000000000000000000000000000000FF
:1011F00000000000000000000000000000000000EF
:1012000000000000000000000000000000000000DE
:1012100000000000000000000042057F00004405BF
:1012200081000000004105850041058600440588D5
:101230000000000041058C0041058D00440B1100A9
:10124000000000440B1500000000440BC500000026
:10125000005A0B5900024414089807800058002CCB
:1012600000940465043800040005002401014100D5
:101270000000410001004100020041000300410064
:10128000040042000500004200070000420009007F
:101290000042000B000042000D000042000F000061
:1012A0004A00110000000000000000000041001B87
:1012B0000044001C0000000041002000410C13010C
:1012C000410C1200410C1500410C14005A0B730024
:1012D00058002C009407800898000400050024049E
:1012E000380465000249F000004A0A74000000005A
:1012F000000000000000440A7E00000000410A8255
:1013000000410C1F00410BF200410BF108410C039E
:1013100008410BF008620007B100FFFFFFFFFFFF6D
:10132000004DD904AA01010101011D0103807A4485
:10133000780A0DC9A05747982712484C2108008108
:1013400080A9C0714FB30001010101010101010831
:10135000E80030F2705A80B0588A00C2AD420000F6
:101360001E08E80030F2705A80B0588A00C2AD42C0
:1013700000001E000000FC004C54344B3630433457
:1013800034340A2020000000FD0017790E883C004C
:101390000A2020202020200177020361F05861609C
:1013A0005D5E5F621F101405130420223C3E120391
:1013B000110265663F402C097F07097F075F7F00A8
:1013C000577F00837F00006E030C001000B83C2F95
:1013D00000800102030467D85DC401788003EB013B
:1013E00046D000440B888660768FE200CBE305DFB1
:1013F00001E40F030030E3060D01011D007251D01E
:101400001E206E285500C2AD4200001E00000000E4
:101410000000000000000000F300000000000000D9
:1014200000000000000000000000000000000000BC
:1014300000000000000000000000000000000000AC
:10144000000000000000000000000000000000009C
:10145000000000000000000000000000000000008C
:10146000000000000000000000000000000000007C
:10147000000000000000000000000000000000006C
:10148000000000000000000000000000000000005C
:10149000000000000000000000000000000000004C
:1014A000000000000000000000000000000000003C
:1014B000000000000000000000000000000000002C
:1014C000000000000000000000000000000000001C
:1014D000000000000000000000000000000000000C
:1014E00000000000000000000000000000000000FC
:1014F00000000000000000000000000000000000EC
:1015000000000000000000000000000000000000DB
:101510000000000000000000005A0B91000249F09A
:10152000089807800058002C0094046504380004D3
:10153000000500240000410BDB00410BDC00410BE7
:10154000DD00410BDE00440BDF00000000440BE334
:1015500000000000440BE700000000440BEB00001B
:101560000000410C2000410C2100410C22000090A1
:1015700007ABE0120B0F159E0115A60215E203152D
:10158000F80416080516610617BF0719280819CCB4
:10159000091A1E0A1A440B1AC00C00001AC5129A26
:1015A000D57F02021AC29007ACE0B4010E7B017A2B
:1015B000057988129A55E49007ACF07B017A057999
:1015C000887DC87C00127E1CEF64016003021AC58E
:1015D0001297CD900795E0FF7D2812837B7F030251
:1015E0001AC29007A1E064016003021AC51272D307
:1015F000128E317F04021AC29007ADE064016003CD
:10160000021AC57F05021AC29007ACE0B4010E7B36
:10161000017A057988129A55E49007ACF07B017A3B
:101620000579887D647C00127E1CEF6401600302F2
:101630001AC51295C01299041265D612985C7F06DD
:101640001288AD90079AE064016003021AC5900504
:1016500094E0FF7D01128E637BFF7A1E796302178F
:10166000BA9007ACE0B401137B017A057988129A2D
:1016700055E49007ACF090058D04F0129957BF0126
:10168000057F07021AC27B017A0579887D107C27C5
:10169000127E1CEF64016003021AC590058DE07094
:1016A00003021AC5E4F07BFF7A1E796D7F0112797F
:1016B000BE7F007E017D007C00128C889009E0EFE7
:1016C000F07BFF7A1E79817F011279BE7F017E0156
:1016D0007D007C00128C889009E0EFF07BFF7A1E81
:1016E00079937F011279BE7F037E017D007C001219
:1016F0008C889009E0EFF07BFF7A1E79A57F0112BC
:1017000079BE7F047E017D007C00128C889009E008
:10171000EFF07BFF7A1E79B77F011279BE7F047EDE
:10172000017D007C00128C889009E0EFF07BFF7A4D
:101730001E79C97F011279BE7F047E017D007C0085
:10174000128C889009E0EFF07BFF7A1E79DB7F0135
:101750001279BE7F077E017D007C00128C88900983
:10176000E0EFF07BFF7A1E79ED7F011279BE7F02F8
:101770007E027D007C00128C889009E0EFF07BFFF8
:101780007A1E79FF7F011279BE7F037E027D007C85
:1017900000128C889009E0EFF07BFF7A1F79117FAF
:1017A000011279BE7F047E027D007C00128C88903D
:1017B00009E0EFF07BFF7A1F79237F010219C490C3
:1017C00007ACE0B4010E7B017A057988129A55E4E2
:1017D0009007ACF07B017A0579887D587C02127EF7
:1017E0001CEF64016003021AC57BFF7A1F7935780C
:1017F00031E69009E0F008E6A3F07F011279BE7BA4
:10180000FF7A1F79577F011279BE7F007E017D002C
:101810007C00128C889009E0EFF07BFF7A1E7981C2
:101820007F011279BE7F017E017D007C00128C88D1
:101830009009E0EFF07BFF7A1E79937F011279BE69
:101840007F037E017D007C00128C889009E0EFF020
:101850007BFF7A1E79A57F011279BE7F047E017D10
:10186000007C00128C889009E0EFF07BFF7A1E79F3
:10187000B77F011279BE7F047E017D007C00128C4F
:10188000889009E0EFF07BFF7A1E79C97F01127919
:10189000BE7F047E017D007C00128C889009E0EF01
:1018A000F07BFF7A1E79DB7F011279BE7F077E0114
:1018B0007D007C00128C889009E0EFF07BFF7A1E9F
:1018C00079ED7F011279BE7F027E027D007C0012DD
:1018D0008C889009E0EFF07BFF7A1E79FF7F011280
:1018E00079BE7F037E027D007C00128C889009E027
:1018F000EFF07BFF7A1F79117F011279BE7F047EA2
:10190000027D007C00128C889009E0EFF07BFF7A6A
:101910001F79237F011279BE12282E12529DE49066
:10192000058CF07F08021AC29007ACE0B401137F67
:101930000412870E7B017A057988129A55E4900784
:10194000ACF07B017A0579887DC87C00127E1CEFA3
:1019500064016003021AC57832E6FF12756DEF600C
:10196000667BFF7A1F796CE4FF1279BE90058CE0EC
:1019700004F07BFF7A1F7977E4FF1279BE12282EDC
:1019800012529D7F0412870E7B017A057988129A84
:101990005590058CE0B405177BFF7A1F7985E4FF2D
:1019A0001279BE900593E0FF7825E6FD02737E90E4
:1019B000058CE0D394085003021AC5E4F07BFF7A4B
:1019C0001F798FFF0279BE7F09021AC29007ACE02F
:1019D000B401141299BA1299DB7B017A0579881245
:1019E0009A55E49007ACF07B017A0579887D587CA4
:1019F00002127E1CEF64016003021AC5124A19EF3D
:101A000070177BFF7A1F799B7F011279BE12928D2E
:101A10007B017A057988029A557F0A021AC29007DB
:101A2000ACE0B401101280831299C5E4FF12971242
:101A3000E49007ACF0124836EF64016003021AC567
:101A40007F0B807E9007ACE0B4011A124428E4FFBB
:101A5000123227EF606F7B017A057988129A55E47C
:101A60009007ACF022128D2BEF640270347BFF7A6A
:101A70001F79A87F011279BEE4FDFF1280ED900965
:101A8000E0120AA97BFF7A1F79BA7F011279BE7D25
:101A900001E4FF1291821291A4120FF27F0C1288BE
:101AA000AD7B017A0579887D407C06127E1CBF01E2
:101AB000147BFF7A1F79CD7F011279BE7F088002E7
:101AC0007F0D1288AD220A2D2D52785374617465F2
:101AD000203D20256264000A44505258000A457295
:101AE000726F72203D20307825303262782C307849
:101AF00025303262782C307825303262782C30787C
:101B000025303262782C307825303262782C30786B
:101B100025303262782C307825303262782C30785B
:101B20002530326278000A4D5649443020616E6497
:101B3000204D56494431203D20307825303262789E
:101B40002C307825303262782C307825303262782B
:101B50002C307825303262782C307825303262781B
:101B60002C30782530326278000A4D5649443220B4
:101B7000616E64204D56494433203D203078253035
:101B80003262782C307825303262782C30782530EB
:101B90003262782C307825303262782C30782530DB
:101BA0003262782C30782530326278000A4D534109
:101BB000203D20307825303262782C307825303244
:101BC00062782C307825303262782C3078253032AB
:101BD00062782C000A4D4953433031203D20307843
:101BE00025303262782C307825303262782C000A29
:101BF000307846324446203D2030782530326278B5
:101C0000000A48444350204B65792056616C696452
:101C1000000A207563506978656C456E636F64696E
:101C20006E673A307825303262782C756342697479
:101C300044657074683A307825303262782C000A36
:101C4000207563436F6C6F72696D65747279466F4E
:101C5000726D61743A30782530326278000A5653DA
:101C600043000A6C616E65306572726F72203D20B0
:101C700030782578000A6C616E65316572726F721A
:101C8000203D2030782578000A6C616E65326572DF
:101C9000726F72203D2030782578000A6C616E6585
:101CA000336572726F72203D2030782578000A53B8
:101CB0006F66744571203D20307825303262782C73
:101CC000307825303262782C307825303262782CAA
:101CD00030782530326278000A494E54475F4D2BE8
:101CE000465241435F4B3A20307825303262782C9F
:101CF000307825303262782C307825303262782C7A
:101D0000307825303262783B000A44706C6C206C6D
:101D10006F636B2830784336384429203D20307873
:101D20002530326278000A4153505F504B543A20BC
:101D3000307825303262783B000A417564696F5F04
:101D400053747265616D20534450204842307E4880
:101D50004233203D20307825303262782C3078258F
:101D6000303262782C307825303262782C30782509
:101D7000303262783B000A41756420696E666F3AC2
:101D800020307825303262782C30782530326278F5
:101D90002C307825303262782C30782530326278D9
:101DA0002C307825303262783B000A41756420413E
:101DB00070706561722E000A417564204469736118
:101DC00070706561722E000A4653204368616E6729
:101DD000652E000A617564206673203D20256264CB
:101DE000000A31322E3238384D204D636C6B000AB8
:101DF00041756420506C6C206C6F636B2E000A413F
:101E00007564706C6C20526563616C692E000A41C8
:101E10007564706C6C20556E6C6F636B2E000A6875
:101E2000646370497271000A484443505F256264DC
:101E300058000A636F6C6F72207370616365204392
:101E400068616E67652E000A50435220756E737488
:101E500061626C652E000A4D5341204368616E67D4
:101E6000652E000A4850442048696768000A4450BB
:101E700020547261696E696E67204661696C6564A1
:101E8000000A44504344313030203D2030782562F0
:101E9000782C000A44504344313031203D203078C2
:101EA0002562782C000A44504344313033203D20D1
:101EB00030782562782C000A445043443130342075
:101EC0003D2030782562782C000A4450434431305C
:101ED00035203D2030782562782C000A4450434458
:101EE000313036203D2030782562782C000A44506D
:101EF0004344313037203D2030782562782C000A69
:101F000044504344323032203D2030782562782CD2
:101F1000000A44504344323033203D20307825625B
:101F2000782C000A44504344323034203D2030782D
:101F30002562782C000A4C696E6B526174655F43B0
:101F40006F756E74203D20307825303262782C30E9
:101F5000782530326278000A445020547261696EEC
:101F6000696E672053756363657373000A646174F7
:101F700061206572722E000A526573656172636832
:101F80002045512E000A436472205273742E000AB9
:101F90005265636F6E6E6563742E000A64652D7002
:101FA0006B74206572722E000A2050435220616CBF
:101FB0006C20737461626C653B000A4450696E4624
:101FC000726571203D20256C754B687A000A50437C
:101FD000526C676320527374003F3F3F2A262422CD
:101FE00021201F1E1D1C1B1A1917000000E50824C4
:101FF00047F582E4340AF583E0050822900A44306C
:102000000703900A47E475F001120AEF0206C420A4
:1020100000E97F2ED2008018EF540F2490D4344072
:10202000D4FF30040BEF24BFB41A0050032461FF27
:10203000E50960021509050CE50C7002050B300777
:102040000E900A44E475F001120AEFEF02073D0218
:10205000905B7403D2078003E4C207F508900A443A
:10206000120B06E4F509F50BF50CE50960077F2076
:1020700012203080F5750AFFC201C200C202C203FD
:10208000C205C206C208121FFCFF700D3007057F93
:1020900000122041AF0CAE0B22B4255FC2D5C204A2
:1020A000121FFCFF24D0B40A00501A75F00A7809F8
:1020B00030D50508B6FF0106C6A426F620D5047063
:1020C00002D20380D924CFB41A00EF5004C2E5D263
:1020D00004022333D20180C6D20080C0D20280BC69
:1020E000D2D580BAD20580B47F20122030200207DA
:1020F0007401B5090040F1121FEDFF1220300220DB
:102100006AD208D2068095121FEDFB121FEDFA125B
:102110001FEDF94A4B700679317A247BFF20022E9D
:10212000E509602A7E008E827583001206DD600656
:102130000EEE650A70F0C2D5EBC0E0EAC0E0E9C07F
:10214000E0EE122394D0E0F9D0E0FAD0E0FB1206E2
:10215000C4FF60AAEBC0E0EAC0E0E9C0E0122030B2
:10216000D0E02401F9D0E03400FAD0E0FBE50A0425
:1021700060DCD50AD98087D20280A212237660F76C
:10218000E50A700104120316A90A600DE50A600948
:1021900014F50A12241EEF60F3EA30E702F404C3D8
:1021A000995079EAF4250A0430E701E404F50A803D
:1021B0000D12237660C1EA050A250A120316EA9079
:1021C0000A73F030E701E4250A04D50A042005016A
:1021D00014122394E4C0E012241E900A73E06013EA
:1021E00020E70714F0122018802204F0D0E014C079
:1021F000E07F00122018E50A600712200F150A8000
:102200000B30050312200FD0E002206AD0E00480DA
:10221000C4122376609EE50A04120316900A73EA3C
:10222000F0E50A200502600104240412239474FFDF
:1022300004C0E012241E122018E50A2005026003E3
:1022400012200FD0E0B50AE87F45122022900A73D1
:10225000E07F2B30E7047F2DF404C0E0122030D063
:10226000E075F00A84C0F0122019D0E012201902A3
:10227000206A791080027908C206C2088008D2D587
:10228000790A8004790AC2D5E50A047002F50AE4E5
:10229000FAFDFEFF121FEDFC7B08200113121FED5B
:1022A000FD7B1030000A121FEDFE121FEDFF7B2098
:1022B000EC3382D592D55013C3E43000069FFFE47F
:1022C0009EFEE42001039DFDE49CFCE4CBF8C201EA
:1022D000EC700CCFCECDCCE824F8F870F38017C3A7
:1022E000EF33FFEE33FEED33FDEC33FCEB33FB99C4
:1022F0004002FB0FD8E9EB300105F8D0E0C448B24A
:1023000001C0E00AEC4D4E4F78207B0070C2EAB568
:102310000A0040BCC0E0122396D0F0D0E0200104B7
:10232000C4C0E0C4B201C0F0122019D0F0D5F0EB67
:1023300002206A120B0F21075322725820D84C201A
:10234000D44222764F227E44227E4920ED432284CD
:102350005521B146221145217B4724515020DC2DC7
:1023600020E02E21032B20E423210120243A2A20DF
:102370009C48000020FBE50AB4FF03750A06121F03
:10238000EDFC121FEDFD121FEDFE121FEDFF900A76
:102390006C020353790AA2D5200314300509B91041
:1023A000020404B9080104A2D52006025001042049
:1023B00002689202B509005034C0E07F2030031952
:1023C0007F30A20272067205500F1223EDC202C2C4
:1023D00006C205C2087F30800F300503E9C0E01255
:1023E0002030300503D0E0F9D0E0B509CC30051736
:1023F0007F30B9100C1220307F583004077F78806E
:1024000003B908031220303002057F2D0220307FEF
:10241000202008F87F2B2006F322920280CF7F0035
:10242000B40700500B246CF582E4340AF583E0FF16
:1024300022286E756C6C2900D201121FED3001F854
:10244000C201780930D50108F602209C2D5043497D
:1024500058121FED2403B405004001E490244C936E
:10246000122021743A122021D2037509040222722B
:10247000E47BD07A07F9F8900B28120A91120943ED
:102480009009B3EEF0A3EFF0E47BD07A07F9F8906F
:102490000B2C120A911209439009B5EEF0A3EFF04C
:1024A000900B1FE0FB70189009B5E0FEA3E07803E5
:1024B000CEC313CE13D8F9F0EE9009B5F080179083
:1024C00009B5E0FEA3E0FF7C007D071207839009B9
:1024D000B5EEF0A3EFF0900B1AE064016004EBB4EA
:1024E000010D9009B6E025E0F09009B5E033F090D9
:1024F00009B5E0FEA3E0FF900B26E0FD7C0012078B
:10250000719009B5EEF0A3EFF012961F9009B7EEA7
:10251000F0A3EFF01296329009B9EEF0A3EFF0902D
:102520000B46E0C313FCA3E013FD900B44E0C31380
:10253000FEA3E0132DFFEE3CFE9009B5E0FCA3E006
:10254000FD1207719009B3E0FCA3E0FD120783E4DC
:10255000FCFD9009CB120AA99009B7E0FEA3E0FFA9
:10256000E4FCFD9009CB120A9DD31209F04049907A
:102570000B46E013FCA3E013FD900B44E0C313FEF5
:10258000A3E0132DFFEE3CFE9009B5E0FCA3E0FDB7
:102590001207719009B3E0FCA3E0FD1207839009D4
:1025A000B7E0FCA3E0FDC3EF9DFFEE9CFEE4FCFD65
:1025B0009009C3120AA9800A9009C3120AB5000043
:1025C0000000900B26E064016003022698900B4601
:1025D000E0C313FCA3E013FD900B44E0C313FEA380
:1025E000E0132DFDEE3CFC900B40E0C313FEA3E096
:1025F000132DFFEC3EFE9009B5E0FCA3E0FD120BAD
:10260000359009C7120AA99009B3E0FEA3E0FFFBC9
:10261000AA06E4F9F89009C7120A91120943900931
:10262000CB120AA99009B9E0FEA3E0FF9009B8E037
:102630002FFF9009B7E03EFEE4FCFD9009CB120AA3
:102640009DD31209F040459009B3E0FEA3E0FFFBE3
:10265000AA06E4F9F89009C7120A91120943C006C4
:10266000C0079009B7E0FEA3E0FBAA06E4F9F8D0A2
:1026700007D0061208AAC006C007A3E0FEA3E0FB2D
:10268000AA06E4D007D0061208AA80129009C71241
:102690000AB500000000800C9009C3120A9190094D
:1026A000C7120AA99009C7120A919009C3120A9D7C
:1026B000D31209F0400C9009C3120A919009C71275
:1026C0000AA9900B24E025E0FFE433AB07FA339529
:1026D000E0F9F8E4FF7E80FDFC1209439009BF1287
:1026E0000AA9900B44E0C313FEA3E013FFE4FCFD32
:1026F0009009BF120A9D12089DA804A905AA06AB5D
:1027000007900B46E0C313FEA3E013FFE4FCFD12A9
:10271000089DA804A905AA06AB079009B5E0FEA389
:10272000E0FFE4FCFD1208B89009BF120AA9900965
:10273000B3E0FEA3E0FFFBAA06E4F9F89009BF129C
:102740000A91120943C006C0079009B7E0FEA3E052
:10275000FBAA06E4F9F8D007D0061208AA9009BF30
:10276000120AA97BFF7A4279929009BF120A9190CE
:1027700009E0120AA97F011279BE7BFF7A4279A58E
:102780009009C3120A919009E0120AA97F011279F7
:10279000BE7BFF7A4279B99009C7120A919009E08D
:1027A000120AA97F011279BE9009C7120A919009F5
:1027B000BF120A9DD31209F0405F7F407E0D7D035A
:1027C0007C00900B30120A9DC31209F07BFF401D64
:1027D0007A4279CD7F011279BE9009C7120A9D9085
:1027E00009BF120A911208AAE47B14801B7A42796D
:1027F000D27F011279BE9009C7120A9D9009BF12BB
:102800000A911208AAE47B0AFAF9F812094390091E
:10281000C7120A9D12089D80069009C7120A91905E
:1028200009BB120AA99009BB120A9102926CE490AA
:1028300009BAF09009B8F09009B6F09009B4F09098
:1028400009BBF09009B9F09009B7F09009B5F07F95
:102850000112981DE4FB7A02EB7004AF028005C3FD
:1028600074139AFFA907E9901FD99390F1BBF090D8
:10287000F1BCF090F1BDF090F1BEF01299FC7F0137
:102880007E001291C67F0412870EE49009B3F09087
:1028900009B3E004F0C39432400302292F7F017E84
:1028A000001291C6E4FF12879C9009BCEEF0A3EFE2
:1028B000F07F0112879C9009BEEEF0A3EFF07F023B
:1028C00012879C9009C0EEF0A3EFF07F0312879C63
:1028D0009009C2EEF0A3EFF07832E6FFC394014016
:1028E000109009BDE094109009BCE09480400280F3
:1028F0003EEFC3940240109009BFE094109009BECF
:10290000E09480400280287832E664047081C390AD
:1029100009C1E094109009C0E094805012C390095E
:10292000C3E094109009C2E09480500302288F788D
:1029300032E6FFC39401402874B42BF582E43409D5
:10294000F583E0701BD39009BDE094029009BCE0D0
:102950009480500C74B42BF582E43409F583E9F0CB
:10296000EFC39402402874B62BF582E43409F58352
:10297000E0701BD39009BFE094029009BEE0948000
:10298000500C74B62BF582E43409F583E9F0783203
:10299000E6B4042874B82BF582E43409F583E070BA
:1029A0001BD39009C1E094029009C0E09480500CC0
:1029B00074B82BF582E43409F583E9F07832E6FF48
:1029C000B4042874BA2BF582E43409F583E0701B53
:1029D000D39009C3E094029009C2E09480500C7433
:1029E000BA2BF582E43409F583E9F0EFB4011274EF
:1029F000B42BF582E43409F583E0D39400400280DF
:102A0000787832E6B4022274B42BF582E43409F506
:102A100083E0D39400401274B62BF582E43409F5B8
:102A200083E0D39400400280507832E66404704022
:102A300074B42BF582E43409F583E0D3940040307C
:102A400074B62BF582E43409F583E0D3940040207A
:102A500074B82BF582E43409F583E0D39400401078
:102A600074BA2BF582E43409F583E0D3940050095D
:102A70000AEA64126003022858EB7006EAC3941253
:102A800050090BEB64026003022856900799740802
:102A9000F0900798F0900797F0900796F07832E65C
:102AA000147003022B5214607324FE6003022B88FF
:102AB0009009BAE0FFC39412502CEF7004A3E060B9
:102AC000259009BAE0FFA3E0FEC39F400FEEFDEFA3
:102AD0002DFFE433A2E713EF13FF80059009BAE05E
:102AE000FF900799EFF09009B8E0FFC39412502CC3
:102AF000EF7004A3E060259009B8E0FFA3E0FEC3F7
:102B00009F400FEEFDEF2DFFE433A2E713EF13FF1D
:102B100080059009B8E0FF900798EFF09009B6E0C3
:102B2000FFC39412502CEF7004A3E060259009B607
:102B3000E0FFA3E0FEC39F400FEEFDEF2DFFE43367
:102B4000A2E713EF13FF80059009B6E0FF90079707
:102B5000EFF09009B4E0FFC39412502CEF7004A37F
:102B6000E060259009B4E0FFA3E0FEC39F400FEEB4
:102B7000FDEF2DFFE433A2E713EF13FF800590096B
:102B8000B4E0FF900796EFF022EDD39401400302EA
:102B90002ED7EF120B0F2C36002CB8022C43032C2F
:102BA0006A042DA2062C77072CC5092CD20A2CDF2B
:102BB0000B2E730D2D060E2D130F2D54102D61119C
:102BC0002D20122D2D132D3A142D47152D6E162D57
:102BD0007B172D95182D88192DAF1A2DBC1B2DC9CB
:102BE0001C2DD61D2DE31E2DF01F2DFD202E0A219C
:102BF0002E17222E24232E31242E3C252E47262E1E
:102C000052272E94282E68292EC72A2EB62B2EA5A1
:102C10002C2E5D2D2E7E2E2E892F2C50302C5D31AA
:102C20002C84322C91332CEC342CF9352C9E362C00
:102C3000AB3700002ED7ED90D461B40103022E9B78
:102C4000022EA0ED90D461B40103022EAC022EB18D
:102C5000ED90D461B40103022EBD022EC2ED90D4DA
:102C600061B40103022ECE022ED3ED90D462B401E2
:102C700003022E9B022EA0ED90D462B40103022E1B
:102C8000AC022EB1ED90D462B40103022EBD022E2F
:102C9000C2ED90D462B40103022ECE022ED3ED9089
:102CA000D463B40103022E9B022EA0ED90D463B432
:102CB0000103022EAC022EB1ED90D463B4010302E5
:102CC0002EBD022EC2ED90D463B40103022ECE02BB
:102CD0002ED3ED90D464B40103022E9B022EA0EDFE
:102CE00090D464B40103022EAC022EB1ED90D464F2
:102CF000B40103022EBD022EC2ED90D464B40103D0
:102D0000022ECE022ED3ED90D465B40103022E9B89
:102D1000022EA0ED90D465B40103022EAC022EB1B8
:102D2000ED90D465B40103022EBD022EC2ED90D405
:102D300065B40103022ECE022ED3ED90D466B40109
:102D400003022E9B022EA0ED90D466B40103022E46
:102D5000AC022EB1ED90D466B40103022EBD022E5A
:102D6000C2ED90D466B40103022ECE022ED3ED90B4
:102D7000D467B40103022E9B022EA0ED90D467B459
:102D80000103022EAC022EB1ED90D467B401030210
:102D90002EBD022EC2ED90D467B40103022ECE02E6
:102DA0002ED3ED90D468B40103022E9B022EA0ED29
:102DB00090D468B40103022EAC022EB1ED90D46819
:102DC000B40103022EBD022EC2ED90D468B40103FB
:102DD000022ECE022ED3ED90D469B40103022E9BB5
:102DE000022EA0ED90D469B40103022EAC022EB1E4
:102DF000ED90D469B40103022EBD022EC2ED90D431
:102E000069B40103022ECE022ED3ED90D46AB40130
:102E100003022EAC022EB1ED90D46AB40103022E4F
:102E2000BD022EC2ED90D46AB40103022ECE022E52
:102E3000D3ED90D46BB4010280618064ED90D46BCB
:102E4000B401028067806AED90D46BB40102806D9A
:102E50008070ED90D46BB4010280738076ED90D4D5
:102E60006CB4010280358038ED90D46CB4010280DE
:102E70003B803EED90D46CB4010280418044ED90E3
:102E8000D46DB4010280148017ED90D46DB40102AA
:102E9000801A801DED90D46FB40105E04440F0220B
:102EA000E054BFF022ED90D46FB40105E04410F07F
:102EB00022E054EFF022ED90D46FB40105E0440419
:102EC000F022E054FBF022ED90D46FB40105E04411
:102ED00001F022E054FEF022EDD3940140030232CF
:102EE00026EF120B0F2F85003007022F92032FB908
:102EF0000430F1062FC60730140930210A302E0B9A
:102F000031C20D30550E30620F30A31030B0113089
:102F10006F12307C1330891430961530BD1630CACC
:102F20001730E41830D71930FE1A310B1B31181C3A
:102F300031251D31321E313F1F314C203159213195
:102F40006622317323318024318B2531962631A1BD
:102F50002731E32831B72932162A32052B31F42CD8
:102F600031AC2D31CD2E31D82F2F9F302FAC312FBA
:102F7000D3322FE033303B343048352FED362FFA43
:102F80003700003226ED90D461B401030231EA0229
:102F900031EFED90D461B401030231FB023200ED58
:102FA00090D461B4010302320C023211ED90D4616D
:102FB000B4010302321D023222ED90D462B4010347
:102FC0000231EA0231EFED90D462B401030231FB29
:102FD000023200ED90D462B4010302320C023211CD
:102FE000ED90D462B4010302321D023222ED90D47E
:102FF00063B401030231EA0231EFED90D463B4010E
:10300000030231FB023200ED90D463B401030232BB
:103010000C023211ED90D463B4010302321D02326E
:1030200022ED90D464B401030231EA0231EFED9055
:10303000D464B401030231FB023200ED90D464B4D5
:10304000010302320C023211ED90D464B401030288
:10305000321D023222ED90D465B401030231EA023E
:1030600031EFED90D465B401030231FB023200ED83
:1030700090D465B4010302320C023211ED90D46594
:10308000B4010302321D023222ED90D466B4010372
:103090000231EA0231EFED90D466B401030231FB54
:1030A000023200ED90D466B4010302320C023211F8
:1030B000ED90D466B4010302321D023222ED90D4A9
:1030C00067B401030231EA0231EFED90D467B40135
:1030D000030231FB023200ED90D467B401030232E7
:1030E0000C023211ED90D467B4010302321D02329A
:1030F00022ED90D468B401030231EA0231EFED9081
:10310000D468B401030231FB023200ED90D468B4FC
:10311000010302320C023211ED90D468B4010302B3
:10312000321D023222ED90D469B401030231EA0269
:1031300031EFED90D469B401030231FB023200EDAE
:1031400090D469B4010302320C023211ED90D469BB
:10315000B4010302321D023222ED90D46AB401039D
:103160000231FB023200ED90D46AB4010302320C4A
:10317000023211ED90D46AB4010302321D023222F0
:10318000ED90D46BB4010280618064ED90D46BB497
:1031900001028067806AED90D46BB40102806D807B
:1031A00070ED90D46BB4010280738076ED90D46C96
:1031B000B4010280358038ED90D46CB40102803BBC
:1031C000803EED90D46CB4010280418044ED90D4F7
:1031D0006DB4010280148017ED90D46DB4010280AB
:1031E0001A801DED90D46FB40105E04480F022E018
:1031F000547FF022ED90D46FB40105E04420F0221A
:10320000E054DFF022ED90D46FB40105E04408F003
:1032100022E054F7F022ED90D46FB40105E04402AF
:10322000F022E054FDF0229009B3EFF0E4FBA3128A
:103230000AB500000000900BDBE0120B0F325900C2
:1032400032B50134120234690334A60434D705358B
:103250000206350F07000035379009B3E0B40107C7
:1032600090F21EE0547FF090F220E04410F090D3F2
:1032700040E030E21354FBF090F2837421F090F2BE
:103280003EE04403F054FCF090D3407460F090F2C0
:1032900063E054F7F090F23DE0543FF090E360E0DB
:1032A00054DFF090F1B4E054FDF04402F0900BDBF9
:1032B00074010234FC90F2E2E054306410600302C6
:1032C0003461900BDCE004F0E0640A6003023537FF
:1032D00090F263E054F8FFF090F2F8E05470C454B8
:1032E0000F4F90F263F090F2F7E0547FFFE4FCFDA3
:1032F000FE9009B4120AA99009B4120A9178081232
:103300000A149009B4120AA99009B4120A9D90F205
:10331000F6E0FFE4FCFDFE12089D9009B4120AA934
:103320009009B4120A917808120A149009B4120A8A
:10333000A99009B4120A9D90F2F5E0FFE4FCFDFEAD
:1033400012089D9009B4120AA99009B4120A917842
:1033500008120A149009B4120AA99009B4120A9D1D
:1033600090F2F4E0FFE4FCFDFE12089D9009B41217
:103370000AA97BFF7A3F79F39009B4120A91900968
:10338000E0120AA9E4FF1279BEE4FB90F2F7E054E0
:103390007FFFD39450401AAB079009B4120A91787A
:1033A00001120A019009B4120AA990D340E0440422
:1033B000F09009B4120A917818120A0190F237EFCE
:1033C000F09009B4120A917810120A0190F23AEFC3
:1033D000F09009B4120A917808120A0190F23BEFBA
:1033E000F09009B4120A9190F23CEFF090F263E091
:1033F0004408F090F23DE044C0F090F23EE0440317
:10340000F054FCF0E4900BDCF0900BDB7402F00263
:10341000353790F2F7E0547F6B6046900BDCE004A8
:10342000F0E0D3940A500302353790E3607402F061
:1034300090E3617440F090E3627404F0E490E3651B
:10344000F090E3687420F090D340E04440F090D3D3
:103450004274A8F0E490D34CF0900BDB7403023478
:10346000FCE4900BDCF002353790E1307407F0900B
:10347000E13DE054FDF090E360E054DFF07F017E39
:10348000001291C690E13DE04402F090E130747783
:10349000F090E360E04420F07F0A7E001291C69035
:1034A0000BDB7404805690E36CE05403FFBF0114FF
:1034B00090D340E054BFF0900BDB7405F0E4A3F030
:1034C000A3F08073E4900BDBF0A3E004F0E0D3946E
:1034D000034064E4F0806090E36CE030E7599009C9
:1034E000B3E0B4010790F21EE04480F07BFF7A4025
:1034F0007905E4FF1279BE900BDB7406F0E4A3F0CB
:103500008035E490F220F0900BDB7407F080289077
:10351000F2F7E0547FD394505016E4900BDBF0A305
:10352000F0A3F07BFF7A407912FF1279BE7F01226F
:103530007F017E001291C67F027E001291C67F003D
:10354000229009B1EFF07F011297ED1297FD783DBF
:10355000E6FF640F70030237FB90F103EFF0783E53
:10356000E690F104F008E690F105F0E47813F690A7
:1035700009B1E0FF7813E6FEC39F5024EE6013907C
:10358000F105E0B4FF0690F104E004F090F105E0ED
:1035900004F074402EF8E690F153F078130680CFD3
:1035A000783DE6600302372408E6640160030237D1
:1035B000247812F6783FE6120B0F35E50035FB0153
:1035C000361102362A03364004365605366C063666
:1035D000820736980836BC0B36D70C36F20D370DFD
:1035E0000E000037FB7812E6FF1290F29009B1E06E
:1035F000FF781206E66F70030237FB7812E6FF12BF
:10360000994C9009B1E0FF781206E66F700302371B
:10361000FB1299347812E6FF127BF89009B1E0FFB3
:10362000781206E66F70030237FB7812E6FF128904
:10363000B59009B1E0FF781206E66F70030237FB20
:103640007812E6FF1292CD9009B1E0FF781206E6FB
:103650006F70030237FB7812E6FF1292ED9009B10A
:10366000E0FF781206E66F70030237FB7812E6FF80
:1036700012930D9009B1E0FF781206E66F70030215
:1036800037FB7812E6FF12932D9009B1E0FF781214
:1036900006E66F70030237FB7812E62440F8E67006
:1036A0000C90F1057408F090F1537401F09009B199
:1036B000E0FF781206E66F70030237FB783CE654B1
:1036C000B0FFBF80031291E89009B1E0FF781206C5
:1036D000E66F70030237FB783CE654B0FFBF9003FF
:1036E0001291E89009B1E0FF781206E66F700302CC
:1036F00037FB783CE654B0FFBFA0031291E8900975
:10370000B1E0FF781206E66F70030237FB783CE603
:1037100054B0FFBFB0031291E89009B1E0FF7812F6
:1037200006E66F22783DE6703608E664027030786F
:1037300012F6783FE61460150460030237FB900927
:10374000B1E0FF781206E66F70030237FB7812E6ED
:10375000FF1298D19009B1E0FF781206E66F227847
:103760003DE6FF701C08E6B40317E47812F6783FD4
:10377000E660030237FB9009B1E0FE781206E66EC0
:1037800022EF7010783EE6B4060A08E6700608E6F6
:10379000FF028C18783DE6701008E6B4020B08E6CC
:1037A000B4700608E6783CF622783DE6FFB4060CD5
:1037B00008E6B4900708E67003029A96EF64067074
:1037C0003A783EE66494703308E66494702D08E617
:1037D0006401702712950690F1047493F090F1053E
:1037E000742FF090F154E030E00554FEFF80079014
:1037F000F154E04401FF90F153EFF0229009D9EF2A
:10380000F0900BF3E0D39401900BF7E0FE400CA393
:10381000E0F5828E83E04404F0800AA3E0F5828E16
:1038200083E054FBF0900BF4E0900C01B4010EE047
:10383000FEA3E0F5828E83E04404F0800CE0FEA35A
:10384000E0F5828E83E054FBF0900BF5E0900C01E4
:10385000B4010EE0FEA3E0F5828E83E04408F08020
:103860000CE0FEA3E0F5828E83E054F7F09009D9D6
:10387000E0FF7051900BF1E014601E14602A146098
:103880002924FD6003023A67900BFFE0FCA3E0F5FA
:10389000828C837480F0023A67900BFDE0FCA3E019
:1038A000F5828C837404800F800E900BFDE0FCA3E6
:1038B000E0F5828C837444F0900BF6E04411FE90A6
:1038C0000BFF0239C9EF6406705B900BF1E01460E6
:1038D0001E14602A14602924036003023A67900BC7
:1038E000F9E0FEA3E0F5828E8374C0F0023A67909F
:1038F0000BFDE0FEA3E0F5828E837404800F800E42
:10390000900BFDE0FEA3E0F5828E837444F0900BF3
:10391000F6E04410FF900BFFE0FCA3E0F5828C83FF
:10392000EFF0023A679009D9E0FF64016005EF64A7
:10393000077061900BF1E024FE602914602B24FDD8
:10394000600C24067031900BF6E044118006900B59
:10395000F6E04410FF900BF9E0FCA3E0F5828C83C5
:10396000EFF08000900BFB8003900BFDE0FEA3E0E6
:10397000F5828E837440F09009D9E06407600302F9
:103980003A67900BFFE0FEA3E0F5828E83E044806F
:10399000F0023A679009D9E0FF64027053900BF18E
:1039A000E014603224FE603B24FD601324066003B3
:1039B000023A67900BF6E04411FE900BF9800A90F2
:1039C0000BF6E04410FE900BF9E0FCA3E0F5828CCE
:1039D00083EEF0023A67900BFDE0FCA3E0F5828CE9
:1039E000838071900BFDE0FCA3E0F5828C838074F2
:1039F000EF64037072900BF1E014604D14605A2470
:103A0000FC602524067060900BF6E04411FF900BDB
:103A1000F9E0FCA3E0F5828C83EFF0900BFBE0FE75
:103A2000A3E0F5828E83803C900BF6E04410FF907B
:103A30000BF9E0FCA3E0F5828C83EFF0900BFBE048
:103A4000FEA3E0F5828E83801B900BFBE0FEA3E0DB
:103A5000F5828E837404F0800E900BFBE0FEA3E0F1
:103A6000F5828E837444F0900BF2E07BFF70067A4F
:103A700093796B80047A93797A900BF1E09009E066
:103A8000F09009D9E09009E1F07F011279BE22A9F6
:103A900007ED24F6600C24F6600C24F6600C241864
:103AA0007008E4FF80067F0180027F02E914700342
:103AB000023BED046003023D20EF75F01CA4249E40
:103AC000F582E43441F583E474019390D16EF0EF14
:103AD00075F01CA424A0F582E43441F583E474015C
:103AE0009390D16FF0EF75F01CA424A2F582E4341A
:103AF00041F583E474019390D170F0EF75F01CA44C
:103B000024A4F582E43441F583E474019390D171E7
:103B1000F0EF75F01CA424A6F582E43441F583E4AB
:103B200074019390D172F0EF75F01CA424A8F58273
:103B3000E43441F583E474019390D173F0EF75F0B0
:103B40001CA424AAF582E43441F583E47401939023
:103B5000D174F0EF75F01CA424ACF582E43441F587
:103B600083E474019390D175F0EF75F01CA424AE3A
:103B7000F582E43441F583E474019390D176F0EF5B
:103B800075F01CA424B0F582E43441F583E474019B
:103B90009390D177F0EF75F01CA424B2F582E43451
:103BA00041F583E474019390D178F0EF75F01CA493
:103BB00024B4F582E43441F583E474019390D1791F
:103BC000F0EF75F01CA424B6F582E43441F583E4EB
:103BD00074019390D190F0EF75F01CA424B8F58295
:103BE000E43441F58374019390D191F022EF75F0A4
:103BF0001CA4249EF582E43441F583E4740193907F
:103C0000D19EF0EF75F01CA424A0F582E43441F5B8
:103C100083E474019390D19FF0EF75F01CA424A26B
:103C2000F582E43441F583E474019390D1A0F0EF80
:103C300075F01CA424A4F582E43441F583E47401F6
:103C40009390D1A1F0EF75F01CA424A6F582E43482
:103C500041F583E474019390D1A2F0EF75F01CA4B8
:103C600024A8F582E43441F583E474019390D1A350
:103C7000F0EF75F01CA424AAF582E43441F583E446
:103C800074019390D1A4F0EF75F01CA424ACF582DC
:103C9000E43441F583E474019390D1A5F0EF75F01D
:103CA0001CA424AEF582E43441F583E474019390BE
:103CB000D1A6F0EF75F01CA424B0F582E43441F5F0
:103CC00083E474019390D1A7F0EF75F01CA424B2A3
:103CD000F582E43441F583E474019390D1A8F0EFC8
:103CE00075F01CA424B4F582E43441F583E4740136
:103CF0009390D1A9F0EF75F01CA424B6F582E434BA
:103D000041F583E474019390D1C0F0EF75F01CA4E9
:103D100024B8F582E43441F58374019390D1C1F065
:103D200022EF75F008A4247AF582E43487F583E461
:103D30009390D202F0EF75F008A4247BF582E4346E
:103D400087F583E49390D203F0EF75F008A4247C08
:103D5000F582E43487F583E49390D207F0EF75F0B1
:103D600008A4247DF582E43487F583E49390D20897
:103D7000F0EF75F008A4247EF582E43487F583E43F
:103D80009390D209F0EF75F008A4247FF582E43413
:103D900087F583E49390D20AF0EF75F008A42480AD
:103DA000F582E43487F583E49390D212F0EF75F056
:103DB00008A42481F582E43487F583E49390D21338
:103DC000F0ED75F008A4247AF582E43487F583E4F5
:103DD0009390D217F0ED75F008A4247BF582E434BB
:103DE00087F583E49390D218F0ED75F008A4247C55
:103DF000F582E43487F583E49390D21CF0ED75F0FE
:103E000008A4247DF582E43487F583E49390D21DE1
:103E1000F0ED75F008A4247EF582E43487F583E4A0
:103E20009390D21EF0ED75F008A4247FF582E4345F
:103E300087F583E49390D21FF0ED75F008A42480F9
:103E4000F582E43487F583E49390D227F0ED75F0A2
:103E500008A42481F582E43487F583E49390D22882
:103E6000F0EB75F008A4247AF582E43487F583E456
:103E70009390D22CF0EB75F008A4247BF582E43407
:103E800087F583E49390D22DF0EB75F008A4247CA1
:103E9000F582E43487F583E49390D231F0EB75F04A
:103EA00008A4247DF582E43487F583E49390D2322C
:103EB000F0EB75F008A4247EF582E43487F583E402
:103EC0009390D233F0EB75F008A4247FF582E434AC
:103ED00087F583E49390D234F0EB75F008A4248046
:103EE000F582E43487F583E49390D23CF0EB75F0EF
:103EF00008A42481F582E43487F583E49390D23DCD
:103F0000F09009B6E0FF75F008A4247AF582E43455
:103F100087F583E49390D241F0EF75F008A4247BF9
:103F2000F582E43487F583E49390D242F09009B6A9
:103F3000E075F008A4247CF582E43487F583E493EB
:103F400090D246F0EF75F008A4247DF582E4348722
:103F5000F583E49390D247F09009B6E075F008A499
:103F6000247EF582E43487F583E49390D248F0EF21
:103F700075F008A4247FF582E43487F583E49390F8
:103F8000D249F09009B6E075F008A42480F582E4E7
:103F90003487F583E49390D251F0EF75F008A424B0
:103FA00081F582E43487F583E49390D252F0220ABB
:103FB0002044485258305F525445524D5F43414C63
:103FC000495F4641494C21000A2044485258315F1C
:103FD000525445524D5F43414C495F4641494C2143
:103FE000000A5278706C6C2043616E2774206C6FED
:103FF000636B000A204D4B76616C7565203D203067
:1040000078256C78000A506372706C6C206C6F635A
:104010006B000A506372204D203C20307835300010
:104020000A4D5649443020616E64204D5649443152
:10403000203D20307825303262782C30782530329F
:1040400062782C307825303262782C307825303206
:1040500062782C307825303262782C3078253032F6
:104060006278000A4D5649443220616E64204D56F4
:10407000494433203D20307825303262782C307826
:1040800025303262782C307825303262782C3078C6
:1040900025303262782C307825303262782C3078B6
:1040A0002530326278000A4D5341203D203078257A
:1040B000303262782C307825303262782C30782596
:1040C000303262782C307825303262782C000A4DFC
:1040D0004953433031203D20307825303262782CEE
:1040E000307825303262782C000A417564202562D0
:1040F0006463683B000A2F2F2F2F2F2F2F2F2F2F76
:104100002F2F2F2F2F2F2F2F000A4450525820507F
:104110005053207461626C653A000A3078256278E9
:104120002C30782562782C30782562782C307825F0
:104130006278000A6270632F627070203D202562F1
:10414000642C2564000A7069637769647468203D93
:10415000202564000A736C6963652077696474685C
:104160002F6368756E6B2073697A65203D20256426
:104170002C2564000A736C6963655F6E756D6265FA
:1041800072203D20256264000A4368756E6B2053DF
:10419000697A65206D6F6436203D202578000066C1
:1041A000006600AA0066006600AA0066006600AA13
:1041B0000066006600AA002C00FF0088008800AAA4
:1041C0000088008800AA0088008800AA008800886B
:1041D00000AA007700AA0077007700FF00AA00AAD3
:1041E000005500AA00AA00FF00AA00AA00550088F6
:1041F00000AA0A2D2D54785374617465203D202542
:104200006264000A4D49504920496E434C6B203D81
:1042100020256C756B687A000A256C7520496E63E1
:1042200072653B000A4D49504954585B485D3A2538
:10423000642C25642C25642C25642C25642C256293
:1042400064000A4D49504954585B565D3A25642C28
:1042500025642C25642C25642C25642C256264009F
:104260000A42797465436C6B203D2025754D687A50
:10427000000A25626420706F7274000A256264204F
:104280006C616E65000A445048593B000A4353492B
:104290003B000A7264646C795F6D617820697320F9
:1042A000256C753B000A7264646C795F6D696E31D0
:1042B00020697320256C753B000A7264646C795F19
:1042C0006D696E3220697320256C753B000A2F32B0
:1042D00030000A2F3130000A204D49504920656EC8
:1042E00061626C65643B000A204D49504920646955
:1042F0007361626C65643B00446373205265616462
:10430000203D207B0A00307825303262782C007DF9
:104310000A000A205458504C4C20756E6C6F636B29
:104320003B000A5478706C6C206C6F636B3B00052B
:1043300011000529001536C62980400080E77B0062
:10434000000023660729B6206B0006338A001A7A1C
:1043500029B75400000029B90039026F29C03A86F4
:10436000BC0208700AF029F11E29C67008D002218B
:104370006F085A000000000000000029CD0029CF7E
:104380008B00804661008B29EC049700000029E631
:10439000110000891080087008700008021C021CBF
:1043A0000200020E002000BB0007000C0DB70CB786
:1043B000180010F0030C2000060B0B330E1C2A38DB
:1043C000465462697077797B7D7E01020100094065
:1043D00009BE19FC19FA19F81A381A781AB62AF609
:1043E0002B342B743B746BF4000000000000390385
:1043F0000139440000153500153600153A770529B6
:104400000005110029D68029B0030000000000003B
:10441000000000000000000000000000000000009C
:10442000000000000000000090F3ECE030E64D904A
:10443000F3A9E06407704590F3AAE06405703D902D
:10444000F3ABE06413703590F3BCE054F0D39430D8
:10445000502AE0FDC4540F900572F0ED540FA3F004
:1044600090F3BDE0FE5407900574F0EEC4131313EF
:10447000540190079EF0A37401F0802E90F3EBE0BE
:10448000FDC3135403900572F0ED131313541FFE74
:104490005403A3F090F3EBE0C4135407900574F0B9
:1044A000EE540190079EF0E4A3F090079FE06401B2
:1044B0007077900572E014601B146020146025244E
:1044C00003702990079EE0B401089005727406F00D
:1044D000801F80189005727402F080159005727428
:1044E00001F0800D9005727403F08005E490057270
:1044F000F0900572E0FF64066003EF7010900573A2
:10450000E024FA701A9005737404F08062900573C9
:10451000E014600B24FB6009146006240770088017
:10452000489005737404F08040900572E0146018A0
:1045300014601D2402702190079EE0B401089005CC
:10454000727406F0801780109005727401F0800D6F
:104550009005727402F08005E4900572F090057386
:10456000E014600304700280009005737402F09000
:104570000572E0FF9007A6E0FE6F7042900573E0C1
:10458000FF9007A7E06F7036900574E0FF9007A8D2
:10459000E0FD6F70297BFF7A1C79119009E0EEF045
:1045A000A3EDF07F021279BE7BFF7A1C793F900762
:1045B000A7E09009E0F07F021279BE7F002290050B
:1045C00072E09007A6F0900573E09007A7F09005C1
:1045D00074E0FF9007A8F07BFF7A1C79119007A682
:1045E000E09009E0F0A3EFF07F011279BE7BFF7A43
:1045F0001C793F9007A7E09009E0F07F011279BE97
:1046000090079FE0640170357BFF7A1C795D7F0124
:104610001279BE9007A6E0B403047F018002E4FF94
:104620001296DF7F011296BD1296CE9007A6E0FF8C
:104630001295AC9007A8E0FF12982D800BE4FF12B2
:1046400096DF1296BD1296CE7F0122EDC3940C40E8
:1046500003024835EF120B0F470400470A014714C5
:1046600002471A03472004472605473806473E07F6
:10467000474408474A0947500A47560B475C0C47CE
:104680006E0D47740E477A0F478010478611478C8E
:1046900012479213479814479E1547A41647A91727
:1046A00047AF1847B41947B91A47BE1B47C31C4741
:1046B000C81D47CD1E47D21F47D72047DC2147E101
:1046C0002247E62347EB2447F02547F52647FA27FC
:1046D00047FF2848042948092A480E2B48132C482C
:1046E000182D481D2E482C2F470C30470E31472CD3
:1046F0003247323347623447683547443647443798
:104700000000483590D4130248208002800090D4E5
:104710001302482F90D41402482090D41402482F3A
:1047200090D41502482090D41502482F90D4150239
:10473000482F90D41502482F90D41602482090D4C8
:104740001602482F90D41702482090D41702482F01
:1047500090D41802482090D41802482F90D41902FF
:10476000482090D41902482090D41902482090D4AF
:104770001902482F90D41A02482090D41A02482FC8
:1047800090D41B02482090D41B02482F90D41C02C6
:10479000482090D41C02482F90D41D02482090D469
:1047A0001D02482F90D41E807790D41E02482F906F
:1047B000D41F806C90D41F807690D420806290D4D7
:1047C00020806C90D421805890D421806290D42293
:1047D000804E90D422805890D423804490D423805B
:1047E0004E90D424803A90D424804490D4258030B4
:1047F00090D425803A90D426802690D4268030907C
:10480000D427801C90D427802690D428801290D45E
:1048100028801C90D429800890D429801290D42913
:10482000E0540FFFF0EDC454F04FF02290D429E093
:1048300054F0F04DF02290F3EDE020E7037F0022EA
:1048400090F3DBE0FE90F3DCE07C002400FFEC3E24
:10485000900577F0A3EFF090F3E7E0FE90F3E8E047
:104860002400FFEC3E900579F0A3EFF090F3E1E037
:10487000FE90F3E2E02400FFEC3E900575F0A3EF1C
:10488000F090F3DFE0547FFE90F3E0E02400FFECD3
:104890003E90057BF0A3EFF090F264E0FE90F265AD
:1048A000E02400FFEC3E90057DF0A3EFF09007A61A
:1048B000E0B4031C90057EE025E0FF90057DE03329
:1048C000FE900577E0B5061FA3E0B5071A7F00222A
:1048D00090057DE0FEA3E0FF900577E0B50608A314
:1048E000E0B507037F00221299C5128083E4FF120E
:1048F0009712900577E0FCA3E0FDEC90F206F090B3
:10490000F207EDF090F3DDE090F20EF090F3DEE0D0
:1049100090F20FF090F20AE0FD90057BE0FAA3E040
:10492000FBEAFFED4F90F20AF090F20BEBF09005EE
:1049300075E0FCA3E0FDEC90F208F090F209EDF0D8
:1049400090F3E3E090F210F090F3E4E090F211F0D5
:1049500090F3E5E0547F90F212F090F3E6E090F2ED
:1049600013F0900579E0FCA3E0FDEC90F20CF090E0
:10497000F20DEDF090F3E9E090F214F090F3EAE03C
:1049800090F215F0E4FF1297019007A6E0B4032A15
:10499000900577E0C313F0A3E013F0A3E0C313F096
:1049A000A3E013F0900575E0C313F0A3E013F090BB
:1049B000057BE0C313F0A3E013F0E4FF1296F09040
:1049C0000577E0FCA3E0FDEC90F264F090F265ED79
:1049D000F0900579E0FCA3E0FDEC90F26AF090F233
:1049E0006BEDF0900575E0FCA3E0FDEC90F266F055
:1049F00090F267EDF090F268E0FD90057BE0FAA39D
:104A0000E0FBEAFFED4F90F268F090F269EBF07F87
:104A1000F47E011297BC7F012278E07C0B7D017B44
:104A2000017AF379CC7E007F0312069E78E47C0B3A
:104A30007D017B017AF379CF7E007F0312069E7899
:104A4000E87C0B7D017B017AF379D27E007F031233
:104A5000069E78EC7C0B7D017B017AF379D57E0094
:104A60007F0312069E7BFF7A40792090F3CCE09082
:104A700009E0F090F3CDE09009E1F090F3CEE09002
:104A800009E2F090F3CFE09009E3F090F3D0E090EA
:104A900009E4F090F3D1E09009E5F0E4FF1279BE6B
:104AA0007BFF7A40796390F3D2E09009E0F090F3D5
:104AB000D3E09009E1F090F3D4E09009E2F090F3B4
:104AC000D5E09009E3F090F3D6E09009E4F090F39C
:104AD000D7E09009E5F0E4FF1279BE7BFF7A4079D8
:104AE000A690F3DBE09009E0F090F3DCE09009E1C0
:104AF000F090F3DDE09009E2F090F3DEE09009E35E
:104B0000F0E4FF1279BE7BFF7A4079A690F3DFE0F4
:104B10009009E0F090F3E0E09009E1F090F3E1E03B
:104B20009009E2F090F3E2E09009E3F0E4FF1279FB
:104B3000BE7BFF7A4079A690F3E3E09009E0F09025
:104B4000F3E4E09009E1F090F3E5E09009E2F09001
:104B5000F3E6E09009E3F0E4FF1279BE7BFF7A40D0
:104B600079A690F3E7E09009E0F090F3E8E090098F
:104B7000E1F090F3E9E09009E2F090F3EAE09009C7
:104B8000E3F0E4FF1279BE7BFF7A4079CE90F3EB3D
:104B9000E09009E0F090F3ECE09009E1F0E4FF121E
:104BA00079BE900BE3120A91900BDF120A9DC3129B
:104BB00009F07024900BE7120A91900BDF120A9D06
:104BC000C31209F07012900BEB120A91900BDF12D6
:104BD0000A9DC31209F060037F00227F0122900921
:104BE000B4120B06EF64016003024D3890E084E0DC
:104BF00064017003024DA17401F09009B4120AE639
:104C000090000F120A477810120A01EF540FFF901C
:104C1000E085EFF090000F120A477808120A019021
:104C2000E086EFF090000F120A4790E087EFF090D7
:104C300009B7120AE6900004120819FDACF0EC90D6
:104C4000E088F0AF0590E089EFF090000E120819AF
:104C5000FDACF0EC90E08AF0AF0590E08BEFF090C7
:104C60000006120819FDACF0EC90E08CF0AF059056
:104C7000E08DEFF0900010120819FDACF0EC90E020
:104C80008EF0AF0590E08FEFF09009B4120AE69035
:104C90000013120A47E47B08FAF9F8120943781066
:104CA000120A01EF540FFF90E092EFF09009B41256
:104CB0000AE6900013120A47E47B08FAF9F8120991
:104CC000437808120A0190E093EFF09009B4120AB9
:104CD000E6900013120A47E47B08FAF9F812094338
:104CE00090E094EFF09009B4120AE690000D1206DD
:104CF000DDFF90000C1206DD8FF0A490E0A0F09094
:104D0000000A1206DD24FC600A14601714600C24EB
:104D100003801890E0A17401F0801590E0A1740266
:104D2000F0800D90E0A17403F08005E490E0A1F024
:104D30007BFF7A697974806490E084E0606390F925
:104D4000BFE054FEF0E490E084F090E085F090E065
:104D500086F090E087F090E088F090E089F090E0B5
:104D60008AF090E08BF090E08CF090E08DF090E095
:104D70008EF090E08FF090E090F090E091F090E075
:104D800092F090E093F090E094F090E0A0F090E04A
:104D9000A1F090E0A2F07BFF7A69798D7F01127912
:104DA000BE22E4F9EF24FA7003024ED61470030217
:104DB0004E4324036003024F5FE4FAE96003024FAD
:104DC0005F90D3307469F090E3827404F090E388CC
:104DD0007420F090D4907444F090D49C74B0F0900F
:104DE000D49274E8F090D49D7408F0E4FB90E380D2
:104DF000E054DFF07F017E001291C6E04420F00B0A
:104E00007F017E001291C6EBC3940A500790E38C99
:104E1000E030E0D990D4907404F07F017E001291CC
:104E2000C690E38CE030E70F90D409740CF090D377
:104E300030E04480F079010AEA64036003024DBB6C
:104E4000024F5FE4FAE96003024F5F90D330746968
:104E5000F090E3C27404F090E3C87420F090D37033
:104E60007444F090D37C74B0F090D37274E8F090F6
:104E7000D3747410F090D375F090D37D7408F0E47F
:104E8000FB90E3C0E054DFF07F017E001291C6E0AA
:104E90004420F00B7F017E001291C6EBC3940A50B0
:104EA0000790E3CCE030E0D990D3707404F07F0138
:104EB0007E001291C690E3CCE030E70E90D40974E6
:104EC00004F090D3307480F079010AEA640360033F
:104ED000024E45024F5FE4FAE96003024F5F90D350
:104EE000307469F090E3A27404F090E3A87420F0A9
:104EF00090D3607444F090D36C74B0F090D362742B
:104F0000E8F090D3647410F090D365F090D36D7492
:104F100008F0E4FB90E3A0E054DFF04420F00B7FC6
:104F2000017E001291C6EBC3940A500790E3ACE0F7
:104F300030E0E190D3607404F07F017E001291C6EE
:104F400090E3ACE030E70F90D4097408F090D330D0
:104F5000E04480F079010AEA64036003024ED8AFAE
:104F600001229009B3EFF07BFF7A1A79DD90F1CC42
:104F7000E09009E0F090F1CDE09009E1F090F1CE01
:104F8000E09009E2F090F1CFE09009E3F090F1D0E9
:104F9000E09009E4F090F1D1E09009E5F090F1D2D1
:104FA000E09009E6F090F1D3E09009E7F0E4FF1219
:104FB00079BE7BFF7A1B792690F3CCE09009E0F074
:104FC00090F3CDE09009E1F090F3CEE09009E2F0AB
:104FD00090F3CFE09009E3F090F3D0E09009E4F093
:104FE00090F3D1E09009E5F0E4FF1279BE7BFF7AFF
:104FF0001B796990F3D2E09009E0F090F3D3E09050
:1050000009E1F090F3D4E09009E2F090F3D5E0905C
:1050100009E3F090F3D6E09009E4F090F3D7E09044
:1050200009E5F0E4FF1279BE7BFF7A1B79AC90F3BF
:10503000DBE09009E0F090F3DCE09009E1F090F320
:10504000DDE09009E2F090F3DEE09009E3F0E4FFA8
:105050001279BE7BFF7A1B79AC90F3DFE09009E018
:10506000F090F3E0E09009E1F090F3E1E09009E2E4
:10507000F090F3E2E09009E3F0E4FF1279BE7BFFE9
:105080007A1B79AC90F3E3E09009E0F090F3E4E070
:105090009009E1F090F3E5E09009E2F090F3E6E0AA
:1050A0009009E3F0E4FF1279BE7BFF7A1B79AC90A4
:1050B000F3E7E09009E0F090F3E8E09009E1F09088
:1050C000F3E9E09009E2F090F3EAE09009E3F0E41C
:1050D000FF1279BE7BFF7A1B79D490F3EBE0900945
:1050E000E0F090F3ECE09009E1F0E4FF1279BE907B
:1050F00009B3E0640160137BFF7A1B79EF90F2DF64
:10510000E09009E0F0E4FF1279BE22A90790E602E0
:10511000E0FF54F0C4540FFEEF540FFFE490F1038E
:10512000F090F10404F090F105F090F154E0540F88
:10513000FD6404700302524EED64017055EE24FCD0
:10514000603F14602B14601714600302525990D111
:1051500097E05488F090D321E04407F00252599030
:10516000D197E05444F090D321E0440BF00252591F
:1051700090D197E05422F090D321E0440DF00252F8
:105180005990D197E05411F090D321E0440EF002F1
:105190005259ED64026003025259EE24FC6073140C
:1051A000604114601C146003025259EFB40602807F
:1051B00014EFB405028030EF64046003025259809A
:1051C00055EFB4071190D197E054CCF090D321E083
:1051D0004403F0025259EFB40502801FEF640470DB
:1051E000788047EFB4071090D197E054AAF090D39D
:1051F00021E04405F08062EFB4061090D197E054AE
:1052000066F090D321E04409F0804EEF64047049C9
:10521000802CEFB4071090D197E05499F090D321EF
:10522000E04406F08033EFB4061090D197E0545577
:10523000F090D321E0440AF0801FEFB4051B90D119
:1052400097E05433F090D321E0440CF0800B90D1E0
:105250009774FFF0E490D321F0E9B4060790F9BB0E
:1052600074DFF022900BD2E07006900BCBE0601858
:1052700090F9BB74E0F0E490F9BCF090F9BD7407CC
:10528000F090F9BE74FFF02290F9BB7460F0E490E6
:10529000F9BCF090F9BDF090F9BE04F0227F011244
:1052A000981DE4FBE4FA0AEAC39403400302536640
:1052B000900796E02B901FD79390F1BBF090079743
:1052C000E02B901FD79390F1BCF0900798E02B90C3
:1052D0001FD79390F1BDF0900799E02B901FD793C3
:1052E00090F1BEF01299FC7F017E001291C67F04FE
:1052F00012870EE49009B3F09009B3E004F0C39470
:105300003250A37F017E001291C6E4FF12879CEB0E
:1053100025E024B4F582E43409F583EEF0A3EFF040
:105320007F0112879CEB25E024BEF582E43409F569
:1053300083EEF0A3EFF07F0212879CEB25E024C8F8
:10534000F582E43409F583EEF0A3EFF07F031287D2
:105350009CEB25E024D2F582E43409F583EEF0A33A
:10536000EFF07A0380920BEB640560030252A47B9A
:10537000017A0979B4900796E0FD12686590079666
:10538000EFF07B017A0979BEA3E0FD126865900712
:1053900097EFF07B017A0979C8A3E0FD1268659068
:1053A0000798EFF07B017A0979D2A3E0FD126865D6
:1053B000900799EFF07F0112981D900796E0901FDB
:1053C000D99390F1BBF0900797E0901FD99390F19B
:1053D000BCF0900798E0901FD99390F1BDF0900732
:1053E00099E0901FD99390F1BEF01299FC7BFF7A5F
:1053F0001C79AE90F1BBE09009E0F090F1BCE09038
:1054000009E1F090F1BDE09009E2F090F1BEE0908A
:1054100009E3F07F010279BEEDD394034003025506
:105420008BEF120B0F549B0254A10354A70654ADEB
:105430000754BF0954C50A54CA0B555A0D54D00E0F
:1054400054D50F54DB1054E01154E61254EB1354AE
:10545000F01455091554F51654FA1755041854FF4D
:1054600019550E1A55181B55221C552C1D55131E67
:10547000551D1F552720553121553622553B2355A3
:105480004024554A25554F26555A27556A2E557B97
:105490002F54B33654B9370000558B90E60E0255A1
:1054A0006D90E60E02555290E60E02555D90E60EA6
:1054B00002554390E60F02556D90E60F025552904B
:1054C000E60F02555D90E60F807990E61002556D6B
:1054D00090E610807D90E61002555D90E6108063A6
:1054E00090E61102556D90E611806790E612807D7E
:1054F00090E612805D90E613807390E613805390DF
:10550000E613805990E613803A90E614805F90E6A7
:1055100014803F90E615805590E615803590E6168C
:10552000804B90E616802B90E617804190E617801E
:105530002190E618803790E618801790E618801DB5
:1055400090E618E054FCF04DF02290E619801E9091
:10555000E619E054CFFFF0ED802C90E619E054F30B
:10556000FFF0ED25E025E04FF02290E61AE0543FF1
:10557000FFF0EDC4333354C04FF02290E61AE054EC
:10558000CFFFF0AE05EEC454F04FF02212941CEFA2
:1055900064017027900590E07BFF60117A1D79AA65
:1055A000E4FF1279BE9005927401F0800E7A1D79A5
:1055B000B7E4FF1279BEE4900592F0900592E024E2
:1055C000FE60221470030256CC240260030256F0DF
:1055D000E4900585F07B017A057981129A55900552
:1055E000927402F0227B017A0579817D147C00128D
:1055F0007E1CBF010F900585E004F07B017A0579E0
:1056000081129A55900585E064147034900590E0FD
:10561000602E7BFF7A1D79C7E4FF1279BE9005905A
:10562000E0FFD394C07BFF500B7A1D79D39009E043
:10563000EFF080047A1D79E1E4FF1279BE129570D3
:10564000900585E0641E702C900590E0FF1293A7F2
:10565000EF60217BFF7A1D79EFE4FF1279BE9005A0
:10566000927403F0128151900591EFF01270C97F8E
:105670000512946F900585E0B4280E7BFF7A1D79A2
:10568000FEE4FF1279BE129570900585E0643270D9
:105690005F900590E0FF1293A7EF600B7BFF7A1DF0
:1056A00079EFE4FF1279BE9005927403F0128151F4
:1056B000900586EFF0900591E06F6034900586E0EC
:1056C000900591F01270C97F0502946F900590E0EB
:1056D000FF601D1293A7EF70179005927402F0906F
:1056E0000585741EF07BFF7A1E790EE4FF1279BEE9
:1056F0002290058774FFF09007ABE0D39404402814
:105700009007ADE07022900594E0FFE4FD128E63F7
:105710007F041288AD900587E0FFC3940450028097
:10572000027F04900587EFF09007ABE0D39406402A
:105730001E129957EF70187F061288AD900587E00A
:10574000FFC39406500280027F06900587EFF09019
:1057500007ABE0C394064049128EF69007A0E0B470
:1057600001217BFF7A1E791E7F011279BE129645B8
:105770007FC87E001297BC129160E49007A0F07879
:10578000297601120016EF60187BFF7A1E792790A8
:1057900007AAE09009E0F07F011279BE7F0612941B
:1057A0006F9007ABE0D3940B4059124428EF64018B
:1057B00070237BFF7A1E79327F011279BE7F0B1234
:1057C00088AD900587E0FFC3940B500280027F0BE9
:1057D000900587EFF0128D2BEF70287F01124F623A
:1057E0007BFF7A1E79477F011279BE7F081288AD50
:1057F000900587E0FFC39408500280027F0890055F
:1058000087EFF09007ABE0D3940A402B124836EFB5
:10581000640170237BFF7A1E79567F011279BE7F67
:105820000A1288AD900587E0FFC3940A50028002F7
:105830007F0A900587EFF09007ABE0D3940C40030C
:1058400012558C900587E0FFF460031288AD22901A
:105850000B1FE0900B24702BE0FFE4FCFDFE900B8F
:1058600028120A9D1208B8C006C007900B25E0FF59
:10587000A3E08FF0A4AEF0FBAA06E4F9F8D007D0BD
:10588000068044E0FFE4FCFDFE900B28120A9D1206
:1058900008B8E47B07FAF9F81208B8C004C005C0DC
:1058A00006C007900B26E075F010A4FFAEF0900B39
:1058B00025E0FD7C00120771AB07AA06E4F9F8D0D9
:1058C00007D006D005D004120943900B11120AA983
:1058D000900B11120A91900B2C120AA9900B27E041
:1058E0006013900B2C120A91EF24C0FFEE34D4FE0B
:1058F000ED3401803F900B40E0FEA3E0FFC3900B2E
:105900003FE09FFF900B3EE09EFED3EF94A0EE940D
:1059100000900B2C5010120A91EF2480FFEE34A956
:10592000FEED3403800E120A91EF2480FFEE34382E
:10593000FEED3401FDE43CFC900B2C120AA97F80A3
:105940007E1A7D067C00900B2C120A9DC31209F072
:10595000500A900B2C120AB500061A807FA07E25F3
:105960007D267C00900B2C120A9DD31209F0400A70
:10597000900B2C120AB5002625A0900B11120A9D3F
:10598000900B2C120A911208AA900B30120AA97BD4
:10599000FF7A427918900B30120A919009E0120AAE
:1059A000A97F010279BEE47BE87A03F9F8900B2C19
:1059B000120A911209439009B3EEF0A3EFF0900B95
:1059C0001FE070189009B3E0FEA3E07803CEC31384
:1059D000CE13D8F9F0EE9009B3F080179009B3E038
:1059E000FEA3E0FF7C007D071207839009B3EEF071
:1059F000A3EFF07BFF7A4279609009B3E0FFA3E068
:105A00009009E0CFF0A3EFF07F011279BE9009B3C7
:105A1000E0FAA3E0FB7C007D06FFAE021207717D79
:105A200064120783EF0490F9A4F07C007D05AF03B6
:105A3000AE021207717D64120783EF0490F9A5F09E
:105A40009009B3E0FEA3E0FF7C007D071207717DA3
:105A500064120783AB07EB240490F9A6F09009B316
:105A6000E0FEA3E0FF7C007D061207717D1912079E
:105A70008390F9A7EFF0EB240790F9A9F0900B1FA2
:105A8000E07069900B19E064017039900B40E0B44C
:105A9000101AA3E0B40015D39009B4E0942C900937
:105AA000B3E09401400690F9A7740AF090F9A5E0DC
:105AB000FF90F9A4E02FFF90F9A7E02F240290F9BE
:105AC0008AF080149009B3E0FEA3E0FF7C007D0A19
:105AD00012078390F98AEFF0900B1AE0601E90F99C
