:10000000029C8202A1CB759100322202B1297F01AC
:10001000222222029D9812C52B90079FE0B507036C
:100020007F002290079FEFF07F012202AF60900BCC
:1000300074E0B4020D12BD8EEF7007FF12C6C81235
:10004000B3BB2202000602019AEC5D046005E85988
:1000500004700302019012015B580460F6EC4860E2
:10006000F2EC7004FDFEFF22C860DB2481C8500959
:10007000C398600250060201979850CAF582E92998
:100080004B4A7005AB8202018675F0007C1A7880BD
:10009000C3EF9BEE9AED99400DC3EF9BFFEE9AFEE6
:1000A000ED99FDE842F0DC23ACF0D0E0FFD0E0FEBB
:1000B000D0E0FDAB8220E7101BEB60BAEC2CFCEF2C
:1000C00033FFEE33FEED33FD020172E803F830E753
:1000D00005C0F075F000EF2FFFEE33FEED33FD406D
:1000E000B830E7C280AA75F020800E75F010800548
:1000F00075F0087D007E007F003392D530D5031265
:1001000009E2EC334010EF33FFEE33FEED33FDEC4C
:1001100033FCD5F0ED22E5F0247EA2D513CC92E796
:10012000CDCEFF22EDD2E7CD33EC3392D524814002
:1001300006E4FFFEFDFC22FCE4CFCECDCC24E05053
:100140001174FF80EDC3CC13CCCD13CDCE13CECF25
:1001500013CF0470F030D5DE0209E2E9D2E7C933EB
:10016000E833F892D5EDD2E7CD33EC33FC5002B250
:10017000D522EC30E7100FBF000C0EBE00080DBDFD
:1001800000040BEB6014A2D5EB13FCED92E7FD220B
:1001900074FFFCFDFEFF22E480F8A2D574FF13FC7F
:1001A0007D80E480EF020190E86480F8E933E83371
:1001B00060110460F0ED33EC337009E8FCE9FDEA0E
:1001C000FEEBFF220460DED3EB9FEA9EE99DE8C2CE
:1001D000E78CF0C2F795F0400CE8CCF8E9CDF9EAED
:1001E000CEFAEBCFFB12015B85D0F05804700320F0
:1001F000D5B3E80470075002B2D502019A92D5EC4B
:100200000460F7E4CCC0E0C398F8603B9418600841
:10021000400DD0E0FB020172E4FBFAC9FC8028E843
:1002200030E406E4C9FBE4CAFCE830E305E4C9CAEB
:10023000CBFCE854076010F8C3E913F9EA13FAEBB2
:1002400013FBEC13FCD8F130F52FC3E49CFCEF9BBF
:10025000FFEE9AFEED99FDD0E0FBEF4E4D4C701293
:1002600022DB03020197EC2CFCEF33FFEE33FEEDB3
:1002700033FDED30E7EB020172EF2BFFEE3AFEEDBE
:1002800039FDD0E0FB50130BBB000302019AED13C4
:10029000FDEE13FEEF13FFEC13FC02017274F8CCB9
:1002A0006480CCC86480C8F58204604FC3EB9FF5BE
:1002B000F0EA9E42F0E99D42F0E89C45F0603C5037
:1002C0001DE5825FFFE582D313CB5BCBF42B558218
:1002D000FB50280ABA002409B9002008801DE582D5
:1002E0005BFBE582D313CF5FCFF4C3132F5582FF9F
:1002F00050090EBE00050DBD00010CC3EB9FF5F0CB
:10030000EA9E42F0E99D42F0E89C45F06007CC4847
:1003100020E701B3EC22F920E73624F950037907EE
:10032000E4F42402FBE582158270021583DBF6E01B
:1003300024FB501BE96014E4F0E58215827002157D
:1003400083E004F0B40A08E4F0D9EE7401F00A2264
:10035000C2D522ED33EC3392D5FA602AB4FF33EDE7
:10036000C2E77BFF60067A037978E4227A03798119
:1003700020D5047A03797C224E614E002B494E46EB
:10038000002D494E4600E47A08F0A3DAFC7B0074A5
:100390000722C083C082ECC0E0EDC0E0EEC0E0EF19
:1003A000C0E0EA75F010A4CAABF075F04DA42BFBC9
:1003B000E435F0FCEA2410FAEB34C5FBEC34D9FC4C
:1003C000EDC2E7FF75F056A4F42411C5F0F434C56E
:1003D0008FF0A42AE5F03BE43CF020E71412058EF0
:1003E000D0E0FFD0E0FED0E0FDD0E0FC120049807C
:1003F00014F40412058ED0E0FFD0E0FED0E0FDD072
:10040000E0FC120458D082D083E0FAEDD2E7CD337D
:10041000EC332482FBE4C3CF33CFCE33CECD33CD08
:1004200033DBF37B0775F00A846004F0A31B0AE555
:10043000F0F0A38FF0740AA4FFACF08EF0740AA45D
:100440002CFEACF050010C8DF0740AA42CFDE435A8
:10045000F0F0A3DBDE740722EC4D6011E849701761
:10046000ED33EC3304600DE4FCFFFEFD22E933E8DC
:10047000330470F802019012015B58046009E4CC67
:100480002481500628500902019A2840030201974E
:10049000C0E0EB4A7044B98006D0E0FB020186EF71
:1004A0004E701CBD8008EBFFEAFEE9FD80EBE98D94
:1004B000F0A4FEE5F0020541E9CDF9EAFEEBFFEF1D
:1004C00089F0A4FCE5F0CE89F0A42EFFE435F0CD50
:1004D00089F0A42DFEE435F08067EF4E7005BD80F5
:1004E000D780C3EF8BF0A4ACF0EE8BF0A42CFCE42F
:1004F00035F0F8EF8AF0A42CE5F038FCE433CB8D2E
:10050000F0A42CFCE5F03BF8EE8AF0A42CFCE5F01E
:1005100038F8E433CF89F0A42CFCE5F038CF340070
:10052000CE89F0A42FFFE5F03EFEE433C98DF0A4A0
:100530002EFEE5F039CD8AF0A42FFFE5F03EFEE473
:100540003DFD33D0E0FB50070BBB000F02019AECDE
:100550002CFCEF33FFEE33FEED33FD0201723F80E2
:1005600000004120000042C80000447A0000461C00
:10057000400047C35000497424004B1896804CBE7D
:10058000BC205A0E1BCA6753C21C749DC5AEFB60CB
:10059000065407601C23231205BCEB543860091273
:1005A00005A81205B7120458ECF8EDF9EEFAEFCBF6
:1005B00022EB1205B780F1543803241C90055EFE2F
:1005C00093FC0EEE93FD0EEE930ECE93FF22E70901
:1005D000F608DFFA8046E709F208DFFA803E8882F3
:1005E0008C83E709F0A3DFFA8032E309F608DFFA2B
:1005F0008078E309F208DFFA807088828C83E3094F
:10060000F0A3DFFA806489828A83E0A3F608DFFA28
:10061000805889828A83E0A3F208DFFA804C80D276
:1006200080FA80C680D4806980F28033801080A6F2
:1006300080EA809A80A880DA80E280CA803389824A
:100640008A83ECFAE493A3C8C582C8CCC583CCF0F6
:10065000A3C8C582C8CCC583CCDFE9DEE7800D899D
:10066000828A83E493A3F608DFF9ECFAA9F0EDFBA4
:100670002289828A83ECFAE0A3C8C582C8CCC583EC
:10068000CCF0A3C8C582C8CCC583CCDFEADEE88045
:10069000DB89828A83E493A3F208DFF980CC88F0B7
:1006A000EF60010E4E60C388F0ED2402B4040050E8
:1006B000B9F582EB2402B4040050AF232345822312
:1006C00090061E73BB010689828A83E0225002E7EE
:1006D00022BBFE02E32289828A83E49322BB010CBF
:1006E000E58229F582E5833AF583E0225006E92583
:1006F00082F8E622BBFE06E92582F8E222E582299D
:10070000F582E5833AF583E49322BB010FF8E58295
:1007100029F582E5833AF583E028F0225009C58265
:1007200029F8E58226F622BBFE09C58229F8E225D2
:1007300082F222F8EA2583F583E9932822BB010699
:1007400089828A83F0225002F722BBFE01F322F84D
:10075000BB010DE58229F582E5833AF583E8F022B5
:100760005006E92582C8F622BBFE05E92582C8F2BB
:1007700022EF8DF0A4A8F0CF8CF0A428CE8DF0A4A9
:100780002EFE22BC000BBE0029EF8DF084FFADF0E1
:1007900022E4CCF875F008EF2FFFEE33FEEC33FCCB
:1007A000EE9DEC984005FCEE9DFE0FD5F0E9E4CE01
:1007B000FD22EDF8F5F0EE8420D21CFEADF075F0D0
:1007C00008EF2FFFED33FD4007985006D5F0F222D9
:1007D000C398FD0FD5F0EA22C5F0F8A3E028F0C5D4
:1007E000F0F8E582158270021583E038F022BB0133
:1007F0000A89828A83E0F5F0A3E022500687F00997
:10080000E71922BBFE07E3F5F009E3192289828A82
:1008100083E493F5F074019322BB0110E58229F57E
:1008200082E5833AF583E0F5F0A3E0225009E9255B
:1008300082F886F008E622BBFE0AE92582F8E2F596
:10084000F008E222E5832AF583E993F5F0A3E99322
:1008500022BB010A89828A83F0E5F0A3F0225006C8
:10086000F709A7F01922BBFE06F3E5F009F31922F8
:10087000F8BB0111E58229F582E5833AF583E8F0BA
:10088000E5F0A3F0225009E92582C8F608A6F02277
:10089000BBFE09E92582C8F2E5F008F222EF2BFF42
:1008A000EE3AFEED39FDEC38FC22C3EF9BFFEE9AE9
:1008B000FEED99FDEC98FC22E88FF0A4CC8BF0A41F
:1008C0002CFCE98EF0A42CFC8AF0EDA42CFCEA8E22
:1008D000F0A4CDA8F08BF0A42DCC3825F0FDE98F45
:1008E000F0A42CCD35F0FCEB8EF0A4FEA9F0EB8F3C
:1008F000F0A4CFC5F02ECD39FEE43CFCEAA42DCE09
:1009000035F0FDE43CFC2275F008758200EF2FFF06
:10091000EE33FECD33CDCC33CCC58233C5829BEDD7
:100920009AEC99E58298400CF582EE9BFEED9AFDDB
:10093000EC99FC0FD5F0D6E4CEFBE4CDFAE4CCF98B
:10094000A88222B800C1B90059BA002DEC8BF084FE
:10095000CFCECDFCE5F0CBF97818EF2FFFEE33FECC
:10096000ED33FDEC33FCEB33FB10D703994004EB84
:1009700099FB0FD8E5E4F9FA227818EF2FFFEE3350
:10098000FEED33FDEC33FCC933C910D7059BE99A62
:100990004007EC9BFCE99AF90FD8E0E4C9FAE4CCF3
:1009A000FB2275F010EF2FFFEE33FEED33FDCC335D
:1009B000CCC833C810D7079BEC9AE899400AED9B46
:1009C000FDEC9AFCE899F80FD5F0DAE4CDFBE4CC25
:1009D000FAE4C8F922EF4BFFEE4AFEED49FDEC4880
:1009E000FC22C3E49FFFE49EFEE49DFDE49CFC2208
:1009F000EB9FF5F0EA9E42F0E99D42F0E89C45F05D
:100A000022E8600FECC313FCED13FDEE13FEEF13B1
:100A1000FFD8F122E8600FEFC333FFEE33FEED3372
:100A2000FDEC33FCD8F122BB010789828A83020ADC
:100A3000915005E9F8020B8EBBFE05E9F8020B9A0E
:100A400089828A83020BA6BB010DE58229F582E526
:100A5000833AF583020A915007E92582F8020B8E4A
:100A6000BBFE07E92582F8020B9AE58229F582E5AB
:100A7000833AF583020BA6BB010789828A83020AA7
:100A8000A95005E9F8020BB6BBFE05E9F8020BC256
:100A900022E0FCA3E0FDA3E0FEA3E0FF22E0F8A338
:100AA000E0F9A3E0FAA3E0FB22ECF0A3EDF0A3EE63
:100AB000F0A3EFF022A8828583F0D083D082120ABF
:100AC000CC120ACC120ACC120ACCE473E493A3C56C
:100AD00083C5F0C583C8C582C8F0A3C583C5F0C56A
:100AE00083C8C582C822E0FBA3E0FAA3E0F922F89C
:100AF000E0FBA3A3E0F925F0F0E582158270021572
:100B000083E0FA38F022EBF0A3EAF0A3E9F022D078
:100B100083D082F8E4937012740193700DA3A393B1
:100B2000F8740193F5828883E4737402936860EF2C
:100B3000A3A3A380DFEC8EF0A4CCC5F0CCCDF8EF5E
:100B4000A4CEC5F02DFDE43CFCE8A42EC8C5F03DC4
:100B5000FDE43CFCEFA4FFE5F028FEE43DFDE43CB1
:100B6000FC22EF4E6012EF60010EEDBB010B89829B
:100B70008A83F0A3DFFCDEFA2289F05007F709DF51
:100B8000FCA9F022BBFEFCF309DFFCA9F022E6FC85
:100B900008E6FD08E6FE08E6FF22E2FC08E2FD08A2
:100BA000E2FE08E2FF22E493FC740193FD740293D9
:100BB000FE740393FF22ECF608EDF608EEF608EF5C
:100BC000F622ECF208EDF208EEF208EFF222410D07
:100BD0004200440D3E000000005E0CEC411100009C
:100BE0000000000000000000000000000000000005
:100BF00000000000000000000000420CE500004280
:100C00000CE80000420D150000410CE7C44A0D0A33
:100C100000410073049800BE04FC410D1400620002
:100C2000059200FFFFFFFFFFFF00313806030400BD
:100C3000000009210104A523147823EE91A3544C4C
:100C400099260F5054010800010101010101010121
:100C5000010101010101010108E80030F2705A8030
:100C6000B0588A0040846300001E023A8018713830
:100C70002D40582C4500BA882100001E000000FDC0
:100C800000184B0F873C000A202020202020000065
:100C900000FC00445020417564696F2D380A202003
:100CA00001E802031240451004010312230F040758
:100CB000834F000000000000000000000000000062
:100CC0000000000000000000000000000000000024
:100CD0000000000000000000000000000000000014
:100CE0000000000000000000000000000000000004
:100CF00000000000000000000000000000000000F4
:100D000000000000000000000000000000000000E3
:100D100000000000000000000000000000000000D3
:100D2000002B000000000000000000000000000098
:100D300000000000000000000000000000000000B3
:100D400000000000000000000000000000000000A3
:100D50000000000000000000000000000000000093
:100D60000000000000000000000000000000000083
:100D70000000000000000000000000000000000073
:100D80000000000000000000000000000000000063
:100D90000000000000000000000000000000000053
:100DA0000000000000000000000000000000000043
:100DB0000000000000000000000000000000000033
:100DC0000000000000000000000000000000000023
:100DD0000000000000000000000000000000000013
:100DE0000000000000000000000000000000000003
:100DF00000000000000000000000000000000000F3
:100E000000000000000000000000000000000000E2
:100E100000000000000000000000000000000000D2
:100E2000000044057F000000004105830041058467
:100E3000004405860000000041058A0041058B0042
:100E4000440DCF00000000440DFA000000005A0DD0
:100E50006300024414089807800058002C00940492
:100E60006504380004000500240101560B894F5227
:100E7000418000FF7E05006C00000000010003209F
:100E80007B000051410A7B00560B2C4F54418000DF
:100E9000FF0000006C0000000000000000080000DF
:100EA000005E09C981FB18800000000000000000FE
:100EB0000101000000000000000000000001000B24
:100EC00000004109A4004109A5004409A600000052
:100ED000004209AA00644109AC004109AD0044097F
:100EE000AE000000004109B2004409B30000000058
:100EF0004109B7004109B8004409B90000000041A8
:100F000009BE004109BF004409C0000000004109BA
:100F1000C4004409C500000000410E2800410E0E27
:100F200000420E0F0000410E1100420E120000425E
:100F30000E140000420E170000410E1B004100007D
:100F40000041000100410002004100030041000493
:100F500000420005000042000700004200090000B6
:100F600042000B000042000D000042000F00004A4A
:100F700000110000000000000000000041001B0004
:100F800044001C0000000041002000410E450141CA
:100F90000E4400410E4700410E46005A0D7D005898
:100FA000002C0094078008980004000500240438F1
:100FB0000465000249F000004A0C6F0000000000C8
:100FC0000000000000440C7900000000410C7D008E
:100FD000410DE800410DE708410DF908410DE60813
:100FE000620007A400FFFFFFFFFFFF004DD904AA26
:100FF00001010101011D0103807A44780A0DC9A095
:101000005747982712484C2108008180A9C0714F8A
:10101000B300010101010101010108E80030F27093
:101020005A80B0588A00C2AD4200001E08E8003065
:10103000F2705A80B0588A00C2AD4200001E000013
:1010400000FC004C54344B3630433434340A2020F6
:10105000000000FD0017790E883C000A20202020A7
:1010600020200177020361F05861605D5E5F621FBE
:10107000101405130420223C3E1203110265663F42
:10108000402C097F07097F075F7F00577F00837F20
:1010900000006E030C001000B83C2F00800102031A
:1010A0000467D85DC401788003EB0146D000440B8F
:1010B000888660768FE200CBE305DF01E40F030052
:1010C00030E3060D01011D007251D01E206E28551F
:1010D00000C2AD4200001E00000000000000000041
:1010E000000000F30000000000000000000000000D
:1010F00000000000000000000000000000000000F0
:1011000000000000000000000000000000000000DF
:1011100000000000000000000000000000000000CF
:1011200000000000000000000000000000000000BF
:1011300000000000000000000000000000000000AF
:10114000000000000000000000000000000000009F
:10115000000000000000000000000000000000008F
:10116000000000000000000000000000000000007F
:10117000000000000000000000000000000000006F
:10118000000000000000000000000000000000005F
:10119000000000000000000000000000000000004F
:1011A000000000000000000000000000000000003F
:1011B000000000000000000000000000000000002F
:1011C000000000000000000000000000000000001F
:1011D000000000000000000000000000000000000F
:1011E000000000005A0D9B000249F008980780009B
:1011F00058002C0094046504380004000500240005
:1012000000410E2900410E2A00410E2B00410E2CF8
:1012100000420E2D0000420E2F0000420E31000051
:10122000420E330000410E5000410E5100410E525B
:101230000000900BA2EFF0EB6003021825ED6003B5
:101240000216ABE0120B0F184B01184B021284036D
:10125000131904184B0513B306146B0714A10815D2
:10126000050915510A15A60B15CB0C15DD0D1344F8
:101270001015F31116641216211316641416641552
:1012800000001675900B7FE0B402037403F07B80BE
:101290007D06E4FF12C09B900B06E0B50710900B93
:1012A0007FE0B401097BFF7A4F79191273A17B802B
:1012B0007D09E4FF12C09B900B06E0B50710900B70
:1012C0007DE0540FF04410F0E4900B67F0227B8037
:1012D0007D0BE4FF12C09B900B06E0B5070E900B50
:1012E0007DE05430600302184B0215C57B807D0AF7
:1012F000E4FF12C09B900B06E06F600302184B9056
:101300000B78E0B401037402F0900B79E0B40103B0
:101310007402F0900B660218017B807D0AE4FF12D4
:10132000C09B900B06E0B5071B900A7BE064016050
:1013300006900B49E0700D900B80E020E206900BC8
:10134000747403F07B807D0AE4FF12C09B900B064F
:10135000E0B50724E4FD7F11123580900B6974011C
:10136000F0E4900B78F0A37403F09009E8E0F460E7
:101370000302184B7405F0227B807D0BE4FF12C042
:101380009B900B06E0B5070E900B7DE05430600398
:1013900002184B0215C57B807D09E4FF12C09B90AB
:1013A0000B06E06F600302184B900B7DE04420F0C9
:1013B00002161A900B7F7401F0900B78E0604BA33B
:1013C000E0FF64026005EF6403703F900B787401E6
:1013D000F0A37403F07D017F111235801F12358058
:1013E000900B02E0C3940240057B030D80047B0256
:1013F0007D02E4FF12AB87900B737401F0900B66D3
:10140000F0900B6DF012CB41D2CA900B79E0B4068C
:101410000FE4900B78F0900B66F0900B797402F06B
:101420007B807D0BE4FF12C09B900B06E0B5070D9F
:10143000900B7DE054307005900B7A04F07F011220
:10144000C24BEF6401600302184B900B77E060031E
:1014500002184B900B66E0600302184B900B7BE088
:10146000600302184B900B7704F0227F0112C24BED
:10147000BF011112B95212BEF3BF0123900B7F744A
:1014800005F0807E900B02E0C394027BFF50067A49
:101490004F791180047A4F7917900A7D120B0680DC
:1014A00061900B7FE0FF64026004EFB4062012BE7F
:1014B000F3BF0106900B727401F0E4900B07F07B10
:1014C000FF7A4F7919900A7D120B060216A8900B2D
:1014D0007FE0B4030C12BD8EEF600302184B0216BE
:1014E0005D900B7F7401F0900B02E0C394027BFFD0
:1014F00040067A4F79D980047A4F79CF900A7D12CD
:101500000B060216A8900B80E054F8600C12BD8EFA
:10151000EF600302184B02165DE4900B6FF0900B26
:101520007A7402F0900B67E07BFF70097A4F7911B3
:101530001273A1801112739D7B807D09E4FF12C09C
:101540009B900B06EFF0900B7DE0540FF04410F0F1
:10155000227F0112C24BEF7021900B02E0C3940274
:101560007BFF40067A4F791780047A4F7911900AF1
:101570007D120B061273A702161A90D306E030E60E
:1015800019E4FD7F11123580900B7F7402F0900BEF
:101590007814F0A37404F00217C5900B787402F06D
:1015A000A312739A8074E4900B6FF0900B7DE0446B
:1015B0000112739A900B0674FFF0900B7DE054308B
:1015C000600302184B900B7A04F022900B6F7401A9
:1015D000F0900B08120AE6900B0B020B06E4900B3E
:1015E00007F012BEF3BF0106900B727401F0127384
:1015F0009B80277F0112C24BBF0110900AD4E0905C
:1016000009E4F07B017A0979C980067BFF7A4F797A
:1016100017900A7D120B061273A7900B0674FFF049
:1016200022900B7BE06026900B66E07BFF600F1240
:10163000739DE4900B66F07B807D130217CD7A4F8B
:1016400079111273A17B807D04E40217CD7F017EA6
:101650000012C12312BD8EEF600302184B900B7471
:101660007402F0227BFF7A4F79171273A17B807D81
:1016700010E40217CD900B02E0C394027BFF4010F0
:101680007A4F7917900A7D120B067B807D10800EB1
:101690007A4F7911900A7D120B067B807D04E4FF5E
:1016A00012C09B900B06EFF00273A7900BA2E024F0
:1016B000FE70030217411470030217D024FD70035B
:1016C00002180514700302180524F8700302181696
:1016D000240E600302184B90079BE0FF900B76E00E
:1016E000FD12A03FE4900B6EF0900B7F7402F0901F
:1016F0000B7C14F0900B02E0C394024010900AA2FD
:10170000E054C0FFC413135403900B02F0E4900B99
:1017100066F07B017A0A79A6900BA8120B06900B53
:1017200002E0900BABF07A0A79807D011269D57BDB
:10173000017A0A79A61273A17B807D027F010218CB
:101740003F7F037E0012C12390E51CE04410F0901F
:10175000E53C7410F0900B7F7404F0900B02E0C332
:101760009402400F900AA2E054C0C4131354039093
:101770000B02F0900B02E0C3940240047B03800252
:101780007B027D02E4FF12AB87900B667401F012BE
:10179000974912000EEF702D7BFF7A4F791112736B
:1017A000A1900B0674FFF0900B67E0600D900B7D2D
:1017B000E054307005900B7A04F0900B7F7401F0C8
:1017C000900B69F02212739B7B807D03E4FF806F96
:1017D000900A83E0B45027E4900B2BF090FC17E0C4
:1017E0004480F090FC1A7443F090FC197409F07F67
:1017F000287E0012C12390FC17E0547FF022900B4A
:101800002B7401F0227BFF7A4F79171273A17B8032
:101810007D10E4FF8029900A7CE04404F0900BA244
:10182000E0FF022281900BA2E01424F25002801803
:101830007BFF7A4F79171273A17B807D10E4FF1232
:10184000C09B900B06EFF022128F8F229007A0E032
:10185000120B0F187B0118860218C70318DC041836
:10186000EB051987061AE6071C57081D05091D56C2
:101870000A1D7E0B1DF80C00001DFD12AAD912CB0B
:10188000797F02021DFA9007A1E030E0107B017A17
:1018900005798612CAEB9007A1E054FEF07B017A2D
:1018A0000579867DC87C0012A148EF6401600302BF
:1018B0001DFD12C4FF900792E0FF7D2812AD307F1E
:1018C0000312B5A002C9B6900798E020E603021DF6
:1018D000FD1290E112C2C87F04021DFA9007A1E038
:1018E00020E103021DFD7F05021DFA9007A1E030F3
:1018F000E0107B017A05798612CAEB9007A1E054CB
:10190000FEF07B017A0579867D647C0012A148EFA8
:1019100064016003021DFD12C60C12C9C31282F3DA
:1019200012C8FE7F0612B5A0900797E0B40113908D
:101930000591E0FF7D0112BC9C7BFF7A2C79FD02B2
:101940001DF37BFF7A2D79077F01129A48900B7166
:10195000E0FF900B76E0FD12A8B8900A7CE044040A
:10196000F090079BE07F01B404027F00900B6AEFC8
:10197000F07BFF7A4F7989900A7D120B061273A7CC
:10198000900B0674FFF0229007A1E030E0167B0177
:101990007A05798612CAEB9007A1E054FEF0900513
:1019A0008B7401F012C8EFBF01057F07021DFA7B9F
:1019B000017A0579867D107C2712A148EF640160C9
:1019C00003021DFD90058BE07003021DFDE4F07B1A
:1019D000FF7A2D79137F01129A487F007E017D00E6
:1019E0007C0012B9C2900BDBEFF07BFF7A2D7927D8
:1019F0007F01129A487F017E017D007C0012B9C2EE
:101A0000900BDBEFF07BFF7A2D79397F01129A483A
:101A10007F037E017D007C0012B9C2900BDBEFF0EA
:101A20007BFF7A2D794B7F01129A487F047E017DDE
:101A3000007C0012B9C2900BDBEFF07BFF7A2D79AE
:101A40005D7F01129A487F047E017D007C0012B9FF
:101A5000C2900BDBEFF07BFF7A2D796F7F01129A3A
:101A6000487F047E017D007C0012B9C2900BDBEF41
:101A7000F07BFF7A2D79817F01129A487F077E01E2
:101A80007D007C0012B9C2900BDBEFF07BFF7A2D5A
:101A900079937F01129A487F027E027D007C0012BA
:101AA000B9C2900BDBEFF07BFF7A2D79A57F011295
:101AB0009A487F037E027D007C0012B9C2900BDB46
:101AC000EFF07BFF7A2D79B77F01129A487F047E71
:101AD000027D007C0012B9C2900BDBEFF07BFF7A35
:101AE0002D79C9021DF39007A1E030E0107B017A47
:101AF00005798612CAEB9007A1E054FEF07B017ACB
:101B00000579867D587C0212A148EF6401600302CA
:101B10001DFD7828E6FE541F900BDBF0EEC4135435
:101B200007A3F07BFF7A2D79DB7F01129A487BFFB8
:101B30007A2D79FD7F01129A487F007E017D007C1D
:101B40000012B9C2900BDBEFF07BFF7A2D79277F73
:101B500001129A487F017E017D007C0012B9C2907B
:101B60000BDBEFF07BFF7A2D79397F01129A487FEA
:101B7000037E017D007C0012B9C2900BDBEFF07B8D
:101B8000FF7A2D794B7F01129A487F047E017D00F8
:101B90007C0012B9C2900BDBEFF07BFF7A2D795DF0
:101BA0007F01129A487F047E017D007C0012B9C239
:101BB000900BDBEFF07BFF7A2D796F7F01129A4853
:101BC0007F047E017D007C0012B9C2900BDBEFF038
:101BD0007BFF7A2D79817F01129A487F077E017DF4
:101BE000007C0012B9C2900BDBEFF07BFF7A2D79FD
:101BF000937F01129A487F027E027D007C0012B919
:101C0000C2900BDBEFF07BFF7A2D79A57F01129A52
:101C1000487F037E027D007C0012B9C2900BDBEF8F
:101C2000F07BFF7A2D79B77F01129A487F047E02FC
:101C30007D007C0012B9C2900BDBEFF07BFF7A2DA8
:101C400079C97F01129A481232031262FDE49005AD
:101C50008AF07F08021DFA9007A1E030E0157F04AA
:101C600012B3737B017A05798612CAEB9007A1E063
:101C700054FEF07B017A0579867DC87C0012A1486C
:101C8000EF64016003021DFD7828E6C4135407FFCA
:101C900012AC34EF606A7BFF7A2E7912E4FF129A5D
:101CA0004890058AE004F07F0412B3737B017A0543
:101CB000798612CAEB90058AE0B4051D7BFF7A2E67
:101CC000791DE4FF129A48900590E0FF7822E6FE25
:101CD0001313135401FD02923090058AE0D3940847
:101CE0005003021DFDE4F07BFF7A2E7927FF129A44
:101CF00048900797E0B4020312C6917F0202C42104
:101D00007F09021DFA9007A1E030E01312CA6E7B32
:101D1000017A05798612CAEB9007A1E054FEF07BA8
:101D2000017A0579867D587C0212A148EF64016032
:101D300003021DFD1283C1EF70177BFF7A2E7933EA
:101D40007F01129A4812C1457B017A05798602CA41
:101D5000EB7F0A021DFA9007A1E030E01212A5F312
:101D600012CA79E4FF12C7A69007A1E054FEF01250
:101D700058C4EF64016003021DFD7F0B807C900757
:101D8000A1E030E01C1250A5E4FF123C1EEF606D94
:101D90007B017A05798612CAEB9007A1E054FEF028
:101DA0002212BA9CEF640270347BFF7A2E79407F56
:101DB00001129A48E4FDFF12A790900BDB120AA9CA
:101DC0007BFF7A2E79527F01129A487D01E4FF123F
:101DD000C0DF12C10112C6A47F0C12B5A07B017A2C
:101DE0000579867D407C0612A148BF01107BFF7AF1
:101DF0002E79657F01029A487F0D12B5A022E50871
:101E00002442F582E4340CF583E0050822900C3F6F
:101E1000300703900C42E475F001120AEF0206C489
:101E20002000E97F2ED2008018EF540F2490D43484
:101E300040D4FF30040BEF24BFB41A0050032461D8
:101E4000FFE50960021509050CE50C7002050B3071
:101E5000070E900C3FE475F001120AEFEF02073D08
:101E600002BFBE7403D2078003E4C207F508900CDA
:101E70003F120B06E4F509F50BF50CE50960077F49
:101E800020121E4180F5750AFFC201C200C202C2C3
:101E900003C205C206C208121E0DFF700D300705F1
:101EA0007F00121E52AF0CAE0B22B4255FC2D5C20A
:101EB00004121E0DFF24D0B40A00501A75F00A78DF
:101EC0000930D50508B6FF0106C6A426F620D504BC
:101ED0007002D20380D924CFB41A00EF5004C2E5B7
:101EE000D204022144D20180C6D20080C0D2028036
:101EF000BCD2D580BAD20580B47F20121E41200208
:101F0000077401B5090040F1121DFEFF121E4102C7
:101F10001E7BD208D2068095121DFEFB121DFEFA12
:101F2000121DFEF94A4B700679427A227BFF20028D
:101F30002EE509602A7E008E827583001206DD6020
:101F4000060EEE650A70F0C2D5EBC0E0EAC0E0E92B
:101F5000C0E0EE1221A5D0E0F9D0E0FAD0E0FB120B
:101F600006C4FF60AAEBC0E0EAC0E0E9C0E0121ED0
:101F700041D0E02401F9D0E03400FAD0E0FBE50ADA
:101F80000460DCD50AD98087D20280A21221876042
:101F9000F7E50A700104120316A90A600DE50A604C
:101FA0000914F50A12222FEF60F3EA30E702F40475
:101FB000C3995079EAF4250A0430E701E404F50AEC
:101FC000800D12218760C1EA050A250A120316EA6C
:101FD000900C6EF030E701E4250A04D50A042005D0
:101FE00001141221A5E4C0E012222F900C6EE060D3
:101FF0001320E70714F0121E29802204F0D0E01409
:10200000C0E07F00121E29E50A6007121E20150A93
:10201000800B300503121E20D0E0021E7BD0E004AE
:1020200080C4122187609EE50A04120316900C6E8C
:10203000EAF0E50A20050260010424041221A574D7
:10204000FF04C0E012222F121E29E50A20050260BB
:1020500003121E20D0E0B50AE87F45121E33900C13
:102060006EE07F2B30E7047F2DF404C0E0121E41A8
:10207000D0E075F00A84C0F0121E2AD0E0121E2AA9
:10208000021E7B791080027908C206C2088008D23D
:10209000D5790A8004790AC2D5E50A047002F50AE6
:1020A000E4FAFDFEFF121DFEFC7B08200113121D49
:1020B000FEFD7B1030000A121DFEFE121DFEFF7B8E
:1020C00020EC3382D592D55013C3E43000069FFF35
:1020D000E49EFEE42001039DFDE49CFCE4CBF8C2F9
:1020E00001EC700CCFCECDCCE824F8F870F380175B
:1020F000C3EF33FFEE33FEED33FDEC33FCEB33FB8C
:10210000994002FB0FD8E9EB300105F8D0E0C44854
:10211000B201C0E00AEC4D4E4F78207B0070C2EA5D
:10212000B50A0040BCC0E01221A7D0F0D0E02001E9
:1021300004C4C0E0C4B201C0F0121E2AD0F0D5F031
:10214000EB021E7B120B0F1F18532083581EE94C05
:102150001EE54220874F208F44208F491EFE4320DA
:1021600095551FC2462022451F8C472262501EED06
:102170002D1EF12E1F142B1EF5231F1220224B2A79
:102180001EAD4800001F0CE50AB4FF03750A0612D5
:102190001DFEFC121DFEFD121DFEFE121DFEFF9017
:1021A0000C67020353790AA2D5200314300509B93C
:1021B00010020404B9080104A2D52006025001044B
:1021C0002002689202B509005034C0E07F2030033D
:1021D000197F30A20272067205500F1221FEC20250
:1021E000C206C205C2087F30800F300503E9C0E097
:1021F000121E41300503D0E0F9D0E0B509CC30051E
:10220000177F30B9100C121E417F583004077F78B9
:102210008003B90803121E413002057F2D021E41C2
:102220007F202008F87F2B2006F322920280CF7FA8
:1022300000B40700500B2467F582E4340CF583E00A
:10224000FF22286E756C6C2900D201121DFE300130
:10225000F8C201780930D50108F6021EAD2D5043B1
:102260004958121DFE2403B405004001E490225D8C
:1022700093121E32743A121E32D2037509040220E0
:1022800083EF640F60030226BF900A81E020E7031A
:1022900002255AA3E0D394FF40030224A2A3E0F452
:1022A00060030224A2900A80E0541F120B0F22C781
:1022B0000122FB02231E0323780423E805243410A3
:1022C000246E11000026BF900B02E0FF744012B58F
:1022D000E37A0B7989900A7D120B06900B02E0C31A
:1022E0009402500A900AA2E020E5030226BF12736E
:1022F000A7900B80E04401F002251C900B80E04485
:1023000002F0900B42E07BFFB401067A4F79E38044
:10231000047A4F792F900A7D120B06022548900B04
:1023200080E04404F0900B42E0B401087BFF7A4F58
:1023300079F1803490079BE078D67C0A7D017BFFA1
:10234000B404067A4F793980047A4F79437E007F4E
:102350000A12069E900B80E020E1077D037F801229
:10236000B1747B017A0A79D6900A7D120B0612733A
:10237000A77B807D0302254F900B80E04408F0305E
:10238000E13C900B67E0FFB40107900B7DE020E497
:1023900003EF704D78D67C0A7D017BFF7A4F794D33
:1023A0007E007F0612069E900A81E05407FF7D049E
:1023B000BF01047F4080027F8012B174801A78D6FA
:1023C0007C0A7D017BFF7A4F794D7E007F061206E5
:1023D0009E7D047F8012B1747B017A0A79D61273D4
:1023E000A17B807D0402254F78D67C0A7D017BFF8E
:1023F0007A4F79577E007F0612069E900B80E03060
:10240000E314900A81E05407FF7D05BF01047F407B
:1024100080087F8080047D057F8012B1747B017A03
:102420000A79D61273A1900B80E054F7F07B807D7F
:102430000502254F900B80E04410F090079BE07F51
:1024400001B404027F00900B6AEFF0900B80E07BF8
:10245000FF30E6067A4F796B80047A4F7961900AF3
:102460007D120B061273A77B807D1002254F900B07
:1024700080E04420F07BFF7A4F79751273A1E490DD
:102480000B6EF07F0112C24BBF0106900B66E0603D
:102490000A9009E8E0B4FF037405F07B807D110227
:1024A000254F900A82E0647E7051A3E06405704B72
:1024B000900A80E0541F24FC60030226BF90E332A0
:1024C0007455F0900B80E04408F0900B42E0700EE1
:1024D000900B49E07008900B747403F080177BFF39
:1024E0007A4F79FF1273A17B807D047F0312C09B1A
:1024F000900B06EFF0900B420226A3900A80E05466
:102500001F24FE601D0460030226BF900B02E0FF43
:10251000748012B5E37A0B792C1273A17B807D0154
:10252000802D78D67C0A7D017BFF7A4F792F7E0043
:102530007F0A12069E7D027F8012B1747B017A0AA7
:1025400079D6900A7D120B061273A77B807D027FDD
:102550000312C09B900B06EFF022900A81E030E757
:10256000030226A7A3E0647E60030226BFA3E06403
:102570000560030226BF900A85E0FCB4010EA3E0CB
:10258000B416097BFF7A507937022661ECB4011743
:10259000900A86E0B40B107F037E0012C1237BFFFC
:1025A0007A507945022661900A85E0B40115A3E0CE
:1025B000B418107F037E0012C1237BFF7A50795339
:1025C000022661900A85E064017047A3E06401700F
:1025D00041900A8AE0B4141CA3E0B480177F037E04
:1025E0000012C1237BFF7A5079611273A1900B9F77
:1025F0007402F022900A8AE060030226BFA3E06022
:10260000030226BF7F03FE12C1237BFF7A50790DA0
:10261000804F900A85E0B40114A3E0B4100F7F034B
:102620007E0012C1237BFF7A50796F8034900A8537
:10263000E0B40114A3E0B4060F7F037E0012C123AF
:102640007BFF7A50797D8019900A85E0B4011BA345
:10265000E0B420167F037E0012C1237BFF7A5079FD
:102660008B900A7D120B060273A7900A85E0640125
:10267000704DA3E0641C70477F03FE12C123900AD3
:1026800084E0FCB4010E7BFF7A50791B1273A19099
:1026900009E7800FEC70287BFF7A5079291273A12B
:1026A000900B9F7401F022900B02E0C39402400F44
:1026B0007BFF7A4F79171273A1900B0674FFF022FB
:1026C000900BA0EFF07F0112C87112C8817832E63A
:1026D000B40F03022A98E490F103F090F104F09013
:1026E000F105F07832E6701D08E6B4221808E6FF1E
:1026F000D3940F5010E490F103F090F104F090F1B6
:1027000005EFF080137832E690F103F008E690F1DF
:1027100004F008E690F105F0E47813F6900BA0E0E1
:10272000FF7813E6FEC39F5026EE601390F105E09C
:10273000B4FF0690F104E004F090F105E004F0909D
:10274000F154E0FF74452EF8A60778130680CD7883
:1027500032E6FC706F08E6706B7812F67834E62487
:102760007F602314603614604924036003022ADC6E
:102770007812E6FF12C00B900BA0E0FF781206E67D
:102780006F7003022ADC7812E6FF12AFAD900BA047
:10279000E0FF781206E66F7003022ADC7812E6FF8B
:1027A00012CB1E900BA0E0FF781206E66F700302BA
:1027B0002ADC7812E6FF12CB25900BA0E0FF7812FE
:1027C00006E66F22EC60030228FD7833E6640260BF
:1027D000030228FD7812F67834E6120B0F28050064
:1027E000281B01283102284703285D042873052887
:1027F0008906289F0728B11028C51228D91428ED6A
:102800001600002ADC7812E6FF12C61F900BA0E02B
:10281000FF781206E66F7003022ADC7812E6FF12D8
:10282000C632900BA0E0FF781206E66F7003022A12
:10283000DC7812E6FF128488900BA0E0FF78120685
:10284000E66F7003022ADC7812E6FF128C13900BFD
:10285000A0E0FF781206E66F7003022ADC7812E629
:10286000FF12A6C6900BA0E0FF781206E66F700379
:10287000022ADC7812E6FF12CAE2900BA0E0FF7891
:102880001206E66F7003022ADC7812E6FF12B0939C
:10289000900BA0E0FF781206E66F7003022ADC7846
:1028A00012E6FF12BF47900BA0E0FF781206E66F1A
:1028B00022E4FF12B373900BA0E0FF781206E66FDC
:1028C0007003022ADC7F0112B373900BA0E0FF7843
:1028D0001206E66F7003022ADC7F0212B373900BBC
:1028E000A0E0FF781206E66F7003022ADC7F031275
:1028F000B373900BA0E0FF781206E66F227832E601
:102900006003022A3908E664206003022A3978123B
:10291000F67834E6120B0F294502295B032971046E
:10292000298005298F06299E0729AD0829BC092978
:10293000CB0A29DA0B29E90C29FF0D2A150E2A27C3
:102940000F00002ADC7812E6FF12C61F900BA0E0F1
:10295000FF781206E66F7003022ADC7812E6FF1297
:10296000C632900BA0E0FF781206E66F7003022AD1
:10297000DC900BA0E0FF781206E66F7003022ADC01
:10298000900BA0E0FF781206E66F7003022ADC903D
:102990000BA0E0FF781206E66F7003022ADC900BB2
:1029A000A0E0FF781206E66F7003022ADC900BA00D
:1029B000E0FF781206E66F7003022ADC900BA0E0BD
:1029C000FF781206E66F7003022ADC900BA0E0FF8E
:1029D000781206E66F7003022ADC900BA0E0FF7805
:1029E0001206E66F7003022ADC7812E6FF12848872
:1029F000900BA0E0FF781206E66F7003022ADC78E5
:102A000012E6FF128C13900BA0E0FF781206E66F1F
:102A10007003022ADC7812E6FF12A6C6900BA0E033
:102A2000FF781206E66F227812E6FF12CAE2900BD8
:102A3000A0E0FF781206E66F227832E6FF700C08FD
:102A4000E6B4040708E67003022ADCEF704078332E
:102A5000E6642270397812F67834E614601824F1AE
:102A6000602224FC602324147072900BA0E0FF7895
:102A70001206E66F606690079AE0FF7812E624453A
:102A8000F8A607227845760822E47845F6227832BF
:102A9000E6B40F1608E67012900BA0E0FF7E007DF2
:102AA000007B007A007945020B627832E66406709A
:102AB0002B08E6FFB4800D08E6B429087857E6B481
:102AC000011A8010EFB494147834E6B4930E78575A
:102AD000E6B4010878457604E47857F6220A2D2DED
:102AE00052785374617465203D20256264000A5455
:102AF00079706563000A48444350204B657920563D
:102B0000616C6964000A207563506978656C456E74
:102B1000636F64696E673A307825303262782C755D
:102B20006342697444657074683A30782530326263
:102B3000782C000A207563436F6C6F72696D657441
:102B40007279466F726D61743A30782530326278EE
:102B5000000A565343000A536F66744571203D20A6
:102B6000307825303262782C307825303262782CFB
:102B7000307825303262782C307825303262780017
:102B80000A494E54475F4D2B465241435F4B3A2012
:102B9000307825303262782C307825303262782CCB
:102BA000307825303262782C307825303262783BAC
:102BB000000A44706C6C206C6F636B28307843366D
:102BC000384429203D2030782530326278000A418F
:102BD00053505F504B543A20307825303262783B66
:102BE000000A417564696F5F53747265616D2053AB
:102BF0004450204842307E484233203D20307825E2
:102C0000303262782C307825303262782C3078255A
:102C1000303262782C307825303262783B000A41BD
:102C2000756420696E666F3A20307825303262789C
:102C30002C307825303262782C307825303262782A
:102C40002C307825303262782C307825303262781A
:102C50003B000A417564204170706561722E000A64
:102C6000417564204469736170706561722E000A59
:102C70004653204368616E67652E000A61756420C3
:102C80006673203D20256264000A41756420506C03
:102C90006C206C6F636B2E000A417564706C6C2045
:102CA000526563616C692E000A417564706C6C201A
:102CB000556E6C6F636B2E000A68646370497271A5
:102CC000000A484443505F25626458000A636F6CF1
:102CD0006F72207370616365204368616E67652E53
:102CE000000A50435220756E737461626C652E0049
:102CF0000A4D5341204368616E67652E000A4850B3
:102D0000442048696768000A417474656E20486908
:102D10006768000A445020547261696E696E6720CA
:102D20004661696C6564000A445043443130302088
:102D30003D2030782562782C000A445043443130DD
:102D400031203D2030782562782C000A44504344DD
:102D5000313033203D2030782562782C000A4450F1
:102D60004344313034203D2030782562782C000AED
:102D700044504344313035203D2030782562782C52
:102D8000000A44504344313036203D2030782562DB
:102D9000782C000A44504344313037203D203078AD
:102DA0002562782C000A44504344323032203D20C2
:102DB00030782562782C000A445043443230332066
:102DC0003D2030782562782C000A4450434432304C
:102DD00034203D2030782562782C000A4C696E6BD7
:102DE000526174655F436F756E74203D20307825A5
:102DF000303262782C30782530326278000A4450C4
:102E000020547261696E696E6720537563636573E0
:102E100073000A64617461206572722E000A436453
:102E200072205273742E000A5265636F6E6E656372
:102E3000742E000A64652D706B74206572722E000A
:102E40000A2050435220616C6C20737461626C657F
:102E50003B000A4450696E46726571203D20256C26
:102E6000754B687A000A5043526C67632052737442
:102E7000003F3F3F2A26242221201F1E1D1C1B1A13
:102E80001917000000E47BD07A07F9F8900DDE12E4
:102E90000A91120943900BAEEEF0A3EFF0E47BD061
:102EA0007A07F9F8900DE2120A91120943900BB0DB
:102EB000EEF0A3EFF0900DD5E0FB7018900BB0E0B2
:102EC000FEA3E07803CEC313CE13D8F9F0EE900B37
:102ED000B0F08017900BB0E0FEA3E0FF7C007D0710
:102EE000120783900BB0EEF0A3EFF0900DD3E0202B
:102EF000E104EBB4010D900BB1E025E0F0900BB0D4
:102F0000E033F0900BB0E0FEA3E0FF900DDCE0FDBD
:102F10007C00120771900BB0EEF0A3EFF012C66BBD
:102F2000900BB2EEF0A3EFF012C67E900BB4EEF071
:102F3000A3EFF0900D50E0C313FCA3E013FD900D40
:102F40004EE0C313FEA3E0132DFFEE3CFE900BB04A
:102F5000E0FCA3E0FD120771900BAEE0FCA3E0FDE6
:102F6000120783E4FCFD900BC6120AA9900BB2E095
:102F7000FEA3E0FFE4FCFD900BC6120A9DD31209EC
:102F8000F04049900D50E013FCA3E013FD900D4E6E
:102F9000E0C313FEA3E0132DFFEE3CFE900BB0E068
:102FA000FCA3E0FD120771900BAEE0FCA3E0FD1264
:102FB0000783900BB2E0FCA3E0FDC3EF9DFFEE9C06
:102FC000FEE4FCFD900BBE120AA9800A900BBE1213
:102FD0000AB500000000900DDCE0640160030230DF
:102FE000AC900D50E0C313FCA3E013FD900D4EE038
:102FF000C313FEA3E0132DFDEE3CFC900D4AE0C38D
:1030000013FEA3E0132DFFEC3EFE900BB0E0FCA3FB
:10301000E0FD120B35900BC2120AA9900BAEE0FE38
:10302000A3E0FFFBAA06E4F9F8900BC2120A911282
:103030000943900BC6120AA9900BB4E0FEA3E0FF6F
:10304000900BB3E02FFF900BB2E03EFEE4FCFD904E
:103050000BC6120A9DD31209F04045900BAEE0FE5C
:10306000A3E0FFFBAA06E4F9F8900BC2120A911242
:103070000943C006C007900BB2E0FEA3E0FBAA061E
:10308000E4F9F8D007D0061208AAC006C007A3E0EA
:10309000FEA3E0FBAA06E4D007D0061208AA80121D
:1030A000900BC2120AB500000000800C900BBE12FB
:1030B0000A91900BC2120AA9900BC2120A91900BAE
:1030C000BE120A9DD31209F0400C900BBE120A9159
:1030D000900BC2120AA9900DDAE025E0FFE433ABB1
:1030E00007FA3395E0F9F8E4FF7E80FDFC1209430E
:1030F000900BBA120AA9900D4EE0C313FEA3E01381
:10310000FFE4FCFD900BBA120A9D12089DA804A9C9
:1031100005AA06AB07900D50E0C313FEA3E013FF12
:10312000E4FCFD12089DA804A905AA06AB07900BB4
:10313000B0E0FEA3E0FFE4FCFD1208B8900BBA1269
:103140000AA9900BAEE0FEA3E0FFFBAA06E4F9F8A3
:10315000900BBA120A91120943C006C007900BB235
:10316000E0FEA3E0FBAA06E4F9F8D007D0061208B7
:10317000AA900BBA120AA97BFF7A537967900BBA0F
:10318000120A91900BDB120AA97F01129A487BFF69
:103190007A53797A900BBE120A91900BDB120AA92E
:1031A0007F01129A487BFF7A53798E900BC2120AE4
:1031B00091900BDB120AA97F01129A48900BC21260
:1031C0000A91900BBA120A9DD31209F0900BC240DB
:1031D00020120A9D900BBA120A911208AAE47B14DD
:1031E000FAF9F8120943900BC2120A9D12089D8049
:1031F00003120A91900BB6120AA9900BB6120A910B
:1032000002C1C9E4900BB5F0900BB3F0900BB1F094
:10321000900BAFF0900BB6F0900BB4F0900BB2F0B7
:10322000900BB0F07F0112C8A1E4FB7A02EB7004AE
:10323000AF028005C374139AFFA907E9902E71931A
:1032400090F1BBF090F1BCF090F1BDF090F1BEF0C8
:103250007F017E0012C1237F0412B373E4900BAE92
:10326000F0900BAEE004F0C39432400302330C7FC5
:10327000017E0012C123E4FF12B4D2900BB7EEF02E
:10328000A3EFF07F0112B4D2900BB9EEF0A3EFF0F0
:103290007F0212B4D2900BBBEEF0A3EFF07F0312CB
:1032A000B4D2900BBDEEF0A3EFF07828E6C413542F
:1032B00007FFC394014010900BB8E09410900BB737
:1032C000E0948040028045EFC394024010900BBA16
:1032D000E09410900BB9E094804002802F7828E6AB
:1032E000C413540764046003023261C3900BBCE052
:1032F0009410900BBBE094805012C3900BBEE094EE
:1033000010900BBDE0948050030232617828E6C42F
:10331000135407FFC39401402874AF2BF582E434A3
:103320000BF583E0701BD3900BB8E09402900BB7C1
:10333000E09480500C74AF2BF582E4340BF583E9F4
:10334000F0EFC39402402874B12BF582E4340BF5FE
:1033500083E0701BD3900BBAE09402900BB9E09419
:1033600080500C74B12BF582E4340BF583E9F078CE
:1033700028E6C4135407FFBF042874B32BF582E476
:10338000340BF583E0701BD3900BBCE09402900BE0
:10339000BBE09480500C74B32BF582E4340BF583BE
:1033A000E9F07828E6C4135407FFBF042874B52B4E
:1033B000F582E4340BF583E0701BD3900BBEE094F0
:1033C00002900BBDE09480500C74B52BF582E43470
:1033D0000BF583E9F0BF011374AF2BF582E4340BD6
:1033E000F583E0D39400400302346C7828E6C413DC
:1033F0005407FFBF022274AF2BF582E4340BF58330
:10340000E0D39400401274B12BF582E4340BF583C1
:10341000E0D39400400280547828E6C41354076433
:1034200004704074AF2BF582E4340BF583E0D39441
:1034300000403074B12BF582E4340BF583E0D39473
:1034400000402074B32BF582E4340BF583E0D39471
:1034500000401074B52BF582E4340BF583E0D3946F
:103460000050090AEA6412600302322DEB7006EA8A
:10347000C3941250090BEB6402600302322B9007D5
:10348000967408F0900795F0900794F0900793F0E9
:103490007828E6C413540714700302354914607386
:1034A00024FE600302357F900BB5E0FFC3941250F9
:1034B0002CEF7004A3E06025900BB5E0FFA3E0FEC5
:1034C000C39F400FEEFDEF2DFFE433A2E713EF1390
:1034D000FF8005900BB5E0FF900796EFF0900BB3DF
:1034E000E0FFC39412502CEF7004A3E06025900B12
:1034F000B3E0FFA3E0FEC39F400FEEFDEF2DFFE41E
:1035000033A2E713EF13FF8005900BB3E0FF9007A2
:1035100095EFF0900BB1E0FFC39412502CEF7004C4
:10352000A3E06025900BB1E0FFA3E0FEC39F400F36
:10353000EEFDEF2DFFE433A2E713EF13FF800590BC
:103540000BB1E0FF900794EFF0900BAFE0FFC39456
:1035500012502CEF7004A3E06025900BAFE0FFA3A6
:10356000E0FEC39F400FEEFDEF2DFFE433A2E71313
:10357000EF13FF8005900BAFE0FF900793EFF02271
:10358000EDD3940140030238CEEF120B0F362D001D
:1035900036AF02363A03366104379906366E07367F
:1035A000BC0936C90A36D60B386A0D36FD0E370A05
:1035B0000F374B1037581137171237241337311480
:1035C000373E15376516377217378C18377F19371E
:1035D000A61A37B31B37C01C37CD1D37DA1E37E7A5
:1035E0001F37F420380121380E22381B23382824B5
:1035F000383325383E26384927388B28385F293814
:10360000BE2A38AD2B389C2C38542D38752E388076
:103610002F364730365431367B3236883336E334F2
:1036200036F03536953636A237000038CEED90D4D8
:1036300061B40103023892023897ED90D461B4016D
:10364000030238A30238A8ED90D461B40103023814
:10365000B40238B9ED90D461B401030238C5023820
:10366000CAED90D462B40103023892023897ED900B
:10367000D462B401030238A30238A8ED90D462B436
:1036800001030238B40238B9ED90D462B4010302E8
:1036900038C50238CAED90D463B4010302389202EF
:1036A0003897ED90D463B401030238A30238A8ED33
:1036B00090D463B401030238B40238B9ED90D463F6
:1036C000B401030238C50238CAED90D464B40103D2
:1036D000023892023897ED90D464B401030238A303
:1036E0000238A8ED90D464B401030238B40238B9AA
:1036F000ED90D464B401030238C50238CAED90D409
:1037000065B40103023892023897ED90D465B40194
:10371000030238A30238A8ED90D465B4010302383F
:10372000B40238B9ED90D465B401030238C502384B
:10373000CAED90D466B40103023892023897ED9036
:10374000D466B401030238A30238A8ED90D466B45D
:1037500001030238B40238B9ED90D466B401030213
:1037600038C50238CAED90D467B40103023892021A
:103770003897ED90D467B401030238A30238A8ED5E
:1037800090D467B401030238B40238B9ED90D4671D
:10379000B401030238C50238CAED90D468B40103FD
:1037A000023892023897ED90D468B401030238A32E
:1037B0000238A8ED90D468B401030238B40238B9D5
:1037C000ED90D468B401030238C50238CAED90D434
:1037D00069B40103023892023897ED90D469B401BC
:1037E000030238A30238A8ED90D469B4010302386B
:1037F000B40238B9ED90D469B401030238C5023877
:10380000CAED90D46AB401030238A30238A8ED903F
:10381000D46AB401030238B40238B9ED90D46AB462
:1038200001030238C50238CAED90D46BB40102809E
:10383000618064ED90D46BB401028067806AED9082
:10384000D46BB40102806D8070ED90D46BB4010232
:1038500080738076ED90D46CB4010280358038EDB1
:1038600090D46CB40102803B803EED90D46CB401E6
:103870000280418044ED90D46DB401028014801721
:10388000ED90D46DB40102801A801DED90D46FB418
:103890000105E04440F022E054BFF022ED90D46FE7
:1038A000B40105E04410F022E054EFF022ED90D492
:1038B0006FB40105E04404F022E054FBF022ED90E7
:1038C000D46FB40105E04401F022E054FEF022ED93
:1038D000D394014003023C1DEF120B0F397C0039D9
:1038E000FE0239890339B0043AE80639BD073A0BBC
:1038F000093A180A3A250B3BB90D3A4C0E3A590FC2
:103900003A9A103AA7113A66123A73133A80143A67
:103910008D153AB4163AC1173ADB183ACE193AF572
:103920001A3B021B3B0F1C3B1C1D3B291E3B361F39
:103930003B43203B50213B5D223B6A233B77243BAA
:1039400082253B8D263B98273BDA283BAE293C0D50
:103950002A3BFC2B3BEB2C3BA32D3BC42E3BCF2F18
:1039600039963039A33139CA3239D7333A32343AF9
:103970003F3539E43639F13700003C1DED90D46114
:10398000B40103023BE1023BE6ED90D461B40103D4
:10399000023BF2023BF7ED90D461B40103023C0319
:1039A000023C08ED90D461B40103023C14023C19BE
:1039B000ED90D462B40103023BE1023BE6ED90D40A
:1039C00062B40103023BF2023BF7ED90D462B40112
:1039D00003023C03023C08ED90D462B40103023CB4
:1039E00014023C19ED90D463B40103023BE1023BA5
:1039F000E6ED90D463B40103023BF2023BF7ED9095
:103A0000D463B40103023C03023C08ED90D463B4D8
:103A10000103023C14023C19ED90D464B40103028A
:103A20003BE1023BE6ED90D464B40103023BF202B9
:103A30003BF7ED90D464B40103023C03023C08ED73
:103A400090D464B40103023C14023C19ED90D46597
:103A5000B40103023BE1023BE6ED90D465B40103FF
:103A6000023BF2023BF7ED90D465B40103023C0344
:103A7000023C08ED90D465B40103023C14023C19E9
:103A8000ED90D466B40103023BE1023BE6ED90D435
:103A900066B40103023BF2023BF7ED90D466B40139
:103AA00003023C03023C08ED90D466B40103023CDF
:103AB00014023C19ED90D467B40103023BE1023BD0
:103AC000E6ED90D467B40103023BF2023BF7ED90C0
:103AD000D467B40103023C03023C08ED90D467B400
:103AE0000103023C14023C19ED90D468B4010302B6
:103AF0003BE1023BE6ED90D468B40103023BF202E5
:103B00003BF7ED90D468B40103023C03023C08ED9E
:103B100090D468B40103023C14023C19ED90D469BE
:103B2000B40103023BE1023BE6ED90D469B401032A
:103B3000023BF2023BF7ED90D469B40103023C036F
:103B4000023C08ED90D469B40103023C14023C1914
:103B5000ED90D46AB40103023BF2023BF7ED90D43E
:103B60006AB40103023C03023C08ED90D46AB4013C
:103B700003023C14023C19ED90D46BB40102806145
:103B80008064ED90D46BB401028067806AED90D4BC
:103B90006BB40102806D8070ED90D46BB401028033
:103BA000738076ED90D46CB4010280358038ED904E
:103BB000D46CB40102803B803EED90D46CB4010221
:103BC00080418044ED90D46DB4010280148017EDE3
:103BD00090D46DB40102801A801DED90D46FB401B1
:103BE00005E04480F022E0547FF022ED90D46FB4E1
:103BF0000105E04420F022E054DFF022ED90D46F84
:103C0000B40105E04408F022E054F7F022ED90D42E
:103C10006FB40105E04402F022E054FDF022900B65
:103C2000AEEFF0E4FBA3120AB500000000900E29ED
:103C3000E0120B0F3C50003CAC013E00023E57032B
:103C40003E94043EC5053EF0063EFD0700003F25BC
:103C5000900BAEE0B4010790F21EE0547FF090F2BA
:103C600020E04410F090D340E030E21354FBF09099
:103C7000F2837421F090F23EE04403F054FCF090A3
:103C8000D3407460F090F263E054F7F090F23DE0BE
:103C9000543FF090E360E054DFF090F1B4E054FD65
:103CA000F04402F0900E297401023EEA90F2E2E044
:103CB000543064106003023E4F900E2AE004F0E09E
:103CC000640A6003023F2590F263E054F8FFF0902D
:103CD000F2F8E05470C4540F4F90F263F090F2F792
:103CE000E0547FFFE4FCFDFE900BAF120AA9900B9D
:103CF000AF120A917808120A14900BAF120AA99019
:103D0000F2F6E0FFE4FCFDFE900BAF120AA9900B67
:103D1000AF120A917808120A14900BAF120AA990F8
:103D20000BAF120A9D90F2F5E0FFE4FCFDFE1208D5
:103D30009D900BAF120AA9900BAF120A917808124E
:103D40000A14900BAF120AA9900BAF120A9D90F2C1
:103D5000F4E0FFE4FCFDFE12089D900BAF120AA9EF
:103D60007BFF7A6F793C900BAF120A91900BDB12BC
:103D70000AA9E4FF129A48E4FB90F2F7E0547FFFAF
:103D8000D39450401AAB07900BAF120A91780112EE
:103D90000A01900BAF120AA990D340E04404F090BE
:103DA0000BAF120A917818120A0190F237EFF090D7
:103DB0000BAF120A917810120A0190F23AEFF090CC
:103DC0000BAF120A917808120A0190F23BEFF090C3
:103DD0000BAF120A9190F23CEFF090F263E04408CE
:103DE000F090F23DE044C0F090F23EE04403F05425
:103DF000FCF0E4900E2AF0900E297402F0023F25A8
:103E000090F2F7E0547F6B6046900E2AE004F0E0F9
:103E1000D3940A5003023F2590E3607402F090E3CC
:103E2000617440F090E3627404F0E490E365F09014
:103E3000E3687420F090D340E04440F090D34274A3
:103E4000A8F0E490D34CF0900E297403023EEAE40B
:103E5000900E2AF0023F2590E1307407F090E13D8A
:103E6000E054FDF090E360E054DFF07F017E00124B
:103E7000C12390E13DE04402F090E1307477F0908E
:103E8000E360E04420F07F0A7E0012C123900E29F7
:103E90007404805690E36CE05403FFBF011490D388
:103EA00040E054BFF0900E297405F0E4A3F0A3F0B5
:103EB0008073E4900E29F0A3E004F0E0D394034073
:103EC00064E4F0806090E36CE030E759900BAEE082
:103ED000B4010790F21EE04480F07BFF7A6F794EC8
:103EE000E4FF129A48900E297406F0E4A3F080359E
:103EF000E490F220F0900E297407F0802890F2F7F9
:103F0000E0547FD394505016E4900E29F0A3F0A310
:103F1000F07BFF7A6F795BFF129A487F01227F0165
:103F20007E0012C1237F027E0012C1237F002290F7
:103F30000BA0EFF07F0112C87112C8817832E6FF42
:103F4000640F70030241D690F103EFF07833E690EE
:103F5000F104F008E690F105F0E47813F6900BA078
:103F6000E0FF7813E6FEC39F5024EE601390F10546
:103F7000E0B4FF0690F104E004F090F105E004F0F5
:103F800074352EF8E690F153F078130680CF78322E
:103F9000E6600302411208E6640160030241127800
:103FA00012F67834E6120B0F3FD3003FE9013FFFD2
:103FB00002401803402E04404405405A0640700752
:103FC00040860840AA0B40C50C40E00D40FB0E00A7
:103FD0000041D67812E6FF12BA30900BA0E0FF78CD
:103FE0001206E66F70030241D67812E6FF12C5A8EA
:103FF000900BA0E0FF781206E66F70030241D61224
:10400000C9F37812E6FF128798900BA0E0FF7812B0
:1040100006E66F70030241D67812E6FF12AD829079
:104020000BA0E0FF781206E66F70030241D678120B
:10403000E6FF12BC09900BA0E0FF781206E66F7055
:10404000030241D67812E6FF12BC3A900BA0E0FFC3
:10405000781206E66F70030241D67812E6FF12BCB2
:104060006B900BA0E0FF781206E66F70030241D65A
:104070007812E6FF12BCFE900BA0E0FF781206E675
:104080006F70030241D67812E62435F8E6700C9082
:10409000F1057408F090F1537401F0900BA0E0FF6B
:1040A000781206E66F70030241D67831E654B0FF0D
:1040B000BF800312BEC9900BA0E0FF781206E66F26
:1040C00070030241D67831E654B0FFBF900312BEB0
:1040D000C9900BA0E0FF781206E66F70030241D68C
:1040E0007831E654B0FFBFA00312BEC9900BA0E028
:1040F000FF781206E66F70030241D67831E654B0BD
:10410000FFBFB00312BEC9900BA0E0FF781206E615
:104110006F227832E6703608E6640270307812F664
:104120007834E61460150460030241D6900BA0E0D9
:10413000FF781206E66F70030241D67812E6FF128E
:10414000C8E0900BA0E0FF781206E66F227832E616
:10415000FF700908E6B4030408E6607AEF7010788F
:1041600033E6B4060A08E6700608E6FF02B04778B0
:1041700032E6701008E6B4020B08E6B4700608E6F2
:104180007831F6227832E6FFB4060C08E6B49007E0
:1041900008E6700302CB2CEF6406703A7833E664CD
:1041A00094703308E66494702D08E6640170271259
:1041B000C51590F1047493F090F105742FF090F10F
:1041C00054E030E00554FEFF800790F154E04401D4
:1041D000FF90F153EFF022A907ED24F6600C24F6CE
:1041E000600C24F6600C24187008E4FF80067F0140
:1041F00080027F02E9147003024335046003024425
:1042000068EF75F01CA424DAF582E4346FF583E4DA
:1042100074019390D16EF0EF75F01CA424DCF5824C
:10422000E4346FF583E474019390D16FF0EF75F08F
:104230001CA424DEF582E4346FF583E474019390CA
:10424000D170F0EF75F01CA424E0F582E4346FF532
:1042500083E474019390D171F0EF75F01CA424E213
:10426000F582E4346FF583E474019390D172F0EF3A
:1042700075F01CA424E4F582E4346FF583E4740142
:104280009390D173F0EF75F01CA424E6F582E4342A
:104290006FF583E474019390D174F0EF75F01CA472
:1042A00024E8F582E4346FF583E474019390D175CA
:1042B000F0EF75F01CA424EAF582E4346FF583E492
:1042C00074019390D176F0EF75F01CA424ECF58284
:1042D000E4346FF583E474019390D177F0EF75F0D7
:1042E0001CA424EEF582E4346FF583E4740193900A
:1042F000D178F0EF75F01CA424F0F582E4346FF56A
:1043000083E474019390D179F0EF75F01CA424F24A
:10431000F582E4346FF583E474019390D190F0EF6B
:1043200075F01CA424F4F582E4346FF583740193D2
:1043300090D191F022EF75F01CA424DAF582E434D8
:104340006FF583E474019390D19EF0EF75F01CA497
:1043500024DCF582E4346FF583E474019390D19FFB
:10436000F0EF75F01CA424DEF582E4346FF583E4ED
:1043700074019390D1A0F0EF75F01CA424E0F582B5
:10438000E4346FF583E474019390D1A1F0EF75F0FC
:104390001CA424E2F582E4346FF583E47401939065
:1043A000D1A2F0EF75F01CA424E4F582E4346FF59B
:1043B00083E474019390D1A3F0EF75F01CA424E67C
:1043C000F582E4346FF583E474019390D1A4F0EFA7
:1043D00075F01CA424E8F582E4346FF583E47401DD
:1043E0009390D1A5F0EF75F01CA424EAF582E43493
:1043F0006FF583E474019390D1A6F0EF75F01CA4DF
:1044000024ECF582E4346FF583E474019390D1A732
:10441000F0EF75F01CA424EEF582E4346FF583E42C
:1044200074019390D1A8F0EF75F01CA424F0F582EC
:10443000E4346FF583E474019390D1A9F0EF75F043
:104440001CA424F2F582E4346FF583E474019390A4
:10445000D1C0F0EF75F01CA424F4F582E4346FF5BC
:104460008374019390D1C1F022EF75F008A4246BFE
:10447000F582E434B4F583E49390D202F0EF75F062
:1044800008A4246CF582E434B4F583E49390D20359
:10449000F0EF75F008A4246DF582E434B4F583E4FC
:1044A0009390D207F0EF75F008A4246EF582E434FF
:1044B000B4F583E49390D208F0EF75F008A4246F6C
:1044C000F582E434B4F583E49390D209F0EF75F00B
:1044D00008A42470F582E434B4F583E49390D20AFE
:1044E000F0EF75F008A42471F582E434B4F583E4A8
:1044F0009390D212F0EF75F008A42472F582E434A0
:10450000B4F583E49390D213F0ED75F008A4246B16
:10451000F582E434B4F583E49390D217F0ED75F0AE
:1045200008A4246CF582E434B4F583E49390D218A3
:10453000F0ED75F008A4246DF582E434B4F583E45D
:104540009390D21CF0ED75F008A4246EF582E4344B
:10455000B4F583E49390D21DF0ED75F008A4246FB8
:10456000F582E434B4F583E49390D21EF0ED75F057
:1045700008A42470F582E434B4F583E49390D21F48
:10458000F0ED75F008A42471F582E434B4F583E409
:104590009390D227F0ED75F008A42472F582E434EC
:1045A000B4F583E49390D228F0EB75F008A4246B63
:1045B000F582E434B4F583E49390D22CF0EB75F0FB
:1045C00008A4246CF582E434B4F583E49390D22DEE
:1045D000F0EB75F008A4246DF582E434B4F583E4BF
:1045E0009390D231F0EB75F008A4246EF582E43498
:1045F000B4F583E49390D232F0EB75F008A4246F05
:10460000F582E434B4F583E49390D233F0EB75F0A3
:1046100008A42470F582E434B4F583E49390D23492
:10462000F0EB75F008A42471F582E434B4F583E46A
:104630009390D23CF0EB75F008A42472F582E43438
:10464000B4F583E49390D23DF0900BB1E0FF75F0A8
:1046500008A4246BF582E434B4F583E49390D2414A
:10466000F0EF75F008A4246CF582E434B4F583E42B
:104670009390D242F0900BB1E075F008A4246DF550
:1046800082E434B4F583E49390D246F0EF75F008F9
:10469000A4246EF582E434B4F583E49390D247F019
:1046A000900BB1E075F008A4246FF582E434B4F502
:1046B00083E49390D248F0EF75F008A42470F5825B
:1046C000E434B4F583E49390D249F0900BB1E075F3
:1046D000F008A42471F582E434B4F583E49390D215
:1046E00051F0EF75F008A42472F582E434B4F58338
:1046F000E49390D252F022900BD4EFF0900DE9E0C9
:10470000D39401900DEDE0FE400CA3E0F5828E8382
:10471000E04480F0800AA3E0F5828E83E0547FF0CD
:10472000900DEAE0900DF7B4010EE0FEA3E0F582F3
:104730008E83E04404F0800CE0FEA3E0F5828E83DB
:10474000E054FBF0900DEBE0900DF7B4010EE0FEAD
:10475000A3E0F5828E83E04408F0800CE0FEA3E045
:10476000F5828E83E054F7F0900BD4E0FF70519007
:104770000DE7E014601E14602A14602924FD600314
:1047800002495A900DF5E0FCA3E0F5828C83748019
:10479000F002495A900DF3E0FCA3E0F5828C83749B
:1047A00004800F800E900DF3E0FCA3E0F5828C8373
:1047B0007444F0900DECE04411FE900DF50248BCFD
:1047C000EF6406705B900DE7E014601E14602A141D
:1047D00060292403600302495A900DEFE0FEA3E034
:1047E000F5828E8374C0F002495A900DF3E0FEA367
:1047F000E0F5828E837404800F800E900DF3E0FE4E
:10480000A3E0F5828E837444F0900DECE04410FF39
:10481000900DF5E0FCA3E0F5828C83EFF002495A9D
:10482000900BD4E0FF64016005EF64077059900DB0
:10483000E7E024FE602914602B24FD600C24067040
:1048400031900DECE044118006900DECE04410FF37
:10485000900DEFE0FCA3E0F5828C83EFF0800090F8
:104860000DF18003900DF3E0FEA3E0F5828E8374DA
:1048700040F0900BD4E06407600302495A90E58849
:10488000E04480F002495A900BD4E0FF6402705378
:10489000900DE7E014603224FE603B24FD60132499
:1048A00006600302495A900DECE04411FE900DEFB2
:1048B000800A900DECE04410FE900DEFE0FCA3E0C8
:1048C000F5828C83EEF002495A900DF3E0FCA3E0F0
:1048D000F5828C838071900DF3E0FCA3E0F5828C6F
:1048E000838074EF64037072900DE7E014604D14E0
:1048F000605A24FC602524067060900DECE04411A1
:10490000FF900DEFE0FCA3E0F5828C83EFF0900DBB
:10491000F1E0FEA3E0F5828E83803C900DECE04454
:1049200010FF900DEFE0FCA3E0F5828C83EFF09098
:104930000DF1E0FEA3E0F5828E83801B900DF1E087
:10494000FEA3E0F5828E837404F0800E900DF1E0FA
:10495000FEA3E0F5828E837444F0900DE8E07BFFC7
:1049600070067AC279E680047AC279F5900DE7E0A4
:10497000900BDBF0900BD4E0900BDCF07F01129AEF
:10498000482290FC36E0FF900E1FF090FC3674EB4E
:10499000F090FC1B74FFF0EF30E632E4900E21F053
:1049A00090FC1CE05407FF900E20F090FC1C74F863
:1049B000F090FC17E0BF010554EFF080034410F0C5
:1049C000900E20E0B40406900B747401F0900E1F5A
:1049D000E030E04990FC3BE0900AA3F090FC3AE024
:1049E000900AA2F0900E20E064017031900AA3E0DA
:1049F000540E900B03F0900AA2E0541F900E1EF08C
:104A0000900AA3E0FF5470FE1313543F900E1CF065
:104A1000EF7F0030E7027F01900E1DEFF0900E1F38
:104A2000E020E568900E1DE0602B900E21E0FFC3B2
:104A3000940290FC23E0500FFE74A42FF582E4341E
:104A40000AF583EEF08029FF900E21E0247EF582A6
:104A5000E4340A8017E4900AA4F0A3F090FC23E069
:104A6000FF900E21E02480F582E4340AF583EFF014
:104A7000900E21E004F0900E1FE0FF90FC36E0FE67
:104A8000EF4E900E1FF030E59BE04EF0900E1FE0D1
:104A900020E403024BA690FC36E04410F0900E1F79
:104AA000F0E4900E21F0900B7EF0900B6DE0700220
:104AB000C2CA900E20E0FDB40110900B7AE0B4025F
:104AC00009E4900B67F0900B7AF0900A7CE04401C7
:104AD000F0900E1CE07008900E1EE06401605C9087
:104AE0000A7CE04402F0ED64016003024BA6900BE7
:104AF00004E0FF900B03E0FEB50713900B05E0FD0B
:104B0000900E1EE0B50507E4900B70F0801DEEB529
:104B10000719900B05E0FF900E1EE06F600D900BE3
:104B200003E06007900A7CE054FDF0900B03E0A3E3
:104B3000F0900E1EE0900B05F0806B900A7CE05424
:104B4000FDF0E4900B75F07B807D03FF12C09B901D
:104B50000B06E0B5070512A34D804B7B807D06E474
:104B6000FF12C09B900B06E0B5070512B0DE803641
:104B70007B807D017F0112C09B900B06E0B507088A
:104B8000900B7C7402F0801E7B807D13E4FF12C0CA
:104B90009B900B06E0B5070E74FFF0900B6D74014F
:104BA000F012CB41D2CA900E1FE030E24E90FC369C
:104BB0007404F0900B75E0B40113E4F0900B2BE05B
:104BC0006004C2CA8007C2CF12CB48D2CA900A7C06
:104BD000E030E12754FBF0900E20E0B40116900B7A
:104BE0002BE07010900E1EE0FF900E1CE0FDA3E085
:104BF000FB121232900A7CE054FDF022AB07E490E5
:104C00000BA5F0A3F0A3F0A3F0A3F0A3120AB50044
:104C1000000000E4900A7BF0900AD47407F0A3F03F
:104C2000EB2402900BA5F0E4900BA4F0900BA5E010
:104C3000FF900BA4E0FEC39F503BEE700A900A0F5A
:104C4000E0900A1FF08026EEB4010A900A10E0906E
:104C50000A20F0801874EB2EF582E43409F583E025
:104C6000FF741F2EF582E4340AF583EFF0900BA455
:104C7000E004F080B7900A1FE0540FF04440F07851
:104C80004D7C0A7D017B017A0A791F7E007F1E120E
:104C9000069E900BA47402F0900BA5E0FF900BA46D
:104CA000E0FEC39F4003024E7074222EF582E4346E
:104CB0000AF583E054C064C07056EE2404FDE4336A
:104CC000FC900BA5E0FBC3ED9B7480F86C98501B27
:104CD00074232EF582E4340AF583E0FF741F2EF569
:104CE00082E4340AF583EFF00E80CF900A20E024AE
:104CF000F0F0900BA5E024FCF0900BA4E0B40206C9
:104D000074FEF0024E66900BA4E024FCF0024E66A6
:104D1000900BA4E0FD2420F582E4340AF583E0FC46
:104D20005403FE741F2DF582E4340AF583E07A0003
:104D30002400FFEA3E900BA6F0A3EFF0900BA4E056
:104D40002421F582E4340AF583E0540F75F040A481
:104D5000FFEC54FC1313543F7C002FFFEC35F0FEA6
:104D6000900BA8F0A3EFF0C39478EE9400500C9051
:104D70000BA6E4F0A37432F0024E18900BA8E0FEEC
:104D8000A3E0FFC394BEEE9400500B900BA674FFFB
:104D900075F0B0024E15C3EF9418EE9401500A90CE
:104DA0000BA674FF75F0C1806CBE012BBF2C28C30D
:104DB000900BA7E09404900BA6E09401400F7401BF
:104DC000F0A37404F0900A7B7401F0804B900BA662
:104DD00074FF75F0CC803E900BA8E0FEA3E0FFC30B
:104DE0009440EE9401500A900BA674FF75F0CE80AB
:104DF00024BE0119BF9016D3900BA7E094C2900B6C
:104E0000A6E09401400774FF75F0A68008900BA6F9
:104E100074FF75F0CE1207D8900BA6A3E0FF900B9D
:104E2000A4E0FE241FF582E4340AF583EFF0742039
:104E30002EF582E4340AF583E054FCF074202EF55C
:104E400082E4340AF583C083C082E0FD900BA6E0C3
:104E50005403FFED4FD082D083F0900A24E0540831
:104E6000443EF054EEF0900BA4E02404F0024C9881
:104E7000220A546F67676C6520646670000A546F7D
:104E800067676C6520756670000A507253776170B1
:104E90002053656E64000A4164615F4C6F73740057
:104EA0000A4472537761702053656E64000A20577C
:104EB00061697420447253776170000A20576169F8
:104EC000742056636F6E6E53776170000A536F756E
:104ED0007263652053656E64000A53696E6B204FE0
:104EE0006666000A205330000A55534220504F0096
:104EF0000A20485F52000A4861726433000A48522F
:104F00002048646C000A466C6970004A0A460F43E8
:104F10000244024B0F4903900F4D0141119690013D
:104F20003E0000000042105A680113000000004FCC
:104F300026428000FF000001FF4F28438001FF054B
:104F40000400004F28438001FF050C00004F1A4465
:104F50008101FF000000004F1A458101FF000000A1
:104F6000004F2C508101FF0A0000004F2C5081019E
:104F7000FF8A0000004F1E518101FF000000004F1A
:104F800022068101FF0A0000004F22068101FF8AEC
:104F90000000004F22068101FF8A01000044122C0C
:104FA00091012E000000004F244380612F0000007B
:104FB000004F164482612F0000000044122C9181A2
:104FC0002F000000004F1A4581812F00000000448F
:104FD000122C9101060000000044122C9181270040
:104FE0000000004F34428000FF01FF7E05000000FA
:104FF000004F28438001FF05080800000000004F13
:105000001A44817E0500000000000000004F35407A
:10501000007E0501020200000000004F2540007ED6
:105020000501021D00000000004F2540007E050024
:10503000021D00000000004F3540007E05000217F1
:1050400000000000004F3540007E0500020C009A71
:105050000C00004F3540007E0500021900100B6B5C
:10506000024F3540007E0501020200000014804F0F
:105070003540007E05000211009A0C00004F3540BB
:10508000007E0500020700021018004F2540007E38
:1050900005000221000000000061216490012A0443
:1050A000B10400000090F3ECE030E65690F3A9E084
:1050B0006407704E90F3AAE06405704690F3ABE08D
:1050C0006413703E90F3BCE054F0D394305033E05E
:1050D000FDC4540F900572F0ED540FA3F090F3BD92
:1050E000E0FE5407900574F0EEC41313135401331B
:1050F000333354F8FF900798E054F74FF04410F022
:10510000803890F3EBE0FDC3135403900572F0ED8B
:10511000131313541FFE5403A3F090F3EBE0C413D6
:105120005407900574F0EE540133333354F8FF9074
:105130000798E054F74FF054EFF0900798E0FF30F5
:10514000E472900572E014601614601B1460202451
:10515000037024EF30E3209005727406F0801D90F8
:1051600005727402F080159005727401F0800D9044
:1051700005727403F08005E4900572F0900572E00A
:10518000FF64066003EF7010900573E024FA701A54
:105190009005737404F08060900573E014600B2434
:1051A000FB6009146006240770088046900573743C
:1051B00004F0803E900572E014601614601B240217
:1051C000701F900798E030E3189005727406F08025
:1051D000159005727401F0800D9005727402F080D4
:1051E00005E4900572F0900573E01460030470020A
:1051F00080009005737402F0900572E0FF90079CA8
:10520000E0FE6F7042900573E0FF90079DE06F70C5
:1052100036900574E0FF90079EE0FD6F70297BFFDC
:105220007A2B7905900BDBEEF0A3EDF07F02129A5A
:10523000487BFF7A2B793390079DE0900BDBF07F62
:1052400002129A487F0022900572E090079CF0902D
:105250000573E090079DF0900574E0FF90079EF0C5
:105260007BFF7A2B790590079CE0900BDBF0A3EF96
:10527000F07F01129A487BFF7A2B793390079DE0EB
:10528000900BDBF07F01129A48900798E030E435EC
:105290007BFF7A2B79517F01129A4890079CE0B4EA
:1052A00003047F018002E4FF12C7737F0112C7511C
:1052B00012C76290079CE0FF12C5E490079EE0FFD2
:1052C00012C8B1800BE4FF12C77312C75112C76234
:1052D0007F01220A2D2D54785374617465203D207E
:1052E000256264000A4D49504920496E434C6B20A9
:1052F0003D20256C756B687A000A4D495049545819
:105300005B485D3A25642C25642C25642C25642C8F
:1053100025642C256264000A4D49504954585B5657
:105320005D3A25642C25642C25642C25642C256489
:105330002C256264000A42797465436C6B203D2021
:1053400025754D687A000A25626420706F727400BA
:105350000A256264206C616E65000A445048593B1E
:10536000000A4353493B000A7264646C795F6D61C3
:105370007820697320256C753B000A7264646C792F
:105380005F6D696E3120697320256C753B000A7270
:1053900064646C795F6D696E3220697320256C7569
:1053A0003B000A204D49504920656E61626C65647E
:1053B0003B000A204D4950492064697361626C6565
:1053C000643B004463732052656164203D207B0A86
:1053D00000307825303262782C007D0A000A205493
:1053E00058504C4C20756E6C6F636B3B000A5478C0
:1053F000706C6C206C6F636B3B000511000529001D
:105400001536C62980400080E77B00000023660730
:1054100029B6206B0006338A001A7A29B754000097
:105420000029B90039026F29C03A86BC0208700A07
:10543000F029F11E29C67008D002216F085A000019
:1054400000000000000029CD0029CF8B00804661BC
:10545000008B29EC049700000029E6110000891058
:1054600080087008700008021C021C0200020E0076
:105470002000BB0007000C0DB70CB7180010F0039C
:105480000C2000060B0B330E1C2A38465462697040
:1054900077797B7D7E01020100094009BE19FC1964
:1054A000FA19F81A381A781AB62AF62B342B743BE4
:1054B000746BF4000000000000390301394400005F
:1054C000153500153600153A770529000511002914
:1054D000D68029B00300000000000000000000009A
:1054E00000000000000000000000000000000000BC
:1054F000000000EDC3940C40030256DDEF120B0FC9
:1055000055AC0055B20155BC0255C20355C80455EF
:10551000CE0555E00655E60755EC0855F20955F855
:105520000A55FE0B56040C56160D561C0E56220F2D
:10553000562810562E11563412563A135640145609
:105540004615564C16565117565718565C19566143
:105550001A56661B566B1C56701D56751E567A1FC2
:10556000567F20568421568922568E2356932456E0
:105570009825569D2656A22756A72856AC2956B1DF
:105580002A56B62B56BB2C56C02D56C52E56D42F98
:1055900055B43055B63155D43255DA33560A3456EF
:1055A000103555EC3655EC37000056DD90D413021B
:1055B00056C88002800090D4130256D790D41402AB
:1055C00056C890D4140256D790D4150256C890D419
:1055D000150256D790D4150256D790D4150256D737
:1055E00090D4160256C890D4160256D790D41702FB
:1055F00056C890D4170256D790D4180256C890D4E3
:10560000180256D790D4190256C890D4190256C819
:1056100090D4190256C890D4190256D790D41A02C1
:1056200056C890D41A0256D790D41B0256C890D4AC
:105630001B0256D790D41C0256C890D41C0256D7D1
:1056400090D41D0256C890D41D0256D790D41E8007
:105650007790D41E0256D790D41F806C90D41F80B0
:105660007690D420806290D420806C90D421805891
:1056700090D421806290D422804E90D42280589081
:10568000D423804490D423804E90D424803A90D464
:1056900024804490D425803090D425803A90D4261C
:1056A000802690D426803090D427801C90D42780E8
:1056B0002690D428801290D428801C90D429800869
:1056C00090D429801290D429E0540FFFF0EDC454F7
:1056D000F04FF02290D429E054F0F04DF022900BDE
:1056E000B07401F078C17C0BFD7BFF7ABC79077E3A
:1056F000007F0212069E900CEAE0FFB40108900BB6
:10570000B07401F0800FEF70028004EFB4020690D5
:105710000BB07405F0900BB17401F0A3742CF0A3DE
:10572000E4F0A37464F0A37401F0A3742CF0A3E478
:10573000F0A374B4F0A37401F0A3742CF0A3E4F00C
:10574000A374F0F0A37401F0A3742CF0FD7C01EFBE
:105750007009A304F0A37445F08011900CEAE0B442
:10576000020A900BBF7401F0A374F4F07F907E01E5
:10577000900BB1E0FBA3E0900BC1CBF0A3EBF0905A
:105780000BB3E0FBA3E0900BC3CBF0A3EBF0900BCB
:10579000B5E0FBA3E0900BC5CBF0A3EBF0900BB70B
:1057A000E0FBA3E0900BC7CBF0A3EBF0900BB9E0CC
:1057B000FBA3E0900BC9CBF0A3EBF0900BBBE0FB9D
:1057C000A3E0900BCBCBF0A3EBF0900BBDE0FBA3E1
:1057D000E0900BCDCBF0A3EBF0A3ECF0A3EDF090B9
:1057E0000BBFE0FDA3E0900BD1CDF0A3EDF0A3EE55
:1057F000F0A3EFF0900CEDE0548FFFF0900BB0E0D1
:10580000C454F04F900CEDF0E4FD900BB0E0FFEDD0
:10581000C39F40030258BDED25E025E024C1F58279
:10582000E4340BF583A3E0FFED25E025E024EEF55D
:1058300082E4340CF583EFF0ED25E025E024C1F59A
:1058400082E4340BF583E0FFED25E025E024EFF55D
:1058500082E4340CF583EFF0ED25E025E024EFF54C
:1058600082E4340CF583C083C082E0FCED25E025A2
:10587000E024C3F582E4340BF583E0FEA3E0780274
:10588000C333CE33CED8F94CD082D083F0ED25E0AF
:1058900025E024C3F582E4340BF583E0FEA3E07831
:1058A00006CEC313CE13D8F9FFED25E025E024F092
:1058B000F582E4340CF583EFF00D02580A900CF1F8
:1058C000743EF02290F3EDE020E7037F002290F396
:1058D000DBE0FE90F3DCE07C002400FFEC3E900572
:1058E00077F0A3EFF090F3E7E0FE90F3E8E0240018
:1058F000FFEC3E900579F0A3EFF090F3E1E0FE902D
:10590000F3E2E02400FFEC3E900575F0A3EFF09089
:10591000F3DFE0547FFE90F3E0E02400FFEC3E90E4
:10592000057BF0A3EFF090F264E0FE90F265E024D6
:1059300000FFEC3E90057DF0A3EFF090079CE0B4F3
:10594000031C90057EE025E0FF90057DE033FE908E
:105950000577E0B5061FA3E0B5071A7F0022900582
:105960007DE0FEA3E0FF900577E0B50608A3E0B573
:1059700007037F002212CA7912A5F3E4FF12C7A61B
:10598000900577E0FCA3E0FDEC90F206F090F207C2
:10599000EDF090F3DDE090F20EF090F3DEE090F2A7
:1059A0000FF090F20AE0FD90057BE0FAA3E0FBEA3D
:1059B000FFED4F90F20AF090F20BEBF0900575E0DE
:1059C000FCA3E0FDEC90F208F090F209EDF090F30A
:1059D000E3E090F210F090F3E4E090F211F090F335
:1059E000E5E0547F90F212F090F3E6E090F213F0CD
:1059F000900579E0FCA3E0FDEC90F20CF090F20D44
:105A0000EDF090F3E9E090F214F090F3EAE090F218
:105A100015F0E4FF12C79590079CE0B4032A9005A7
:105A200077E0C313F0A3E013F0A3E0C313F0A3E007
:105A300013F0900575E0C313F0A3E013F090057B1D
:105A4000E0C313F0A3E013F0E4FF12C784900577DE
:105A5000E0FCA3E0FDEC90F264F090F265EDF090D4
:105A60000579E0FCA3E0FDEC90F26AF090F26BEDBA
:105A7000F0900575E0FCA3E0FDEC90F266F090F28A
:105A800067EDF090F268E0FD90057BE0FAA3E0FBA3
:105A9000EAFFED4F90F268F090F269EBF07FF47E50
:105AA0000112C8507F0122E4900BAEF0A3F0EF701A
:105AB000028010900B6EE06003E48007900B7CE0A6
:105AC0006008E49009B8F0025C6C9009B8E01460DA
:105AD0000C14603624026003025C6280157B017A3C
