:10000000026F3A027155C2CFC2CA3202799075911D
:10001000003222028E6C1288B290079FE0B507036F
:100020007F002290079FEFF07F0122020006EFB4CD
:100030000106E490D344800590D3447401F090D33A
:1000400046F02202000E02019AEC5D046005E859B8
:1000500004700302019012015B580460F6EC4860E2
:10006000F2EC7004FDFEFF22C860DB2481C8500959
:10007000C398600250060201979850CAF582E92998
:100080004B4A7005AB8202018675F0007C1A7880BD
:10009000C3EF9BEE9AED99400DC3EF9BFFEE9AFEE6
:1000A000ED99FDE842F0DC23ACF0D0E0FFD0E0FEBB
:1000B000D0E0FDAB8220E7101BEB60BAEC2CFCEF2C
:1000C00033FFEE33FEED33FD020172E803F830E753
:1000D00005C0F075F000EF2FFFEE33FEED33FD406D
:1000E000B830E7C280AA75F020800E75F010800548
:1000F00075F0087D007E007F003392D530D5031265
:1001000009E2EC334010EF33FFEE33FEED33FDEC4C
:1001100033FCD5F0ED22E5F0247EA2D513CC92E796
:10012000CDCEFF22EDD2E7CD33EC3392D524814002
:1001300006E4FFFEFDFC22FCE4CFCECDCC24E05053
:100140001174FF80EDC3CC13CCCD13CDCE13CECF25
:1001500013CF0470F030D5DE0209E2E9D2E7C933EB
:10016000E833F892D5EDD2E7CD33EC33FC5002B250
:10017000D522EC30E7100FBF000C0EBE00080DBDFD
:1001800000040BEB6014A2D5EB13FCED92E7FD220B
:1001900074FFFCFDFEFF22E480F8A2D574FF13FC7F
:1001A0007D80E480EF020190E86480F8E933E83371
:1001B00060110460F0ED33EC337009E8FCE9FDEA0E
:1001C000FEEBFF220460DED3EB9FEA9EE99DE8C2CE
:1001D000E78CF0C2F795F0400CE8CCF8E9CDF9EAED
:1001E000CEFAEBCFFB12015B85D0F05804700320F0
:1001F000D5B3E80470075002B2D502019A92D5EC4B
:100200000460F7E4CCC0E0C398F8603B9418600841
:10021000400DD0E0FB020172E4FBFAC9FC8028E843
:1002200030E406E4C9FBE4CAFCE830E305E4C9CAEB
:10023000CBFCE854076010F8C3E913F9EA13FAEBB2
:1002400013FBEC13FCD8F130F52FC3E49CFCEF9BBF
:10025000FFEE9AFEED99FDD0E0FBEF4E4D4C701293
:1002600022DB03020197EC2CFCEF33FFEE33FEEDB3
:1002700033FDED30E7EB020172EF2BFFEE3AFEEDBE
:1002800039FDD0E0FB50130BBB000302019AED13C4
:10029000FDEE13FEEF13FFEC13FC02017274F8CCB9
:1002A0006480CCC86480C8F58204604FC3EB9FF5BE
:1002B000F0EA9E42F0E99D42F0E89C45F0603C5037
:1002C0001DE5825FFFE582D313CB5BCBF42B558218
:1002D000FB50280ABA002409B9002008801DE582D5
:1002E0005BFBE582D313CF5FCFF4C3132F5582FF9F
:1002F00050090EBE00050DBD00010CC3EB9FF5F0CB
:10030000EA9E42F0E99D42F0E89C45F06007CC4847
:1003100020E701B3EC22F920E73624F950037907EE
:10032000E4F42402FBE582158270021583DBF6E01B
:1003300024FB501BE96014E4F0E58215827002157D
:1003400083E004F0B40A08E4F0D9EE7401F00A2264
:10035000C2D522ED33EC3392D5FA602AB4FF33EDE7
:10036000C2E77BFF60067A037978E4227A03798119
:1003700020D5047A03797C224E614E002B494E46EB
:10038000002D494E4600E47A08F0A3DAFC7B0074A5
:100390000722C083C082ECC0E0EDC0E0EEC0E0EF19
:1003A000C0E0EA75F010A4CAABF075F04DA42BFBC9
:1003B000E435F0FCEA2410FAEB34C5FBEC34D9FC4C
:1003C000EDC2E7FF75F056A4F42411C5F0F434C56E
:1003D0008FF0A42AE5F03BE43CF020E71412058EF0
:1003E000D0E0FFD0E0FED0E0FDD0E0FC120049807C
:1003F00014F40412058ED0E0FFD0E0FED0E0FDD072
:10040000E0FC120458D082D083E0FAEDD2E7CD337D
:10041000EC332482FBE4C3CF33CFCE33CECD33CD08
:1004200033DBF37B0775F00A846004F0A31B0AE555
:10043000F0F0A38FF0740AA4FFACF08EF0740AA45D
:100440002CFEACF050010C8DF0740AA42CFDE435A8
:10045000F0F0A3DBDE740722EC4D6011E849701761
:10046000ED33EC3304600DE4FCFFFEFD22E933E8DC
:10047000330470F802019012015B58046009E4CC67
:100480002481500628500902019A2840030201974E
:10049000C0E0EB4A7044B98006D0E0FB020186EF71
:1004A0004E701CBD8008EBFFEAFEE9FD80EBE98D94
:1004B000F0A4FEE5F0020541E9CDF9EAFEEBFFEF1D
:1004C00089F0A4FCE5F0CE89F0A42EFFE435F0CD50
:1004D00089F0A42DFEE435F08067EF4E7005BD80F5
:1004E000D780C3EF8BF0A4ACF0EE8BF0A42CFCE42F
:1004F00035F0F8EF8AF0A42CE5F038FCE433CB8D2E
:10050000F0A42CFCE5F03BF8EE8AF0A42CFCE5F01E
:1005100038F8E433CF89F0A42CFCE5F038CF340070
:10052000CE89F0A42FFFE5F03EFEE433C98DF0A4A0
:100530002EFEE5F039CD8AF0A42FFFE5F03EFEE473
:100540003DFD33D0E0FB50070BBB000F02019AECDE
:100550002CFCEF33FFEE33FEED33FD0201723F80E2
:1005600000004120000042C80000447A0000461C00
:10057000400047C35000497424004B1896804CBE7D
:10058000BC205A0E1BCA6753C21C749DC5AEFB60CB
:10059000065407601C23231205BCEB543860091273
:1005A00005A81205B7120458ECF8EDF9EEFAEFCBF6
:1005B00022EB1205B780F1543803241C90055EFE2F
:1005C00093FC0EEE93FD0EEE930ECE93FF22E70901
:1005D000F608DFFA8046E709F208DFFA803E8882F3
:1005E0008C83E709F0A3DFFA8032E309F608DFFA2B
:1005F0008078E309F208DFFA807088828C83E3094F
:10060000F0A3DFFA806489828A83E0A3F608DFFA28
:10061000805889828A83E0A3F208DFFA804C80D276
:1006200080FA80C680D4806980F28033801080A6F2
:1006300080EA809A80A880DA80E280CA803389824A
:100640008A83ECFAE493A3C8C582C8CCC583CCF0F6
:10065000A3C8C582C8CCC583CCDFE9DEE7800D899D
:10066000828A83E493A3F608DFF9ECFAA9F0EDFBA4
:100670002289828A83ECFAE0A3C8C582C8CCC583EC
:10068000CCF0A3C8C582C8CCC583CCDFEADEE88045
:10069000DB89828A83E493A3F208DFF980CC88F0B7
:1006A000EF60010E4E60C388F0ED2402B4040050E8
:1006B000B9F582EB2402B4040050AF232345822312
:1006C00090061E73BB010689828A83E0225002E7EE
:1006D00022BBFE02E32289828A83E49322BB010CBF
:1006E000E58229F582E5833AF583E0225006E92583
:1006F00082F8E622BBFE06E92582F8E222E582299D
:10070000F582E5833AF583E49322BB010FF8E58295
:1007100029F582E5833AF583E028F0225009C58265
:1007200029F8E58226F622BBFE09C58229F8E225D2
:1007300082F222F8EA2583F583E9932822BB010699
:1007400089828A83F0225002F722BBFE01F322F84D
:10075000BB010DE58229F582E5833AF583E8F022B5
:100760005006E92582C8F622BBFE05E92582C8F2BB
:1007700022EF8DF0A4A8F0CF8CF0A428CE8DF0A4A9
:100780002EFE22BC000BBE0029EF8DF084FFADF0E1
:1007900022E4CCF875F008EF2FFFEE33FEEC33FCCB
:1007A000EE9DEC984005FCEE9DFE0FD5F0E9E4CE01
:1007B000FD22EDF8F5F0EE8420D21CFEADF075F0D0
:1007C00008EF2FFFED33FD4007985006D5F0F222D9
:1007D000C398FD0FD5F0EA22C5F0F8A3E028F0C5D4
:1007E000F0F8E582158270021583E038F022BB0133
:1007F0000A89828A83E0F5F0A3E022500687F00997
:10080000E71922BBFE07E3F5F009E3192289828A82
:1008100083E493F5F074019322BB0110E58229F57E
:1008200082E5833AF583E0F5F0A3E0225009E9255B
:1008300082F886F008E622BBFE0AE92582F8E2F596
:10084000F008E222E5832AF583E993F5F0A3E99322
:1008500022BB010A89828A83F0E5F0A3F0225006C8
:10086000F709A7F01922BBFE06F3E5F009F31922F8
:10087000F8BB0111E58229F582E5833AF583E8F0BA
:10088000E5F0A3F0225009E92582C8F608A6F02277
:10089000BBFE09E92582C8F2E5F008F222EF2BFF42
:1008A000EE3AFEED39FDEC38FC22C3EF9BFFEE9AE9
:1008B000FEED99FDEC98FC22E88FF0A4CC8BF0A41F
:1008C0002CFCE98EF0A42CFC8AF0EDA42CFCEA8E22
:1008D000F0A4CDA8F08BF0A42DCC3825F0FDE98F45
:1008E000F0A42CCD35F0FCEB8EF0A4FEA9F0EB8F3C
:1008F000F0A4CFC5F02ECD39FEE43CFCEAA42DCE09
:1009000035F0FDE43CFC2275F008758200EF2FFF06
:10091000EE33FECD33CDCC33CCC58233C5829BEDD7
:100920009AEC99E58298400CF582EE9BFEED9AFDDB
:10093000EC99FC0FD5F0D6E4CEFBE4CDFAE4CCF98B
:10094000A88222B800C1B90059BA002DEC8BF084FE
:10095000CFCECDFCE5F0CBF97818EF2FFFEE33FECC
:10096000ED33FDEC33FCEB33FB10D703994004EB84
:1009700099FB0FD8E5E4F9FA227818EF2FFFEE3350
:10098000FEED33FDEC33FCC933C910D7059BE99A62
:100990004007EC9BFCE99AF90FD8E0E4C9FAE4CCF3
:1009A000FB2275F010EF2FFFEE33FEED33FDCC335D
:1009B000CCC833C810D7079BEC9AE899400AED9B46
:1009C000FDEC9AFCE899F80FD5F0DAE4CDFBE4CC25
:1009D000FAE4C8F922EF4BFFEE4AFEED49FDEC4880
:1009E000FC22C3E49FFFE49EFEE49DFDE49CFC2208
:1009F000EB9FF5F0EA9E42F0E99D42F0E89C45F05D
:100A000022E8600FECC313FCED13FDEE13FEEF13B1
:100A1000FFD8F122E8600FEFC333FFEE33FEED3372
:100A2000FDEC33FCD8F122BB010789828A83020ADC
:100A3000915005E9F8020B8EBBFE05E9F8020B9A0E
:100A400089828A83020BA6BB010DE58229F582E526
:100A5000833AF583020A915007E92582F8020B8E4A
:100A6000BBFE07E92582F8020B9AE58229F582E5AB
:100A7000833AF583020BA6BB010789828A83020AA7
:100A8000A95005E9F8020BB6BBFE05E9F8020BC256
:100A900022E0FCA3E0FDA3E0FEA3E0FF22E0F8A338
:100AA000E0F9A3E0FAA3E0FB22ECF0A3EDF0A3EE63
:100AB000F0A3EFF022A8828583F0D083D082120ABF
:100AC000CC120ACC120ACC120ACCE473E493A3C56C
:100AD00083C5F0C583C8C582C8F0A3C583C5F0C56A
:100AE00083C8C582C822E0FBA3E0FAA3E0F922F89C
:100AF000E0FBA3A3E0F925F0F0E582158270021572
:100B000083E0FA38F022EBF0A3EAF0A3E9F022D078
:100B100083D082F8E4937012740193700DA3A393B1
:100B2000F8740193F5828883E4737402936860EF2C
:100B3000A3A3A380DFEC8EF0A4CCC5F0CCCDF8EF5E
:100B4000A4CEC5F02DFDE43CFCE8A42EC8C5F03DC4
:100B5000FDE43CFCEFA4FFE5F028FEE43DFDE43CB1
:100B6000FC22EF4E6012EF60010EEDBB010B89829B
:100B70008A83F0A3DFFCDEFA2289F05007F709DF51
:100B8000FCA9F022BBFEFCF309DFFCA9F022E6FC85
:100B900008E6FD08E6FE08E6FF22E2FC08E2FD08A2
:100BA000E2FE08E2FF22E493FC740193FD740293D9
:100BB000FE740393FF22ECF608EDF608EEF608EF5C
:100BC000F622ECF208EDF208EEF208EFF2229009BC
:100BD000A4EFF07F01128BA7128BB77832E6B40F27
:100BE00003020FA6E490F103F090F104F090F105F8
:100BF000F07832E6701D08E6B4221808E6FFD394B8
:100C00000F5010E490F103F090F104F090F105EF33
:100C1000F080137832E690F103F008E690F104F0EA
:100C200008E690F105F0E47813F69009A4E0FF7867
:100C300013E6FEC39F5026EE601390F105E0B4FF6B
:100C40000690F104E004F090F105E004F090F15416
:100C5000E0FF74452EF8A60778130680CD7832E6BB
:100C6000FC706F08E6706B7812F67834E6247F60CB
:100C70002314603614604924036003020FEA7812DB
:100C8000E6FF1285249009A4E0FF781206E66F7053
:100C900003020FEA7812E6FF1278139009A4E0FF2E
:100CA000781206E66F7003020FEA7812E6FF128EE2
:100CB000139009A4E0FF781206E66F7003020FEAB2
:100CC0007812E6FF128E1A9009A4E0FF781206E669
:100CD0006F22EC6003020E0B7833E66402600302BD
:100CE0000E0B7812F67834E6120B0F0D13000D2957
:100CF000010D3F020D55030D6B040D81050D970687
:100D00000DAD070DBF100DD3120DE7140DFB16002E
:100D1000000FEA7812E6FF1289689009A4E0FF78D4
:100D20001206E66F7003020FEA7812E6FF12897B63
:100D30009009A4E0FF781206E66F7003020FEA78CC
:100D400012E6FF125F399009A4E0FF781206E66F01
:100D50007003020FEA7812E6FF1264819009A4E0A2
:100D6000FF781206E66F7003020FEA7812E6FF12B0
:100D700074339009A4E0FF781206E66F7003020F47
:100D8000EA7812E6FF128DD79009A4E0FF781206E8
:100D9000E66F7003020FEA7812E6FF1279459009B8
:100DA000A4E0FF781206E66F7003020FEA7812E6FD
:100DB000FF1284619009A4E0FF781206E66F22E436
:100DC000FF127B489009A4E0FF781206E66F7003DB
:100DD000020FEA7F01127B489009A4E0FF78120617
:100DE000E66F7003020FEA7F02127B489009A4E0CD
:100DF000FF781206E66F7003020FEA7F03127B484A
:100E00009009A4E0FF781206E66F227832E66003CC
:100E1000020F4708E664206003020F477812F67855
:100E200034E6120B0F0E53020E69030E7F040E8E72
:100E3000050E9D060EAC070EBB080ECA090ED90A98
:100E40000EE80B0EF70C0F0D0D0F230E0F350F00D4
:100E5000000FEA7812E6FF1289689009A4E0FF7893
:100E60001206E66F7003020FEA7812E6FF12897B22
:100E70009009A4E0FF781206E66F7003020FEA9073
:100E800009A4E0FF781206E66F7003020FEA9009EA
:100E9000A4E0FF781206E66F7003020FEA9009A43F
:100EA000E0FF781206E66F7003020FEA9009A4E0F3
:100EB000FF781206E66F7003020FEA9009A4E0FFC4
:100EC000781206E66F7003020FEA9009A4E0FF783B
:100ED0001206E66F7003020FEA9009A4E0FF781291
:100EE00006E66F7003020FEA9009A4E0FF7812068D
:100EF000E66F7003020FEA7812E6FF125F3990097D
:100F0000A4E0FF781206E66F7003020FEA7812E69B
:100F1000FF1264819009A4E0FF781206E66F700367
:100F2000020FEA7812E6FF1274339009A4E0FF780A
:100F30001206E66F227812E6FF128DD79009A4E020
:100F4000FF781206E66F227832E6FF700C08E6B4EE
:100F5000040708E67003020FEAEF70407833E66496
:100F60002270397812F67834E614601824F1602281
:100F700024FC6023241470729009A4E0FF78120608
:100F8000E66F6066900799E0FF7812E62445F8A6C0
:100F900007227845760822E47845F6227832E6B4CE
:100FA0000F1608E670129009A4E0FF7E007D007B1A
:100FB000007A007945020B627832E66406702B08ED
:100FC000E6FFB4800D08E6B429087857E6B4011AA4
:100FD0008010EFB494147834E6B4930E7857E6B4E6
:100FE000010878457604E47857F6227598504389CD
:100FF00020758DFE758BFED28ED299D29CD298220E
:101000001700000000009007A0E0120B0F10350140
:10101000103D02107B03109004109F0510FA061279
:10102000590713CA0814780914C90A14F10B156B6F
:101030000C00001570128E607F0202156D9007A1E2
:10104000E030E0107B017A057985128DE09007A1F0
:10105000E054FEF07B017A0579857DC87C00127032
:10106000D2EF64016003021570128B87900791E044
:10107000FF7D2812771F7F0302156D900797E020F0
:10108000E60302157012674E1284D87F0402156DB4
:101090009007A1E020E1030215707F0502156D9015
:1010A00007A1E030E0107B017A057985128DE09090
:1010B00007A1E054FEF07B017A0579857D647C0010
:1010C0001270D2EF64016003021570128955128C00
:1010D000DB125DA4128C257F06127CA4900796E09B
:1010E00064016003021570900590E0FF7D0112829B
:1010F0003C7BFF7A2D79E50215669007A1E030E090
:10110000167B017A057985128DE09007A1E054FEE7
:10111000F090058A7401F0128C16BF01057F07025A
:10112000156D7B017A0579857D107C271270D2EFD1
:101130006401600302157090058AE0700302157067
:10114000E4F07BFF7A2D79EF7F01126D007F007E46
:10115000017D007C00127FFE9009D3EFF07BFF7AC7
:101160002E79037F01126D007F017E017D007C00DE
:10117000127FFE9009D3EFF07BFF7A2E79157F0165
:10118000126D007F037E017D007C00127FFE9009BE
:10119000D3EFF07BFF7A2E79277F01126D007F0459
:1011A0007E017D007C00127FFE9009D3EFF07BFF73
:1011B0007A2E79397F01126D007F047E017D007CDB
:1011C00000127FFE9009D3EFF07BFF7A2E794B7FE0
:1011D00001126D007F047E017D007C00127FFE9075
:1011E00009D3EFF07BFF7A2E795D7F01126D007FCE
:1011F000077E017D007C00127FFE9009D3EFF07B1B
:10120000FF7A2E796F7F01126D007F027E027D00D2
:101210007C00127FFE9009D3EFF07BFF7A2E79815C
:101220007F01126D007F037E027D007C00127FFE35
:101230009009D3EFF07BFF7A2E79937F01126D0036
:101240007F047E027D007C00127FFE9009D3EFF0C8
:101250007BFF7A2E79A50215669007A1E030E01099
:101260007B017A057985128DE09007A1E054FEF0AC
:101270007B017A0579857D587C021270D2EF64017A
:1012800060030215707828E6FE541F9009D3F0EE33
:10129000C4135407A3F07BFF7A2E79B77F01126D38
:1012A000007BFF7A2E79D97F01126D007F007E01CD
:1012B0007D007C00127FFE9009D3EFF07BFF7A2E39
:1012C00079037F01126D007F017E017D007C001299
:1012D0007FFE9009D3EFF07BFF7A2E79157F011204
:1012E0006D007F037E017D007C00127FFE9009D39C
:1012F000EFF07BFF7A2E79277F01126D007F047E4D
:10130000017D007C00127FFE9009D3EFF07BFF7A15
:101310002E79397F01126D007F047E017D007C00F3
:10132000127FFE9009D3EFF07BFF7A2E794B7F017D
:10133000126D007F047E017D007C00127FFE90090B
:10134000D3EFF07BFF7A2E795D7F01126D007F076E
:101350007E017D007C00127FFE9009D3EFF07BFFC1
:101360007A2E796F7F01126D007F027E027D007CF4
:1013700000127FFE9009D3EFF07BFF7A2E79817FF8
:1013800001126D007F037E027D007C00127FFE90C3
:1013900009D3EFF07BFF7A2E79937F01126D007FE6
:1013A000047E027D007C00127FFE9009D3EFF07B6B
:1013B000FF7A2E79A57F01126D001222BB12485BC5
:1013C000E4900589F07F0802156D9007A1E030E0F8
:1013D000157F04127B487B017A057985128DE09098
:1013E00007A1E054FEF07B017A0579857DC87C0079
:1013F0001270D2EF640160030215707828E6C413FE
:101400005407FF1276CAEF606A7BFF7A2E79EEE40A
:10141000FF126D00900589E004F07F04127B487B89
:10142000017A057985128DE0900589E0B4051D7B70
:10143000FF7A2E79F9E4FF126D0090058FE0FF78B6
:1014400022E6FE1313135401FD02689D900589E006
:10145000D394085003021570E4F07BFF7A2F7903D0
:10146000FF126D00900796E0B402031289DA7F0242
:101470000288057F0902156D9007A1E030E0131284
:101480008D7B7B017A057985128DE09007A1E05470
:10149000FEF07B017A0579857D587C021270D2EFCF
:1014A00064016003021570125E72EF70177BFF7AA1
:1014B0002F790F7F01126D0012863C7B017A05792E
:1014C00085028DE07F0A02156D9007A1E030E012E1
:1014D0001273C9128D86E4FF128ACC9007A1E054E2
:1014E000FEF0123FEDEF640160030215707F0B8088
:1014F0007C9007A1E030E01C1239B4E4FF12298788
:10150000EF606D7B017A057985128DE09007A1E08F
:1015100054FEF0221280D8EF640270347BFF7A2FE1
:10152000791C7F01126D00E4FDFF1274999009D3BC
:10153000120AA97BFF7A2F792E7F01126D007D019F
:10154000E4FF1285D61285F81289ED7F0C127CA477
:101550007B017A0579857D407C061270D2BF01102F
:101560007BFF7A2F79417F01026D007F0D127CA4F1
:1015700022410B0800440B040000000062000591AA
:1015800000FFFFFFFFFFFF00328D065A010101013E
:101590001E1E0103806F3E780AEE91A3544C9926DB
:1015A0000F5054000000010101010101010101017E
:1015B000010101010101D50980A020E02D1010607A
:1015C000A200C48E21000018D50980A020E02D10B3
:1015D0001060A200C48E21000018000000FD001859
:1015E0004B0F873C000A202020202020000000FC18
:1015F000004C543739313155580A20202020015EE3
:10160000020314F14101230907018301000065036E
:101610000C001000000000000000000000000000AE
:1016200000000000000000000000000000000000BA
:1016300000000000000000000000000000000000AA
:10164000000000000000000000000000000000009A
:10165000000000000000000000000000000000008A
:10166000000000000000000000000000000000007A
:1016700000000000000000000000000000000078F2
:10168000000000000000000000000000000000005A
:10169000000000000000000000000000000000004A
:1016A000000000000000000000000000000000003A
:1016B000000000000000000000000000000000002A
:1016C000000000000000000000000000000000001A
:1016D000000000000000000000000000000000000A
:1016E00000000000000000000000000000000000FA
:1016F00000000000000000000000000000000000EA
:1017000000000000000000000000000000000000D9
:1017100000000000000000000000000000000000C9
:1017200000000000000000000000000000000000B9
:1017300000000000000000000000000000000000A9
:101740000000000000000000000000000000000099
:101750000000000000000000000000000000000089
:101760000000000000000000000000000000000079
:101770000000000000000000000000000000000069
:1017800044057F00000000410583004405850000FA
:1017900000004105890041058A00440B95000000C6
:1017A00000440BC0000000005A0B2900024414083A
:1017B0009807800058002C00940465043800040049
:1017C0000500240101410000004100010041000228
:1017D00000410003004100040042000500004200F7
:1017E000070000420009000042000B000042000D0B
:1017F000000042000F00004A00110000000000003D
:101800000000000041001B0044001C0000000041DB
:10181000002000410BEF01410BEE00410BF10041B4
:101820000BF0005A0B430058002C009407800898D6
:1018300000040005002404380465000249F000009B
:101840004A0A6700000000000000000000440A711E
:1018500000000000410A7500410BAE00410BAD08CD
:10186000410BBF08410BAC08620007A400FFFFFF5B
:10187000FFFFFF004DD904AA01010101011D010371
:10188000807A44780A0DC9A05747982712484C21FE
:1018900008008180A9C0714FB3000101010101015D
:1018A000010108E80030F2705A80B0588A00C2ADD9
:1018B0004200001E08E80030F2705A80B0588A00DA
:1018C000C2AD4200001E000000FC004C54344B36F8
:1018D00030433434340A2020000000FD0017790E14
:1018E000883C000A2020202020200177020361F09C
:1018F0005861605D5E5F621F101405130420223C76
:101900003E1203110265663F402C097F07097F07DD
:101910005F7F00577F00837F00006E030C00100084
:10192000B83C2F00800102030467D85DC4017880B1
:1019300003EB0146D000440B888660768FE200CB33
:10194000E305DF01E40F030030E3060D01011D0094
:101950007251D01E206E285500C2AD4200001E00FC
:101960000000000000000000000000F30000000084
:101970000000000000000000000000000000000067
:101980000000000000000000000000000000000057
:101990000000000000000000000000000000000047
:1019A0000000000000000000000000000000000037
:1019B0000000000000000000000000000000000027
:1019C0000000000000000000000000000000000017
:1019D0000000000000000000000000000000000007
:1019E00000000000000000000000000000000000F7
:1019F00000000000000000000000000000000000E7
:101A000000000000000000000000000000000000D6
:101A100000000000000000000000000000000000C6
:101A200000000000000000000000000000000000B6
:101A300000000000000000000000000000000000A6
:101A40000000000000000000000000000000000096
:101A50000000000000000000000000000000000086
:101A60000000000000000000000000005A0B6100B0
:101A70000249F0089807800058002C00940465047F
:101A8000380004000500240000410BD300410BD4B2
:101A900000410BD500410BD600420BD70000420B92
:101AA000D90000420BDB0000420BDD0000410BFBC4
:101AB00000410BFC00410BFD0000E508243AF582D3
:101AC000E4340AF583E0050822900A3730070390D2
:101AD0000A3AE475F001120AEF0206C42000E97F19
:101AE0002ED2008018EF540F2490D43440D4FF300D
:101AF000040BEF24BFB41A0050032461FFE5096012
:101B0000021509050CE50C7002050B30070E900A52
:101B100037E475F001120AEFEF02073D0284B17459
:101B200003D2078003E4C207F508900A37120B06B8
:101B3000E4F509F50BF50CE50960077F20121AFDA5
:101B400080F5750AFFC201C200C202C203C205C20B
:101B500006C208121AC9FF700D3007057F00121B5C
:101B60000EAF0CAE0B22B4255FC2D5C204121AC947
:101B7000FF24D0B40A00501A75F00A780930D50550
:101B800008B6FF0106C6A426F620D5047002D203CB
:101B900080D924CFB41A00EF5004C2E5D204021E4B
:101BA00000D20180C6D20080C0D20280BCD2D580D3
:101BB000BAD20580B47F20121AFD2002077401B545
:101BC000090040F1121ABAFF121AFD021B37D2089F
:101BD000D2068095121ABAFB121ABAFA121ABAF978
:101BE0004A4B700679FE7A1E7BFF20022EE50960C3
:101BF0002A7E008E827583001206DD60060EEE6579
:101C00000A70F0C2D5EBC0E0EAC0E0E9C0E0EE1235
:101C10001E61D0E0F9D0E0FAD0E0FB1206C4FF600C
:101C2000AAEBC0E0EAC0E0E9C0E0121AFDD0E0246F
:101C300001F9D0E03400FAD0E0FBE50A0460DCD51D
:101C40000AD98087D20280A2121E4360F7E50A708B
:101C50000104120316A90A600DE50A600914F50AC9
:101C6000121EEBEF60F3EA30E702F404C3995079F7
:101C7000EAF4250A0430E701E404F50A800D121E97
:101C80004360C1EA050A250A120316EA900A66F0C3
:101C900030E701E4250A04D50A0420050114121EC8
:101CA00061E4C0E0121EEB900A66E0601320E707D3
:101CB00014F0121AE5802204F0D0E014C0E07F0096
:101CC000121AE5E50A6007121ADC150A800B3005C6
:101CD00003121ADCD0E0021B37D0E00480C4121ECD
:101CE00043609EE50A04120316900A66EAF0E50ACC
:101CF0002005026001042404121E6174FF04C0E088
:101D0000121EEB121AE5E50A2005026003121ADC26
:101D1000D0E0B50AE87F45121AEF900A66E07F2B03
:101D200030E7047F2DF404C0E0121AFDD0E075F016
:101D30000A84C0F0121AE6D0E0121AE6021B3779C4
:101D40001080027908C206C2088008D2D5790A80BC
:101D500004790AC2D5E50A047002F50AE4FAFDFE28
:101D6000FF121ABAFC7B08200113121ABAFD7B106D
:101D700030000A121ABAFE121ABAFF7B20EC338224
:101D8000D592D55013C3E43000069FFFE49EFEE4D5
:101D90002001039DFDE49CFCE4CBF8C201EC700C37
:101DA000CFCECDCCE824F8F870F38017C3EF33FF23
:101DB000EE33FEED33FDEC33FCEB33FB994002FBDD
:101DC0000FD8E9EB300105F8D0E0C448B201C0E01B
:101DD0000AEC4D4E4F78207B0070C2EAB50A0040F5
:101DE000BCC0E0121E63D0F0D0E0200104C4C0E00B
:101DF000C4B201C0F0121AE6D0F0D5F0EB021B37E6
:101E0000120B0F1BD4531D3F581BA54C1BA1421D89
:101E1000434F1D4B441D4B491BBA431D51551C7E5E
:101E2000461CDE451C48471F1E501BA92D1BAD2E0E
:101E30001BD02B1BB1231BCE201F072A1B69480078
:101E4000001BC8E50AB4FF03750A06121ABAFC1291
:101E50001ABAFD121ABAFE121ABAFF900A5F0203EA
:101E600053790AA2D5200314300509B910020404DD
:101E7000B9080104A2D5200602500104200268928C
:101E800002B509005034C0E07F203003197F30A232
:101E90000272067205500F121EBAC202C206C205B5
:101EA000C2087F30800F300503E9C0E0121AFD3010
:101EB0000503D0E0F9D0E0B509CC3005177F30B983
:101EC000100C121AFD7F583004077F788003B90880
:101ED00003121AFD3002057F2D021AFD7F20200813
:101EE000F87F2B2006F322920280CF7F00B40700F8
:101EF000500B245FF582E4340AF583E0FF22286E5C
:101F0000756C6C2900D201121ABA3001F8C201783E
:101F10000930D50108F6021B692D50434958121AA1
:101F2000BA2403B405004001E4901F1993121AEE7D
:101F3000743A121AEED203750904021D3FE47BD0F5
:101F40007A07F9F8900BA4120A911209439009A696
:101F5000EEF0A3EFF0E47BD07A07F9F8900BA8122B
:101F60000A911209439009A8EEF0A3EFF0900B9BA1
:101F7000E0FB70189009A8E0FEA3E07803CEC3133D
:101F8000CE13D8F9F0EE9009A8F080179009A8E0D8
:101F9000FEA3E0FF7C007D071207839009A8EEF006
:101FA000A3EFF0900B99E020E104EBB4010D900950
:101FB000A9E025E0F09009A8E033F09009A8E0FE40
:101FC000A3E0FF900BA2E0FD7C001207719009A82E
:101FD000EEF0A3EFF01289B49009AAEEF0A3EFF0AF
:101FE0001289C79009ACEEF0A3EFF0900B16E0C396
:101FF00013FCA3E013FD900B14E0C313FEA3E01346
:102000002DFFEE3CFE9009A8E0FCA3E0FD12077155
:102010009009A6E0FCA3E0FD120783E4FCFD900913
:10202000BE120AA99009AAE0FEA3E0FFE4FCFD901D
:1020300009BE120A9DD31209F04049900B16E01315
:10204000FCA3E013FD900B14E0C313FEA3E0132DDB
:10205000FFEE3CFE9009A8E0FCA3E0FD12077190A2
:1020600009A6E0FCA3E0FD1207839009AAE0FCA307
:10207000E0FDC3EF9DFFEE9CFEE4FCFD9009B6126F
:102080000AA9800A9009B6120AB500000000900B58
:10209000A2E064016003022164900B16E0C313FC0C
:1020A000A3E013FD900B14E0C313FEA3E0132DFD7A
:1020B000EE3CFC900B10E0C313FEA3E0132DFFECED
:1020C0003EFE9009A8E0FCA3E0FD120B359009BA92
:1020D000120AA99009A6E0FEA3E0FFFBAA06E4F914
:1020E000F89009BA120A911209439009BE120AA97E
:1020F0009009ACE0FEA3E0FF9009ABE02FFF900950
:10210000AAE03EFEE4FCFD9009BE120A9DD312092E
:10211000F040459009A6E0FEA3E0FFFBAA06E4F923
:10212000F89009BA120A91120943C006C007900933
:10213000AAE0FEA3E0FBAA06E4F9F8D007D0061255
:1021400008AAC006C007A3E0FEA3E0FBAA06E4D0ED
:1021500007D0061208AA80129009BA120AB5000028
:102160000000800C9009B6120A919009BA120AA9CF
:102170009009BA120A919009B6120A9DD31209F079
:10218000400C9009B6120A919009BA120AA9900B54
:10219000A0E025E0FFE433AB07FA3395E0F9F8E47B
:1021A000FF7E80FDFC1209439009B2120AA9900B30
:1021B00014E0C313FEA3E013FFE4FCFD9009B21288
:1021C0000A9D12089DA804A905AA06AB07900B1644
:1021D000E0C313FEA3E013FFE4FCFD12089DA80476
:1021E000A905AA06AB079009A8E0FEA3E0FFE4FC5E
:1021F000FD1208B89009B2120AA99009A6E0FEA340
:10220000E0FFFBAA06E4F9F89009B2120A9112095C
:1022100043C006C0079009AAE0FEA3E0FBAA06E4BB
:10222000F9F8D007D0061208AA9009B2120AA97BC1
:10223000FF7A3C79769009B2120A919009D3120A7A
:10224000A97F01126D007BFF7A3C79899009B61253
:102250000A919009D3120AA97F01126D007BFF7ABF
:102260003C799D9009BA120A919009D3120AA97F6C
:1022700001126D009009BA120A919009B2120A9DDA
:10228000D31209F09009BA4020120A9D9009B212A7
:102290000A911208AAE47B0AFAF9F8120943900994
:1022A000BA120A9D12089D8003120A919009AE127B
:1022B0000AA99009AE120A910286C0E49009ADF015
:1022C0009009ABF09009A9F09009A7F09009AEF041
:1022D0009009ACF09009AAF09009A8F07F01128B48
:1022E000D7E4FB7A02EB7004AF028005C374139A43
:1022F000FFA907E9902F4D9390F1BBF090F1BCF04E
:1023000090F1BDF090F1BEF07F017E0012861A7F41
:1023100004127B48E49009A6F09009A6E004F0C3FB
:10232000943240030223C47F017E0012861AE4FF28
:10233000127C1B9009AFEEF0A3EFF07F01127C1B23
:102340009009B1EEF0A3EFF07F02127C1B9009B36D
:10235000EEF0A3EFF07F03127C1B9009B5EEF0A323
:10236000EFF07828E6C4135407FFC394014010909F
:1023700009B0E094109009AFE0948040028045EFEE
:10238000C3940240109009B2E094109009B1E09417
:10239000804002802F7828E6C41354076404600349
:1023A000022319C39009B4E094109009B3E094801B
:1023B0005012C39009B6E094109009B5E094805093
:1023C000030223197828E6C4135407FFC39401407D
:1023D0002874A72BF582E43409F583E0701BD390B1
:1023E00009B0E094029009AFE09480500C74A72BE0
:1023F000F582E43409F583E9F0EFC39402402874D0
:10240000A92BF582E43409F583E0701BD39009B25F
:10241000E094029009B1E09480500C74A92BF582ED
:10242000E43409F583E9F07828E6C4135407FFBFC4
:10243000042874AB2BF582E43409F583E0701BD3D8
:102440009009B4E094029009B3E09480500C74AB0E
:102450002BF582E43409F583E9F07828E6C41354B7
:1024600007FFBF042874AD2BF582E43409F583E03F
:10247000701BD39009B6E094029009B5E0948050A7
:102480000C74AD2BF582E43409F583E9F0BF011338
:1024900074A72BF582E43409F583E0D3940040035C
:1024A0000225247828E6C4135407FFBF022274A72C
:1024B0002BF582E43409F583E0D39400401274A92B
:1024C0002BF582E43409F583E0D394004002805474
:1024D0007828E6C41354076404704074A72BF5826F
:1024E000E43409F583E0D39400403074A92BF582DD
:1024F000E43409F583E0D39400402074AB2BF582DB
:10250000E43409F583E0D39400401074AD2BF582D8
:10251000E43409F583E0D3940050090AEA641260B8
:10252000030222E5EB7006EAC3941250090BEB6438
:102530000260030222E39007957408F0900794F07C
:10254000900793F0900792F07828E6C4135407148C
:10255000700302260114607324FE60030226379084
:1025600009ADE0FFC39412502CEF7004A3E0602586
:102570009009ADE0FFA3E0FEC39F400FEEFDEF2DFD
:10258000FFE433A2E713EF13FF80059009ADE0FFEE
:10259000900795EFF09009ABE0FFC39412502CEF39
:1025A0007004A3E060259009ABE0FFA3E0FEC39FA9
:1025B000400FEEFDEF2DFFE433A2E713EF13FF8092
:1025C000059009ABE0FF900794EFF09009A9E0FFB8
:1025D000C39412502CEF7004A3E060259009A9E089
:1025E000FFA3E0FEC39F400FEEFDEF2DFFE433A2FB
:1025F000E713EF13FF80059009A9E0FF900793EF21
:10260000F09009A7E0FFC39412502CEF7004A3E0F0
:1026100060259009A7E0FFA3E0FEC39F400FEEFDF9
:10262000EF2DFFE433A2E713EF13FF80059009A716
:10263000E0FF900792EFF022EDD3940140030229CE
:1026400086EF120B0F26E50027670226F2032719F3
:102650000428510627260727740927810A278E0B8D
:1026600029220D27B50E27C20F2803102810112785
:10267000CF1227DC1327E91427F615281D16282A60
:1026800017284418283719285E1A286B1B28781C2D
:1026900028851D28921E289F1F28AC2028B9212894
:1026A000C62228D32328E02428EB2528F626290152
:1026B0002729432829172929762A29652B29542CCB
:1026C000290C2D292D2E29382F26FF30270C3127B4
:1026D0003332274033279B3427A835274D36275AD6
:1026E0003700002986ED90D461B4010302294A0223
:1026F000294FED90D461B4010302295B022960EDFA
:1027000090D461B4010302296C022971ED90D46167
:10271000B4010302297D022982ED90D462B4010341
:1027200002294A02294FED90D462B4010302295BC9
:10273000022960ED90D462B4010302296C02297170
:10274000ED90D462B4010302297D022982ED90D478
:1027500063B4010302294A02294FED90D463B40106
:102760000302295B022960ED90D463B401030229BE
:102770006C022971ED90D463B4010302297D022912
:1027800082ED90D464B4010302294A02294FED90EE
:10279000D464B4010302295B022960ED90D464B4CF
:1027A000010302296C022971ED90D464B401030283
:1027B000297D022982ED90D465B4010302294A02E1
:1027C000294FED90D465B4010302295B022960ED25
:1027D00090D465B4010302296C022971ED90D4658F
:1027E000B4010302297D022982ED90D466B401036D
:1027F00002294A02294FED90D466B4010302295BF5
:10280000022960ED90D466B4010302296C0229719B
:10281000ED90D466B4010302297D022982ED90D4A3
:1028200067B4010302294A02294FED90D467B4012D
:102830000302295B022960ED90D467B401030229E9
:102840006C022971ED90D467B4010302297D02293D
:1028500082ED90D468B4010302294A02294FED9019
:10286000D468B4010302295B022960ED90D468B4F6
:10287000010302296C022971ED90D468B4010302AE
:10288000297D022982ED90D469B4010302294A020C
:10289000294FED90D469B4010302295B022960ED50
:1028A00090D469B4010302296C022971ED90D469B6
:1028B000B4010302297D022982ED90D46AB4010398
:1028C00002295B022960ED90D46AB4010302296CED
:1028D000022971ED90D46AB4010302297D02298294
:1028E000ED90D46BB4010280618064ED90D46BB440
:1028F00001028067806AED90D46BB40102806D8024
:1029000070ED90D46BB4010280738076ED90D46C3E
:10291000B4010280358038ED90D46CB40102803B64
:10292000803EED90D46CB4010280418044ED90D49F
:102930006DB4010280148017ED90D46DB401028053
:102940001A801DED90D46FB40105E04440F022E000
:1029500054BFF022ED90D46FB40105E04410F02292
:10296000E054EFF022ED90D46FB40105E04404F0A0
:1029700022E054FBF022ED90D46FB40105E0440155
:10298000F022E054FEF0229009A6EFF0E4FBA3123F
:102990000AB500000000900BD3E0120B0F29B9001C
:1029A0002A15012B69022BC0032BFD042C2E052CAC
:1029B00059062C660700002C8E9009A6E0B401078A
:1029C00090F21EE0547FF090F220E04410F090D39B
:1029D00040E030E21354FBF090F2837421F090F267
:1029E0003EE04403F054FCF090D3407460F090F269
:1029F00063E054F7F090F23DE0543FF090E360E084
:102A000054DFF090F1B4E054FDF04402F0900BD3A9
:102A10007401022C5390F2E2E0543064106003021F
:102A20002BB8900BD4E004F0E0640A6003022C8E13
:102A300090F263E054F8FFF090F2F8E05470C45460
:102A40000F4F90F263F090F2F7E0547FFFE4FCFD4B
:102A5000FE9009A7120AA99009A7120A91780812F4
:102A60000A149009A7120AA990F2F6E0FFE4FCFD0F
:102A7000FE9009A7120AA99009A7120A91780812D4
:102A80000A149009A7120AA99009A7120A9D90F2A8
:102A9000F5E0FFE4FCFDFE12089D9009A7120AA9CB
:102AA0009009A7120A917808120A149009A7120A2D
:102AB000A99009A7120A9D90F2F4E0FFE4FCFDFE44
:102AC00012089D9009A7120AA97BFF7A4E791590EA
:102AD00009A7120A919009D3120AA9E4FF126D0006
:102AE000E4FB90F2F7E0547FFFD39450401AAB0719
:102AF0009009A7120A917801120A019009A7120AF7
:102B0000A990D340E04404F09009A7120A917818E4
:102B1000120A0190F237EFF09009A7120A9178108B
:102B2000120A0190F23AEFF09009A7120A91780880
:102B3000120A0190F23BEFF09009A7120A9190F26D
:102B40003CEFF090F263E04408F090F23DE044C0C6
:102B5000F090F23EE04403F054FCF0E4900BD4F02B
:102B6000900BD37402F0022C8E90F2F7E0547F6B3E
:102B70006046900BD4E004F0E0D3940A5003022C9A
:102B80008E90E3607402F090E3617440F090E36231
:102B90007404F0E490E365F090E3687420F090D35F
:102BA00040E04440F090D34274A8F0E490D34CF05D
:102BB000900BD37403022C53E4900BD4F0022C8EB0
:102BC00090E1307407F090E13DE054FDF090E36057
:102BD000E054DFF07F017E0012861A90E13DE04470
:102BE00002F090E1307477F090E360E04420F07FF1
:102BF0000A7E0012861A900BD37404805690E36C00
:102C0000E05403FFBF011490D340E054BFF0900B99
:102C1000D37405F0E4A3F0A3F08073E4900BD3F039
:102C2000A3E004F0E0D394034064E4F0806090E318
:102C30006CE030E7599009A6E0B4010790F21EE07D
:102C40004480F07BFF7A4E7927E4FF126D00900BF1
:102C5000D37406F0E4A3F08035E490F220F0900BFA
:102C6000D37407F0802890F2F7E0547FD39450504B
:102C700016E4900BD3F0A3F0A3F07BFF7A4E7934E7
:102C8000FF126D007F01227F017E0012861A7F02F3
:102C90007E0012861A7F00220A2D2D52785374610D
:102CA0007465203D20256264000A44505258000A91
:102CB00048444350204B65792056616C6964000A92
:102CC000207563506978656C456E636F64696E67E3
:102CD0003A307825303262782C75634269744465E5
:102CE0007074683A307825303262782C000A20758A
:102CF00063436F6C6F72696D65747279466F726D44
:102D000061743A30782530326278000A56534300B5
:102D10000A536F66744571203D2030782530326249
:102D2000782C307825303262782C30782530326239
:102D3000782C30782530326278000A417564204161
:102D400070706561722E000A417564204469736178
:102D500070706561722E000A4653204368616E6789
:102D6000652E000A617564206673203D202562642B
:102D7000000A41756420506C6C206C6F636B2E00F0
:102D80000A417564706C6C20526563616C692E0039
:102D90000A417564706C6C20556E6C6F636B2E000D
:102DA0000A68646370497271000A484443505F25A1
:102DB000626458000A636F6C6F72207370616365A0
:102DC000204368616E67652E000A50435220756E7D
:102DD000737461626C652E000A4D53412043686133
:102DE0006E67652E000A4850442048696768000AEB
:102DF000445020547261696E696E67204661696C47
:102E00006564000A44504344313030203D2030781E
:102E10002562782C000A44504344313031203D2053
:102E200030782562782C000A4450434431303320F6
:102E30003D2030782562782C000A445043443130DC
:102E400034203D2030782562782C000A44504344D9
:102E5000313035203D2030782562782C000A4450EE
:102E60004344313036203D2030782562782C000AEA
:102E700044504344313037203D2030782562782C4F
:102E8000000A44504344323032203D2030782562DD
:102E9000782C000A44504344323033203D203078AF
:102EA0002562782C000A44504344323034203D20BF
:102EB00030782562782C000A4C696E6B526174651B
:102EC0005F436F756E74203D203078253032627814
:102ED0002C30782530326278000A445020547261D8
:102EE000696E696E672053756363657373000A6466
:102EF000617461206572722E000A436472205273FD
:102F0000742E000A5265636F6E6E6563742E000A3C
:102F100064652D706B74206572722E000A20504318
:102F20005220616C6C20737461626C653B000A44D2
:102F300050696E46726571203D20256C754B687A2C
:102F4000000A5043526C676320527374003F3F3F46
:102F50002A26242221201F1E1D1C1B1A19170000BF
:102F6000009009A4EFF07F01128BA7128BB7783283
:102F7000E6FF640F700302320890F103EFF078333C
:102F8000E690F104F008E690F105F0E47813F6908D
:102F900009A4E0FF7813E6FEC39F5024EE6013906F
:102FA000F105E0B4FF0690F104E004F090F105E0D3
:102FB00004F074352EF8E690F153F078130680CFC4
:102FC0007832E6600302314408E6640160030231AE
:102FD000447812F67834E6120B0F300500301B01EE
:102FE000303102304A03306004307605308C0630D0
:102FF000A20730B80830DC0B30F70C31120D312D40
:103000000E000032087812E6FF12806C9009A4E0EE
:10301000FF781206E66F70030232087812E6FF129C
:1030200088F19009A4E0FF781206E66F700302327F
:1030300008128D0B7812E6FF125A4E9009A4E0FF99
:10304000781206E66F70030232087812E6FF1276F5
:103050001D9009A4E0FF781206E66F7003023208A3
:103060007812E6FF1281A99009A4E0FF781206E623
:103070006F70030232087812E6FF1281DA9009A419
:10308000E0FF781206E66F70030232087812E6FF5E
:1030900012820B9009A4E0FF781206E66F7003021B
:1030A00032087812E6FF12829E9009A4E0FF78129F
:1030B00006E66F70030232087812E62435F8E670EF
:1030C0000C90F1057408F090F1537401F09009A48C
:1030D000E0FF781206E66F70030232087831E6549A
:1030E000B0FFBF80031284379009A4E0FF78120676
:1030F000E66F70030232087831E654B0FFBF9003E8
:103100001284379009A4E0FF781206E66F7003027C
:1031100032087831E654B0FFBFA00312843790091B
:10312000A4E0FF781206E66F70030232087831E6F9
:1031300054B0FFBFB0031284379009A4E0FF7812A7
:1031400006E66F227832E6703608E6640270307860
:1031500012F67834E6146015046003023208900910
:10316000A4E0FF781206E66F70030232087812E6D8
:10317000FF128C079009A4E0FF781206E66F227810
:1031800032E6FF700908E6B4030408E6607AEF70DF
:10319000107833E6B4060A08E6700608E6FF0278FF
:1031A000F97832E6701008E6B4020B08E6B470064F
:1031B00008E67831F6227832E6FFB4060C08E6B469
:1031C000900708E67003028E21EF6406703A7833A8
:1031D000E66494703308E66494702D08E664017028
:1031E0002712889C90F1047493F090F105742FF0ED
:1031F00090F154E030E00554FEFF800790F154E078
:103200004401FF90F153EFF022A907ED24F6600C82
:1032100024F6600C24F6600C24187008E4FF800685
:103220007F0180027F02E9147003023367046003A8
:1032300002349AEF75F01CA424B3F582E4344EF501
:1032400083E474019390D16EF0EF75F01CA424B563
:10325000F582E4344EF583E474019390D16FF0EF7E
:1032600075F01CA424B7F582E4344EF583E47401B0
:103270009390D170F0EF75F01CA424B9F582E4347A
:103280004EF583E474019390D171F0EF75F01CA4B6
:1032900024BBF582E4344EF583E474019390D1723B
:1032A000F0EF75F01CA424BDF582E4344EF583E400
:1032B00074019390D173F0EF75F01CA424BFF582D4
:1032C000E4344EF583E474019390D174F0EF75F01B
:1032D0001CA424C1F582E4344EF583E47401939078
:1032E000D175F0EF75F01CA424C3F582E4344EF5DB
:1032F00083E474019390D176F0EF75F01CA424C59B
:10330000F582E4344EF583E474019390D177F0EFC5
:1033100075F01CA424C7F582E4344EF583E47401EF
:103320009390D178F0EF75F01CA424C9F582E434B1
:103330004EF583E474019390D179F0EF75F01CA4FD
:1033400024CBF582E4344EF583E474019390D1905C
:10335000F0EF75F01CA424CDF582E4344EF58374AF
:10336000019390D191F022EF75F01CA424B3F58263
:10337000E4344EF583E474019390D19EF0EF75F040
:103380001CA424B5F582E4344EF583E474019390D3
:10339000D19FF0EF75F01CA424B7F582E4344EF50C
:1033A00083E474019390D1A0F0EF75F01CA424B9CC
:1033B000F582E4344EF583E474019390D1A1F0EFEB
:1033C00075F01CA424BBF582E4344EF583E474014B
:1033D0009390D1A2F0EF75F01CA424BDF582E434E3
:1033E0004EF583E474019390D1A3F0EF75F01CA423
:1033F00024BFF582E4344EF583E474019390D1A4A4
:10340000F0EF75F01CA424C1F582E4344EF583E49A
:1034100074019390D1A5F0EF75F01CA424C3F5823C
:10342000E4344EF583E474019390D1A6F0EF75F087
:103430001CA424C5F582E4344EF583E47401939012
:10344000D1A7F0EF75F01CA424C7F582E4344EF543
:1034500083E474019390D1A8F0EF75F01CA424C903
:10346000F582E4344EF583E474019390D1A9F0EF32
:1034700075F01CA424CBF582E4344EF583E474018A
:103480009390D1C0F0EF75F01CA424CDF582E43404
:103490004EF58374019390D1C1F022EF75F008A42A
:1034A00024B4F582E4347BF583E49390D202F0EF08
:1034B00075F008A424B5F582E4347BF583E4939099
:1034C000D203F0EF75F008A424B6F582E4347BF55E
:1034D00083E49390D207F0EF75F008A424B7F58247
:1034E000E4347BF583E49390D208F0EF75F008A400
:1034F00024B8F582E4347BF583E49390D209F0EFAD
:1035000075F008A424B9F582E4347BF583E4939044
:10351000D20AF0EF75F008A424BAF582E4347BF502
:1035200083E49390D212F0EF75F008A424BBF582E7
:10353000E4347BF583E49390D213F0ED75F008A4A6
:1035400024B4F582E4347BF583E49390D217F0ED54
:1035500075F008A424B5F582E4347BF583E49390F8
:10356000D218F0ED75F008A424B6F582E4347BF5AA
:1035700083E49390D21CF0ED75F008A424B7F58293
:10358000E4347BF583E49390D21DF0ED75F008A44C
:1035900024B8F582E4347BF583E49390D21EF0EDF9
:1035A00075F008A424B9F582E4347BF583E49390A4
:1035B000D21FF0ED75F008A424BAF582E4347BF54F
:1035C00083E49390D227F0ED75F008A424BBF58234
:1035D000E4347BF583E49390D228F0EB75F008A4F3
:1035E00024B4F582E4347BF583E49390D22CF0EBA1
:1035F00075F008A424B5F582E4347BF583E4939058
:10360000D22DF0EB75F008A424B6F582E4347BF5F6
:1036100083E49390D231F0EB75F008A424B7F582DF
:10362000E4347BF583E49390D232F0EB75F008A498
:1036300024B8F582E4347BF583E49390D233F0EB45
:1036400075F008A424B9F582E4347BF583E4939003
:10365000D234F0EB75F008A424BAF582E4347BF59B
:1036600083E49390D23CF0EB75F008A424BBF58280
:10367000E4347BF583E49390D23DF09009A9E0FF18
:1036800075F008A424B4F582E4347BF583E49390C8
:10369000D241F0EF75F008A424B5F582E4347BF54F
:1036A00083E49390D242F09009A9E075F008A42435
:1036B000B6F582E4347BF583E49390D246F0EF755F
:1036C000F008A424B7F582E4347BF583E49390D228
:1036D00047F09009A9E075F008A424B8F582E43415
:1036E0007BF583E49390D248F0EF75F008A424B9F9
:1036F000F582E4347BF583E49390D249F09009A9F4
:10370000E075F008A424BAF582E4347BF583E493F1
:1037100090D251F0EF75F008A424BBF582E4347B1D
:10372000F583E49390D252F0229009CCEFF0900B05
:10373000AFE0D39401900BB3E0FE400CA3E0F58220
:103740008E83E04480F0800AA3E0F5828E83E0540B
:103750007FF0900BB0E0900BBDB4010EE0FEA3E053
:10376000F5828E83E04404F0800CE0FEA3E0F58255
:103770008E83E054FBF0900BB1E0900BBDB4010ED2
:10378000E0FEA3E0F5828E83E04408F0800CE0FECA
:10379000A3E0F5828E83E054F7F09009CCE0FF704F
:1037A00051900BADE014601E14602A14602924FDB2
:1037B000600302398C900BBBE0FCA3E0F5828C83A4
:1037C0007480F002398C900BB9E0FCA3E0F5828C98
:1037D000837404800F800E900BB9E0FCA3E0F582A7
:1037E0008C837444F0900BB2E04411FE900BBB024A
:1037F00038EEEF6406705B900BADE014601E146051
:103800002A1460292403600302398C900BB5E0FE72
:10381000A3E0F5828E8374C0F002398C900BB9E07E
:10382000FEA3E0F5828E837404800F800E900BB9A6
:10383000E0FEA3E0F5828E837444F0900BB2E04486
:1038400010FF900BBBE0FCA3E0F5828C83EFF0024D
:10385000398C9009CCE0FF64016005EF6407705972
:10386000900BADE024FE602914602B24FD600C2435
:10387000067031900BB2E044118006900BB2E04428
:1038800010FF900BB5E0FCA3E0F5828C83EFF08095
:1038900000900BB78003900BB9E0FEA3E0F5828E99
:1038A000837440F09009CCE06407600302398C9087
:1038B000E588E04480F002398C9009CCE0FF640296
:1038C0007053900BADE014603224FE603B24FD6029
:1038D000132406600302398C900BB2E04411FE9071
:1038E0000BB5800A900BB2E04410FE900BB5E0FCE3
:1038F000A3E0F5828C83EEF002398C900BB9E0FCEA
:10390000A3E0F5828C838071900BB9E0FCA3E0F515
:10391000828C838074EF64037072900BADE014604E
:103920004D14605A24FC602524067060900BB2E0B0
:103930004411FF900BB5E0FCA3E0F5828C83EFF01F
:10394000900BB7E0FEA3E0F5828E83803C900BB233
:10395000E04410FF900BB5E0FCA3E0F5828C83EF10
:10396000F0900BB7E0FEA3E0F5828E83801B900BF6
:10397000B7E0FEA3E0F5828E837404F0800E900B16
:10398000B7E0FEA3E0F5828E837444F0900BAEE0C6
:103990007BFF70067A87791F80047A87792E900BD7
:1039A000ADE09009D3F09009CCE09009D4F07F010C
:1039B000126D002290F3ECE030E65690F3A9E0643B
:1039C00007704E90F3AAE06405704690F3ABE06494
:1039D00013703E90F3BCE054F0D394305033E0FDCC
:1039E000C4540F900572F0ED540FA3F090F3BDE0B6
:1039F000FE5407900574F0EEC413131354013333CF
:103A00003354F8FF900797E054F74FF04410F080DC
:103A10003890F3EBE0FDC3135403900572F0ED13FF
:103A20001313541FFE5403A3F090F3EBE0C413549C
:103A300007900574F0EE540133333354F8FF9007C8
:103A400097E054F74FF054EFF0900797E0FF30E421
:103A500072900572E014601614601B146020240339
:103A60007024EF30E3209005727406F0801D9005FD
:103A7000727402F080159005727401F0800D90054B
:103A8000727403F08005E4900572F0900572E0FF17
:103A900064066003EF7010900573E024FA701A90CA
:103AA00005737404F08060900573E014600B24FBD0
:103AB000600914600624077008804690057374043A
:103AC000F0803E900572E014601614601B240270B2
:103AD0001F900797E030E3189005727406F0801588
:103AE0009005727401F0800D9005727402F08005EB
:103AF000E4900572F0900573E01460030470028096
:103B0000009005737402F0900572E0FF90079BE04F
:103B1000FE6F7042900573E0FF90079CE06F703677
:103B2000900574E0FF90079DE0FD6F70297BFF7AA0
:103B30002C79BF9009D3EEF0A3EDF07F02126D0057
:103B40007BFF7A2C79ED90079CE09009D3F07F02FF
:103B5000126D007F0022900572E090079BF09005A7
:103B600073E090079CF0900574E0FF90079DF07B58
:103B7000FF7A2C79BF90079BE09009D3F0A3EFF078
:103B80007F01126D007BFF7A2C79ED90079CE0900D
:103B900009D3F07F01126D00900797E030E4357B88
:103BA000FF7A2D790B7F01126D0090079BE0B40323
:103BB000047F018002E4FF128A997F01128A771242
:103BC0008A8890079BE0FF12892D90079DE0FF12E5
:103BD0008BE7800BE4FF128A99128A77128A887F1A
:103BE00001220A2D2D54785374617465203D2025DF
:103BF0006264000A4D49504920496E434C6B203D98
:103C000020256C756B687A000A4D49504954585B01
:103C1000485D3A25642C25642C25642C25642C25CC
:103C2000642C256264000A4D49504954585B565D26
:103C30003A25642C25642C25642C25642C25642CC1
:103C4000256264000A42797465436C6B203D20252F
:103C5000754D687A000A25626420706F7274000ADC
:103C6000256264206C616E65000A445048593B002F
:103C70000A4353493B000A7264646C795F6D617852
:103C800020697320256C753B000A7264646C795F4F
:103C90006D696E3120697320256C753B000A726472
:103CA000646C795F6D696E3220697320256C753B99
:103CB000000A204D49504920656E61626C65643B85
:103CC000000A204D4950492064697361626C656443
:103CD0003B004463732052656164203D207B0A00F1
:103CE000307825303262782C007D0A000A20545842
:103CF000504C4C20756E6C6F636B3B000A547870AF
:103D00006C6C206C6F636B3B00051100052900157E
:103D100036C62980400080E77B0000002366072923
:103D2000B6206B0006338A001A7A29B754000000C7
:103D300029B90039026F29C03A86BC0208700AF01E
:103D400029F11E29C67008D002216F085A00000010
:103D5000000000000029CD0029CF8B0080466100C3
:103D60008B29EC049700000029E6110000891080DF
:103D7000087008700008021C021C0200020E0020DD
:103D800000BB0007000C0DB70CB7180010F0030CB7
:103D90002000060B0B330E1C2A38465462697077DC
:103DA000797B7D7E01020100094009BE19FC19FAE8
:103DB00019F81A381A781AB62AF62B342B743B7471
:103DC0006BF40000000000003903013944000015C5
:103DD0003500153600153A7705290005110029D65A
:103DE0008029B00300000000000000000000000077
:103DF00000000000000000000000000000000000C3
:103E00000000EDC3940C4003023FECEF120B0F3E99
:103E1000BB003EC1013ECB023ED1033ED7043EDD96
:103E2000053EEF063EF5073EFB083F01093F070A46
:103E30003F0D0B3F130C3F250D3F2B0E3F310F3F26
:103E400037103F3D113F43123F49133F4F143F5539
:103E5000153F5B163F60173F66183F6B193F701A9E
:103E60003F751B3F7A1C3F7F1D3F841E3F891F3FCC
:103E70008E203F93213F98223F9D233FA2243FA7BE
:103E8000253FAC263FB1273FB6283FBB293FC02A7C
:103E90003FC52B3FCA2C3FCF2D3FD42E3FE32F3EB3
:103EA000C3303EC5313EE3323EE9333F19343F1F54
:103EB000353EFB363EFB3700003FEC90D413023F0B
:103EC000D78002800090D413023FE690D414023FC2
:103ED000D790D414023FE690D415023FD790D41562
:103EE000023FE690D415023FE690D415023FE690DB
:103EF000D416023FD790D416023FE690D417023F63
:103F0000D790D417023FE690D418023FD790D41828
:103F1000023FE690D419023FD790D419023FD790C0
:103F2000D419023FD790D419023FE690D41A023F29
:103F3000D790D41A023FE690D41B023FD790D41BEF
:103F4000023FE690D41C023FD790D41C023FE6907B
:103F5000D41D023FD790D41D023FE690D41E807737
:103F600090D41E023FE690D41F806C90D41F8076C0
:103F700090D420806290D420806C90D4218058907E
:103F8000D421806290D422804E90D422805890D444
:103F900023804490D423804E90D424803A90D4241B
:103FA000804490D425803090D425803A90D42680C7
:103FB0002690D426803090D427801C90D427802649
:103FC00090D428801290D428801C90D42980089006
:103FD000D429801290D429E0540FFFF0EDC454F09E
:103FE0004FF02290D429E054F0F04DF02290F3ED00
:103FF000E020E7037F002290F3DBE0FE90F3DCE0BB
:104000007C002400FFEC3E900577F0A3EFF090F3E6
:10401000E7E0FE90F3E8E02400FFEC3E900579F045
:10402000A3EFF090F3E1E0FE90F3E2E02400FFEC78
:104030003E900575F0A3EFF090F3DFE0547FFE9023
:10404000F3E0E02400FFEC3E90057BF0A3EFF0905E
:10405000F264E0FE90F265E02400FFEC3E90057D06
:10406000F0A3EFF090079BE0B4031C90057EE025E1
:10407000E0FF90057DE033FE900577E0B5061FA3D5
:10408000E0B5071A7F002290057DE0FEA3E0FF90D7
:104090000577E0B50608A3E0B507037F0022128D7F
:1040A000861273C9E4FF128ACC900577E0FCA3E086
:1040B000FDEC90F206F090F207EDF090F3DDE09069
:1040C000F20EF090F3DEE090F20FF090F20AE0FDD5
:1040D00090057BE0FAA3E0FBEAFFED4F90F20AF0D7
:1040E00090F20BEBF0900575E0FCA3E0FDEC90F294
:1040F00008F090F209EDF090F3E3E090F210F09008
:10410000F3E4E090F211F090F3E5E0547F90F212C6
:10411000F090F3E6E090F213F0900579E0FCA3E074
:10412000FDEC90F20CF090F20DEDF090F3E9E090E0
:10413000F214F090F3EAE090F215F0E4FF128ABB7B
:1041400090079BE0B4032A900577E0C313F0A3E047
:1041500013F0A3E0C313F0A3E013F0900575E0C3E0
:1041600013F0A3E013F090057BE0C313F0A3E0137A
:10417000F0E4FF128AAA900577E0FCA3E0FDEC9042
:10418000F264F090F265EDF0900579E0FCA3E0FDBB
:10419000EC90F26AF090F26BEDF0900575E0FCA304
:1041A000E0FDEC90F266F090F267EDF090F268E0DE
:1041B000FD90057BE0FAA3E0FBEAFFED4F90F2688B
:1041C000F090F269EBF07FF47E01128B767F012292
:1041D0009009A7120B06EF6401600302432A90E0E6
:1041E00084E0640170030243937401F09009A71204
:1041F0000AE690000B120A477810120A01EF540FDA
:10420000FF90E085EFF090000B120A477808120A41
:104210000190E086EFF090000B120A4790E087EFE4
:10422000F09009AA120AE6900004120819FDACF0F9
:10423000EC90E088F0AF0590E089EFF090000E126E
:104240000819FDACF0EC90E08AF0AF0590E08BEF40
:10425000F0900006120819FDACF0EC90E08CF0AF85
:104260000590E08DEFF0900010120819FDACF0EC15
:1042700090E08EF0AF0590E08FEFF09009A7120A62
:10428000E690000F120A47E47B08FAF9F812094396
:104290007810120A01EF540FFF90E092EFF09009AE
:1042A000A7120AE690000F120A47E47B08FAF9F811
:1042B0001209437808120A0190E093EFF09009A7E1
:1042C000120AE690000F120A47E47B08FAF9F81286
:1042D000094390E094EFF09009A7120AE6900009D4
:1042E0001206DDFF9000081206DD8FF0A490E0A01A
:1042F000F09000061206DD24FC600A1460171460BA
:104300000C2403801890E0A17401F0801590E0A1C6
:104310007402F0800D90E0A17403F08005E490E059
:10432000A1F07BFF7A70798C806490E084E0606318
:1043300090F9BFE054FEF0E490E084F090E085F066
:1043400090E086F090E087F090E088F090E089F0CF
:1043500090E08AF090E08BF090E08CF090E08DF0AF
:1043600090E08EF090E08FF090E090F090E091F08F
:1043700090E092F090E093F090E094F090E0A0F064
:1043800090E0A1F090E0A2F07BFF7A7079A57F0128
:10439000126D0022E4F9EF24FA70030244C814708D
:1043A0000302443524036003024551E4FAE9600343
:1043B00002455190D3307469F090E3827404F09018
:1043C000E3887420F090D4907444F090D49C74B03E
:1043D000F090D49274E8F090D49D7408F0E4FB90CF
:1043E000E380E054DFF07F017E0012861AE0442073
:1043F000F00B7F017E0012861AEBC3940A500790DF
:10440000E38CE030E0D990D4907404F07F017E001A
:1044100012861A90E38CE030E70F90D409740CF008
:1044200090D330E04480F079010AEA64036003022B
:1044300043AD024551E4FAE9600302455190D3309F
:104440007469F090E3C27404F090E3C87420F090B3
:10445000D3707444F090D37C74B0F090D37274E84D
:10446000F090D3747410F090D375F090D37D7408ED
:10447000F0E4FB90E3C0E054DFF07F017E001286A1
:104480001AE04420F00B7F017E0012861AEBC394E1
:104490000A500790E3CCE030E0D990D3707404F078
:1044A0007F017E0012861A90E3CCE030E70E90D4B4
:1044B000097404F090D3307480F079010AEA64033F
:1044C0006003024437024551E4FAE96003024551B2
:1044D00090D3307469F090E3A27404F090E3A87470
:1044E00020F090D3607444F090D36C74B0F090D30B
:1044F0006274E8F090D3647410F090D365F090D3B8
:104500006D7408F0E4FB90E3A0E054DFF04420F089
:104510000B7F017E0012861AEBC3940A500790E3CA
:10452000ACE030E0E190D3607404F07F017E0012D3
:10453000861A90E3ACE030E70F90D4097408F0904D
:10454000D330E04480F079010AEA64036003024456
:10455000CAAF0122A90790E602E0FF54F0C4540F4D
:10456000FEEF540FFFE490F103F090F10404F0909B
:10457000F105F090F154E0540FFD6404700302461D
:1045800097ED64017055EE24FC603F14602B1460BD
:10459000171460030246A290D197E05488F090D39C
:1045A00021E04407F00246A290D197E05444F090F5
:1045B000D321E0440BF00246A290D197E05422F0C0
:1045C00090D321E0440DF00246A290D197E054111F
:1045D000F090D321E0440EF00246A2ED64026003A5
:1045E0000246A2EE24FC607314604114601C146047
:1045F000030246A2EFB406028014EFB40502803035
:10460000EF640460030246A28055EFB4071190D115
:1046100097E054CCF090D321E04403F00246A2EF9F
:10462000B40502801FEF640470788047EFB4071070
:1046300090D197E054AAF090D321E04405F0806235
:10464000EFB4061090D197E05466F090D321E04487
:1046500009F0804EEF64047049802CEFB40710908D
:10466000D197E05499F090D321E04406F08033EFE5
:10467000B4061090D197E05455F090D321E0440A4D
:10468000F0801FEFB4051B90D197E05433F090D326
:1046900021E0440CF0800B90D19774FFF0E490D3AC
:1046A00021F0E9B4060790F9BB74DFF022900BCA41
:1046B000E07007900BC4E030E21890F9BB74E0F0B2
:1046C000E490F9BCF090F9BD7407F090F9BE74FF66
:1046D000F02290F9BB7460F0E490F9BCF090F9BD61
:1046E000F090F9BE04F022EDD39403400302485A3F
:1046F000EF120B0F476A02477003477606477C07A5
:10470000478E0947940A47990B48290D479F0E4742
:10471000A40F47AA1047AF1147B51247BA1347BFB6
:104720001447D81547C41647C91747D31847CE1999
:1047300047DD1A47E71B47F11C47FB1D47E21E47B1
:10474000EC1F47F620480021480522480A23480F5D
:1047500024481925481E2648292748392E484A2F1B
:104760004782364788370000485A90E60E02483C98
:1047700090E60E02482190E60E02482C90E60E02CA
:10478000481290E60F02483C90E60F02482190E65E
:104790000F02482C90E60F807990E61002483C907A
:1047A000E610807D90E61002482C90E61080639021
:1047B000E61102483C90E611806790E612807D90F9
:1047C000E612805D90E613807390E613805390E6C6
:1047D00013805990E613803A90E614805F90E614B7
:1047E000803F90E615805590E615803590E616805E
:1047F0004B90E616802B90E617804190E6178021BB
:1048000090E618803790E618801790E618801D9083
:10481000E618E054FCF04DF02290E619801E90E678
:1048200019E054CFFFF0ED802C90E619E054F3FF2F
:10483000F0ED25E025E04FF02290E61AE0543FFF2E
:10484000F0EDC4333354C04FF02290E61AE054CF59
:10485000FFF0AE05EEC454F04FF022E4FBE4FA0A98
:10486000EAC39403400302491C900792E02B902F67
:104870004B9390F1BBF0900793E02B902F4B9390CC
:10488000F1BCF0900794E02B902F4B9390F1BDF08A
:10489000900795E02B902F4B9390F1BEF07F017E17
:1048A0000012861A7F04127B48E49009A6F0900952
:1048B000A6E004F0C3943250A67F017E0012861A4F
:1048C000E4FF127C1BEB25E024A7F582E43409F514
:1048D00083EEF0A3EFF07F01127C1BEB25E024B107
:1048E000F582E43409F583EEF0A3EFF07F02127C49
:1048F0001BEB25E024BBF582E43409F583EEF0A33D
:10490000EFF07F03127C1BEB25E024C5F582E43435
:1049100009F583EEF0A3EFF07A0380920BEB6405C8
:10492000600302485D7B017A0979A7900792E0FD58
:10493000125CD3900792EFF07B017A0979B1A3E082
:10494000FD125CD3900793EFF07B017A0979BBA34A
:10495000E0FD125CD3900794EFF07B017A0979C5F2
:10496000A3E0FD125CD3900795EFF07F01128BD787
:10497000900792E0902F4D9390F1BBF0900793E059
:10498000902F4D9390F1BCF0900794E0902F4D93B1
:1049900090F1BDF0900795E0902F4D9390F1BEF00F
:1049A0007BFF7A2D791090F1BBE09009D3F090F164
:1049B000BCE09009D4F090F1BDE09009D5F090F101
:1049C000BEE09009D6F07F01026D0090058474FF6F
:1049D000F09007A0E0D394044027A3E020E12290C8
:1049E0000590E0FFE4FD12823C7F04127CA4900558
:1049F00084E0FFC39404500280027F04900584EF9A
:104A0000F09007A0E0D39406401E128C16EF7018A9
:104A10007F06127CA4900584E0FFC39406500280B8
:104A2000027F06900584EFF09007A0E0C394064053
:104A30004D1282CE900797E030E5257BFF7A2D79E5
:104A4000A07F01126D001289FF7FC87E00128B7655
:104A5000128592900797E054DFF07822E64480F6C2
:104A6000120016EF60187BFF7A2D79A990079FE05E
:104A70009009D3F07F01126D007F06128805900720
:104A8000A0E0D3940B40541239B4EF640170237B3F
:104A9000FF7A2D79B47F01126D007F0B127CA490F8
:104AA0000584E0FFC3940B500280027F0B900584C5
:104AB000EFF01280D8EF70237BFF7A2D79C97F0148
:104AC000126D007F08127CA4900584E0FFC3940857
:104AD000500280027F08900584EFF09007A0E0D399
:104AE000940A402B123FEDEF640170237BFF7A2D77
:104AF00079D87F01126D007F0A127CA4900584E0B2
:104B0000FFC3940A500280027F0A900584EFF09060
:104B100007A0E0D3940C4003124F07900584E0FFF8
:104B2000F46003127CA422E47BE87A03F9F8900B8A
:104B3000A8120A911209439009A6EEF0A3EFF09093
:104B40000B9BE070189009A6E0FEA3E07803CEC3AB
:104B500013CE13D8F9F0EE9009A6F080179009A6AD
:104B6000E0FEA3E0FF7C007D071207839009A6EE1C
:104B7000F0A3EFF07BFF7A3C79449009A6E0FFA315
:104B8000E09009D3CFF0A3EFF07F01126D00900900
:104B9000A6E0FAA3E0FB7C007D06FFAE02120771DF
:104BA0007D64120783EF0490F9A4F0EBAE02780263
:104BB000C333CE33CED8F9FF7C007D64120783EF78
:104BC0000490F9A5F09009A6E0FEA3E0FF7C007D2B
:104BD000071207717D64120783AB07EB240490F979
:104BE000A6F09009A6E0FEA3E0FF7C007D06120778
:104BF000717D1912078390F9A7EFF0EB240790F964
:104C0000A9F0900B9BE07067900B99E0FB30E039C6
:104C1000900B10E0B4101AA3E0B40015D39009A7CC
:104C2000E0942C9009A6E09401400690F9A7740A3C
:104C3000F090F9A5E0FF90F9A4E02FFF90F9A7E02C
:104C40002F240290F98AF080149009A6E0FEA3E0D8
:104C5000FF7C007D0A12078390F98AEFF0EB30E1C8
:104C60001E90F9A5E0FF90F9A4E02F240A800C9093
:104C7000F9A9741EF090F9A4E0243290F98AF02288
:104C8000128D3990F432E0541F7811F690F42BE035
:104C9000780DF6E6FF54F07810F6EF540F7832F600
:104CA000E008F6E008F67811E6C39404400CE078DA
:104CB0000EF606E6D39410400522E4780EF678113D
:104CC000E6D39404401DE4780FF6780FE6FFC3188E
:104CD00096501090F42BE0FE74352FF8A606780F4E
:104CE0000680E77810E6120B0F4DC9004D98104D65
:104CF000CB204D23404D75504D02804D1590000046
:104D00004DCD780EE6FF122F617832E6B40F030224
:104D10004D93024DCD780EE6FF120BCE780EE6FFD6
:104D20000287797834E6FF6450702A780EE66401D1
:104D300070417811E66405703A7835E6FD7855766D
:104D40000008A6057822E630E5297855E64401F604
:104D500008E6F68018EFB4301A780EE6B4010E7843
:104D600035E6B401087822E64420F680067822E68B
:104D700054DFF680587834E6FBB4500D7811E6B471
:104D80000407780EE6FF02810EEBB452097811E6B3
:104D9000B40403028CA880357834E6FBB4500F7855
:104DA00011E6B40409780EE6FF12838A800DEBB495
:104DB00050107811E6B4030A128DA7E47855F6086E
:104DC000F622780EE6FF02886C80028000128DA722
:104DD000220A2044485258305F525445524D5F4396
:104DE000414C495F4641494C21000A2044485258F1
:104DF000315F525445524D5F43414C495F464149F2
:104E00004C21000A5278706C6C2043616E2774202C
:104E10006C6F636B000A204D4B76616C7565203DAD
:104E2000203078256C78000A506372706C6C206CAE
:104E30006F636B000A506372204D203C2030783540
:104E4000300075734D766964302C75734D766964E6
:104E5000312C75734D766964322C75734D766964A7
:104E600033203D3D20307825782C307825782C3043
:104E70007825782C30782578000A417564202562E1
:104E80006463683B000A2F2F2F2F44505258205044
:104E90005053207461626C653A000A30782562785C
:104EA0002C30782562782C30782562782C30782563
:104EB0006278000066006600AA0066006600AA002C
:104EC00066006600AA0066006600AA002C00FF00CB
:104ED00088008800AA0088008800AA00880088004E
:104EE000AA0088008800AA007700AA00770077004F
:104EF000FF00AA00AA005500AA00AA00FF00AA000D
:104F0000AA0055008800AA1287B2EF6401702790AA
:104F1000058CE07BFF60117A2D793AE4FF126D0079
:104F200090058E7401F0800E7A2D7947E4FF126DA2
:104F300000E490058EF090058EE024FE602214704F
:104F40000302500E24026003025031E4900583F006
:104F50007B017A05797F128DE090058E7402F02234
:104F60007B017A05797F7D147C001270D2BF010F1E
:104F7000900583E004F07B017A05797F128DE09043
:104F80000583E06414702790058CE060217BFF7A34
:104F90002D7957E4FF126D007BFF7A2D7963900520
:104FA0008CE09009D3F0E4FF126D00128C7F900525
:104FB00083E0B41E24128941EF601E7BFF7A2D79B5
:104FC00071E4FF126D0090058E7403F01274FD9071
:104FD000058DEFF07F05128805900583E0B4280E5B
:104FE0007BFF7A2D7980E4FF126D00128C7F900593
:104FF00083E06432703B128941EF600B7BFF7A2DB6
:105000007971E4FF126D0090058E7403F022900513
:105010008CE0601D128941EF701790058E7402F0CC
:10502000900583741EF07BFF7A2D7990E4FF126D5A
:105030000022E490D401F090D403F090D406F090D4
:10504000D407F090D408F090E607F090FB14F090AD
:10505000E608F07F32FE12861A7B017A0B797B120A
:1050600069447BFF7A70794E900B7FE0FFA3E0905C
:1050700009D3CFF0A3EFF0900B81E0FFA3E09009FC
:10508000D5CFF0A3EFF0900B85E0FFA3E09009D718
:10509000CFF0A3EFF0900B83E0FFA3E09009D9CF0E
:1050A000F0A3EFF0900B87E0FFA3E09009DBCFF0D7
:1050B000A3EFF0900B93E09009DDF0E4FF126D0098
:1050C0007BFF7A70796D900B89E0FFA3E09009D3A4
:1050D000CFF0A3EFF0900B8BE0FFA3E09009D5CFCA
:1050E000F0A3EFF0900B8FE0FFA3E09009D7CFF093
:1050F000A3EFF0900B8DE0FFA3E09009D9CFF0A3D0
:10510000EFF0900B91E0FFA3E09009DBCFF0A3EF6D
:10511000F0900B94E09009DDF0E4FF126D00900B2D
:1051200093E07D0170047F018002E4FF1285D69038
:105130000B94E07D0170047F018002E4FF1285F88A
:10514000900B9EE0B4030F90079BE0640360079010
:10515000D403E04401F02290F3ECE020E603025295
:105160000290F3A9E06407600302520290F3AAE000
:105170006405600302520290F3ABE0641360030223
:10518000520290F3BCE054F0D394305075E0FDC46B
:10519000540FFBED540FFE90F3BDE0FD5407900952
:1051A000A6F0EDC41313135401A3F0EB146019140B
:1051B000601A14601B2403701B9009A7E0B401045B
:1051C0007B068012E4FB800E7B02800A7B01800656
:1051D0007B038002E4FBEB64066003EB700DEE24BE
:1051E000FA70047E04806E7E02806AEE14600B24E6
:1051F000FB600B146008240770047E0280577E0257
:10520000805390F3EBE0FEC3135403FBEE13131330
:10521000541FFD5403FEE0C41354079009A6F0ED9B
:105220005401A3F0EB146016146017240270179059
:1052300009A7E0B401047B06800EE4FB800A7B0131
:1052400080067B028002E4FBEE1460030470047E9F
:105250000280027E02EF14600B14600C2402700DB9
:10526000A9038009A90680059009A6E0F9AF0122EB
:10527000127674900B08E06003025385128E3CEFA7
:105280006401600302531A128E48128E42EF24FE0C
:10529000602114604114605014606E2404707B7BA4
:1052A000FF7A7F79427F01126D00900797E04440BA
:1052B000F080677BFF7A7F794B7F01126D007F0260
:1052C000127CA4900590E0FFE4FD12823C900797C9
:1052D000E054BFF08012127A25E4FF1266A10F128B
:1052E00066A10F127BD680327F01127BD67B017ABA
:1052F0000B790A9009AA120B067A0B7999E4FF122E
:1053000041D0E4FF127EA8800B7B017A05798B7F68
:1053100001127E6B900B087401F0128E4EEF640147
:105320007063128E5A128E54EF24FD60051460359E
:1053300080537F061245541277C2900B9EE0FEE424
:10534000FF12002E90079BE0B40309EE6403600493
:105350000F12002E900B28E0702BAF06AD07FF1246
:10536000653A0250327B017A0B790A9009AA120B36
:10537000067A0B79997F011241D07F01127EA890A5
:105380000B087401F022900B9AE024FE601F146059
:105390005514700302542A14700302546C147003E1
:1053A00002548224056003025496028CE7900B9904
:1053B000E030E3107B017A0B7995128DE0900B9928
:1053C000E054F7F07B017A0B79957D147C00127024
:1053D000D2EF64016003025496127771900B9FE044
:1053E000FF127D6B8073900B99E0FF30E30C54F754
:1053F000F07B017A0B7995128DE07B017A0B799520
:105400007D147C001270D2EF640160030254961286
:1054100087EAEF6401707F127CE71283E2128E6DDF
:10542000125497128C437F048069900B99E030E30B
:10543000107B017A0B7995128DE0900B99E054F76F
:10544000F07B017A0B79957D147C001270D2EF64A9
:1054500001704312869FEF70047F0380367BFF7AD2
:105460003C79FC7F01126D007F058027125BFE12E4
:105470004B27126249128C34127FC7121F3D7F06E0
:105480008011900B99E030E40D128DFB7F011280AA
:10549000A27F07127BD622900B9BE0900BA0702B73
:1054A000E0FFE4FCFDFE900BA4120A9D1208B8C0B8
:1054B00006C007900BA1E0FFA3E08FF0A4AEF0FBC5
:1054C000AA06E4F9F8D007D0068044E0FFE4FCFD2A
:1054D000FE900BA4120A9D1208B8E47B07FAF9F8B3
:1054E0001208B8C004C005C006C007900BA2E07542
:1054F000F010A4FFAEF0900BA1E0FD7C001207714C
:10550000AB07AA06E4F9F8D007D006D005D00412FC
:105510000943900BA8120AA9900BA3E0600F900B0F
:10552000A8120A91EF24C0FFEE34D4802B900B1008
:10553000E0FEA3E0FFC3900B0FE09FFF900B0EE097
:105540009EFED3EF94A0EE9400401B900BA8120A8D
:1055500091EF2480FFEE3438FEED3401FDE43CFC95
:10556000900BA8120AA97F807E1A7D067C00900B02
:10557000A8120A9DC31209F0500A900BA8120AB58E
:1055800000061A807FA07E257D267C00900BA81245
:105590000A9DD31209F0400A900BA8120AB5002602
:1055A00025A0229009A6120AA9E49009AAF0A3F066
:1055B00090D390E04410F0E490D391F090D39274A3
:1055C000A8F0E490D394F090D395F090D396F09017
:1055D000D39C7480F0E49009ABF07F807E4F7D1205
:1055E0007C009009A6120A9DC31209F0502190096F
:1055F000AAE004F09009A6120A917801120A149008
:1056000009A6120AA99009ABE004F0E0B404CB7F2C
:10561000807E847D1E7C009009A6120A9DD312090B
:10562000F040189009A6120A917801120A01900917
:10563000A6120AA990D392E04401F090D396E0FF1D
:105640009009AAE0FEEF4E90D396F0E49009AAF0FC
:105650007BA87A61F9F89009A6120A911209439081
:1056600009AAEFF0E47BA87A61F9F89009A6120A7A
:1056700091120943AC00AD01AE02AF03E4FBFAF9AD
:10568000F8C31209F060069009AAE004F090D39CD8
:10569000E0FF9009AAE0FEEF4E90D39CF090D390EB
:1056A000E054EFF022AC07AA03A905E4FB7DBF7F1D
:1056B000D77EE6128673E9600302573DEC700EFB5D
:1056C0007DFC7F927ED1128673E4FF800F7B037D89
:1056D000FC7F927ED11286737B017F007EE612866C
:1056E00073EA6403700DFB7D8FFF7ED412866F7B9F
:1056F00060807A7B407D8F7F007ED412866F7B3006
:105700000F1286737B400F128673E4FB0F12866FB5
:105710007B400F12866FE4FB7D7F7F0D1286737BCB
:10572000507D8F128673E4FB7DF71286737B030D29
:10573000128673E4FB7DBF7FD77EE68054EC700E4B
:10574000FB7DFC7F927ED11286737B02800C7B03F3
:105750007DFC7F927ED11286731B7F007EE61286CF
:1057600073E4FB7D8FFF7ED412866F7B200F128641
:1057700073E4FB0F12866F0F12866F0F1286737D14
:105780007F7F0D1286737D8F1286737DF71286736D
:105790000D128673229009A6120B06E4FFFE9009F3
:1057A000A6120AE68E827583001206DD2FFF0EEE2A
:1057B000B47FEBC3E49FFF9009A6120AE690007F36
:1057C000EF12074F90007E1206DDC39401402FE4D4
:1057D000FFFEEE2480FDE433FC9009A6120AE68D5C
:1057E000828C831206DD2FFF0EEEB47FE5C3E49FAB
:1057F000FF9009A6120AE69000FFEF12074F9009EA
:10580000A6120AE690007E1206DDC394024030E440
:10581000FFFEEE2400FDE43401FC9009A6120AE626
:105820008D828C831206DD2FFF0EEEB47FE4C3E47D
:105830009FFF9009A6120AE690017FEF12074F9092
:1058400009A6120AE690007E1206DD6403702FFF9F
:10585000FEEE2480FDE43401FC9009A6120AE68DD8
:10586000828C831206DD2FFF0EEEB47FE4C3E49F2B
:10587000FF9009A6120AE69001FFEF12074F22904F
:10588000E600E04410F0EF14607204600302596710
:1058900090D1777488F090D174F090D171F090D15C
:1058A0006EF090D178F090D175F090D172F090D1E7
:1058B0006FF090D17974AAF090D176F090D173F016
:1058C00090D170F090D189F090D186F090D18AF08B
:1058D00090D187F090D18B7455F090D188F090D111
:1058E000907477F090D19174AAF0E490D1F0F09098
:1058F000D1F1F090D1F2F090D1F3F02290D1A774D1
:1059000088F090D1A4F090D1A1F090D19EF090D1E8
:10591000A8F090D1A5F090D1A2F090D19FF090D1B5
:10592000A974AAF090D1A6F090D1A3F090D1A0F0E4
:1059300090D1B9F090D1B6F090D1BAF090D1B7F043
:1059400090D1BB7455F090D1B8F090D1C07477F07D
:1059500090D1C174AAF0E490D1FBF090D1FCF0900A
:10596000D1FDF090D1FEF0229009CCEFF0A3EDF044
:10597000A3EBF0A3120AE6900010120819FF900999
:10598000D2E5F0F0A3EFF0900006120819FF90099D
:10599000D4E5F0F0A3EFF0900004120819FDACF08C
:1059A0009009D4E0FEA3E0FFC3ED9FFFEC9EAB07A0
:1059B000FA9009CDE0F96403601EA3E0B40319EC8A
:1059C000C313FCED13FD9009D4E0C313F0A3E0135F
:1059D000F0EAC313FAEB13FBE9B403239009CEE01A
:1059E0006403601BED25E0FDEC33FC9009D5E02558
:1059F000E0F09009D4E033F0EB25E0FBEA33FA90D5
:105A000009CCE09009D27023E090E58AF09009D2A9
:105A1000A3E090E58BF0EA90E58CF090E58DEBF05B
:105A2000EC90E58EF090E58FEDF022E090E59AF0B5
:105A30009009D2A3E090E59BF0EA90E59CF090E518
:105A40009DEBF0EC90E59EF090E59FEDF022743533
:105A50002FF8E6540FFF7829E654F04FFFF608E6DA
:105A6000540FFEEF540F6E7003025B267829E65444
:105A70000FFA64016003025AFF7822E6547FF6E4CD
:105A80007857F608F67822E654FEF654FDF654FBF5
:105A9000F67829E6540FF67823E654FEF6E4782FDC
:105AA000F608F67824E654C0F608E654C0F608E690
:105AB00054C0F608E654C0F6E4FF128BD790079E58
:105AC000E0C39401400B1287CE7822E64440F68072
:105AD000067822E654BFF690058FE0FF7822E6FEB6
