:100000000298EA029B83C2CFC2CA3202A29B7591B8
:1000100000322202B8AD12B2B89007AAE0B50703C9
:100020007F00229007AAEFF07F0122020006EFB4C2
:100030000106E490D344800590D3447401F090D33A
:1000400046F02202000E02019AEC5D046005E859B8
:1000500004700302019012015B580460F6EC4860E2
:10006000F2EC7004FDFEFF22C860DB2481C8500959
:10007000C398600250060201979850CAF582E92998
:100080004B4A7005AB8202018675F0007C1A7880BD
:10009000C3EF9BEE9AED99400DC3EF9BFFEE9AFEE6
:1000A000ED99FDE842F0DC23ACF0D0E0FFD0E0FEBB
:1000B000D0E0FDAB8220E7101BEB60BAEC2CFCEF2C
:1000C00033FFEE33FEED33FD020172E803F830E753
:1000D00005C0F075F000EF2FFFEE33FEED33FD406D
:1000E000B830E7C280AA75F020800E75F010800548
:1000F00075F0087D007E007F003392D530D5031265
:1001000009E2EC334010EF33FFEE33FEED33FDEC4C
:1001100033FCD5F0ED22E5F0247EA2D513CC92E796
:10012000CDCEFF22EDD2E7CD33EC3392D524814002
:1001300006E4FFFEFDFC22FCE4CFCECDCC24E05053
:100140001174FF80EDC3CC13CCCD13CDCE13CECF25
:1001500013CF0470F030D5DE0209E2E9D2E7C933EB
:10016000E833F892D5EDD2E7CD33EC33FC5002B250
:10017000D522EC30E7100FBF000C0EBE00080DBDFD
:1001800000040BEB6014A2D5EB13FCED92E7FD220B
:1001900074FFFCFDFEFF22E480F8A2D574FF13FC7F
:1001A0007D80E480EF020190E86480F8E933E83371
:1001B00060110460F0ED33EC337009E8FCE9FDEA0E
:1001C000FEEBFF220460DED3EB9FEA9EE99DE8C2CE
:1001D000E78CF0C2F795F0400CE8CCF8E9CDF9EAED
:1001E000CEFAEBCFFB12015B85D0F05804700320F0
:1001F000D5B3E80470075002B2D502019A92D5EC4B
:100200000460F7E4CCC0E0C398F8603B9418600841
:10021000400DD0E0FB020172E4FBFAC9FC8028E843
:1002200030E406E4C9FBE4CAFCE830E305E4C9CAEB
:10023000CBFCE854076010F8C3E913F9EA13FAEBB2
:1002400013FBEC13FCD8F130F52FC3E49CFCEF9BBF
:10025000FFEE9AFEED99FDD0E0FBEF4E4D4C701293
:1002600022DB03020197EC2CFCEF33FFEE33FEEDB3
:1002700033FDED30E7EB020172EF2BFFEE3AFEEDBE
:1002800039FDD0E0FB50130BBB000302019AED13C4
:10029000FDEE13FEEF13FFEC13FC02017274F8CCB9
:1002A0006480CCC86480C8F58204604FC3EB9FF5BE
:1002B000F0EA9E42F0E99D42F0E89C45F0603C5037
:1002C0001DE5825FFFE582D313CB5BCBF42B558218
:1002D000FB50280ABA002409B9002008801DE582D5
:1002E0005BFBE582D313CF5FCFF4C3132F5582FF9F
:1002F00050090EBE00050DBD00010CC3EB9FF5F0CB
:10030000EA9E42F0E99D42F0E89C45F06007CC4847
:1003100020E701B3EC22F920E73624F950037907EE
:10032000E4F42402FBE582158270021583DBF6E01B
:1003300024FB501BE96014E4F0E58215827002157D
:1003400083E004F0B40A08E4F0D9EE7401F00A2264
:10035000C2D522ED33EC3392D5FA602AB4FF33EDE7
:10036000C2E77BFF60067A037978E4227A03798119
:1003700020D5047A03797C224E614E002B494E46EB
:10038000002D494E4600E47A08F0A3DAFC7B0074A5
:100390000722C083C082ECC0E0EDC0E0EEC0E0EF19
:1003A000C0E0EA75F010A4CAABF075F04DA42BFBC9
:1003B000E435F0FCEA2410FAEB34C5FBEC34D9FC4C
:1003C000EDC2E7FF75F056A4F42411C5F0F434C56E
:1003D0008FF0A42AE5F03BE43CF020E71412058EF0
:1003E000D0E0FFD0E0FED0E0FDD0E0FC120049807C
:1003F00014F40412058ED0E0FFD0E0FED0E0FDD072
:10040000E0FC120458D082D083E0FAEDD2E7CD337D
:10041000EC332482FBE4C3CF33CFCE33CECD33CD08
:1004200033DBF37B0775F00A846004F0A31B0AE555
:10043000F0F0A38FF0740AA4FFACF08EF0740AA45D
:100440002CFEACF050010C8DF0740AA42CFDE435A8
:10045000F0F0A3DBDE740722EC4D6011E849701761
:10046000ED33EC3304600DE4FCFFFEFD22E933E8DC
:10047000330470F802019012015B58046009E4CC67
:100480002481500628500902019A2840030201974E
:10049000C0E0EB4A7044B98006D0E0FB020186EF71
:1004A0004E701CBD8008EBFFEAFEE9FD80EBE98D94
:1004B000F0A4FEE5F0020541E9CDF9EAFEEBFFEF1D
:1004C00089F0A4FCE5F0CE89F0A42EFFE435F0CD50
:1004D00089F0A42DFEE435F08067EF4E7005BD80F5
:1004E000D780C3EF8BF0A4ACF0EE8BF0A42CFCE42F
:1004F00035F0F8EF8AF0A42CE5F038FCE433CB8D2E
:10050000F0A42CFCE5F03BF8EE8AF0A42CFCE5F01E
:1005100038F8E433CF89F0A42CFCE5F038CF340070
:10052000CE89F0A42FFFE5F03EFEE433C98DF0A4A0
:100530002EFEE5F039CD8AF0A42FFFE5F03EFEE473
:100540003DFD33D0E0FB50070BBB000F02019AECDE
:100550002CFCEF33FFEE33FEED33FD0201723F80E2
:1005600000004120000042C80000447A0000461C00
:10057000400047C35000497424004B1896804CBE7D
:10058000BC205A0E1BCA6753C21C749DC5AEFB60CB
:10059000065407601C23231205BCEB543860091273
:1005A00005A81205B7120458ECF8EDF9EEFAEFCBF6
:1005B00022EB1205B780F1543803241C90055EFE2F
:1005C00093FC0EEE93FD0EEE930ECE93FF22E70901
:1005D000F608DFFA8046E709F208DFFA803E8882F3
:1005E0008C83E709F0A3DFFA8032E309F608DFFA2B
:1005F0008078E309F208DFFA807088828C83E3094F
:10060000F0A3DFFA806489828A83E0A3F608DFFA28
:10061000805889828A83E0A3F208DFFA804C80D276
:1006200080FA80C680D4806980F28033801080A6F2
:1006300080EA809A80A880DA80E280CA803389824A
:100640008A83ECFAE493A3C8C582C8CCC583CCF0F6
:10065000A3C8C582C8CCC583CCDFE9DEE7800D899D
:10066000828A83E493A3F608DFF9ECFAA9F0EDFBA4
:100670002289828A83ECFAE0A3C8C582C8CCC583EC
:10068000CCF0A3C8C582C8CCC583CCDFEADEE88045
:10069000DB89828A83E493A3F208DFF980CC88F0B7
:1006A000EF60010E4E60C388F0ED2402B4040050E8
:1006B000B9F582EB2402B4040050AF232345822312
:1006C00090061E73BB010689828A83E0225002E7EE
:1006D00022BBFE02E32289828A83E49322BB010CBF
:1006E000E58229F582E5833AF583E0225006E92583
:1006F00082F8E622BBFE06E92582F8E222E582299D
:10070000F582E5833AF583E49322BB010FF8E58295
:1007100029F582E5833AF583E028F0225009C58265
:1007200029F8E58226F622BBFE09C58229F8E225D2
:1007300082F222F8EA2583F583E9932822BB010699
:1007400089828A83F0225002F722BBFE01F322F84D
:10075000BB010DE58229F582E5833AF583E8F022B5
:100760005006E92582C8F622BBFE05E92582C8F2BB
:1007700022EF8DF0A4A8F0CF8CF0A428CE8DF0A4A9
:100780002EFE22BC000BBE0029EF8DF084FFADF0E1
:1007900022E4CCF875F008EF2FFFEE33FEEC33FCCB
:1007A000EE9DEC984005FCEE9DFE0FD5F0E9E4CE01
:1007B000FD22EDF8F5F0EE8420D21CFEADF075F0D0
:1007C00008EF2FFFED33FD4007985006D5F0F222D9
:1007D000C398FD0FD5F0EA22C5F0F8A3E028F0C5D4
:1007E000F0F8E582158270021583E038F022BB0133
:1007F0000A89828A83E0F5F0A3E022500687F00997
:10080000E71922BBFE07E3F5F009E3192289828A82
:1008100083E493F5F074019322BB0110E58229F57E
:1008200082E5833AF583E0F5F0A3E0225009E9255B
:1008300082F886F008E622BBFE0AE92582F8E2F596
:10084000F008E222E5832AF583E993F5F0A3E99322
:1008500022BB010A89828A83F0E5F0A3F0225006C8
:10086000F709A7F01922BBFE06F3E5F009F31922F8
:10087000F8BB0111E58229F582E5833AF583E8F0BA
:10088000E5F0A3F0225009E92582C8F608A6F02277
:10089000BBFE09E92582C8F2E5F008F222EF2BFF42
:1008A000EE3AFEED39FDEC38FC22C3EF9BFFEE9AE9
:1008B000FEED99FDEC98FC22E88FF0A4CC8BF0A41F
:1008C0002CFCE98EF0A42CFC8AF0EDA42CFCEA8E22
:1008D000F0A4CDA8F08BF0A42DCC3825F0FDE98F45
:1008E000F0A42CCD35F0FCEB8EF0A4FEA9F0EB8F3C
:1008F000F0A4CFC5F02ECD39FEE43CFCEAA42DCE09
:1009000035F0FDE43CFC2275F008758200EF2FFF06
:10091000EE33FECD33CDCC33CCC58233C5829BEDD7
:100920009AEC99E58298400CF582EE9BFEED9AFDDB
:10093000EC99FC0FD5F0D6E4CEFBE4CDFAE4CCF98B
:10094000A88222B800C1B90059BA002DEC8BF084FE
:10095000CFCECDFCE5F0CBF97818EF2FFFEE33FECC
:10096000ED33FDEC33FCEB33FB10D703994004EB84
:1009700099FB0FD8E5E4F9FA227818EF2FFFEE3350
:10098000FEED33FDEC33FCC933C910D7059BE99A62
:100990004007EC9BFCE99AF90FD8E0E4C9FAE4CCF3
:1009A000FB2275F010EF2FFFEE33FEED33FDCC335D
:1009B000CCC833C810D7079BEC9AE899400AED9B46
:1009C000FDEC9AFCE899F80FD5F0DAE4CDFBE4CC25
:1009D000FAE4C8F922EF4BFFEE4AFEED49FDEC4880
:1009E000FC22C3E49FFFE49EFEE49DFDE49CFC2208
:1009F000EB9FF5F0EA9E42F0E99D42F0E89C45F05D
:100A000022E8600FECC313FCED13FDEE13FEEF13B1
:100A1000FFD8F122E8600FEFC333FFEE33FEED3372
:100A2000FDEC33FCD8F122BB010789828A83020ADC
:100A3000915005E9F8020B8EBBFE05E9F8020B9A0E
:100A400089828A83020BA6BB010DE58229F582E526
:100A5000833AF583020A915007E92582F8020B8E4A
:100A6000BBFE07E92582F8020B9AE58229F582E5AB
:100A7000833AF583020BA6BB010789828A83020AA7
:100A8000A95005E9F8020BB6BBFE05E9F8020BC256
:100A900022E0FCA3E0FDA3E0FEA3E0FF22E0F8A338
:100AA000E0F9A3E0FAA3E0FB22ECF0A3EDF0A3EE63
:100AB000F0A3EFF022A8828583F0D083D082120ABF
:100AC000CC120ACC120ACC120ACCE473E493A3C56C
:100AD00083C5F0C583C8C582C8F0A3C583C5F0C56A
:100AE00083C8C582C822E0FBA3E0FAA3E0F922F89C
:100AF000E0FBA3A3E0F925F0F0E582158270021572
:100B000083E0FA38F022EBF0A3EAF0A3E9F022D078
:100B100083D082F8E4937012740193700DA3A393B1
:100B2000F8740193F5828883E4737402936860EF2C
:100B3000A3A3A380DFEC8EF0A4CCC5F0CCCDF8EF5E
:100B4000A4CEC5F02DFDE43CFCE8A42EC8C5F03DC4
:100B5000FDE43CFCEFA4FFE5F028FEE43DFDE43CB1
:100B6000FC22EF4E6012EF60010EEDBB010B89829B
:100B70008A83F0A3DFFCDEFA2289F05007F709DF51
:100B8000FCA9F022BBFEFCF309DFFCA9F022E6FC85
:100B900008E6FD08E6FE08E6FF22E2FC08E2FD08A2
:100BA000E2FE08E2FF22E493FC740193FD740293D9
:100BB000FE740393FF22ECF608EDF608EEF608EF5C
:100BC000F622ECF208EDF208EEF208EFF2229009BC
:100BD000B1EFF07F0112B5D012B5E0783DE6B40F69
:100BE00003020FA6E490F103F090F104F090F105F8
:100BF000F0783DE6701D08E6B4221808E6FFD394AD
:100C00000F5010E490F103F090F104F090F105EF33
:100C1000F08013783DE690F103F008E690F104F0DF
:100C200008E690F105F0E47813F69009B1E0FF785A
:100C300013E6FEC39F5026EE601390F105E0B4FF6B
:100C40000690F104E004F090F105E004F090F15416
:100C5000E0FF74502EF8A60778130680CD783DE6A5
:100C6000FC706F08E6706B7812F6783FE6247F60C0
:100C70002314603614604924036003020FF17812D4
:100C8000E6FF12AE449009B1E0FF781206E66F70FD
:100C900003020FF17812E6FF12A2019009B1E0FF02
:100CA000781206E66F7003020FF17812E6FF12B8B1
:100CB000549009B1E0FF781206E66F7003020FF15D
:100CC0007812E6FF12B85B9009B1E0FF781206E6F1
:100CD0006F22EC6003020E0B783EE66402600302B2
:100CE0000E0B7812F6783FE6120B0F0D13000D294C
:100CF000010D3F020D55030D6B040D81050D970687
:100D00000DAD070DBF100DD3120DE7140DFB16002E
:100D1000000FF17812E6FF12B3839009B1E0FF787B
:100D20001206E66F7003020FF17812E6FF12B39617
:100D30009009B1E0FF781206E66F7003020FF178B8
:100D400012E6FF1293BC9009B1E0FF781206E66F3D
:100D50007003020FF17812E6FF1294F29009B1E0ED
:100D6000FF781206E66F7003020FF17812E6FF12A9
:100D7000A0139009B1E0FF781206E66F7003020F2E
:100D8000F17812E6FF12B8179009B1E0FF78120669
:100D9000E66F7003020FF17812E6FF12A677900952
:100DA000B1E0FF781206E66F7003020FF17812E6E9
:100DB000FF12AE699009B1E0FF781206E66F22E4F7
:100DC000FF12A4539009B1E0FF781206E66F70039A
:100DD000020FF17F0112A4539009B1E0FF781206CF
:100DE000E66F7003020FF17F0212A4539009B1E085
:100DF000FF781206E66F7003020FF17F0312A4530F
:100E00009009B1E0FF781206E66F22783DE66003B4
:100E1000020F4708E664206003020F477812F67855
:100E20003FE6120B0F0E53020E69030E7F040E8E67
:100E3000050E9D060EAC070EBB080ECA090ED90A98
:100E40000EE80B0EF70C0F0D0D0F230E0F350F00D4
:100E5000000FF17812E6FF12B3839009B1E0FF783A
:100E60001206E66F7003020FF17812E6FF12B396D6
:100E70009009B1E0FF781206E66F7003020FF1905F
:100E800009B1E0FF781206E66F7003020FF19009D6
:100E9000B1E0FF781206E66F7003020FF19009B11E
:100EA000E0FF781206E66F7003020FF19009B1E0DF
:100EB000FF781206E66F7003020FF19009B1E0FFB0
:100EC000781206E66F7003020FF19009B1E0FF7827
:100ED0001206E66F7003020FF19009B1E0FF78127D
:100EE00006E66F7003020FF19009B1E0FF78120679
:100EF000E66F7003020FF17812E6FF1293BC9009BF
:100F0000B1E0FF781206E66F7003020FF17812E687
:100F1000FF1294F29009B1E0FF781206E66F7003B9
:100F2000020FF17812E6FF12A0139009B1E0FF78EA
:100F30001206E66F227812E6FF12B8179009B1E0A8
:100F4000FF781206E66F22783DE6FF700C08E6B4E3
:100F5000040708E67003020FF1EF7040783EE66484
:100F60002270397812F6783FE614601824F1602276
:100F700024FC6023241470799009B1E0FF781206F4
:100F8000E66F606D9007A4E0FF7812E62450F8A6A3
:100F900007227850760822E47850F622783DE6B4AD
:100FA0000F1608E670129009B1E0FF7E007D007B0D
:100FB000007A007950020B62783DE66406703208D0
:100FC000E6FFB4801408E6B4290F7862E6B4012184
:100FD00078507604E47862F622EFB49414783FE611
:100FE000B4930E7863E6B4010878507610E4786321
:100FF000F622E490058EF0A3F0A3F0A3F0A3F02274
:10100000210524060301790100009009F5120AB5B3
:101010000000000078F97C097D017BFF7A357906B4
:101020007E007F4012069E78397C0A7D017BFF7A24
:101030003579467E007F4012069E78797C0A7D01D4
:101040007BFF7A3579867E007F4012069E900CEFFA
:10105000E0FEA3E0FFE4FCFD9009E5120AA9900C74
:10106000EDE0FEA3E0FFE4FCFD9009E9120AA9907F
:1010700009E5120A9190FB07EFF09009E5120A9139
:101080007808120A01EF543FFF90FB06EFF0900939
:10109000E9120A9190FB09EFF09009E9120A9178A0
:1010A00008120A01EF543FFFE490FB08EFF07BFFCA
:1010B0007A3379399009E9120A91900ABF120AA984
:1010C0009009E5120A91900AC3120AA97F011296AB
:1010D0002490E796E0FE90E797E0FDEDFFE4FCFD4D
:1010E0009009CD120AA99009CD120A9190FB05EF43
:1010F000F09009CD120A917808120A01EF543FFFCF
:1011000090FB04EFF090E794E0FE90E795E0FDEDB2
:10111000FFE4FCFD9009D1120AA99009D1120A91AD
:101120007801120A149009D1120AA99009D1120A61
:101130009190FB03EFF09009D1120A917808120AFE
:1011400001EF543FFFE490FB02EFF07BFF7A33792D
:10115000599009D1120A91900ABF120AA99009CD9B
:10116000120A91900AC3120AA97F0112962490FBD9
:1011700014E0F09009E5120A919009CD120A9DC37E
:101180001209F090FB1F50057490F080037410F06A
:101190007F327E0012AF62E49009B4F090FB83E0EE
:1011A000FFE4FCFDFE9009B9120AA99009B9120AE0
:1011B000917808120A149009B9120AA99009B91273
:1011C0000A9D90FB84E0FFE4FCFDFE1209D5900926
:1011D000B9120AA99009B9120A917808120A149052
:1011E00009B9120AA99009B9120A9D90FB85E0FF7E
:1011F000E4FCFDFE1209D59009B9120AA97F0A7E06
:101200000012AF629009B4E004F0E4FFFEFDFC9030
:1012100009B9120A9DC31209F0700C9009B4E0C319
:10122000940A500302119C90FB80E0FFE4FCFDFE59
:101230009009B5120AA99009B5120A917808120A04
:10124000149009B5120AA99009B5120A9D90FB8164
:10125000E0FFE4FCFDFE1209D59009B5120AA99041
:1012600009B5120A917808120A149009B5120AA950
:101270009009B5120A9D90FB82E0FFE4FCFDFE128E
:1012800009D59009B5120AA990FB86E0FE90FB876C
:10129000E0FDEDFFE4FCFD9009BD120AA97BFF7A99
:1012A00033797B9009B5120A91900ABF120AA97F7F
:1012B000011296247BFF7A3379989009B9120A912A
:1012C000900ABF120AA97F011296247BFF7A337914
:1012D000AF9009BD120A91900ABF120AA97F0112AC
:1012E000962490E790E0FE90E791E0FDEDFFE4FCAE
:1012F000FD9009D9120AA99009D9120A9178011210
:101300000A149009D9120AA990E792E0FE90E79397
:10131000E0FDEDFFE4FCFD9009ED120AA990E792D3
:10132000E0FE90E793E0FDEDFFE4FCFD9009F11293
:101330000AA99009F5120A91EF2401FFE43EFEE4A8
:101340003DFDE43CFC9009F5120AA9E47F64FEFD32
:10135000FC9009F5120A9DD31209F050129009F180
:10136000120A919009ED120A9DC31209F060AE9025
:1013700009F1120A919009ED120A9DC31209F05069
:10138000059009ED80039009F1120A919009D51298
:101390000AA97BFF7A3379C79009D9120A91900A7A
:1013A000BF120AA97F011296247BFF7A3379E1905C
:1013B00009D5120A91900ABF120AA97F0112962438
:1013C0009009E5120A919009D5120A9D1208B89069
:1013D00009CD120A9D1209439009C5120AA9900964
:1013E000B9120A917B017A0A79B9900AC2120B06E6
:1013F0007A0979F9128EA39009CD120A917B017AAC
:101400000A79B9900AC2120B067A0A7939128EA3A8
:101410007B017A0A7939900ABE120B067A0979F9AA
:10142000900AC1120B061279D39009E5120A919025
:1014300009D5120A9D1208B89009F5120AA9900957
:10144000F5120A917B017A0A79B9900AC2120B0649
:101450007A0A7939128EA37B017A0A7939900ABE09
:10146000120B067A0A7979900AC1120B067A0A7968
:10147000BA900AC4120B067A0979F9122D93900AD0
:10148000B9EFF07B017A0A7979A3E0FD129CE9902B
:1014900009ED120AA99009ED120A919009C9120AE0
:1014A000A97B017A0A79B9900AC2120B067A0A79E5
:1014B000797F007E107D007C00128EA37B017A0A6A
:1014C0007979900ABE120B067A0979F9900AC1124D
:1014D0000B061279D39009F5120A917B017A0A79E9
:1014E000B9900AC2120B067A0A7939128EA37B01CF
:1014F0007A0A7939900ABE120B067A0A7979900A2B
:10150000C1120B067A0A79BA900AC4120B067A093C
:1015100079F9122D937B017A0A7979900ABAE0FD64
:10152000129CE99009F1120AA99009ED120A91782A
:1015300001120A149009ED120AA97BFF7A3379FB94
:101540009009ED120A91900ABF120AA97F01129622
:10155000247BFF7A34790E9009F1120A91900ABF28
:10156000120AA97F011296249009ED120A9190FBAC
:1015700016EFF09009ED120A917808120A0190090D
:10158000ED120AA99009ED120A91EF543FFF90FB6A
:1015900015EFF09009F1120A9190FB24EFF09009F9
:1015A000F1120A917808120A019009F1120AA99021
:1015B00009F1120A91EF540FFFE490FB23EFF07B47
:1015C000FF7A3479219009C5120A91900ABF120A54
:1015D000A97F011296249009C5120A9190FB12EF7F
:1015E000F09009C5120A917808120A01EF543FFFE2
:1015F000E490FB11EFF09009C5120AB5000000005D
:101600009009C9120A9D9009B5120A9112094390D6
:1016100009C5120AA97BFF7A3479329009C5120AEA
:1016200091900ABF120AA97F011296249009C5124F
:101630000A9190FB0EEFF09009C5120A91780812FA
:101640000A01EF540FFFE490FB0DEFF09009C11277
:101650000AB5000000009009C9120A919009C5124C
:101660000A9D1208B8A804A905AA06AB079009B5F7
:10167000120A911208AA9009C1120AA97BFF7A34B2
:1016800079429009C1120A91900ABF120AA97F01FA
:101690001296249009C1120A9190FB1AEFF090095A
:1016A000C1120A917808120A0190FB19EFF0900C10
:1016B000F1E0B4011EE47B04FAF9F89009D1120AB2
:1016C000911209439009DD120AA990FB1FE0440220
:1016D000F08031900CF2E0B4011EE47B02FAF9F8DC
:1016E0009009D1120A911209439009DD120AA990BA
:1016F000FB1FE04420F0800C9009D1120A91900960
:10170000DD120AA99009E9120A919009DD120A9DD9
:10171000C31209F0700C9009C1120AB50000000054
:10172000802E9009DD120A91EF24FFFFEE34FFFEB8
:10173000ED34FFFDEC34FFFCE4FB7A10F9F81208FD
:10174000B89009E9120A9D1209439009C1120AA929
:101750007BFF7A3479569009C1120A91900ABF1220
:101760000AA97F011296249009C1120A9190FB1CCC
:10177000EFF09009C1120A917808120A0190FB1B40
:10178000EFF0900CF3E0B4011DE47B03FAF9F8905C
:1017900009CD120A911209439009E1120AA990FB9E
:1017A0001FE044018022900CF4E0B40125E47B02A8
:1017B000FAF9F89009CD120A911209439009E11241
:1017C0000AA990FB1FE04440F090FB00E04401F0C8
:1017D000800C9009CD120A919009E1120AA9900992
:1017E000E5120A919009E1120A9DC31209F0700CEA
:1017F0009009C5120AB500000000802E9009E11280
:101800000A91EF24FFFFEE34FFFEED34FFFDEC34D0
:10181000FFFCE4FB7A10F9F81208B89009E5120A07
:101820009D1209439009C5120AA97BFF7A34796A8F
:101830009009C5120A91900ABF120AA97F01129657
:10184000249009C5120A9190FB1EEFF09009C51271
:101850000A917808120A01E490FB1DEFF090FB1F3B
:10186000E0FF30E00890FB187408F0800AEF30E6E3
:101870000690FB187407F07BFF7A34797E90FB1892
:10188000E0900ABFF07F0112962490FB0C7405F0E3
:1018900090FB0AF07BFF7A347992900ABFF07F01C7
:1018A0001296247BFF7A3479A290FB0AE0900ABF5B
:1018B000F07F01129624E47B02FAF9F89009E9120C
:1018C0000A91120943A804A905AA06AB079009C901
:1018D000120A911208AA9009C5120AA97BFF7A344C
:1018E00079B29009C5120A91900ABF120AA97F0124
:1018F0001296249009C5120A9190FB10EFF09009FE
:10190000C5120A917808120A01EF540FFF90FB0FDD
:10191000EFF090FB01748BF07F647E0012AF627475
:10192000FFF012ACCC90FB14E04404F022410C1701
:1019300000440C13000000006200059500FFFFFF4B
:10194000FFFFFF00506CD40311000000011E0104D2
:10195000A50C07780EEE95A3544C99260F4F4F0017
:101960000000010101010101010101010101010169
:10197000010108E80030F2705A80B0588A004084B3
:101980006300001E08E80030F2705A80B0588A00E8
:1019900040846300001E000000FD00374132463CD9
:1019A000000A202020202020000000FC00445020BD
:1019B000494E0A20202020202020013302030EF16E
:1019C00041612309040183010000000000000000C0
:1019D0000000000000000000000000000000000007
:1019E00000000000000000000000000000000000F7
:1019F00000000000000000000000000000000000E7
:101A000000000000000000000000000000000000D6
:101A100000000000000000000000000000000000C6
:101A200000000000000000000000000000000000B6
:101A30000000000000000000000000A50000000001
:101A40000000000000000000000000000000000096
:101A50000000000000000000000000000000000086
:101A60000000000000000000000000000000000076
:101A70000000000000000000000000000000000066
:101A80000000000000000000000000000000000056
:101A90000000000000000000000000000000000046
:101AA0000000000000000000000000000000000036
:101AB0000000000000000000000000000000000026
:101AC0000000000000000000000000000000000016
:101AD0000000000000000000000000000000000006
:101AE00000000000000000000000000000000000F6
:101AF00000000000000000000000000000000000E6
:101B000000000000000000000000000000000000D5
:101B100000000000000000000000000000000000C5
:101B200000000000000000000000000000000000B5
:101B300000000000000000000000000042057F00DF
:101B40000044058100000000410585004105860034
:101B50004405880000000041058C0041058D0044CB
:101B60000BF000000000440BF400000000440CA443
:101B7000000000005A0C3800024414089807800046
:101B800058002C009404650438000400050024016A
:101B9000014100000041000100410002004100033A
:101BA000004100040042000500004200070000421E
:101BB0000009000042000B000042000D000042003E
:101BC0000F00004A001100000000000000000000AB
:101BD00041001B0044001C000000004100200041A7
:101BE0000CF201410CF100410CF400410CF3005ADD
:101BF0000C520058002C009407800898000400053F
:101C0000002404380465000249F000004A0B530028
:101C1000000000000000000000440B5D0000000018
:101C2000410B6100410CFE00410CD100410CD00879
:101C3000410CE208410CCF08620007B100FFFFFF32
:101C4000FFFFFF004DD904AA01010101011D01039D
:101C5000807A44780A0DC9A05747982712484C212A
:101C600008008180A9C0714FB30001010101010189
:101C7000010108E80030F2705A80B0588A00C2AD05
:101C80004200001E08E80030F2705A80B0588A0006
:101C9000C2AD4200001E000000FC004C54344B3624
:101CA00030433434340A2020000000FD0017790E40
:101CB000883C000A2020202020200177020361F0C8
:101CC0005861605D5E5F621F101405130420223CA2
:101CD0003E1203110265663F402C097F07097F070A
:101CE0005F7F00577F00837F00006E030C001000B1
:101CF000B83C2F00800102030467D85DC4017880DE
:101D000003EB0146D000440B888660768FE200CB5F
:101D1000E305DF01E40F030030E3060D01011D00C0
:101D20007251D01E206E285500C2AD4200001E0028
:101D30000000000000000000000000F300000000B0
:101D40000000000000000000000000000000000093
:101D50000000000000000000000000000000000083
:101D60000000000000000000000000000000000073
:101D70000000000000000000000000000000000063
:101D80000000000000000000000000000000000053
:101D90000000000000000000000000000000000043
:101DA0000000000000000000000000000000000033
:101DB0000000000000000000000000000000000023
:101DC0000000000000000000000000000000000013
:101DD0000000000000000000000000000000000003
:101DE00000000000000000000000000000000000F3
:101DF00000000000000000000000000000000000E3
:101E000000000000000000000000000000000000D2
:101E100000000000000000000000000000000000C2
:101E200000000000000000000000000000000000B2
:101E30000000000000000000000000005A0C7000CC
:101E40000249F0089807800058002C0094046504AB
:101E5000380004000500240000410CBA00410CBB0E
:101E600000410CBC00410CBD00440CBE0000000051
:101E7000440CC200000000440CC600000000440CEA
:101E8000CA00000000410CFF00410D0000410D019F
:101E900000009007ABE0120B0F1EC1011EC9021F0C
:101EA00005031F1B041F2B051F840620E207224B7E
:101EB0000822EF0923410A23670B23E30C000023C8
:101EC000E812B8A17F020223E59007ACE0B4010E4E
:101ED0007B017A05798812B829E49007ACF07B0180
:101EE0007A0579887DC87C00129A82EF64016003CC
:101EF0000223E812B5B0900795E0FF7D2812A0C13B
:101F00007F030223E59007A1E0640160030223E858
:101F1000128DF812AB787F040223E59007ADE064E0
:101F20000160030223E87F050223E59007ACE0B4DB
:101F3000010E7B017A05798812B829E49007ACF08C
:101F40007B017A0579887D647C00129A82EF6401B6
:101F500060030223E812B37012B6D81280F312B6EF
:101F6000307F0612A63590079AE0640160030223D1
:101F7000E8900594E0FF7D0112ABAA7BFF7A2779F8
:101F8000860220DD9007ACE0B401137B017A05796D
:101F90008812B829E49007ACF090058D04F012B7D0
:101FA0002BBF01057F070223E57B017A0579887D38
:101FB000107C27129A82EF640160030223E89005E7
:101FC0008DE070030223E8E4F07BFF7A2779907FAD
:101FD000011296247F007E017D007C0012A9CF9023
:101FE0000ABFEFF07BFF7A2779A47F011296247F46
:101FF000017E017D007C0012A9CF900ABFEFF07B2B
:10200000FF7A2779B67F011296247F037E017D0037
:102010007C0012A9CF900ABFEFF07BFF7A2779C826
:102020007F011296247F047E017D007C0012A9CFDF
:10203000900ABFEFF07BFF7A2779DA7F01129624AE
:102040007F047E017D007C0012A9CF900ABFEFF0D3
:102050007BFF7A2779EC7F011296247F047E017D35
:10206000007C0012A9CF900ABFEFF07BFF7A27799E
:10207000FE7F011296247F077E017D007C0012A95D
:10208000CF900ABFEFF07BFF7A2879107F0112967C
:10209000247F027E027D007C0012A9CF900ABFEF50
:1020A000F07BFF7A2879227F011296247F037E023B
:1020B0007D007C0012A9CF900ABFEFF07BFF7A2849
:1020C00079347F011296247F047E027D007C001209
:1020D000A9CF900ABFEFF07BFF7A2879467F0102F3
:1020E00022E79007ACE0B4010E7B017A05798812F3
:1020F000B829E49007ACF07B017A0579887D587C9B
:1021000002129A82EF640160030223E87BFF7A28BF
:1021100079587831E6900ABFF008E6A3F07F011203
:1021200096247BFF7A28797A7F011296247F007E9D
:10213000017D007C0012A9CF900ABFEFF07BFF7AEF
:102140002779A47F011296247F017E017D007C0007
:1021500012A9CF900ABFEFF07BFF7A2779B67F01F3
:102160001296247F037E017D007C0012A9CF900A85
:10217000BFEFF07BFF7A2779C87F011296247F0496
:102180007E017D007C0012A9CF900ABFEFF07BFF9B
:102190007A2779DA7F011296247F047E017D007C04
:1021A0000012A9CF900ABFEFF07BFF7A2779EC7F6E
:1021B000011296247F047E017D007C0012A9CF903D
:1021C0000ABFEFF07BFF7A2779FE7F011296247F0A
:1021D000077E017D007C0012A9CF900ABFEFF07B43
:1021E000FF7A2879107F011296247F027E027D00FB
:1021F0007C0012A9CF900ABFEFF07BFF7A287922EA
:102200007F011296247F037E027D007C0012A9CFFD
:10221000900ABFEFF07BFF7A2879347F0112962471
:102220007F047E027D007C0012A9CF900ABFEFF0F0
:102230007BFF7A2879467F01129624123984126A2C
:10224000A3E490058CF07F080223E59007ACE0B48E
:1022500001137F0412A4537B017A05798812B829EF
:10226000E49007ACF07B017A0579887DC87C001288
:102270009A82EF640160030223E87832E6FF12914C
:102280003AEF60667BFF7A28798FE4FF12962490FC
:10229000058CE004F07BFF7A28799AE4FF129624FB
:1022A000123984126AA37F0412A4537B017A057940
:1022B0008812B82990058CE0B405177BFF7A28793D
:1022C000A8E4FF129624900593E0FF7825E6FD022E
:1022D0008F4B90058CE0D3940850030223E8E4F080
:1022E0007BFF7A2879B2FF0296247F090223E590CA
:1022F00007ACE0B4011412B78E12B7AF7B017A05B8
:10230000798812B829E49007ACF07B017A057988C6
:102310007D587C02129A82EF640160030223E81266
:10232000609AEF70177BFF7A2879BE7F011296249E
:1023300012B0297B017A05798802B8297F0A022325
:10234000E59007ACE0B40110129DC812B799E4FF04
:1023500012B4D4E49007ACF0125EB7EF64016003EE
:102360000223E87F0B807E9007ACE0B4011A125A7A
:10237000A9E4FF12437DEF606F7B017A0579881233
:10238000B829E49007ACF02212AA72EF640270340C
:102390007BFF7A2879CB7F01129624E4FDFF129E01
:1023A00032900ABF120AA97BFF7A2879DD7F0112D9
:1023B00096247D01E4FF12AF1E12AF40120FF27F90
:1023C0000C12A6357B017A0579887D407C06129A2D
:1023D00082BF01147BFF7A2879F07F011296247F57
:1023E0000880027F0D12A635220A2D2D52785374D3
:1023F000617465203D20256264000A4450525800F3
:102400000A4572726F72203D203078253032627832
:102410002C307825303262782C3078253032627852
:102420002C307825303262782C3078253032627842
:102430002C307825303262782C3078253032627832
:102440002C30782530326278000A4D5649443020CD
:10245000616E64204D56494431203D20307825304E
:102460003262782C307825303262782C3078253002
:102470003262782C307825303262782C30782530F2
:102480003262782C30782530326278000A4D564915
:10249000443220616E64204D56494433203D203043
:1024A0007825303262782C307825303262782C30C2
:1024B0007825303262782C307825303262782C30B2
:1024C0007825303262782C30782530326278000AF4
:1024D0004D5341203D20307825303262782C3078C1
:1024E00025303262782C307825303262782C307882
:1024F00025303262782C000A4D4953433031203D5B
:1025000020307825303262782C307825303262786D
:102510002C000A307846324446203D203078253061
:10252000326278000A48444350204B657920566156
:102530006C6964000A207563506978656C456E6348
:102540006F64696E673A307825303262782C756333
:1025500042697444657074683A3078253032627824
:102560002C000A207563436F6C6F72696D6574721D
:1025700079466F726D61743A307825303262780036
:102580000A565343000A6C616E65306572726F7251
:10259000203D2030782578000A6C616E65316572C7
:1025A000726F72203D2030782578000A6C616E656C
:1025B000326572726F72203D2030782578000A6C87
:1025C000616E65336572726F72203D2030782578B8
:1025D000000A536F66744571203D203078253032F3
:1025E00062782C307825303262782C307825303281
:1025F00062782C30782530326278000A494E544790
:102600005F4D2B465241435F4B3A203078253032A4
:1026100062782C307825303262782C307825303250
:1026200062782C307825303262783B000A44706C36
:102630006C206C6F636B2830784336384429203D1A
:102640002030782530326278000A4153505F504B79
:10265000543A20307825303262783B000A41756464
:10266000696F5F53747265616D2053445020484216
:10267000307E484233203D20307825303262782C3D
:10268000307825303262782C307825303262782CE0
:10269000307825303262783B000A41756420696EDB
:1026A000666F3A20307825303262782C30782530C9
:1026B0003262782C307825303262782C30782530B0
:1026C0003262782C307825303262783B000A4175CE
:1026D00064204170706561722E000A417564204467
:1026E00069736170706561722E000A4653204368F9
:1026F000616E67652E000A617564206673203D2057
:10270000256264000A31322E3238384D204D636C18
:102710006B000A41756420506C6C206C6F636B2EEB
:10272000000A417564706C6C20526563616C692E9F
:10273000000A417564706C6C20556E6C6F636B2E73
:10274000000A68646370497271000A484443505F2C
:1027500025626458000A636F6C6F72207370616346
:1027600065204368616E67652E000A5043522075EC
:102770006E737461626C652E000A4D53412043688C
:10278000616E67652E000A485044204869676800FA
:102790000A445020547261696E696E67204661690F
:1027A0006C6564000A44504344313030203D203091
:1027B000782562782C000A44504344313031203D62
:1027C0002030782562782C000A445043443130335D
:1027D000203D2030782562782C000A445043443153
:1027E0003034203D2030782562782C000A44504354
:1027F00044313035203D2030782562782C000A4461
:10280000504344313036203D2030782562782C000A
:102810000A44504344313037203D203078256278D7
:102820002C000A44504344323032203D2030782579
:1028300062782C000A44504344323033203D20302B
:10284000782562782C000A44504344323034203DCD
:102850002030782562782C000A4C696E6B526174C6
:10286000655F436F756E74203D203078253032628D
:10287000782C30782530326278000A445020547227
:1028800061696E696E672053756363657373000ACF
:1028900064617461206572722E000A52657365610D
:1028A0007263682045512E000A436472205273748B
:1028B0002E000A5265636F6E6E6563742E000A64A3
:1028C000652D706B74206572722E000A2050435281
:1028D00020616C6C20737461626C653B000A44502B
:1028E000696E46726571203D20256C754B687A00D3
:1028F0000A5043526C676320527374003F3F3F2A73
:1029000026242221201F1E1D1C1B1A19170000003F
:10291000E5082426F582E4340BF583E005082290CF
:102920000B23300703900B26E475F001120AEF0227
:1029300006C42000E97F2ED2008018EF540F2490A7
:10294000D43440D4FF30040BEF24BFB41A0050033A
:102950002461FFE50960021509050CE50C7002050C
:102960000B30070E900B23E475F001120AEFEF0213
:10297000073D02ADF77403D2078003E4C207F508F0
:10298000900B23120B06E4F509F50BF50CE5096035
:10299000077F2012295380F5750AFFC201C200C2C9
:1029A00002C203C205C206C20812291FFF700D3001
:1029B00007057F00122964AF0CAE0B22B4255FC25D
:1029C000D5C20412291FFF24D0B40A00501A75F092
:1029D0000A780930D50508B6FF0106C6A426F620F8
:1029E000D5047002D20380D924CFB41A00EF50046A
:1029F000C2E5D204022C56D20180C6D20080C0D2D9
:102A00000280BCD2D580BAD20580B47F201229536F
:102A10002002077401B5090040F1122910FF1229A4
:102A20005302298DD208D2068095122910FB122953
:102A300010FA122910F94A4B700679547A2D7BFF4F
:102A400020022EE509602A7E008E82758300120620
:102A5000DD60060EEE650A70F0C2D5EBC0E0EAC09C
:102A6000E0E9C0E0EE122CB7D0E0F9D0E0FAD0E017
:102A7000FB1206C4FF60AAEBC0E0EAC0E0E9C0E0D8
:102A8000122953D0E02401F9D0E03400FAD0E0FB61
:102A9000E50A0460DCD50AD98087D20280A2122C14
:102AA0009960F7E50A700104120316A90A600DE5A2
:102AB0000A600914F50A122D41EF60F3EA30E702CB
:102AC000F404C3995079EAF4250A0430E701E404D8
:102AD000F50A800D122C9960C1EA050A250A120335
:102AE00016EA900B52F030E701E4250A04D50A04F7
:102AF00020050114122CB7E4C0E0122D41900B52B6
:102B0000E0601320E70714F012293B802204F0D084
:102B1000E014C0E07F0012293BE50A600712293269
:102B2000150A800B300503122932D0E002298DD01E
:102B3000E00480C4122C99609EE50A0412031690EA
:102B40000B52EAF0E50A2005026001042404122C6D
:102B5000B774FF04C0E0122D4112293BE50A20059D
:102B6000026003122932D0E0B50AE87F45122945F8
:102B7000900B52E07F2B30E7047F2DF404C0E0126D
:102B80002953D0E075F00A84C0F012293CD0E0123D
:102B9000293C02298D791080027908C206C208807A
:102BA00008D2D5790A8004790AC2D5E50A047002F0
:102BB000F50AE4FAFDFEFF122910FC7B0820011340
:102BC000122910FD7B1030000A122910FE12291064
:102BD000FF7B20EC3382D592D55013C3E43000063E
:102BE0009FFFE49EFEE42001039DFDE49CFCE4CBFA
:102BF000F8C201EC700CCFCECDCCE824F8F870F31D
:102C00008017C3EF33FFEE33FEED33FDEC33FCEB07
:102C100033FB994002FB0FD8E9EB300105F8D0E017
:102C2000C448B201C0E00AEC4D4E4F78207B0070E2
:102C3000C2EAB50A0040BCC0E0122CB9D0F0D0E026
:102C4000200104C4C0E0C4B201C0F012293CD0F09D
:102C5000D5F0EB02298D120B0F2A2A532B955829F8
:102C6000FB4C29F7422B994F2BA1442BA1492A1049
:102C7000432BA7552AD4462B34452A9E472D745002
:102C800029FF2D2A032E2A262B2A07232A24202D2A
:102C90005D2A29BF4800002A1EE50AB4FF03750A11
:102CA00006122910FC122910FD122910FE122910FB
:102CB000FF900B4B020353790AA2D5200314300571
:102CC00009B910020404B9080104A2D52006025073
:102CD00001042002689202B509005034C0E07F2050
:102CE0003003197F30A20272067205500F122D10A8
:102CF000C202C206C205C2087F30800F300503E958
:102D0000C0E0122953300503D0E0F9D0E0B509CC7A
:102D10003005177F30B9100C1229537F5830040743
:102D20007F788003B908031229533002057F2D02F2
:102D300029537F202008F87F2B2006F3229202805F
:102D4000CF7F00B40700500B244BF582E4340BF521
:102D500083E0FF22286E756C6C2900D201122910C5
:102D60003001F8C201780930D50108F60229BF2DDB
:102D7000504349581229102403B405004001E4903F
:102D80002D6F93122944743A122944D20375090411
:102D9000022B95900ABB120B06E4900ACBF0A3F02D
:102DA000900AC7F0A3F0900AC7E0FEA3E0FFC39427
:102DB00040EE648094805025900ABB120AE68F8210
:102DC0008E831206DD600A900AC7A3E004900ACB46
:102DD000F0900AC7E475F0011207D880C9E4900AA0
:102DE000C7F0A3F0900AC7E0FEA3E0FFC39440EE53
:102DF000648094805025900ABE120AE68F828E83EA
:102E00001206DD600A900AC7A3E004900ACCF09095
:102E10000AC7E475F0011207D880C9900ACCE0FE19
:102E2000900AD1F0900ACBE0FDC39E5003AF05227B
:102E3000C3ED9E900ACDF0ED24FFFEE434FF900A2E
:102E4000C7F0A3CEF0900AC7E0FEA3E0FFC3EE6494
:102E50008094804054900ACDE0FDEF9D7480F8EEA0
:102E60006480984023E0FF900AC7E0FCA3E0FD9F48
:102E7000FFEC9400FE900ABE120AE68F828E831247
:102E800006DD8D828C838012900ABE120AE6900ABB
:102E9000C7E0FEA3E0F5828E83E412074F900AC7D5
:102EA00074FFF5F01207D8809C900ACBE0A3F09055
:102EB0000ACFF0E4A3F0900ACDE0FF900AD0E0FE44
:102EC000D39F40030230CD900AC9E4F0A304F0EE92
:102ED000FDC3EF9DFFE49400FE900AC1120AE68F45
:102EE000828E83E412074F900ACCE0FF900ACBE079
:102EF000FEC39F5007E4900AC9F0A3F0EE6F600391
:102F0000022FB3EE24FFFEE434FF900AC7F0A3CEF5
:102F1000F0C3900AC7E0648094805003022FB390FE
:102F20000ABE120AE6900AC7E0FEA3E0FFF5828E11
:102F3000831206DDFD900ABB120AE68F828E831291
:102F400006DD6D6061900ABE120AE6900AC7E0FED7
:102F5000A3E0FFF5828E831206DDFD900ABB120A04
:102F6000E68F828E831206DDD39D400A900AC9E463
:102F7000F0A304F0803D900ABE120AE6900AC7E072
:102F8000FEA3E0FFF5828E831206DDFD900ABB12E0
:102F90000AE68F828E831206DDC39D5009E4900AF3
:102FA000C9F0A3F0800D900AC774FFF5F01207D89E
:102FB000022F11900AC9E07002A3E07003023047AB
:102FC000900AD1E0FF900ACFE0C39F407A900ABEFA
:102FD000120AE6900AD7120B06900ABB120AE69074
:102FE0000ADA120B06900ABB120AE6125880900AFF
:102FF000CFEFF0A3E0FF900ACDE0C39FFFE4940081
:10300000FE900AC1120AE68F828E83740112070AAB
:10301000900ACFE0FF900ACBF0A3E0FEEFC39E4002
:1030200003022EE7EE24FFFFE434FFFE900ABE12F7
:103030000AE68F828E831206DD6003022EE7900A75
:10304000CBE0A3F0022EE7900AC9E07002A3E07083
:1030500073900AC7F0A304F0900ACCE0FF900AC76F
:10306000E0FCA3E0FDC39F7480F8EC6480985028D6
:10307000900ABE120AE68D828C831206DDFF74FF71
:103080002DF58274FF3CF583EF12074F900AC7E4D9
:1030900075F0011207D880C0900ABE120AE6900AA5
:1030A000C8E024FFFF900AC7E034FF8F82F583E475
:1030B00012074F900ACCE0FF900ACBE0C39F500468
:1030C000A3E014F0900AD0E004F0022EB6900ACDEE
:1030D000E0FF900AC7E4F0A3EFF0900AC7E0FEA378
:1030E000E0FFD39400EE64809480401B900AC112EC
:1030F0000AE68F828E831206DD700C900AC774FF79
:10310000F5F01207D880D3900AC7A3E004900AD242
:10311000F024FFFFE434FFC313EF13900ACEF0E472
:10312000900AC7F0A3F0900ACEE0FF900AC7E0FC37
:10313000A3E0FDD39F7480F8EC6480985048900A17
:10314000D2E0C39D14900AD0F0900AC1120AE68D15
:10315000828C831206DD900AD3F0900AD0E0FFF54E
:10316000827583001206DD8D828C8312074F900AD0
:10317000D3E08F8275830012074F900AC7E475F081
:10318000011207D880A0900AD2E0FF900AC4120A68
:10319000E6EF12073D900ACBE0FF900AC7E4F0A3E8
:1031A000EFF0900AC7E0FEA3E0FFD39400EE648046
:1031B0009480401B900ABB120AE68F828E8312060F
:1031C000DD700C900AC774FFF5F01207D880D39019
:1031D0000AC7A3E004FF900AD2F0220A53616D658A
:1031E000207265736F6C7574696F6E202C206E6F22
:1031F000206E656564207363616C65000A206861F8
:1032000063742A76616374206973202564202A2000
:103210002564000A205468652062616E6B20256277
:10322000642076616C75652069732020256C75209B
:103230004B487A000A2053636C206374726C206DD3
:10324000696E206E756D626572206572726F723A7A
:1032500020256278000A2053636C206374726C200E
:103260006D6178206E756D626572206572726F7225
:103270003A20256278000A2068746F74616C2A56BF
:10328000746F74616C206973202564202A20256482
:10329000000A206670733A202564000A2053636197
:1032A0006C6520696E70757420636C6B3A20256CB8
:1032B00075204B487A000A205363616C652066696B
:1032C00078656420636C6B3A20256C75204B487AD6
:1032D000000A2054686520706879636C6B20726501
:1032E000616368206D6178696D756D2076616C75BC
:1032F000652E2E2E000A205363616C65206D2D769D
:10330000616C75653A20256264000A205363616C24
:10331000652062616E64206F757420697320257862
:1033200020202578000A20506C6C5F6C6F636B5F07
:10333000666C61673A202578000A205363616C65EA
:10334000207265736F6C7574696F6E2069732025C8
:103350006C75202A20256C75000A2048444D492DA3
:103360005258207265736F6C7574696F6E20697343
:1033700020256C75202A20256C75000A2053636176
:103380006C65207673796E63207374617274206E3D
:10339000756D3A20256C75000A205363616C6520B9
:1033A0006672616D65206E756D3A20256C75000A38
:1033B000205363616C652068746F74616C206E7556
:1033C0006D3A20256C75000A205363616C65206995
:1033D0006E70757420687461746F6C3A20256C751A
:1033E000000A205363616C6520696E7075742076E5
:1033F0007461746F6C3A20256C75000A20766F75C5
:10340000742D68746F6C2D4D3A20256C75000A2060
:10341000766F75742D68746F6C2D4C3A20256C7521
:10342000000A20766F75742D76746F6C3A20256CC7
:1034300075000A20766F75742D7673733A20256CAB
:1034400075000A20766F75742D646C792D6E756D1C
:103450003A20256C75000A20766F75742D682D63EF
:103460006F6566663A20256C75000A20766F757464
:103470002D762D636F6566663A20256C75000A20EF
:10348000766F75742D6873732D6E756D3A20256295
:1034900064000A20766F75742D6873613A20256286
:1034A00064000A20766F75742D7673613A20256268
:1034B00064000A20766F75742D6873733A20256C4A
:1034C00075000A2A2A2A2A2A2A5363616C65206316
:1034D0006F6E6669677572652073746172742A2AEB
:1034E0002A2A2A000A2A2A2A2A2A2A2A5363616CAB
:1034F0006520636F6E66696775726520656E642A04
:103500002A2A2A2A2A0000000000000000000000E9
:1035100000000000000000000000000000000000AB
:10352000000000000000000000000000000000009B
:10353000000000000000000000000000000000008B
:10354000000000000000000000000000000000007B
:10355000000000000000000000000000000000006B
:10356000000000000000000000000000000000005B
:10357000000000000000000000000000000000004B
:10358000000000000000000000000000000000003B
:10359000000000000000000000000000000000002B
:1035A000000000000000000000000000000000001B
:1035B000000000000000000000000000000000000B
:1035C000000000000000E47BD07A07F9F8900C07B7
:1035D000120A911209439009B3EEF0A3EFF0E47BD5
:1035E000D07A07F9F8900C0B120A9112094390094E
:1035F000B5EEF0A3EFF0900BFEE0FB70189009B56C
:10360000E0FEA3E07803CEC313CE13D8F9F0EE901A
:1036100009B5F080179009B5E0FEA3E0FF7C007DBE
:10362000071207839009B5EEF0A3EFF0900BF9E0D5
:1036300064016004EBB4010D9009B6E025E0F09060
:1036400009B5E033F09009B5E0FEA3E0FF900C056A
:10365000E0FD7C001207719009B5EEF0A3EFF012C7
:10366000B3CF9009B7EEF0A3EFF012B3E29009B92F
:10367000EEF0A3EFF0900C25E0C313FCA3E013FDE4
:10368000900C23E0C313FEA3E0132DFFEE3CFE904D
:1036900009B5E0FCA3E0FD1207719009B3E0FCA3BB
:1036A000E0FD120783E4FCFD9009CB120AA9900902
:1036B000B7E0FEA3E0FFE4FCFD9009CB120A9DD326
:1036C0001209F04049900C25E013FCA3E013FD9093
:1036D0000C23E0C313FEA3E0132DFFEE3CFE900984
:1036E000B5E0FCA3E0FD1207719009B3E0FCA3E094
:1036F000FD1207839009B7E0FCA3E0FDC3EF9DFF37
:10370000EE9CFEE4FCFD9009C3120AA9800A900910
:10371000C3120AB500000000900C05E064016003CC
:103720000237EE900C25E0C313FCA3E013FD900CD0
:1037300023E0C313FEA3E0132DFDEE3CFC900C1F11
:10374000E0C313FEA3E0132DFFEC3EFE9009B5E0AD
:10375000FCA3E0FD120B359009C7120AA99009B32A
:10376000E0FEA3E0FFFBAA06E4F9F89009C7120AFD
:10377000911209439009CB120AA99009B9E0FEA35E
:10378000E0FF9009B8E02FFF9009B7E03EFEE4FCAF
:10379000FD9009CB120A9DD31209F040459009B360
:1037A000E0FEA3E0FFFBAA06E4F9F89009C7120ABD
:1037B00091120943C006C0079009B7E0FEA3E0FBE1
:1037C000AA06E4F9F8D007D0061208AAC006C00776
:1037D000A3E0FEA3E0FBAA06E4D007D0061208AAE5
:1037E00080129009C7120AB500000000800C9009F1
:1037F000C3120A919009C7120AA99009C7120A9127
:103800009009C3120A9DD31209F0400C9009C3120B
:103810000A919009C7120AA9900C03E025E0FFE481
:1038200033AB07FA3395E0F9F8E4FF7E80FDFC1234
:1038300009439009BF120AA9900C23E0C313FEA309
:10384000E013FFE4FCFD9009BF120A9D12089DA839
:1038500004A905AA06AB07900C25E0C313FEA3E05C
:1038600013FFE4FCFD12089DA804A905AA06AB07F6
:103870009009B5E0FEA3E0FFE4FCFD1208B8900952
:10388000BF120AA99009B3E0FEA3E0FFFBAA06E479
:10389000F9F89009BF120A91120943C006C00790B7
:1038A00009B7E0FEA3E0FBAA06E4F9F8D007D006CA
:1038B0001208AA9009BF120AA97BFF7A5679EA90EA
:1038C00009BF120A91900ABF120AA97F0112962419
:1038D0007BFF7A5679FD9009C3120A91900ABF12B4
:1038E0000AA97F011296247BFF7A5779119009C7A4
:1038F000120A91900ABF120AA97F01129624900918
:10390000C7120A919009BF120A9DD31209F0405FB5
:103910007F407E0D7D037C00900C0F120A9DC31228
:1039200009F07BFF401D7A5779257F01129624907C
:1039300009C7120A9D9009BF120A911208AAE47BD6
:1039400014801B7A57792A7F011296249009C71296
:103950000A9D9009BF120A911208AAE47B0AFAF99B
:10396000F81209439009C7120A9D12089D8006901B
:1039700009C7120A919009BB120AA99009BB120A41
:103980009102B008E49009BAF09009B8F09009B635
:10399000F09009B4F09009BBF09009B9F09009B724
:1039A000F09009B5F07F0112B600E4FB7A02EB70EB
:1039B00004AF028005C374139AFFA907E99028FC9D
:1039C0009390F1BBF090F1BCF090F1BDF090F1BE9E
:1039D000F012B7D07F017E0012AF627F0412A453B1
:1039E000E49009B3F09009B3E004F0C394324003CB
:1039F000023A857F017E0012AF62E4FF12A4E190DB
:103A000009BCEEF0A3EFF07F0112A4E19009BEEE35
:103A1000F0A3EFF07F0212A4E19009C0EEF0A3EF53
:103A2000F07F0312A4E19009C2EEF0A3EFF0783228
:103A3000E6FFC3940140109009BDE094109009BCCA
:103A4000E094804002803EEFC3940240109009BF92
:103A5000E094109009BEE09480400280287832E61D
:103A600064047081C39009C1E094109009C0E0948F
:103A7000805012C39009C3E094109009C2E0948072
:103A800050030239E57832E6FFC39401402874B44C
:103A90002BF582E43409F583E0701BD39009BDE077
:103AA00094029009BCE09480500C74B42BF582E42D
:103AB0003409F583E9F0EFC39402402874B62BF57E
:103AC00082E43409F583E0701BD39009BFE09402CF
:103AD0009009BEE09480500C74B62BF582E4340952
:103AE000F583E9F07832E6B4042874B82BF582E463
:103AF0003409F583E0701BD39009C1E0940290096A
:103B0000C0E09480500C74B82BF582E43409F5833E
:103B1000E9F07832E6FFB4042874BA2BF582E43475
:103B200009F583E0701BD39009C3E094029009C2A9
:103B3000E09480500C74BA2BF582E43409F583E9E3
:103B4000F0EFB4011274B42BF582E43409F583E08C
:103B5000D39400400280787832E6B4022274B42B09
:103B6000F582E43409F583E0D39400401274B62B57
:103B7000F582E43409F583E0D39400400280507864
:103B800032E66404704074B42BF582E43409F583A2
:103B9000E0D39400403074B62BF582E43409F58309
:103BA000E0D39400402074B82BF582E43409F58307
:103BB000E0D39400401074BA2BF582E43409F58305
:103BC000E0D3940050090AEA641260030239AEEBB4
:103BD0007006EAC3941250090BEB640260030239C9
:103BE000AC9007997408F0900798F0900797F090C0
:103BF0000796F07832E6147003023CA81460732430
:103C0000FE6003023CDE9009BAE0FFC39412502C20
:103C1000EF7004A3E060259009BAE0FFA3E0FEC3C3
:103C20009F400FEEFDEF2DFFE433A2E713EF13FFEC
:103C300080059009BAE0FF900799EFF09009B8E08D
:103C4000FFC39412502CEF7004A3E060259009B8D4
:103C5000E0FFA3E0FEC39F400FEEFDEF2DFFE43336
:103C6000A2E713EF13FF80059009B8E0FF900798D3
:103C7000EFF09009B6E0FFC39412502CEF7004A34C
:103C8000E060259009B6E0FFA3E0FEC39F400FEE81
:103C9000FDEF2DFFE433A2E713EF13FF800590093A
:103CA000B6E0FF900797EFF09009B4E0FFC39412DD
:103CB000502CEF7004A3E060259009B4E0FFA3E06E
:103CC000FEC39F400FEEFDEF2DFFE433A2E713EF9D
:103CD00013FF80059009B4E0FF900796EFF022ED06
:103CE000D39401400302402DEF120B0F3D8C003E98
:103CF0000E023D99033DC0043EF8063DCD073E1B34
:103D0000093E280A3E350B3FC90D3E5C0E3E690F49
:103D10003EAA103EB7113E76123E83133E90143EEB
:103D20009D153EC4163ED1173EEB183EDE193F05E9
:103D30001A3F121B3F1F1C3F2C1D3F391E3F461FC1
:103D40003F53203F60213F6D223F7A233F87243F2E
:103D500092253F9D263FA8273FEA283FBE29401DC8
:103D60002A400C2B3FFB2C3FB32D3FD42E3FDF2F9F
:103D70003DA6303DB3313DDA323DE7333E42343E7D
:103D80004F353DF4363E01370000402DED90D461B3
:103D9000B40103023FF1023FF6ED90D461B4010398
:103DA000024002024007ED90D461B40103024013C7
:103DB000024018ED90D461B401030240240240296E
:103DC000ED90D462B40103023FF1023FF6ED90D4CE
:103DD00062B40103024002024007ED90D462B401D4
:103DE00003024013024018ED90D462B40103024074
:103DF00024024029ED90D463B40103023FF1023F55
:103E0000F6ED90D463B40103024002024007ED9046
:103E1000D463B40103024013024018ED90D463B49C
:103E20000103024024024029ED90D464B40103024E
:103E30003FF1023FF6ED90D464B401030240020268
:103E40004007ED90D464B40103024013024018ED22
:103E500090D464B40103024024024029ED90D4655B
:103E6000B40103023FF1023FF6ED90D465B40103C3
:103E7000024002024007ED90D465B40103024013F2
:103E8000024018ED90D465B4010302402402402999
:103E9000ED90D466B40103023FF1023FF6ED90D4F9
:103EA00066B40103024002024007ED90D466B401FB
:103EB00003024013024018ED90D466B4010302409F
:103EC00024024029ED90D467B40103023FF1023F80
:103ED000F6ED90D467B40103024002024007ED9072
:103EE000D467B40103024013024018ED90D467B4C4
:103EF0000103024024024029ED90D468B40103027A
:103F00003FF1023FF6ED90D468B401030240020293
:103F10004007ED90D468B40103024013024018ED4D
:103F200090D468B40103024024024029ED90D46982
:103F3000B40103023FF1023FF6ED90D469B40103EE
:103F4000024002024007ED90D469B401030240131D
:103F5000024018ED90D469B40103024024024029C4
:103F6000ED90D46AB40103024002024007ED90D400
:103F70006AB40103024013024018ED90D46AB40100
:103F800003024024024029ED90D46BB40102806109
:103F90008064ED90D46BB401028067806AED90D4A8
:103FA0006BB40102806D8070ED90D46BB40102801F
:103FB000738076ED90D46CB4010280358038ED903A
:103FC000D46CB40102803B803EED90D46CB401020D
:103FD00080418044ED90D46DB4010280148017EDCF
:103FE00090D46DB40102801A801DED90D46FB4019D
:103FF00005E04440F022E054BFF022ED90D46FB4CD
:104000000105E04410F022E054EFF022ED90D46F6F
:10401000B40105E04404F022E054FBF022ED90D41A
:104020006FB40105E04401F022E054FEF022EDD32C
:104030009401400302437CEF120B0F40DB00415D13
:104040000240E803410F04424706411C07416A0948
:1040500041770A41840B43180D41AB0E41B80F4123
:10406000F91042061141C51241D21341DF1441EC4F
:1040700015421316422017423A18422D1942541A7B
:1040800042611B426E1C427B1D42881E42951F42AC
:10409000A22042AF2142BC2242C92342D62442E19F
:1040A0002542EC2642F727433928430D29436C2A41
:1040B000435B2B434A2C43022D43232E432E2F4098
:1040C000F530410231412932413633419134419E2C
:1040D000354143364150370000437CED90D461B404
:1040E0000103024340024345ED90D461B401030251
:1040F0004351024356ED90D461B40103024362027E
:104100004367ED90D461B40103024373024378ED39
:1041100090D462B40103024340024345ED90D4625F
:10412000B40103024351024356ED90D462B401033B
:10413000024362024367ED90D462B4010302437309
:10414000024378ED90D463B4010302434002434537
:10415000ED90D463B40103024351024356ED90D471
:1041600063B40103024362024367ED90D463B40178
:1041700003024373024378ED90D464B40103024315
:1041800040024345ED90D464B4010302435102431D
:1041900056ED90D464B40103024362024367ED908C
:1041A000D464B40103024373024378ED90D465B440
:1041B0000103024340024345ED90D465B40103027C
:1041C0004351024356ED90D465B4010302436202A9
:1041D0004367ED90D465B40103024373024378ED65
:1041E00090D466B40103024340024345ED90D46687
:1041F000B40103024351024356ED90D466B4010367
:10420000024362024367ED90D466B4010302437334
:10421000024378ED90D467B4010302434002434562
:10422000ED90D467B40103024351024356ED90D49C
:1042300067B40103024362024367ED90D467B4019F
:1042400003024373024378ED90D468B40103024340
:1042500040024345ED90D468B40103024351024348
:1042600056ED90D468B40103024362024367ED90B7
:10427000D468B40103024373024378ED90D469B467
:104280000103024340024345ED90D469B4010302A7
:104290004351024356ED90D469B4010302436202D4
:1042A0004367ED90D469B40103024373024378ED90
:1042B00090D46AB40103024351024356ED90D46A8C
:1042C000B40103024362024367ED90D46AB4010370
:1042D000024373024378ED90D46BB4010280618095
:1042E00064ED90D46BB401028067806AED90D46B6A
:1042F000B40102806D8070ED90D46BB401028073C4
:104300008076ED90D46CB4010280358038ED90D485
:104310006CB40102803B803EED90D46CB40102800D
:10432000418044ED90D46DB4010280148017ED906B
:10433000D46DB40102801A801DED90D46FB40105D4
:10434000E04480F022E0547FF022ED90D46FB4017D
:1043500005E04420F022E054DFF022ED90D46FB469
:104360000105E04408F022E054F7F022ED90D46F0C
:10437000B40105E04402F022E054FDF0229009B3BC
:10438000EFF0E4FBA3120AB500000000900CBAE0C5
:10439000120B0F43AF00440B0145680245BF0345B4
:1043A000FC04462D054658064665070000468D90DC
:1043B00009B3E0B4010790F21EE0547FF090F220C0
:1043C000E04410F090D340E030E21354FBF090F260
:1043D000837421F090F23EE04403F054FCF090D35B
:1043E000407460F090F263E054F7F090F23DE054D6
:1043F0003FF090E360E054DFF090F1B4E054FDF062
:104400004402F0900CBA740102465290F2E2E05479
:1044100030641060030245B7900CBBE004F0E06428
:104420000A600302468D90F263E054F8FFF090F2C8
:10443000F8E05470C4540F4F90F263F090F2F7E03C
:10444000547FFFE4FCFDFE9009B4120AA99009B460
:10445000120A917808120A149009B4120AA9900954
:10446000B4120A9D90F2F6E0FFE4FCFDFE12089DF6
:104470009009B4120AA99009B4120A917808120A94
:10448000149009B4120AA99009B4120A9D90F2F589
:10449000E0FFE4FCFDFE12089D9009B4120AA99009
:1044A00009B4120A917808120A149009B4120AA9E0
:1044B0009009B4120A9D90F2F4E0FFE4FCFDFE12B4
:1044C000089D9009B4120AA97BFF7A54794B900990
:1044D000B4120A91900ABF120AA9E4FF129624E4CA
:1044E000FB90F2F7E0547FFFD39450401AAB079053
:1044F00009B4120A917801120A019009B4120AA9AA
:1045000090D340E04404F09009B4120A9178181254
:104510000A0190F237EFF09009B4120A9178101264
:104520000A0190F23AEFF09009B4120A9178081259
:104530000A0190F23BEFF09009B4120A9190F23C1C
:10454000EFF090F263E04408F090F23DE044C0F0F8
:1045500090F23EE04403F054FCF0E4900CBBF09089
:104560000CBA7402F002468D90F2F7E0547F6B6053
:1045700046900CBBE004F0E0D3940A500302468D51
:1045800090E3607402F090E3617440F090E3627431
:1045900004F0E490E365F090E3687420F090D34079
:1045A000E04440F090D34274A8F0E490D34CF090F3
:1045B0000CBA7403024652E4900CBBF002468D9094
:1045C000E1307407F090E13DE054FDF090E360E0ED
:1045D00054DFF07F017E0012AF6290E13DE04402C3
:1045E000F090E1307477F090E360E04420F07F0ACF
:1045F0007E0012AF62900CBA7404805690E36CE0B7
:104600005403FFBF011490D340E054BFF0900CBAA4
:104610007405F0E4A3F0A3F08073E4900CBAF0A367
:10462000E004F0E0D394034064E4F0806090E36C35
:10463000E030E7599009B3E0B4010790F21EE0447E
:1046400080F07BFF7A54795DE4FF129624900CBAD7
:104650007406F0E4A3F08035E490F220F0900CBAF8
:104660007407F0802890F2F7E0547FD394505016EE
:10467000E4900CBAF0A3F0A3F07BFF7A54796AFFC0
:104680001296247F01227F017E0012AF627F027E9C
:104690000012AF627F00229009B8120AB500000034
:1046A000009009BC120AB5000000009009C0120A6F
:1046B000B5000000009009C4120AB500000000E433
:1046C0009009B4F090E5607453F07F0A7E0012AF59
:1046D0006290E568E0540FFFE4FCFDFE9009B8121B
:1046E0000AA99009B8120A917808120A149009B818
:1046F000120AA99009B8120A9D90E569E0FFE4FC4E
:10470000FDFE1209D59009B8120AA99009B8120A3B
:10471000917808120A149009B8120AA99009B812DF
:104720000A9D90E56AE0FFE4FCFDFE1209D59009C0
:10473000B8120AA99009B8120A919009BC120A9DF0
:10474000C31209F06020E4FFFEFDFC9009B8120AD4
:104750009DC31209F0600F9009B8120A919009BC2C
:10476000120AA90246CA12691E9009C4120AA9E4D3
:104770007F02FEFDFC9009C4120A9D1208B8900940
:10478000C0120AA97BFF7A32799B9009B8120A916C
:10479000900ABF120AA97F011296247BFF7A327910
:1047A000B69009C4120A91900ABF120AA97F011299
:1047B00096249009C4120A919009B8120A9DD31246
:1047C00009F090D408E04008543FF04430F08006EF
:1047D000545FF04450F090D3727448F090D37374E7
:1047E00020F0E490D375F090D37DF0FF7E9F7D2480
:1047F000FC9009C0120A9DD31209F040189009C01C
:10480000120A917801120A019009C0120AA990D3E4
:1048100072E04401F07F807E4F7D127C009009C0E1
:10482000120A9DD31209F040147FE87E0312AF6292
:104830007BFF7A3279D17F0112962480ECE49009D3
:10484000B6F09009B5F07F807E4F7D127C00900914
:10485000C0120A9DC31209F050219009B6E004F07D
:104860009009C0120A917801120A149009C0120A24
:10487000A99009B5E004F0E0B404CB90D375E0FF53
:104880009009B6E0C454F0FEEF4E90D375F07F80EF
:104890007E4F7D127C009009C0120A9DC31209F060
:1048A000501E90D372E04401F09009B6E004F0E4A9
:1048B00090D375F09009B6E0FFC454F090D375F032
:1048C000E47BA87A61F9F89009C0120A91120943B1
:1048D0009009B7EFF0E47BA87A61F9F89009C0126B
:1048E0000A91120943AC00AD01AE02AF03E4FBFA3A
:1048F000F9F8C31209F060069009B7E004F07BFFF5
:104900007A3279F59009B7E0900ABFF07F011296EC
:10491000249009B7E0448090D37CF0E490E3C8F0A1
:1049200090E3C27404F090D3707440F090E3C074CC
:1049300041F07F017E0012AF627461F09009B4E033
:1049400004F07F647E0012AF627BFF7A33790A90B5
:10495000E3D4E0900ABFF090E3D5E0900AC0F07F86
:10496000011296249009B4E0C3940A500790E3CC56
:10497000E030E0B87F0A7E0012AF62E490D370F0BE
:104980007F0AFE12AF6290E3CCE07BFF7A33792599
:10499000900ABFF07F010296249009B1EFF07F01E9
:1049A00012B5D012B5E0783DE6FF640F7003024CFB
:1049B0005390F103EFF0783EE690F104F008E690B2
:1049C000F105F0E47813F69009B1E0FF7813E6FE04
:1049D000C39F5024EE601390F105E0B4FF0690F100
:1049E00004E004F090F105E004F074402EF8E69045
:1049F000F153F078130680CF783DE66003024B7CDC
:104A000008E664016003024B7C7812F6783FE612F8
:104A10000B0F4A3D004A53014A69024A82034A98F1
:104A2000044AAE054AC4064ADA074AF0084B140B9A
:104A30004B2F0C4B4A0D4B650E00004C537812E681
:104A4000FF12AE8E9009B1E0FF781206E66F700398
:104A5000024C537812E6FF12B7209009B1E0FF78BC
:104A60001206E66F7003024C5312B7087812E6FF85
:104A700012985E9009B1E0FF781206E66F700302AB
:104A80004C537812E6FF12A73D9009B1E0FF78126F
:104A900006E66F7003024C537812E6FF12B069907D
:104AA00009B1E0FF781206E66F7003024C537812EA
:104AB000E6FF12B0899009B1E0FF781206E66F7048
:104AC00003024C537812E6FF12B0A99009B1E0FF3F
:104AD000781206E66F7003024C537812E6FF12B0AC
:104AE000C99009B1E0FF781206E66F7003024C53DB
:104AF0007812E62440F8E6700C90F1057408F09006
:104B0000F1537401F09009B1E0FF781206E66F707E
:104B100003024C53783CE654B0FFBF800312AF84CD
:104B20009009B1E0FF781206E66F7003024C5378EB
:104B30003CE654B0FFBF900312AF849009B1E0FF90
:104B4000781206E66F7003024C53783CE654B0FFCF
:104B5000BFA00312AF849009B1E0FF781206E66FA0
:104B60007003024C53783CE654B0FFBFB00312AF61
:104B7000849009B1E0FF781206E66F22783DE67076
:104B80003608E6640270307812F6783FE614601555
:104B9000046003024C539009B1E0FF781206E66FFF
:104BA0007003024C537812E6FF12B6A59009B1E0EB
:104BB000FF781206E66F22783DE6FF701C08E6B427
:104BC0000317E47812F6783FE66003024C5390092D
:104BD000B1E0FE781206E66E22EF7010783EE6B481
:104BE000060A08E6700608E6FF02A95F783DE6704F
:104BF0001008E6B4020B08E6B4700608E6783CF646
:104C000022783DE6FFB4060C08E6B4900708E6708B
:104C10000302B862EF6406703A783EE6649470333B
:104C200008E66494702D08E66401702712B2A29021
:104C3000F1047493F090F105742FF090F154E0308A
:104C4000E00554FEFF800790F154E04401FF90F12D
:104C500053EFF0229009DAEFF0900CD2E0D39401F8
:104C6000900CD6E0FE400CA3E0F5828E83E0440475
:104C7000F0800AA3E0F5828E83E054FBF0900CD321
:104C8000E0900CE0B4010EE0FEA3E0F5828E83E03C
:104C90004404F0800CE0FEA3E0F5828E83E054FB38
:104CA000F0900CD4E0900CE0B4010EE0FEA3E0F52F
:104CB000828E83E04408F0800CE0FEA3E0F5828E53
:104CC00083E054F7F09009DAE0FF7051900CD0E0E7
:104CD00014601E14602A14602924FD6003024EBF74
:104CE000900CDEE0FCA3E0F5828C837480F0024E31
:104CF000BF900CDCE0FCA3E0F5828C837404800F91
:104D0000800E900CDCE0FCA3E0F5828C837444F010
:104D1000900CD5E04411FE900CDE024E21EF6406AB
:104D2000705B900CD0E014601E14602A146029247B
:104D3000036003024EBF900CD8E0FEA3E0F5828E24
:104D40008374C0F0024EBF900CDCE0FEA3E0F5825D
:104D50008E837404800F800E900CDCE0FEA3E0F5DF
:104D6000828E837444F0900CD5E04410FF900CDEEA
:104D7000E0FCA3E0F5828C83EFF0024EBF9009DAED
:104D8000E0FF64016005EF64077061900CD0E024DF
:104D9000FE602914602B24FD600C24067031900CF9
:104DA000D5E044118006900CD5E04410FF900CD85B
:104DB000E0FCA3E0F5828C83EFF08000900CDA80B9
:104DC00003900CDCE0FEA3E0F5828E837440F0904B
:104DD00009DAE064076003024EBF900CDEE0FEA338
:104DE000E0F5828E83E04480F0024EBF9009DAE065
:104DF000FF64027053900CD0E014603224FE603BDC
:104E000024FD601324066003024EBF900CD5E044DD
:104E100011FE900CD8800A900CD5E04410FE900C46
:104E2000D8E0FCA3E0F5828C83EEF0024EBF900C3C
:104E3000DCE0FCA3E0F5828C838071900CDCE0FC6C
:104E4000A3E0F5828C838074EF64037072900CD0C1
:104E5000E014604D14605A24FC60252406706090B4
:104E60000CD5E04411FF900CD8E0FCA3E0F5828C57
:104E700083EFF0900CDAE0FEA3E0F5828E83803CB5
:104E8000900CD5E04410FF900CD8E0FCA3E0F58234
:104E90008C83EFF0900CDAE0FEA3E0F5828E838045
:104EA0001B900CDAE0FEA3E0F5828E837404F080A0
:104EB0000E900CDAE0FEA3E0F5828E837444F0904D
:104EC0000CD1E07BFF70067AB1790780047AB17962
:104ED00016900CD0E0900ABFF09009DAE0900AC07A
:104EE000F07F0112962422A907ED24F6600C24F627
:104EF000600C24F6600C24187008E4FF80067F0123
:104F000080027F02E91470030250450460030251DD
:104F100078EF75F01CA424F6F582E43455F583E4AB
:104F200074019390D16EF0EF75F01CA424F8F58213
:104F3000E43455F583E474019390D16FF0EF75F08C
:104F40001CA424FAF582E43455F583E474019390AB
:104F5000D170F0EF75F01CA424FCF582E43455F513
:104F600083E474019390D171F0EF75F01CA424FEDA
:104F7000F582E43455F583E474019390D172F0EF37
:104F800075F01CA42400F582E43456F583E4740122
:104F90009390D173F0EF75F01CA42402F582E434F1
:104FA00056F583E474019390D174F0EF75F01CA46E
:104FB0002404F582E43456F583E474019390D175AA
:104FC000F0EF75F01CA42406F582E43456F583E472
:104FD00074019390D176F0EF75F01CA42408F5824B
:104FE000E43456F583E474019390D177F0EF75F0D3
:104FF0001CA4240AF582E43456F583E474019390EA
:10500000D178F0EF75F01CA4240CF582E43456F549
:1050100083E474019390D179F0EF75F01CA4240E11
:10502000F582E43456F583E474019390D190F0EF67
:1050300075F01CA42410F582E43456F583740193B2
:1050400090D191F022EF75F01CA424F6F582E4349F
:1050500055F583E474019390D19EF0EF75F01CA494
:1050600024F8F582E43455F583E474019390D19FDC
:10507000F0EF75F01CA424FAF582E43455F583E4CE
:1050800074019390D1A0F0EF75F01CA424FCF5827C
:10509000E43455F583E474019390D1A1F0EF75F0F9
:1050A0001CA424FEF582E43455F583E47401939046
:1050B000D1A2F0EF75F01CA42400F582E43456F57B
:1050C00083E474019390D1A3F0EF75F01CA4240243
:1050D000F582E43456F583E474019390D1A4F0EFA3
:1050E00075F01CA42404F582E43456F583E47401BD
:1050F0009390D1A5F0EF75F01CA42406F582E4345A
:1051000056F583E474019390D1A6F0EF75F01CA4DA
:105110002408F582E43456F583E474019390D1A712
:10512000F0EF75F01CA4240AF582E43456F583E40C
:1051300074019390D1A8F0EF75F01CA4240CF582B3
:10514000E43456F583E474019390D1A9F0EF75F03F
:105150001CA4240EF582E43456F583E47401939084
:10516000D1C0F0EF75F01CA42410F582E43456F59C
:105170008374019390D1C1F022EF75F008A424BF8D
:10518000F582E434A4F583E49390D202F0EF75F055
:1051900008A424C0F582E434A4F583E49390D203F8
:1051A000F0EF75F008A424C1F582E434A4F583E49B
:1051B0009390D207F0EF75F008A424C2F582E4348E
:1051C000A4F583E49390D208F0EF75F008A424C30B
:1051D000F582E434A4F583E49390D209F0EF75F0FE
:1051E00008A424C4F582E434A4F583E49390D20A9D
:1051F000F0EF75F008A424C5F582E434A4F583E447
:105200009390D212F0EF75F008A424C6F582E4342E
:10521000A4F583E49390D213F0ED75F008A424BFB5
:10522000F582E434A4F583E49390D217F0ED75F0A1
:1052300008A424C0F582E434A4F583E49390D21842
:10524000F0ED75F008A424C1F582E434A4F583E4FC
:105250009390D21CF0ED75F008A424C2F582E434DA
:10526000A4F583E49390D21DF0ED75F008A424C357
:10527000F582E434A4F583E49390D21EF0ED75F04A
:1052800008A424C4F582E434A4F583E49390D21FE7
:10529000F0ED75F008A424C5F582E434A4F583E4A8
:1052A0009390D227F0ED75F008A424C6F582E4347B
:1052B000A4F583E49390D228F0EB75F008A424BF02
:1052C000F582E434A4F583E49390D22CF0EB75F0EE
:1052D00008A424C0F582E434A4F583E49390D22D8D
:1052E000F0EB75F008A424C1F582E434A4F583E45E
:1052F0009390D231F0EB75F008A424C2F582E43427
:10530000A4F583E49390D232F0EB75F008A424C3A3
:10531000F582E434A4F583E49390D233F0EB75F096
:1053200008A424C4F582E434A4F583E49390D23431
:10533000F0EB75F008A424C5F582E434A4F583E409
:105340009390D23CF0EB75F008A424C6F582E434C7
:10535000A4F583E49390D23DF09009B6E0FF75F098
:1053600008A424BFF582E434A4F583E49390D241E9
:10537000F0EF75F008A424C0F582E434A4F583E4CA
:105380009390D242F09009B6E075F008A424C1F5DC
:1053900082E434A4F583E49390D246F0EF75F008EC
:1053A000A424C2F582E434A4F583E49390D247F0B8
:1053B0009009B6E075F008A424C3F582E434A4F59E
:1053C00083E49390D248F0EF75F008A424C4F582EA
:1053D000E434A4F583E49390D249F09009B6E075E3
:1053E000F008A424C5F582E434A4F583E49390D2B4
:1053F00051F0EF75F008A424C6F582E434A4F583D7
:10540000E49390D252F0220A2044485258305F521E
:105410005445524D5F43414C495F4641494C210040
:105420000A2044485258315F525445524D5F43411F
:105430004C495F4641494C21000A5278706C6C20FF
:1054400043616E2774206C6F636B000A204D4B76AE
:10545000616C7565203D203078256C78000A5063BA
:1054600072706C6C206C6F636B000A506372204D1D
:10547000203C2030783530000A4D564944302061B8
:105480006E64204D56494431203D2030782530321D
:1054900062782C307825303262782C3078253032A2
:1054A00062782C307825303262782C307825303292
:1054B00062782C30782530326278000A4D564944A3
:1054C0003220616E64204D56494433203D203078AF
:1054D00025303262782C307825303262782C307862
:1054E00025303262782C307825303262782C307852
:1054F00025303262782C30782530326278000A4DBF
:105500005341203D20307825303262782C30782588
:10551000303262782C307825303262782C30782521
:10552000303262782C000A4D4953433031203D20FF
:10553000307825303262782C307825303262782C01
:10554000000A4175642025626463683B000A2F2FBE
:105550002F2F2F2F2F2F2F2F2F2F2F2F2F2F2F2F5B
:10556000000A4450525820505053207461626C65B8
:105570003A000A30782562782C30782562782C3011
:10558000782562782C3078256278000A6270632F63
:10559000627070203D202562642C2564000A7069C9
:1055A000637769647468203D202564000A736C6920
:1055B00063652077696474682F6368756E6B207308
:1055C000697A65203D2025642C2564000A736C6986
:1055D00063655F6E756D626572203D2025626400B3
:1055E0000A4368756E6B2053697A65206D6F643667
:1055F000203D202578000066006600AA006600664F
:1056000000AA0066006600AA0066006600AA002CD8
:1056100000FF0088008800AA0088008800AA00888F
:10562000008800AA0088008800AA007700AA0077F6
:10563000007700FF00AA00AA005500AA00AA00FFF8
:1056400000AA00AA0055008800AA0A2D2D547853FC
:1056500074617465203D20256264000A4D495049FB
:1056600020496E434C6B203D20256C756B687A0099
:105670000A256C7520496E6372653B000A4D4950DE
:105680004954585B485D3A25642C25642C25642CCC
:1056900025642C25642C256264000A4D4950495428
:1056A000585B565D3A25642C25642C25642C2564B2
:1056B0002C25642C256264000A42797465436C6B66
:1056C000203D2025754D687A000A25626420706FA0
:1056D0007274000A256264206C616E65000A445091
:1056E00048593B000A4453493B000A7264646C7990
:1056F0005F6D617820697320256C753B000A7264C8
:10570000646C795F6D696E3120697320256C753B1F
:10571000000A7264646C795F6D696E32206973206F
:10572000256C753B000A2F3230000A2F3130000AF9
:10573000204D49504920656E61626C65643B000AEA
:10574000204D4950492064697361626C65643B0077
:105750004463732052656164203D207B0A003078E9
:1057600025303262782C007D0A000A205458504CB3
:105770004C20756E6C6F636B3B000A5478706C6CD8
:10578000206C6F636B3B000511000529001536C6C0
:105790002980400080E77B00000023660729B620AF
:1057A0006B0006338A001A7A29B75400000029B921
:1057B0000039026F29C03A86BC0208700AF029F14C
:1057C0001E29C67008D002216F085A000000000090
:1057D00000000029CD0029CF8B00804661008B2975
:1057E000EC049700000029E6110000891080087081
:1057F00008700008021C021C0200020E002000BB00
:105800000007000C0DB70CB7180010F0030C2000B7
:10581000060B0B330E1C2A38465462697077797B6D
:105820007D7E01020100094009BE19FC19FA19F830
:105830001A381A781AB62AF62B342B743B746BF488
:105840000000000000003903013944000015350054
:10585000153600153A7705290005110029D680294B
:10586000B003000000000000000000000000000085
:105870000000000000000000000000000000000028
:10588000900AD4120B06E4900ADFF0A3F0A3F0A371
:10589000F078E37C0A7D017BFF7AB879AFFE7F4127
:1058A00012069EE4900ADDF0900ADDE0FFC394400A
:1058B0005021900AD4120AE68F827583001206DD09
:1058C0006009900ADDE004900AE1F0900ADDE0044E
:1058D000F080D5E4900ADDF0900ADDE0FFC394404B
:1058E0005021900AD7120AE68F827583001206DDD6
:1058F0006009900ADDE004900AE2F0900ADDE0041D
:10590000F080D5900AE2E0FF900AE1E0FED39F909C
:105910000ADF4004EEF08002EFF0E4900ADDF09040
:105920000ADFE0FF900ADDE0FEC39F40030259FC5E
:10593000900AD7120AE68E827583001206DDFF9068
:105940000AD4120AE68E827583001206DDFEC39F1A
:105950004015EE9FFF900ADDE024E3F582E4340A6F
:10596000F583EFF00259F3900ADDE0FFF5827583CD
:10597000001206DD240AFE900AD7120AE68F82750D
:1059800083001206DDFFC3EE9FFF900ADDE024E3F3
:10599000F582E4340AF583EFF0900ADE7401F090AA
:1059A0000ADDE0FF900ADFE0C39FFE900ADEE0FD23
:1059B000C39E503FEF2DFFE433FE900AD4120AE657
:1059C0008F828E831206DD600B8F828E8374FF12AE
:1059D000070A801F900ADEE0FF900ADDE0FDEF2D50
:1059E000F582E433F583740912074F900ADEE00470
:1059F000F080AC900ADDE004F002591F900ADDE06F
:105A000024E2F582E4340AF583E0700C900ADFE0CA
:105A100014F0900ADDE014F0900ADFE014900ADD43
:105A2000F0900ADDE0FFD39400401B74E32FF58271
:105A3000E4340AF583E0700E900ADFE014F0900A77
:105A4000DDE014F080DB900ADFE0A3F0E4900ADDF3
:105A5000F0900ADDE0FFC394405017900ADA120A72
:105A6000E68F82758300E412074F900ADDE004F0B0
:105A700080DFE4900ADDF0900AE0E0FF900ADDE0CC
:105A8000FEC39F502374E32EF582E4340AF583E0CD
:105A9000FD900ADA120AE68E82758300ED12074F36
:105AA000900ADDE004F080CF2290F3ECE030E64D88
:105AB00090F3A9E06407704590F3AAE06405703D97
:105AC00090F3ABE06413703590F3BCE054F0D394E2
:105AD00030502AE0FDC4540F900572F0ED540FA32E
