:10000000029ADF02A028759100322202AF867F019A
:10001000222222029BF512C38890079EE0B50703B7
:100020007F002290079EEFF07F012202ADBD900B72
:1000300073E0B4020D12BBEBEF7007FF12C5111293
:10004000B2182202000602019AEC5D046005E8592C
:1000500004700302019012015B580460F6EC4860E2
:10006000F2EC7004FDFEFF22C860DB2481C8500959
:10007000C398600250060201979850CAF582E92998
:100080004B4A7005AB8202018675F0007C1A7880BD
:10009000C3EF9BEE9AED99400DC3EF9BFFEE9AFEE6
:1000A000ED99FDE842F0DC23ACF0D0E0FFD0E0FEBB
:1000B000D0E0FDAB8220E7101BEB60BAEC2CFCEF2C
:1000C00033FFEE33FEED33FD020172E803F830E753
:1000D00005C0F075F000EF2FFFEE33FEED33FD406D
:1000E000B830E7C280AA75F020800E75F010800548
:1000F00075F0087D007E007F003392D530D5031265
:1001000009E2EC334010EF33FFEE33FEED33FDEC4C
:1001100033FCD5F0ED22E5F0247EA2D513CC92E796
:10012000CDCEFF22EDD2E7CD33EC3392D524814002
:1001300006E4FFFEFDFC22FCE4CFCECDCC24E05053
:100140001174FF80EDC3CC13CCCD13CDCE13CECF25
:1001500013CF0470F030D5DE0209E2E9D2E7C933EB
:10016000E833F892D5EDD2E7CD33EC33FC5002B250
:10017000D522EC30E7100FBF000C0EBE00080DBDFD
:1001800000040BEB6014A2D5EB13FCED92E7FD220B
:1001900074FFFCFDFEFF22E480F8A2D574FF13FC7F
:1001A0007D80E480EF020190E86480F8E933E83371
:1001B00060110460F0ED33EC337009E8FCE9FDEA0E
:1001C000FEEBFF220460DED3EB9FEA9EE99DE8C2CE
:1001D000E78CF0C2F795F0400CE8CCF8E9CDF9EAED
:1001E000CEFAEBCFFB12015B85D0F05804700320F0
:1001F000D5B3E80470075002B2D502019A92D5EC4B
:100200000460F7E4CCC0E0C398F8603B9418600841
:10021000400DD0E0FB020172E4FBFAC9FC8028E843
:1002200030E406E4C9FBE4CAFCE830E305E4C9CAEB
:10023000CBFCE854076010F8C3E913F9EA13FAEBB2
:1002400013FBEC13FCD8F130F52FC3E49CFCEF9BBF
:10025000FFEE9AFEED99FDD0E0FBEF4E4D4C701293
:1002600022DB03020197EC2CFCEF33FFEE33FEEDB3
:1002700033FDED30E7EB020172EF2BFFEE3AFEEDBE
:1002800039FDD0E0FB50130BBB000302019AED13C4
:10029000FDEE13FEEF13FFEC13FC02017274F8CCB9
:1002A0006480CCC86480C8F58204604FC3EB9FF5BE
:1002B000F0EA9E42F0E99D42F0E89C45F0603C5037
:1002C0001DE5825FFFE582D313CB5BCBF42B558218
:1002D000FB50280ABA002409B9002008801DE582D5
:1002E0005BFBE582D313CF5FCFF4C3132F5582FF9F
:1002F00050090EBE00050DBD00010CC3EB9FF5F0CB
:10030000EA9E42F0E99D42F0E89C45F06007CC4847
:1003100020E701B3EC22F920E73624F950037907EE
:10032000E4F42402FBE582158270021583DBF6E01B
:1003300024FB501BE96014E4F0E58215827002157D
:1003400083E004F0B40A08E4F0D9EE7401F00A2264
:10035000C2D522ED33EC3392D5FA602AB4FF33EDE7
:10036000C2E77BFF60067A037978E4227A03798119
:1003700020D5047A03797C224E614E002B494E46EB
:10038000002D494E4600E47A08F0A3DAFC7B0074A5
:100390000722C083C082ECC0E0EDC0E0EEC0E0EF19
:1003A000C0E0EA75F010A4CAABF075F04DA42BFBC9
:1003B000E435F0FCEA2410FAEB34C5FBEC34D9FC4C
:1003C000EDC2E7FF75F056A4F42411C5F0F434C56E
:1003D0008FF0A42AE5F03BE43CF020E71412058EF0
:1003E000D0E0FFD0E0FED0E0FDD0E0FC120049807C
:1003F00014F40412058ED0E0FFD0E0FED0E0FDD072
:10040000E0FC120458D082D083E0FAEDD2E7CD337D
:10041000EC332482FBE4C3CF33CFCE33CECD33CD08
:1004200033DBF37B0775F00A846004F0A31B0AE555
:10043000F0F0A38FF0740AA4FFACF08EF0740AA45D
:100440002CFEACF050010C8DF0740AA42CFDE435A8
:10045000F0F0A3DBDE740722EC4D6011E849701761
:10046000ED33EC3304600DE4FCFFFEFD22E933E8DC
:10047000330470F802019012015B58046009E4CC67
:100480002481500628500902019A2840030201974E
:10049000C0E0EB4A7044B98006D0E0FB020186EF71
:1004A0004E701CBD8008EBFFEAFEE9FD80EBE98D94
:1004B000F0A4FEE5F0020541E9CDF9EAFEEBFFEF1D
:1004C00089F0A4FCE5F0CE89F0A42EFFE435F0CD50
:1004D00089F0A42DFEE435F08067EF4E7005BD80F5
:1004E000D780C3EF8BF0A4ACF0EE8BF0A42CFCE42F
:1004F00035F0F8EF8AF0A42CE5F038FCE433CB8D2E
:10050000F0A42CFCE5F03BF8EE8AF0A42CFCE5F01E
:1005100038F8E433CF89F0A42CFCE5F038CF340070
:10052000CE89F0A42FFFE5F03EFEE433C98DF0A4A0
:100530002EFEE5F039CD8AF0A42FFFE5F03EFEE473
:100540003DFD33D0E0FB50070BBB000F02019AECDE
:100550002CFCEF33FFEE33FEED33FD0201723F80E2
:1005600000004120000042C80000447A0000461C00
:10057000400047C35000497424004B1896804CBE7D
:10058000BC205A0E1BCA6753C21C749DC5AEFB60CB
:10059000065407601C23231205BCEB543860091273
:1005A00005A81205B7120458ECF8EDF9EEFAEFCBF6
:1005B00022EB1205B780F1543803241C90055EFE2F
:1005C00093FC0EEE93FD0EEE930ECE93FF22E70901
:1005D000F608DFFA8046E709F208DFFA803E8882F3
:1005E0008C83E709F0A3DFFA8032E309F608DFFA2B
:1005F0008078E309F208DFFA807088828C83E3094F
:10060000F0A3DFFA806489828A83E0A3F608DFFA28
:10061000805889828A83E0A3F208DFFA804C80D276
:1006200080FA80C680D4806980F28033801080A6F2
:1006300080EA809A80A880DA80E280CA803389824A
:100640008A83ECFAE493A3C8C582C8CCC583CCF0F6
:10065000A3C8C582C8CCC583CCDFE9DEE7800D899D
:10066000828A83E493A3F608DFF9ECFAA9F0EDFBA4
:100670002289828A83ECFAE0A3C8C582C8CCC583EC
:10068000CCF0A3C8C582C8CCC583CCDFEADEE88045
:10069000DB89828A83E493A3F208DFF980CC88F0B7
:1006A000EF60010E4E60C388F0ED2402B4040050E8
:1006B000B9F582EB2402B4040050AF232345822312
:1006C00090061E73BB010689828A83E0225002E7EE
:1006D00022BBFE02E32289828A83E49322BB010CBF
:1006E000E58229F582E5833AF583E0225006E92583
:1006F00082F8E622BBFE06E92582F8E222E582299D
:10070000F582E5833AF583E49322BB010FF8E58295
:1007100029F582E5833AF583E028F0225009C58265
:1007200029F8E58226F622BBFE09C58229F8E225D2
:1007300082F222F8EA2583F583E9932822BB010699
:1007400089828A83F0225002F722BBFE01F322F84D
:10075000BB010DE58229F582E5833AF583E8F022B5
:100760005006E92582C8F622BBFE05E92582C8F2BB
:1007700022EF8DF0A4A8F0CF8CF0A428CE8DF0A4A9
:100780002EFE22BC000BBE0029EF8DF084FFADF0E1
:1007900022E4CCF875F008EF2FFFEE33FEEC33FCCB
:1007A000EE9DEC984005FCEE9DFE0FD5F0E9E4CE01
:1007B000FD22EDF8F5F0EE8420D21CFEADF075F0D0
:1007C00008EF2FFFED33FD4007985006D5F0F222D9
:1007D000C398FD0FD5F0EA22C5F0F8A3E028F0C5D4
:1007E000F0F8E582158270021583E038F022BB0133
:1007F0000A89828A83E0F5F0A3E022500687F00997
:10080000E71922BBFE07E3F5F009E3192289828A82
:1008100083E493F5F074019322BB0110E58229F57E
:1008200082E5833AF583E0F5F0A3E0225009E9255B
:1008300082F886F008E622BBFE0AE92582F8E2F596
:10084000F008E222E5832AF583E993F5F0A3E99322
:1008500022BB010A89828A83F0E5F0A3F0225006C8
:10086000F709A7F01922BBFE06F3E5F009F31922F8
:10087000F8BB0111E58229F582E5833AF583E8F0BA
:10088000E5F0A3F0225009E92582C8F608A6F02277
:10089000BBFE09E92582C8F2E5F008F222EF2BFF42
:1008A000EE3AFEED39FDEC38FC22C3EF9BFFEE9AE9
:1008B000FEED99FDEC98FC22E88FF0A4CC8BF0A41F
:1008C0002CFCE98EF0A42CFC8AF0EDA42CFCEA8E22
:1008D000F0A4CDA8F08BF0A42DCC3825F0FDE98F45
:1008E000F0A42CCD35F0FCEB8EF0A4FEA9F0EB8F3C
:1008F000F0A4CFC5F02ECD39FEE43CFCEAA42DCE09
:1009000035F0FDE43CFC2275F008758200EF2FFF06
:10091000EE33FECD33CDCC33CCC58233C5829BEDD7
:100920009AEC99E58298400CF582EE9BFEED9AFDDB
:10093000EC99FC0FD5F0D6E4CEFBE4CDFAE4CCF98B
:10094000A88222B800C1B90059BA002DEC8BF084FE
:10095000CFCECDFCE5F0CBF97818EF2FFFEE33FECC
:10096000ED33FDEC33FCEB33FB10D703994004EB84
:1009700099FB0FD8E5E4F9FA227818EF2FFFEE3350
:10098000FEED33FDEC33FCC933C910D7059BE99A62
:100990004007EC9BFCE99AF90FD8E0E4C9FAE4CCF3
:1009A000FB2275F010EF2FFFEE33FEED33FDCC335D
:1009B000CCC833C810D7079BEC9AE899400AED9B46
:1009C000FDEC9AFCE899F80FD5F0DAE4CDFBE4CC25
:1009D000FAE4C8F922EF4BFFEE4AFEED49FDEC4880
:1009E000FC22C3E49FFFE49EFEE49DFDE49CFC2208
:1009F000EB9FF5F0EA9E42F0E99D42F0E89C45F05D
:100A000022E8600FECC313FCED13FDEE13FEEF13B1
:100A1000FFD8F122E8600FEFC333FFEE33FEED3372
:100A2000FDEC33FCD8F122BB010789828A83020ADC
:100A3000915005E9F8020B8EBBFE05E9F8020B9A0E
:100A400089828A83020BA6BB010DE58229F582E526
:100A5000833AF583020A915007E92582F8020B8E4A
:100A6000BBFE07E92582F8020B9AE58229F582E5AB
:100A7000833AF583020BA6BB010789828A83020AA7
:100A8000A95005E9F8020BB6BBFE05E9F8020BC256
:100A900022E0FCA3E0FDA3E0FEA3E0FF22E0F8A338
:100AA000E0F9A3E0FAA3E0FB22ECF0A3EDF0A3EE63
:100AB000F0A3EFF022A8828583F0D083D082120ABF
:100AC000CC120ACC120ACC120ACCE473E493A3C56C
:100AD00083C5F0C583C8C582C8F0A3C583C5F0C56A
:100AE00083C8C582C822E0FBA3E0FAA3E0F922F89C
:100AF000E0FBA3A3E0F925F0F0E582158270021572
:100B000083E0FA38F022EBF0A3EAF0A3E9F022D078
:100B100083D082F8E4937012740193700DA3A393B1
:100B2000F8740193F5828883E4737402936860EF2C
:100B3000A3A3A380DFEC8EF0A4CCC5F0CCCDF8EF5E
:100B4000A4CEC5F02DFDE43CFCE8A42EC8C5F03DC4
:100B5000FDE43CFCEFA4FFE5F028FEE43DFDE43CB1
:100B6000FC22EF4E6012EF60010EEDBB010B89829B
:100B70008A83F0A3DFFCDEFA2289F05007F709DF51
:100B8000FCA9F022BBFEFCF309DFFCA9F022E6FC85
:100B900008E6FD08E6FE08E6FF22E2FC08E2FD08A2
:100BA000E2FE08E2FF22E493FC740193FD740293D9
:100BB000FE740393FF22ECF608EDF608EEF608EF5C
:100BC000F622ECF208EDF208EEF208EFF222410D07
:100BD0004100440D3D000000005E0CEB411100009F
:100BE0000000000000000000000000000000000005
:100BF00000000000000000000000420CE400004281
:100C00000CE70000420D140000410CE6C44A0D0937
:100C100000410073049800BE04FC410D1300620003
:100C2000059100FFFFFFFFFFFF001E6D01000101A6
:100C30000101011E010380A05A780AEE91A3544CD1
:100C400099260F5054A10800314045406140714041
:100C50008180D1C00101010108E80030F2705A80A2
:100C6000B0588A0040846300001E6FC200A0A0A09C
:100C700055503020350040846300001E000000FD08
:100C80000018781EFF77000A202020202020000076
:100C900000FC004C472054562053534352320A2044
:100CA00001ED020368F15E616076756665DBDA105E
:100CB0001FC7C6C4C3C2041303122022015D5E5FB6
:100CC0006263643F402C09570715075057070167B7
:100CD00004036E030C003000B83C240080010203C2
:100CE000046DD85DC401788053020000C3340BE268
:100CF00000CFE305C000E3060D01E30FFF7CEB012D
:100D000046D00048039A8070855F00000000000014
:100D100000000000000000000000000000000000D3
:100D2000009900000000000000000000000000002A
:100D300000000000000000000000000000000000B3
:100D400000000000000000000000000000000000A3
:100D50000000000000000000000000000000000093
:100D60000000000000000000000000000000000083
:100D70000000000000000000000000000000000073
:100D80000000000000000000000000000000000063
:100D90000000000000000000000000000000000053
:100DA0000000000000000000000000000000000043
:100DB0000000000000000000000000000000000033
:100DC0000000000000000000000000000000000023
:100DD0000000000000000000000000000000000013
:100DE0000000000000000000000000000000000003
:100DF00000000000000000000000000000000000F3
:100E000000000000000000000000000000000000E2
:100E100000000000000000000000000000000000D2
:100E2000000044057F000000004105830044058563
:100E3000000000004105890041058A00440DCE00F4
:100E4000000000440DF9000000005A0D6200024449
:100E500014089807800058002C009404650438009A
:100E600004000500240101560B884F52418000FF09
:100E70007E05006C00000000010003207B00005193
:100E8000410A7A00560B2B4F54418000FF000000AE
:100E90006C0000000000000000080000005E09C8AF
:100EA00081FB18800000000000000000010100002C
:100EB00000000000000000000001000B00004109DC
:100EC000A3004109A4004409A5000000004209A9AB
:100ED00000644109AB004109AC004409AD000000C9
:100EE000004109B1004409B2000000004109B60008
:100EF0004109B7004409B8000000004109BD0041A4
:100F000009BE004409BF000000004109C3004409B4
:100F1000C400000000410E2700410E0D00420E0EDD
:100F20000000410E1000420E110000420E1300009E
:100F3000420E160000410E1A00410000004100015F
:100F4000004100020041000300410004004200058E
:100F500000004200070000420009000042000B00B0
:100F60000042000D000042000F00004A0011000086
:100F7000000000000000000041001B0044001C00B5
:100F800000000041002000410E4401410E43004199
:100F90000E4600410E45005A0D7C0058002C00946E
:100FA0000780089800040005002404380465000246
:100FB00049F000004A0C6E00000000000000000034
:100FC00000440C7800000000410C7C00410DE7005B
:100FD000410DE608410DF808410DE508620007A340
:100FE00000FFFFFFFFFFFF004DD904AA010101012F
:100FF000011D0103807A44780A0DC9A0574798273C
:1010000012484C2108008180A9C0714FB300010132
:1010100001010101010108E80030F2705A80B05866
:101020008A00C2AD4200001E08E80030F2705A800B
:10103000B0588A00C2AD4200001E000000FC004C07
:1010400054344B3630433434340A2020000000FD41
:101050000017790E883C000A2020202020200177EC
:10106000020361F05861605D5E5F621F101405133A
:101070000420223C3E1203110265663F402C097F8A
:1010800007097F075F7F00577F00837F00006E03A3
:101090000C001000B83C2F00800102030467D85DEB
:1010A000C401788003EB0146D000440B888660764B
:1010B0008FE200CBE305DF01E40F030030E3060D10
:1010C00001011D007251D01E206E285500C2AD4294
:1010D00000001E000000000000000000000000F3FF
:1010E0000000000000000000000000000000000000
:1010F00000000000000000000000000000000000F0
:1011000000000000000000000000000000000000DF
:1011100000000000000000000000000000000000CF
:1011200000000000000000000000000000000000BF
:1011300000000000000000000000000000000000AF
:10114000000000000000000000000000000000009F
:10115000000000000000000000000000000000008F
:10116000000000000000000000000000000000007F
:10117000000000000000000000000000000000006F
:10118000000000000000000000000000000000005F
:10119000000000000000000000000000000000004F
:1011A000000000000000000000000000000000003F
:1011B000000000000000000000000000000000002F
:1011C000000000000000000000000000000000001F
:1011D000000000000000000000000000000000000F
:1011E0005A0D9A000249F0089807800058002C0018
:1011F00094046504380004000500240000410E2812
:1012000000410E2900410E2A00410E2B00420E2CF7
:101210000000420E2E0000420E300000420E32004E
:1012200000410E4F00410E5000410E510000900B46
:10123000A1EFF0EB6003021821ED60030216A7E0B6
:10124000120B0F18470118470212800313150418D8
:10125000470513AF06146707149D08150109154DBE
:101260000A15A20B15C70C15D90D13401015EF1157
:10127000166012161D131660141660150000167104
:10128000900B7EE0B402037403F07B807D06E4FFE4
:1012900012BEF8900B05E0B50710900B7EE0B4018C
:1012A000097BFF7A4E79431272AD7B807D09E4FFA2
:1012B00012BEF8900B05E0B50710900B7CE0540FC0
:1012C000F04410F0E4900B66F0227B807D0BE4FF8D
:1012D00012BEF8900B05E0B5070E900B7CE0543081
:1012E00060030218470215C17B807D0AE4FF12BE2D
:1012F000F8900B05E06F6003021847900B77E0B49D
:1013000001037402F0900B78E0B401037402F090D2
:101310000B650217FD7B807D0AE4FF12BEF8900B7F
:1013200005E0B5071B900A7AE064016006900B485F
:10133000E0700D900B7FE020E206900B737403F0D9
:101340007B807D0AE4FF12BEF8900B05E0B5072410
:10135000E4FD7F111231D4900B687401F0E4900B1E
:1013600077F0A37403F09009E7E0F46003021847F4
:101370007405F0227B807D0BE4FF12BEF8900B0514
:10138000E0B5070E900B7CE0543060030218470272
:1013900015C17B807D09E4FF12BEF8900B05E06F5C
:1013A0006003021847900B7CE04420F00216169070
:1013B0000B7E7401F0900B77E0604BA3E0FF6402BA
:1013C0006005EF6403703F900B777401F0A3740322
:1013D000F07D017F111231D41F1231D4900B01E046
:1013E000C3940240057B030D80047B027D02E4FF71
:1013F00012A9E4900B727401F0900B65F0900B6CE5
:10140000F012C982D2CA900B78E0B4060FE4900BB8
:1014100077F0900B65F0900B787402F07B807D0B79
:10142000E4FF12BEF8900B05E0B5070D900B7CE0D1
:1014300054307005900B7904F07F0112C0A8EF645E
:10144000016003021847900B76E060030218479092
:101450000B65E06003021847900B7AE06003021806
:1014600047900B7604F0227F0112C0A8BF01111231
:10147000B7AF12BD50BF0123900B7E7405F0807E84
:10148000900B01E0C394027BFF50067A4E793B80BB
:10149000047A4E7941900A7C120B068061900B7E93
:1014A000E0FF64026004EFB4062012BD50BF0106E5
:1014B000900B717401F0E4900B06F07BFF7A4E798B
:1014C00043900A7C120B060216A4900B7EE0B40334
:1014D0000C12BBEBEF6003021847021659900B7E0B
:1014E0007401F0900B01E0C394027BFF40067A4F39
:1014F000790380047A4E79F9900A7C120B06021661
:10150000A4900B7FE054F8600C12BBEBEF60030279
:101510001847021659E4900B6EF0900B797402F0A4
:10152000900B66E07BFF70097A4E793B1272AD80BA
:10153000111272A97B807D09E4FF12BEF8900B05A1
:10154000EFF0900B7CE0540FF04410F0227F01127A
:10155000C0A8EF7021900B01E0C394027BFF40060E
:101560007A4E794180047A4E793B900A7C120B06C0
:101570001272B302161690D306E030E619E4FD7F2E
:10158000111231D4900B7E7402F0900B7714F0A3FB
:101590007404F00217C1900B777402F0A31272A6C4
:1015A0008074E4900B6EF0900B7CE044011272A604
:1015B000900B0574FFF0900B7CE054306003021830
:1015C00047900B7904F022900B6E7401F0900B079A
:1015D000120AE6900B0A020B06E4900B06F012BD0D
:1015E00050BF0106900B717401F01272A780277F23
:1015F0000112C0A8BF0110900AD3E09009E3F07B6C
:10160000017A0979C880067BFF7A4E7941900A7C7D
:10161000120B061272B3900B0574FFF022900B7A36
:10162000E06026900B65E07BFF600F1272A9E490EA
:101630000B65F07B807D130217C97A4E793B1272DD
:10164000AD7B807D04E40217C97F017E0012BF805C
:1016500012BBEBEF6003021847900B737402F02289
:101660007BFF7A4E79411272AD7B807D10E40217C8
:10167000C9900B01E0C394027BFF40107A4E794180
:10168000900A7C120B067B807D10800E7A4E793B8F
:10169000900A7C120B067B807D04E4FF12BEF8905A
:1016A0000B05EFF00272B3900BA1E024FE70030271
:1016B000173D1470030217CC24FD700302180114A7
:1016C000700302180124F87003021812240E60033C
:1016D00002184790079AE0FF900B75E0FD129E9C60
:1016E000E4900B6DF0900B7E7402F0900B7B14F085
:1016F000900B01E0C394024010900AA1E054C0FF97
:10170000C413135403900B01F0E4900B65F07B01BC
:101710007A0A79A5900BA7120B06900B01E0900BAB
:10172000AAF07A0A797F7D011268FF7B017A0A7933
:10173000A51272AD7B807D027F0102183B7F037E84
:101740000012BF8090E51CE04410F090E53C74105E
:10175000F0900B7E7404F0900B01E0C39402400FF4
:10176000900AA1E054C0C413135403900B01F090ED
:101770000B01E0C3940240047B0380027B027D02E4
:10178000E4FF12A9E4900B657401F01295A6120013
:101790000EEF702D7BFF7A4E793B1272AD900B05E8
:1017A00074FFF0900B66E0600D900B7CE05430709D
:1017B00005900B7904F0900B7E7401F0900B68F0AB
:1017C000221272A77B807D03E4FF806F900A82E083
:1017D000B45027E4900B2AF090FC17E04480F0907E
:1017E000FC1A7443F090FC197409F07F287E0012F3
:1017F000BF8090FC17E0547FF022900B2A7401F018
:10180000227BFF7A4E79411272AD7B807D10E4FF1E
:101810008029900A7BE04404F0900BA1E0FF0222B3
:101820007D900BA1E01424F2500280187BFF7A4EC9
:1018300079411272AD7B807D10E4FF12BEF8900BEF
:1018400005EFF022128DEC2290079FE0120B0F188B
:10185000770118820218C30318D80418E705198302
:10186000061AE2071C53081D01091D520A1D7A0BB6
:101870001DF40C00001DF912A93612C9BA7F02022C
:101880001DF69007A0E030E0107B017A0579851203
:10189000C92C9007A0E054FEF07B017A0579857D84
:1018A000C87C00129FA5EF64016003021DF912C3FA
:1018B0005C900791E0FF7D2812AB8D7F0312B3FD92
:1018C00002C80D900797E020E603021DF9128F3E33
:1018D00012C1257F04021DF69007A0E020E103025B
:1018E0001DF97F05021DF69007A0E030E0107B0196
:1018F0007A05798512C92C9007A0E054FEF07B018F
:101900007A0579857D647C00129FA5EF64016003F0
:10191000021DF912C45512C81A1281FF12C7477F5F
:101920000612B3FD900796E0B40113900590E0FF16
:101930007D0112BAF97BFF7A3C79D1021DEF7BFF62
:101940007A3C79DB7F011298A5900B70E0FF900B39
:1019500075E0FD12A715900A7BE04404F090079A09
:10196000E07F01B404027F00900B69EFF07BFF7A07
:101970004E79B3900A7C120B061272B3900B057469
:10198000FFF0229007A0E030E0167B017A05798510
:1019900012C92C9007A0E054FEF090058A7401F063
:1019A00012C738BF01057F07021DF67B017A057952
:1019B000857D107C27129FA5EF64016003021DF94D
:1019C00090058AE07003021DF9E4F07BFF7A3C7910
:1019D000E77F011298A57F007E017D007C0012B890
:1019E0001F900BDAEFF07BFF7A3C79FB7F011298B6
:1019F000A57F017E017D007C0012B81F900BDAEFFD
:101A0000F07BFF7A3D790D7F011298A57F037E015F
:101A10007D007C0012B81F900BDAEFF07BFF7A3D5F
:101A2000791F7F011298A57F047E017D007C001242
:101A3000B81F900BDAEFF07BFF7A3D79317F01120E
:101A400098A57F047E017D007C0012B81F900BDA00
:101A5000EFF07BFF7A3D79437F011298A57F047EEA
:101A6000017D007C0012B81F900BDAEFF07BFF7A4B
:101A70003D79557F011298A57F077E017D007C008E
:101A800012B81F900BDAEFF07BFF7A3D79677F0188
:101A90001298A57F027E027D007C0012B81F900B79
:101AA000DAEFF07BFF7A3D79797F011298A57F0309
:101AB0007E027D007C0012B81F900BDAEFF07BFFF6
:101AC0007A3D798B7F011298A57F047E027D007C90
:101AD0000012B81F900BDAEFF07BFF7A3D799D0280
:101AE0001DEF9007A0E030E0107B017A05798512A8
:101AF000C92C9007A0E054FEF07B017A0579857D22
:101B0000587C02129FA5EF64016003021DF978283A
:101B1000E6FE541F900BDAF0EEC4135407A3F07BDB
:101B2000FF7A3D79AF7F011298A57BFF7A3D79D18D
:101B30007F011298A57F007E017D007C0012B81FF6
:101B4000900BDAEFF07BFF7A3C79FB7F011298A5CE
:101B50007F017E017D007C0012B81F900BDAEFF050
:101B60007BFF7A3D790D7F011298A57F037E017D71
:101B7000007C0012B81F900BDAEFF07BFF7A3D7902
:101B80001F7F011298A57F047E017D007C0012B8A2
:101B90001F900BDAEFF07BFF7A3D79317F011298CD
:101BA000A57F047E017D007C0012B81F900BDAEF48
:101BB000F07BFF7A3D79437F011298A57F047E0177
:101BC0007D007C0012B81F900BDAEFF07BFF7A3DAE
:101BD00079557F011298A57F077E017D007C001258
:101BE000B81F900BDAEFF07BFF7A3D79677F011227
:101BF00098A57F027E027D007C0012B81F900BDA50
:101C0000EFF07BFF7A3D79797F011298A57F037E03
:101C1000027D007C0012B81F900BDAEFF07BFF7A98
:101C20003D798B7F011298A57F047E027D007C00A8
:101C300012B81F900BDAEFF07BFF7A3D799D7F01A0
:101C40001298A5122E57126227E4900589F07F089A
:101C5000021DF69007A0E030E0157F0412B1D07BA2
:101C6000017A05798512C92C9007A0E054FEF07B1B
:101C7000017A0579857DC87C00129FA5EF6401601B
:101C800003021DF97828E6C4135407FF12AA91EF46
:101C9000606A7BFF7A3D79E6E4FF1298A59005899A
:101CA000E004F07F0412B1D07B017A05798512C976
:101CB0002C900589E0B4051D7BFF7A3D79F1E4FFA6
:101CC0001298A590058FE0FF7822E6FE13131354B7
:101CD00001FD02908D900589E0D394085003021D08
:101CE000F9E4F07BFF7A3D79FBFF1298A590079607
:101CF000E0B4020312C4DA7F0202C27E7F09021D31
:101D0000F69007A0E030E01312C8C57B017A057990
:101D10008512C92C9007A0E054FEF07B017A05796A
:101D2000857D587C02129FA5EF64016003021DF9B6
:101D30001282CDEF70177BFF7A3E79077F011298F0
:101D4000A512BFA27B017A05798502C92C7F0A0200
:101D50001DF69007A0E030E01212A45012C8D0E4A3
:101D6000FF12C5EF9007A0E054FEF01257EEEF64AB
:101D7000016003021DF97F0B807C9007A0E030E03A
:101D80001C124FCFE4FF123872EF606D7B017A05B1
:101D9000798512C92C9007A0E054FEF02212B8F900
:101DA000EF640270347BFF7A3E79147F011298A5AC
:101DB000E4FDFF12A5ED900BDA120AA97BFF7A3E33
:101DC00079267F011298A57D01E4FF12BF3C12BF66
:101DD0005E12C4ED7F0C12B3FD7B017A0579857D1F
:101DE000407C06129FA5BF01107BFF7A3E79397FA8
:101DF000010298A57F0D12B3FD22E5082441F5826A
:101E0000E4340CF583E0050822900C3E3007039083
:101E10000C41E475F001120AEF0206C42000E97FCC
:101E20002ED2008018EF540F2490D43440D4FF30C9
:101E3000040BEF24BFB41A0050032461FFE50960CE
:101E4000021509050CE50C7002050B30070E900C0D
:101E50003EE475F001120AEFEF02073D02BE1B746B
:101E600003D2078003E4C207F508900C3E120B066C
:101E7000E4F509F50BF50CE50960077F20121E3D1E
:101E800080F5750AFFC201C200C202C203C205C2C8
:101E900006C208121E09FF700D3007057F00121ED2
:101EA0004EAF0CAE0B22B4255FC2D5C204121E0980
:101EB000FF24D0B40A00501A75F00A780930D5050D
:101EC00008B6FF0106C6A426F620D5047002D20388
:101ED00080D924CFB41A00EF5004C2E5D204022105
:101EE00040D20180C6D20080C0D20280BCD2D58050
:101EF000BAD20580B47F20121E3D2002077401B5BE
:101F0000090040F1121DFAFF121E3D021E77D20891
:101F1000D2068095121DFAFB121DFAFA121DFAF96B
:101F20004A4B7006793E7A227BFF20022EE509603B
:101F30002A7E008E827583001206DD60060EEE6535
:101F40000A70F0C2D5EBC0E0EAC0E0E9C0E0EE12F2
:101F500021A1D0E0F9D0E0FAD0E0FB1206C4FF6086
:101F6000AAEBC0E0EAC0E0E9C0E0121E3DD0E024E8
:101F700001F9D0E03400FAD0E0FBE50A0460DCD5DA
:101F80000AD98087D20280A212218360F7E50A7005
:101F90000104120316A90A600DE50A600914F50A86
:101FA00012222BEF60F3EA30E702F404C399507970
:101FB000EAF4250A0430E701E404F50A800D122151
:101FC0008360C1EA050A250A120316EA900C6DF037
:101FD00030E701E4250A04D50A0420050114122182
:101FE000A1E4C0E012222B900C6DE0601320E70703
:101FF00014F0121E25802204F0D0E014C0E07F000F
:10200000121E25E50A6007121E1C150A800B3005FA
:1020100003121E1CD0E0021E77D0E00480C41221FF
:1020200083609EE50A04120316900C6DEAF0E50A3F
:1020300020050260010424041221A174FF04C0E001
:1020400012222B121E25E50A2005026003121E1C17
:10205000D0E0B50AE87F45121E2F900C6DE07F2B73
:1020600030E7047F2DF404C0E0121E3DD0E075F08F
:102070000A84C0F0121E26D0E0121E26021E7779B6
:102080001080027908C206C2088008D2D5790A8079
:1020900004790AC2D5E50A047002F50AE4FAFDFEE5
:1020A000FF121DFAFC7B08200113121DFAFD7B10A4
:1020B00030000A121DFAFE121DFAFF7B20EC33825B
:1020C000D592D55013C3E43000069FFFE49EFEE492
:1020D0002001039DFDE49CFCE4CBF8C201EC700CF4
:1020E000CFCECDCCE824F8F870F38017C3EF33FFE0
:1020F000EE33FEED33FDEC33FCEB33FB994002FB9A
:102100000FD8E9EB300105F8D0E0C448B201C0E0D7
:102110000AEC4D4E4F78207B0070C2EAB50A0040B1
:10212000BCC0E01221A3D0F0D0E0200104C4C0E084
:10213000C4B201C0F0121E26D0F0D5F0EB021E771B
:10214000120B0F1F1453207F581EE54C1EE1422036
:10215000834F208B44208B491EFA432091551FBE8C
:1021600046201E451F8847225E501EE92D1EED2E7B
:102170001F102B1EF1231F0E2022472A1EA94800E4
:10218000001F08E50AB4FF03750A06121DFAFC12C7
:102190001DFAFD121DFAFE121DFAFF900C660203D5
:1021A00053790AA2D5200314300509B9100204049A
:1021B000B9080104A2D52006025001042002689249
:1021C00002B509005034C0E07F203003197F30A2EF
:1021D0000272067205500F1221FAC202C206C2052F
:1021E000C2087F30800F300503E9C0E0121E3D3089
:1021F0000503D0E0F9D0E0B509CC3005177F30B940
:10220000100C121E3D7F583004077F788003B908F8
:1022100003121E3D3002057F2D021E3D7F20200847
:10222000F87F2B2006F322920280CF7F00B40700B4
:10223000500B2466F582E4340CF583E0FF22286E0F
:10224000756C6C2900D201121DFA3001F8C20178B8
:102250000930D50108F6021EA92D50434958121D18
:10226000FA2403B405004001E490225993121E2E73
:10227000743A121E2ED20375090402207FEF640FF8
:1022800060030226BB900A80E020E703022556A3E4
:10229000E0D394FF400302249EA3E0F460030224F1
:1022A0009E900A7FE0541F120B0F22C30122F702F7
:1022B000231A0323740423E405243010246A110034
:1022C0000026BB900B01E0FF744012B4407A0B79FA
:1022D00088900A7C120B06900B01E0C39402500A0E
:1022E000900AA1E020E5030226BB1272B3900B7F97
:1022F000E04401F0022518900B7FE04402F0900BBF
:1023000041E07BFFB401067A4F790D80047A4E7963
:1023100059900A7C120B06022544900B7FE044047E
:10232000F0900B41E0B401087BFF7A4F791B8034B9
:1023300090079AE078D57C0A7D017BFFB404067A89
:102340004E796380047A4E796D7E007F0A12069E74
:10235000900B7FE020E1077D037F8012AFD17B01EE
:102360007A0A79D5900A7C120B061272B37B807DB3
:102370000302254B900B7FE04408F030E13C900BCA
:1023800066E0FFB40107900B7CE020E403EF704DA2
:1023900078D57C0A7D017BFF7A4E79777E007F06B7
:1023A00012069E900A80E05407FF7D04BF01047F5F
:1023B0004080027F8012AFD1801A78D57C0A7D01DF
:1023C0007BFF7A4E79777E007F0612069E7D047F22
:1023D0008012AFD17B017A0A79D51272AD7B807DF4
:1023E0000402254B78D57C0A7D017BFF7A4E7981EA
:1023F0007E007F0612069E900B7FE030E314900A69
:1024000080E05407FF7D05BF01047F4080087F8086
:1024100080047D057F8012AFD17B017A0A79D512C5
:1024200072AD900B7FE054F7F07B807D0502254B69
:10243000900B7FE04410F090079AE07F01B4040213
:102440007F00900B69EFF0900B7FE07BFF30E6069A
:102450007A4E799580047A4E798B900A7C120B061D
:102460001272B37B807D1002254B900B7FE04420DD
:10247000F07BFF7A4E799F1272ADE4900B6DF07F86
:102480000112C0A8BF0106900B65E0600A9009E741
:10249000E0B4FF037405F07B807D1102254B900AA8
:1024A00081E0647E7051A3E06405704B900A7FE088
:1024B000541F24FC60030226BB90E3327455F09055
:1024C0000B7FE04408F0900B41E0700E900B48E069
:1024D0007008900B737403F080177BFF7A4F792993
:1024E0001272AD7B807D047F0312BEF8900B05EF66
:1024F000F0900B4102269F900A7FE0541F24FE605B
:102500001D0460030226BB900B01E0FF748012B42F
:10251000407A0B792B1272AD7B807D01802D78D5AE
:102520007C0A7D017BFF7A4E79597E007F0A120674
:102530009E7D027F8012AFD17B017A0A79D5900A05
:102540007C120B061272B37B807D027F0312BEF8F1
:10255000900B05EFF022900A80E030E7030226A3FB
:10256000A3E0647E60030226BBA3E064056003026F
:1025700026BB900A84E0FCB4010EA3E0B416097BEC
:10258000FF7A4F796102265DECB40117900A85E06D
:10259000B40B107F037E0012BF807BFF7A4F796FF0
:1025A00002265D900A84E0B40115A3E0B418107F00
:1025B000037E0012BF807BFF7A4F797D02265D90FB
:1025C0000A84E064017047A3E064017041900A89C5
:1025D000E0B4141CA3E0B480177F037E0012BF8018
:1025E0007BFF7A4F798B1272AD900B9E7402F022B2
:1025F000900A89E060030226BBA3E060030226BBC9
:102600007F03FE12BF807BFF7A4F7937804F900A9D
:1026100084E0B40114A3E0B4100F7F037E0012BF66
:10262000807BFF7A4F79998034900A84E0B401145A
:10263000A3E0B4060F7F037E0012BF807BFF7A4FBA
:1026400079A78019900A84E0B4011BA3E0B4201696
:102650007F037E0012BF807BFF7A4F79B5900A7CA2
:10266000120B060272B3900A84E06401704DA3E07D
:10267000641C70477F03FE12BF80900A83E0FCB4A5
:10268000010E7BFF7A4F79451272AD9009E6800FFB
:10269000EC70287BFF7A4F79531272AD900B9E74C9
:1026A00001F022900B01E0C39402400F7BFF7A4EB1
:1026B00079411272AD900B0574FFF022900B9FEFE1
:1026C000F07F0112C6BA12C6CA7832E6B40F03020E
:1026D0002A94E490F103F090F104F090F105F07881
:1026E00032E6701D08E6B4221808E6FFD3940F50B6
:1026F00010E490F103F090F104F090F105EFF08018
:10270000137832E690F103F008E690F104F008E661
:1027100090F105F0E47813F6900B9FE0FF7813E654
:10272000FEC39F5026EE601390F105E0B4FF0690C3
:10273000F104E004F090F105E004F090F154E0FFC2
:1027400074452EF8A60778130680CD7832E6FC7023
:102750006F08E6706B7812F67834E6247F602314F5
:10276000603614604924036003022AD87812E6FF19
:1027700012BE68900B9FE0FF781206E66F700302AE
:102780002AD87812E6FF12AE0A900B9FE0FF78126B
:1027900006E66F7003022AD87812E6FF12C95F902E
:1027A0000B9FE0FF781206E66F7003022AD87812BA
:1027B000E6FF12C966900B9FE0FF781206E66F22D3
:1027C000EC60030228F97833E6640260030228F91A
:1027D0007812F67834E6120B0F280100281701282A
:1027E0002D02284303285904286F05288506289BB5
:1027F0000728AD1028C11228D51428E91600002A90
:10280000D87812E6FF12C468900B9FE0FF7812069A
:10281000E66F7003022AD87812E6FF12C47B900B91
:102820009FE0FF781206E66F7003022AD87812E65E
:10283000FF128394900B9FE0FF781206E66F7003FF
:10284000022AD87812E6FF128B1F900B9FE0FF78C8
:102850001206E66F7003022AD87812E6FF12A5234B
:10286000900B9FE0FF781206E66F7003022AD8787B
:1028700012E6FF12C923900B9FE0FF781206E66F65
:102880007003022AD87812E6FF12AEF0900B9FE098
:10289000FF781206E66F7003022AD87812E6FF125C
:1028A000BDA4900B9FE0FF781206E66F22E4FF12B2
:1028B000B1D0900B9FE0FF781206E66F7003022AFA
:1028C000D87F0112B1D0900B9FE0FF781206E66F1F
:1028D0007003022AD87F0212B1D0900B9FE0FF78DC
:1028E0001206E66F7003022AD87F0312B1D0900B54
:1028F0009FE0FF781206E66F227832E66003022A34
:102900003508E664206003022A357812F67834E64A
:10291000120B0F294102295703296D04297C05292F
:102920008B06299A0729A90829B80929C70A29D68F
:102930000B29E50C29FB0D2A110E2A230F00002A72
:10294000D87812E6FF12C468900B9FE0FF78120659
:10295000E66F7003022AD87812E6FF12C47B900B50
:102960009FE0FF781206E66F7003022AD8900B9F53
:10297000E0FF781206E66F7003022AD8900B9FE002
:10298000FF781206E66F7003022AD8900B9FE0FFD3
:10299000781206E66F7003022AD8900B9FE0FF784A
:1029A0001206E66F7003022AD8900B9FE0FF7812A0
:1029B00006E66F7003022AD8900B9FE0FF7812069C
:1029C000E66F7003022AD8900B9FE0FF781206E6AC
:1029D0006F7003022AD8900B9FE0FF781206E66F13
:1029E0007003022AD87812E6FF128394900B9FE0BE
:1029F000FF781206E66F7003022AD87812E6FF12FB
:102A00008B1F900B9FE0FF781206E66F7003022A7F
:102A1000D87812E6FF12A523900B9FE0FF781206EC
:102A2000E66F227812E6FF12C923900B9FE0FF7831
:102A30001206E66F227832E6FF700C08E6B404074F
:102A400008E67003022AD8EF70407833E6642270FB
:102A5000397812F67834E614601824F1602224FCE8
:102A6000602324147072900B9FE0FF781206E66FCB
:102A70006066900799E0FF7812E62445F8A60722E1
:102A80007845760822E47845F6227832E6B40F16C7
:102A900008E67012900B9FE0FF7E007D007B007ABD
:102AA000007945020B627832E66406702B08E6FF77
:102AB000B4800D08E6B429087857E6B4011A8010EE
:102AC000EFB494147834E6B4930E7857E6B4010862
:102AD00078457604E47857F622E47BD07A07F9F853
:102AE000900DDD120A91120943900BADEEF0A3EFA9
:102AF000F0E47BD07A07F9F8900DE1120A911209FF
:102B000043900BAFEEF0A3EFF0900DD4E0FB701804
:102B1000900BAFE0FEA3E07803CEC313CE13D8F939
:102B2000F0EE900BAFF08017900BAFE0FEA3E0FF4C
:102B30007C007D07120783900BAFEEF0A3EFF090BF
:102B40000DD2E020E104EBB4010D900BB0E025E0E4
:102B5000F0900BAFE033F0900BAFE0FEA3E0FF90FE
:102B60000DDBE0FD7C00120771900BAFEEF0A3EFE0
:102B7000F012C4B4900BB1EEF0A3EFF012C4C79002
:102B80000BB3EEF0A3EFF0900D4FE0C313FCA3E006
:102B900013FD900D4DE0C313FEA3E0132DFFEE3C9B
:102BA000FE900BAFE0FCA3E0FD120771900BADE0CF
:102BB000FCA3E0FD120783E4FCFD900BC5120AA9FB
:102BC000900BB1E0FEA3E0FFE4FCFD900BC5120A00
:102BD0009DD31209F04049900D4FE013FCA3E01380
:102BE000FD900D4DE0C313FEA3E0132DFFEE3CFE60
:102BF000900BAFE0FCA3E0FD120771900BADE0FC81
:102C0000A3E0FD120783900BB1E0FCA3E0FDC3EF4E
:102C10009DFFEE9CFEE4FCFD900BBD120AA9800A0C
:102C2000900BBD120AB500000000900DDBE06401BE
:102C30006003022D00900D4FE0C313FCA3E013FDD1
:102C4000900D4DE0C313FEA3E0132DFDEE3CFC9070
:102C50000D49E0C313FEA3E0132DFFEC3EFE900BE5
:102C6000AFE0FCA3E0FD120B35900BC1120AA99056
:102C70000BADE0FEA3E0FFFBAA06E4F9F8900BC160
:102C8000120A91120943900BC5120AA9900BB3E0E6
:102C9000FEA3E0FF900BB2E02FFF900BB1E03EFEF1
:102CA000E4FCFD900BC5120A9DD31209F04045903B
:102CB0000BADE0FEA3E0FFFBAA06E4F9F8900BC120
:102CC000120A91120943C006C007900BB1E0FEA39F
:102CD000E0FBAA06E4F9F8D007D0061208AAC0065D
:102CE000C007A3E0FEA3E0FBAA06E4D007D00612CB
:102CF00008AA8012900BC1120AB500000000800CD7
:102D0000900BBD120A91900BC1120AA9900BC1122F
:102D10000A91900BBD120A9DD31209F0400C900B42
:102D2000BD120A91900BC1120AA9900DD9E025E0BD
:102D3000FFE433AB07FA3395E0F9F8E4FF7E80FD5A
:102D4000FC120943900BB9120AA9900D4DE0C31370
:102D5000FEA3E013FFE4FCFD900BB9120A9D1208DC
:102D60009DA804A905AA06AB07900D4FE0C313FE6A
:102D7000A3E013FFE4FCFD12089DA804A905AA0620
:102D8000AB07900BAFE0FEA3E0FFE4FCFD1208B838
:102D9000900BB9120AA9900BADE0FEA3E0FFFBAACD
:102DA00006E4F9F8900BB9120A91120943C006C063
:102DB00007900BB1E0FEA3E0FBAA06E4F9F8D00708
:102DC000D0061208AA900BB9120AA97BFF7A527991
:102DD00091900BB9120A91900BDA120AA97F011295
:102DE00098A57BFF7A5279A4900BBD120A91900BA3
:102DF000DA120AA97F011298A57BFF7A5279B8905E
:102E00000BC1120A91900BDA120AA97F011298A540
:102E1000900BC1120A91900BB9120A9DD31209F0BE
:102E2000900BC14020120A9D900BB9120A91120812
:102E3000AAE47B14FAF9F8120943900BC1120A9D17
:102E400012089D8003120A91900BB5120AA9900BEB
:102E5000B5120A9102C026E4900BB4F0900BB2F0C8
:102E6000900BB0F0900BAEF0900BB5F0900BB3F070
:102E7000900BB1F0900BAFF07F0112C6EAE4FB7A41
:102E800002EB7004AF028005C374139AFFA907E92F
:102E9000903E459390F1BBF090F1BCF090F1BDF005
:102EA00090F1BEF07F017E0012BF807F0412B1D08E
:102EB000E4900BADF0900BADE004F0C3943240030E
:102EC000022F607F017E0012BF80E4FF12B32F90BB
:102ED0000BB6EEF0A3EFF07F0112B32F900BB8EE1C
:102EE000F0A3EFF07F0212B32F900BBAEEF0A3EF36
:102EF000F07F0312B32F900BBCEEF0A3EFF0782815
:102F0000E6C4135407FFC394014010900BB7E0943C
:102F100010900BB6E0948040028045EFC3940240CD
:102F200010900BB9E09410900BB8E09480400280B0
:102F30002F7828E6C413540764046003022EB5C337
:102F4000900BBBE09410900BBAE094805012C390A9
:102F50000BBDE09410900BBCE094805003022EB5A2
:102F60007828E6C4135407FFC39401402874AE2B9D
:102F7000F582E4340BF583E0701BD3900BB7E0943B
:102F800002900BB6E09480500C74AE2BF582E434C2
:102F90000BF583E9F0EFC39402402874B02BF5825F
:102FA000E4340BF583E0701BD3900BB9E0940290EE
:102FB0000BB8E09480500C74B02BF582E4340BF520
:102FC00083E9F07828E6C4135407FFBF042874B2DD
:102FD0002BF582E4340BF583E0701BD3900BBBE040
:102FE0009402900BBAE09480500C74B22BF582E4FA
:102FF000340BF583E9F07828E6C4135407FFBF04C7
:103000002874B42BF582E4340BF583E0701BD39065
:103010000BBDE09402900BBCE09480500C74B42B78
:10302000F582E4340BF583E9F0BF011374AE2BF5A0
:1030300082E4340BF583E0D3940040030230C0787F
:1030400028E6C4135407FFBF022274AE2BF582E4B6
:10305000340BF583E0D39400401274B02BF582E476
:10306000340BF583E0D39400400280547828E6C402
:103070001354076404704074AE2BF582E4340BF5EE
:1030800083E0D39400403074B02BF582E4340BF528
:1030900083E0D39400402074B22BF582E4340BF526
:1030A00083E0D39400401074B42BF582E4340BF524
:1030B00083E0D3940050090AEA64126003022E816F
:1030C000EB7006EAC3941250090BEB640260030232
:1030D0002E7F9007957408F0900794F0900793F076
:1030E000900792F07828E6C4135407147003023155
:1030F0009D14607324FE60030231D3900BB4E0FF93
:10310000C39412502CEF7004A3E06025900BB4E040
:10311000FFA3E0FEC39F400FEEFDEF2DFFE433A2BF
:10312000E713EF13FF8005900BB4E0FF900795EFD6
:10313000F0900BB2E0FFC39412502CEF7004A3E0A8
:103140006025900BB2E0FFA3E0FEC39F400FEEFDB1
:10315000EF2DFFE433A2E713EF13FF8005900BB2CE
:10316000E0FF900794EFF0900BB0E0FFC394125093
:103170002CEF7004A3E06025900BB0E0FFA3E0FE0D
:10318000C39F400FEEFDEF2DFFE433A2E713EF13D3
:10319000FF8005900BB0E0FF900793EFF0900BAE2F
:1031A000E0FFC39412502CEF7004A3E06025900B55
:1031B000AEE0FFA3E0FEC39F400FEEFDEF2DFFE466
:1031C00033A2E713EF13FF8005900BAEE0FF9007EB
:1031D00092EFF022EDD394014003023522EF120B5F
:1031E0000F328100330302328E0332B50433ED0611
:1031F00032C207331009331D0A332A0B34BE0D3394
:10320000510E335E0F339F1033AC11336B12337892
:103210001333851433921533B91633C61733E018B8
:1032200033D31933FA1A34071B34141C34211D34D8
:103230002E1E343B1F344820345521346222346F13
:1032400023347C24348725349226349D2734DF2888
:1032500034B32935122A35012B34F02C34A82D34FF
:10326000C92E34D42F329B3032A83132CF3232DCE7
:103270003333373433443532E93632F637000035EC
:1032800022ED90D461B401030234E60234EBED90F8
:10329000D461B401030234F70234FCED90D461B47C
:1032A000010302350802350DED90D461B40103022B
:1032B000351902351EED90D462B401030234E602E2
:1032C00034EBED90D462B401030234F70234FCED28
:1032D00090D462B4010302350802350DED90D4623A
:1032E000B4010302351902351EED90D463B4010315
:1032F0000234E60234EBED90D463B401030234F7F8
:103300000234FCED90D463B4010302350802350D9C
:10331000ED90D463B4010302351902351EED90D44B
:1033200064B401030234E60234EBED90D464B401DA
:10333000030234F70234FCED90D464B40103023587
:103340000802350DED90D464B4010302351902353D
:103350001EED90D465B401030234E60234EBED9027
:10336000D465B401030234F70234FCED90D465B4A3
:10337000010302350802350DED90D465B401030256
:10338000351902351EED90D466B401030234E6020D
:1033900034EBED90D466B401030234F70234FCED53
:1033A00090D466B4010302350802350DED90D46661
:1033B000B4010302351902351EED90D467B4010340
:1033C0000234E60234EBED90D467B401030234F723
:1033D0000234FCED90D467B4010302350802350DC8
:1033E000ED90D467B4010302351902351EED90D477
:1033F00068B401030234E60234EBED90D468B40102
:10340000030234F70234FCED90D468B401030235B2
:103410000802350DED90D468B40103023519023568
:103420001EED90D469B401030234E60234EBED9052
:10343000D469B401030234F70234FCED90D469B4CA
:10344000010302350802350DED90D469B401030281
:10345000351902351EED90D46AB401030234F70227
:1034600034FCED90D46AB4010302350802350DED49
:1034700090D46AB4010302351902351EED90D46B65
:10348000B4010280618064ED90D46BB40102806766
:10349000806AED90D46BB40102806D8070ED90D4A1
:1034A0006BB4010280738076ED90D46CB40102801D
:1034B000358038ED90D46CB40102803B803EED90B5
:1034C000D46CB4010280418044ED90D46DB401020B
:1034D00080148017ED90D46DB40102801A801DED28
:1034E00090D46FB40105E04440F022E054BFF022D4
:1034F000ED90D46FB40105E04410F022E054EFF0F9
:1035000022ED90D46FB40105E04404F022E054FBB6
:10351000F022ED90D46FB40105E04401F022E054B4
:10352000FEF022EDD394014003023871EF120B0F2D
:1035300035D00036520235DD03360404373C0636FA
:103540001107365F09366C0A36790B380D0D36A037
:103550000E36AD0F36EE1036FB1136BA1236C713E3
:1035600036D41436E115370816371517372F1837A4
:10357000221937491A37561B37631C37701D377DA0
:103580001E378A1F37972037A42137B12237BE2331
:1035900037CB2437D62537E12637EC27382E283885
:1035A000022938612A38502B383F2C37F72D38182C
:1035B0002E38232F35EA3035F731361E32362B338D
:1035C000368634369335363836364537000038710E
:1035D000ED90D461B4010302383502383AED90D44D
:1035E00061B4010302384602384BED90D461B40156
:1035F0000302385702385CED90D461B401030238FD
:103600006802386DED90D462B40103023835023897
:103610003AED90D462B4010302384602384BED9083
:10362000D462B4010302385702385CED90D462B41E
:10363000010302386802386DED90D463B4010302CF
:10364000383502383AED90D463B4010302384602AB
:10365000384BED90D463B4010302385702385CED67
:1036600090D463B4010302386802386DED90D464DD
:10367000B4010302383502383AED90D464B4010342
:1036800002384602384BED90D464B4010302385737
:1036900002385CED90D464B4010302386802386DDE
:1036A000ED90D465B4010302383502383AED90D478
:1036B00065B4010302384602384BED90D465B4017D
:1036C0000302385702385CED90D465B40103023828
:1036D0006802386DED90D466B401030238350238C3
:1036E0003AED90D466B4010302384602384BED90AF
:1036F000D466B4010302385702385CED90D466B446
:10370000010302386802386DED90D467B4010302FA
:10371000383502383AED90D467B4010302384602D6
:10372000384BED90D467B4010302385702385CED92
:1037300090D467B4010302386802386DED90D46804
:10374000B4010302383502383AED90D468B401036D
:1037500002384602384BED90D468B4010302385762
:1037600002385CED90D468B4010302386802386D09
:10377000ED90D469B4010302383502383AED90D4A3
:1037800069B4010302384602384BED90D469B401A4
:103790000302385702385CED90D469B40103023853
:1037A0006802386DED90D46AB401030238460238DD
:1037B0004BED90D46AB4010302385702385CED90A7
:1037C000D46AB4010302386802386DED90D46BB44A
:1037D000010280618064ED90D46BB4010280678047
:1037E0006AED90D46BB40102806D8070ED90D46B63
:1037F000B4010280738076ED90D46CB40102803500
:103800008038ED90D46CB40102803B803EED90D4C2
:103810006CB4010280418044ED90D46DB40102800B
:10382000148017ED90D46DB40102801A801DED90C4
:10383000D46FB40105E04480F022E0547FF022ED23
:1038400090D46FB40105E04420F022E054DFF02270
:10385000ED90D46FB40105E04408F022E054F7F095
:1038600022ED90D46FB40105E04402F022E054FD53
:10387000F022900BADEFF0E4FBA3120AB5000000BC
:1038800000900E28E0120B0F38A4003900013A54C2
:10389000023AAB033AE8043B19053B44063B5107A7
:1038A00000003B79900BADE0B4010790F21EE054AC
:1038B0007FF090F220E04410F090D340E030E2132B
:1038C00054FBF090F2837421F090F23EE04403F058
:1038D00054FCF090D3407460F090F263E054F7F041
:1038E00090F23DE0543FF090E360E054DFF090F15F
:1038F000B4E054FDF04402F0900E287401023B3E07
:1039000090F2E2E0543064106003023AA3900E2972
:10391000E004F0E0640A6003023B7990F263E05453
:10392000F8FFF090F2F8E05470C4540F4F90F26337
:10393000F090F2F7E0547FFFE4FCFDFE900BAE1236
:103940000AA9900BAE120A917808120A14900BAED5
:10395000120AA990F2F6E0FFE4FCFDFE900BAE1215
:103960000AA9900BAE120A917808120A14900BAEB5
:10397000120AA9900BAE120A9D90F2F5E0FFE4FC4A
:10398000FDFE12089D900BAE120AA9900BAE120A12
:10399000917808120A14900BAE120AA9900BAE127D
:1039A0000A9D90F2F4E0FFE4FCFDFE12089D900BEE
:1039B000AE120AA97BFF7A6D791D900BAE120A91A7
:1039C000900BDA120AA9E4FF1298A5E4FB90F2F733
:1039D000E0547FFFD39450401AAB07900BAE120A0D
:1039E000917801120A01900BAE120AA990D340E01F
:1039F0004404F0900BAE120A917818120A0190F26A
:103A000037EFF0900BAE120A917810120A0190F283
:103A10003AEFF0900BAE120A917808120A0190F278
:103A20003BEFF0900BAE120A9190F23CEFF090F267
:103A300063E04408F090F23DE044C0F090F23EE0D4
:103A40004403F054FCF0E4900E29F0900E28740228
:103A5000F0023B7990F2F7E0547F6B6046900E29BC
:103A6000E004F0E0D3940A5003023B7990E36074E1
:103A700002F090E3617440F090E3627404F0E4902B
:103A8000E365F090E3687420F090D340E04440F0A8
:103A900090D34274A8F0E490D34CF0900E287403B5
:103AA000023B3EE4900E29F0023B7990E13074072E
:103AB000F090E13DE054FDF090E360E054DFF07FF2
:103AC000017E0012BF8090E13DE04402F090E130C1
:103AD0007477F090E360E04420F07F0A7E0012BF2C
:103AE00080900E287404805690E36CE05403FFBF6E
:103AF000011490D340E054BFF0900E287405F0E418
:103B0000A3F0A3F08073E4900E28F0A3E004F0E0AB
:103B1000D394034064E4F0806090E36CE030E759B4
:103B2000900BADE0B4010790F21EE04480F07BFF03
:103B30007A6D792FE4FF1298A5900E287406F0E4B0
:103B4000A3F08035E490F220F0900E287407F08006
:103B50002890F2F7E0547FD394505016E4900E284A
:103B6000F0A3F0A3F07BFF7A6D793CFF1298A57F5C
:103B700001227F017E0012BF807F027E0012BF8083
:103B80007F00220A2D2D52785374617465203D20E8
:103B9000256264000A5479706563000A4844435002
:103BA000204B65792056616C6964000A207563506A
:103BB0006978656C456E636F64696E673A30782525
:103BC000303262782C756342697444657074683A67
:103BD000307825303262782C000A207563436F6C90
:103BE0006F72696D65747279466F726D61743A3087
:103BF000782530326278000A565343000A536F66C4
:103C0000744571203D20307825303262782C307830
:103C100025303262782C307825303262782C30783A
:103C20002530326278000A41756420417070656108
:103C3000722E000A41756420446973617070656179
:103C4000722E000A4653204368616E67652E000A93
:103C5000617564206673203D20256264000A417509
:103C60006420506C6C206C6F636B2E000A4175648D
:103C7000706C6C20526563616C692E000A4175643A
:103C8000706C6C20556E6C6F636B2E000A686463F9
:103C900070497271000A484443505F2562645800BD
:103CA0000A636F6C6F722073706163652043686193
:103CB0006E67652E000A50435220756E7374616200
:103CC0006C652E000A4D5341204368616E67652E76
:103CD000000A4850442048696768000A41747465C6
:103CE0006E2048696768000A445020547261696E0A
:103CF000696E67204661696C6564000A44504344FC
:103D0000313030203D2030782562782C000A445034
:103D10004344313031203D2030782562782C000A30
:103D200044504344313033203D2030782562782C94
:103D3000000A44504344313034203D20307825621D
:103D4000782C000A44504344313035203D203078EF
:103D50002562782C000A44504344313036203D20FF
:103D600030782562782C000A4450434431303720A3
:103D70003D2030782562782C000A4450434432308C
:103D800032203D2030782562782C000A445043448C
:103D9000323033203D2030782562782C000A4450A0
:103DA0004344323034203D2030782562782C000A9C
:103DB0004C696E6B526174655F436F756E74203D24
:103DC00020307825303262782C3078253032627895
:103DD000000A445020547261696E696E6720537501
:103DE0006363657373000A64617461206572722E87
:103DF000000A436472205273742E000A5265636F86
:103E00006E6E6563742E000A64652D706B74206598
:103E100072722E000A2050435220616C6C20737421
:103E200061626C653B000A4450696E4672657120A0
:103E30003D20256C754B687A000A5043526C6763CD
:103E400020527374003F3F3F2A26242221201F1E48
:103E50001D1C1B1A1917000000900B9FEFF07F012B
:103E600012C6BA12C6CA7832E6FF640F7003024166
:103E70000090F103EFF07833E690F104F008E6905B
:103E8000F105F0E47813F6900B9FE0FF7813E6FE5F
:103E9000C39F5024EE601390F105E0B4FF0690F14B
:103EA00004E004F090F105E004F074352EF8E6909B
:103EB000F153F078130680CF7832E6600302403C7D
:103EC00008E66401600302403C7812F67834E6129A
:103ED0000B0F3EFD003F13013F29023F42033F58B5
:103EE000043F6E053F84063F9A073FB0083FD40B5E
:103EF0003FEF0C400A0D40250E000041007812E60D
:103F0000FF12B88D900B9FE0FF781206E66F7003EA
:103F10000241007812E6FF12C3F1900B9FE0FF7898
:103F20001206E66F700302410012C84A7812E6FFDB
:103F30001286A4900B9FE0FF781206E66F700302D2
:103F400041007812E6FF12ABDF900B9FE0FF781282
:103F500006E66F70030241007812E6FF12BA66901F
:103F60000B9FE0FF781206E66F70030241007812A3
:103F7000E6FF12BA97900B9FE0FF781206E66F708B
:103F8000030241007812E6FF12BAC8900B9FE0FFCF
:103F9000781206E66F70030241007812E6FF12BB4A
:103FA0005B900B9FE0FF781206E66F700302410002
:103FB0007812E62435F8E6700C90F1057408F0905C
:103FC000F1537401F0900B9FE0FF781206E66F70DA
:103FD000030241007831E654B0FFBF800312BD26D2
:103FE000900B9FE0FF781206E66F700302410078A5
:103FF00031E654B0FFBF900312BD26900B9FE0FF47
:10400000781206E66F70030241007831E654B0FF83
:10401000BFA00312BD26900B9FE0FF781206E66F4B
:1040200070030241007831E654B0FFBFB00312BD07
:1040300026900B9FE0FF781206E66F227832E6703A
:104040003608E6640270307812F67834E6146015AB
:10405000046003024100900B9FE0FF781206E66FB8
:1040600070030241007812E6FF12C729900B9FE00F
:10407000FF781206E66F227832E6FF700908E6B490
:10408000030408E6607AEF70107833E6B4060A0895
:10409000E6700608E6FF02AEA47832E6701008E685
:1040A000B4020B08E6B4700608E67831F6227832DE
:1040B000E6FFB4060C08E6B4900708E6700302C9F0
:1040C0006DEF6406703A7833E66494703308E66402
:1040D00094702D08E66401702712C37290F1047485
:1040E00093F090F105742FF090F154E030E0055416
:1040F000FEFF800790F154E04401FF90F153EFF090
:1041000022A907ED24F6600C24F6600C24F6600C5E
:1041100024187008E4FF80067F0180027F02E91402
:10412000700302425F046003024392EF75F01CA427
:1041300024BBF582E4346DF583E474019390D16E71
:10414000F0EF75F01CA424BDF582E4346DF583E432
:1041500074019390D16FF0EF75F01CA424BFF58229
:10416000E4346DF583E474019390D170F0EF75F051
:104170001CA424C1F582E4346DF583E474019390AA
:10418000D171F0EF75F01CA424C3F582E4346DF511
:1041900083E474019390D172F0EF75F01CA424C5F0
:1041A000F582E4346DF583E474019390D173F0EFFC
:1041B00075F01CA424C7F582E4346DF583E4740122
:1041C0009390D174F0EF75F01CA424C9F582E43407
:1041D0006DF583E474019390D175F0EF75F01CA434
:1041E00024CBF582E4346DF583E474019390D176A9
:1041F000F0EF75F01CA424CDF582E4346DF583E472
:1042000074019390D177F0EF75F01CA424CFF58260
:10421000E4346DF583E474019390D178F0EF75F098
:104220001CA424D1F582E4346DF583E474019390E9
:10423000D179F0EF75F01CA424D3F582E4346DF548
:1042400083E474019390D190F0EF75F01CA424D511
:10425000F582E4346DF58374019390D191F022EFEF
:1042600075F01CA424BBF582E4346DF583E474017D
:104270009390D19EF0EF75F01CA424BDF582E43438
:104280006DF583E474019390D19FF0EF75F01CA459
:1042900024BFF582E4346DF583E474019390D1A0DA
:1042A000F0EF75F01CA424C1F582E4346DF583E4CD
:1042B00074019390D1A1F0EF75F01CA424C3F58292
:1042C000E4346DF583E474019390D1A2F0EF75F0BE
:1042D0001CA424C5F582E4346DF583E47401939045
:1042E000D1A3F0EF75F01CA424C7F582E4346DF57A
:1042F00083E474019390D1A4F0EF75F01CA424C959
:10430000F582E4346DF583E474019390D1A5F0EF68
:1043100075F01CA424CBF582E4346DF583E47401BC
:104320009390D1A6F0EF75F01CA424CDF582E4346F
:104330006DF583E474019390D1A7F0EF75F01CA4A0
:1043400024CFF582E4346DF583E474019390D1A811
:10435000F0EF75F01CA424D1F582E4346DF583E40C
:1043600074019390D1A9F0EF75F01CA424D3F582C9
:10437000E4346DF583E474019390D1C0F0EF75F0EF
:104380001CA424D5F582E4346DF58374019390D197
:10439000C1F022EF75F008A424C8F582E434B2F528
:1043A00083E49390D202F0EF75F008A424C9F5825B
:1043B000E434B2F583E49390D203F0EF75F008A4EF
:1043C00024CAF582E434B2F583E49390D207F0EF87
:1043D00075F008A424CBF582E434B2F583E493901D
:1043E000D208F0EF75F008A424CCF582E434B2F5DD
:1043F00083E49390D209F0EF75F008A424CDF58200
:10440000E434B2F583E49390D20AF0EF75F008A497
:1044100024CEF582E434B2F583E49390D212F0EF27
:1044200075F008A424CFF582E434B2F583E49390C8
:10443000D213F0ED75F008A424C8F582E434B2F587
:1044400083E49390D217F0ED75F008A424C9F582A7
:10445000E434B2F583E49390D218F0ED75F008A43B
:1044600024CAF582E434B2F583E49390D21CF0EDD3
:1044700075F008A424CBF582E434B2F583E493907C
:10448000D21DF0ED75F008A424CCF582E434B2F529
:1044900083E49390D21EF0ED75F008A424CDF5824C
:1044A000E434B2F583E49390D21FF0ED75F008A4E4
:1044B00024CEF582E434B2F583E49390D227F0ED74
:1044C00075F008A424CFF582E434B2F583E4939028
:1044D000D228F0EB75F008A424C8F582E434B2F5D4
:1044E00083E49390D22CF0EB75F008A424C9F582F4
:1044F000E434B2F583E49390D22DF0EB75F008A488
:1045000024CAF582E434B2F583E49390D231F0EB1F
:1045100075F008A424CBF582E434B2F583E49390DB
:10452000D232F0EB75F008A424CCF582E434B2F575
:1045300083E49390D233F0EB75F008A424CDF58298
:10454000E434B2F583E49390D234F0EB75F008A430
:1045500024CEF582E434B2F583E49390D23CF0EBC0
:1045600075F008A424CFF582E434B2F583E4939087
:10457000D23DF0900BB0E0FF75F008A424C8F5829E
:10458000E434B2F583E49390D241F0EF75F008A4DF
:1045900024C9F582E434B2F583E49390D242F090DA
:1045A0000BB0E075F008A424CAF582E434B2F583B8
:1045B000E49390D246F0EF75F008A424CBF582E4A2
:1045C00034B2F583E49390D247F0900BB0E075F0ED
:1045D00008A424CCF582E434B2F583E49390D24865
:1045E000F0EF75F008A424CDF582E434B2F583E44D
:1045F0009390D249F0900BB0E075F008A424CEF56A
:1046000082E434B2F583E49390D251F0EF75F00870
:10461000A424CFF582E434B2F583E49390D252F02F
:1046200022900BD3EFF0900DE8E0D39401900DECC5
:10463000E0FE400CA3E0F5828E83E04480F0800A27
:10464000A3E0F5828E83E0547FF0900DE9E0900DB9
:10465000F6B4010EE0FEA3E0F5828E83E04404F0A0
:10466000800CE0FEA3E0F5828E83E054FBF0900D19
:10467000EAE0900DF6B4010EE0FEA3E0F5828E8331
:10468000E04408F0800CE0FEA3E0F5828E83E05465
:10469000F7F0900BD3E0FF7051900DE6E014601E30
:1046A00014602A14602924FD6003024884900DF4EC
:1046B000E0FCA3E0F5828C837480F0024884900DC6
:1046C000F2E0FCA3E0F5828C837404800F800E90EE
:1046D0000DF2E0FCA3E0F5828C837444F0900DEBC6
:1046E000E04411FE900DF40247E6EF6406705B9023
:1046F0000DE6E014601E14602A1460292403600390
:10470000024884900DEEE0FEA3E0F5828E8374C033
:10471000F0024884900DF2E0FEA3E0F5828E8374EF
:1047200004800F800E900DF2E0FEA3E0F5828E83F0
:104730007444F0900DEBE04410FF900DF4E0FCA306
:10474000E0F5828C83EFF0024884900BD3E0FF64A5
:10475000016005EF64077059900DE6E024FE6029C2
:1047600014602B24FD600C24067031900DEBE044A6
:10477000118006900DEBE04410FF900DEEE0FCA3DD
:10478000E0F5828C83EFF08000900DF08003900DB7
:10479000F2E0FEA3E0F5828E837440F0900BD3E04C
:1047A0006407600302488490E588E04480F0024892
:1047B00084900BD3E0FF64027053900DE6E0146028
:1047C0003224FE603B24FD6013240660030248840B
:1047D000900DEBE04411FE900DEE800A900DEBE0A1
:1047E0004410FE900DEEE0FCA3E0F5828C83EEF029
:1047F000024884900DF2E0FCA3E0F5828C83807186
:10480000900DF2E0FCA3E0F5828C838074EF6403EA
:104810007072900DE6E014604D14605A24FC60251F
:1048200024067060900DEBE04411FF900DEEE0FC6B
:10483000A3E0F5828C83EFF0900DF0E0FEA3E0F5AD
:10484000828E83803C900DEBE04410FF900DEEE0F3
:10485000FCA3E0F5828C83EFF0900DF0E0FEA3E086
:10486000F5828E83801B900DF0E0FEA3E0F5828E32
:10487000837404F0800E900DF0E0FEA3E0F5828ECC
:10488000837444F0900DE7E07BFF70067AC17943B2
:1048900080047AC17952900DE6E0900BDAF0900B2B
:1048A000D3E0900BDBF07F011298A52290FC36E05C
:1048B000FF900E1EF090FC3674EBF090FC1B74FF22
:1048C000F0EF30E632E4900E20F090FC1CE054074C
:1048D000FF900E1FF090FC1C74F8F090FC17E0BFE6
:1048E000010554EFF080034410F0900E1FE0B40473
:1048F00006900B737401F0900E1EE030E04990FCBE
:104900003BE0900AA2F090FC3AE0900AA1F0900EF1
:104910001FE064017031900AA2E0540E900B02F087
:10492000900AA1E0541F900E1DF0900AA2E0FF54DF
:1049300070FE1313543F900E1BF0EF7F0030E70220
:104940007F01900E1CEFF0900E1EE020E568900EA7
:104950001CE0602B900E20E0FFC3940290FC23E04B
:10496000500FFE74A32FF582E4340AF583EEF08035
:1049700029FF900E20E0247DF582E4340A8017E4BC
:10498000900AA3F0A3F090FC23E0FF900E20E02417
:104990007FF582E4340AF583EFF0900E20E004F016
:1049A000900E1EE0FF90FC36E0FEEF4E900E1EF0E3
:1049B00030E59BE04EF0900E1EE020E403024AD06A
:1049C00090FC36E04410F0900E1EF0E4900E20F0C3
:1049D000900B7DF0900B6CE07002C2CA900E1FE04D
:1049E000FDB40110900B79E0B40209E4900B66F07D
:1049F000900B79F0900A7BE04401F0900E1BE07080
:104A000008900E1DE06401605C900A7BE04402F0B7
:104A1000ED64016003024AD0900B03E0FF900B02AB
:104A2000E0FEB50713900B04E0FD900E1DE0B50508
:104A300007E4900B6FF0801DEEB50719900B04E0B2
:104A4000FF900E1DE06F600D900B02E06007900A72
:104A50007BE054FDF0900B02E0A3F0900E1DE0907F
:104A60000B04F0806B900A7BE054FDF0E4900B7433
:104A7000F07B807D03FF12BEF8900B05E0B50705C3
:104A800012A1AA804B7B807D06E4FF12BEF8900B3A
:104A900005E0B5070512AF3B80367B807D017F01C5
:104AA00012BEF8900B05E0B50708900B7B7402F07E
:104AB000801E7B807D13E4FF12BEF8900B05E0B5ED
:104AC000070E74FFF0900B6C7401F012C982D2CA09
:104AD000900E1EE030E24E90FC367404F0900B74A1
:104AE000E0B40113E4F0900B2AE06004C2CA80072E
:104AF000C2CF12C989D2CA900A7BE030E12754FBA9
:104B0000F0900E1FE0B40116900B2AE07010900E8A
:104B10001DE0FF900E1BE0FDA3E0FB12122E900A99
:104B20007BE054FDF022AB07E4900BA4F0A3F0A3CC
:104B3000F0A3F0A3F0A3120AB500000000E4900A6D
:104B40007AF0900AD37407F0A3F0EB2402900BA440
:104B5000F0E4900BA3F0900BA4E0FF900BA3E0FE19
:104B6000C39F503BEE700A900A0EE0900A1EF08040
:104B700026EEB4010A900A0FE0900A1FF080187424
:104B8000EA2EF582E43409F583E0FF741E2EF582E7
:104B9000E4340AF583EFF0900BA3E004F080B790C3
:104BA0000A1EE0540FF04440F0784C7C0A7D017BF3
:104BB000017A0A791E7E007F1E12069E900BA37456
:104BC00002F0900BA4E0FF900BA3E0FEC39F400314
:104BD000024D9A74212EF582E4340AF583E054C024
:104BE00064C07056EE2404FDE433FC900BA4E0FB9B
:104BF000C3ED9B7480F86C98501B74222EF582E4F0
:104C0000340AF583E0FF741E2EF582E4340AF5833E
:104C1000EFF00E80CF900A1FE024F0F0900BA4E09C
:104C200024FCF0900BA3E0B4020674FEF0024D9059
:104C3000900BA3E024FCF0024D90900BA3E0FD2428
:104C40001FF582E4340AF583E0FC5403FE741E2D44
:104C5000F582E4340AF583E07A002400FFEA3E900E
:104C60000BA5F0A3EFF0900BA3E02420F582E43431
:104C70000AF583E0540F75F040A4FFEC54FC1313C5
:104C8000543F7C002FFFEC35F0FE900BA7F0A3EF14
:104C9000F0C39478EE9400500C900BA5E4F0A3744C
:104CA00032F0024D42900BA7E0FEA3E0FFC394BE9A
:104CB000EE9400500B900BA574FF75F0B0024D3FC1
:104CC000C3EF9418EE9401500A900BA574FF75F091
:104CD000C1806CBE012BBF2C28C3900BA6E09404AE
:104CE000900BA5E09401400F7401F0A37404F090C0
:104CF0000A7A7401F0804B900BA574FF75F0CC809C
:104D00003E900BA7E0FEA3E0FFC39440EE94015059
:104D10000A900BA574FF75F0CE8024BE0119BF90D8
:104D200016D3900BA6E094C2900BA5E09401400727
:104D300074FF75F0A68008900BA574FF75F0CE1275
:104D400007D8900BA5A3E0FF900BA3E0FE241EF56F
:104D500082E4340AF583EFF0741F2EF582E4340AFE
:104D6000F583E054FCF0741F2EF582E4340AF583D9
:104D7000C083C082E0FD900BA5E05403FFED4FD04F
:104D800082D083F0900A23E05408443EF054EEF0C1
:104D9000900BA3E02404F0024BC2220A546F676711
:104DA0006C6520646670000A546F67676C652075D7
:104DB0006670000A5072537761702053656E64000C
:104DC0000A4164615F4C6F7374000A4472537761E7
:104DD000702053656E64000A205761697420447224
:104DE00053776170000A20576169742056636F6EB3
:104DF0006E53776170000A536F7572636520536557
:104E00006E64000A53696E6B204F6666000A205379
:104E100030000A55534220504F000A20485F52008C
:104E20000A4861726433000A48522048646C000AE0
:104E3000466C6970004A0A460F430244024B0F4910
:104E400003900F4D0141119690013E000000004279
:104E5000105A680113000000004F26428000FF0036
:104E60000001FF4F28438001FF050400004F284345
:104E70008001FF050C00004F1A448101FF00000073
:104E8000004F1A458101FF000000004F2C508101A6
:104E9000FF0A0000004F2C508101FF8A0000004FE4
:104EA0001E518101FF000000004F22068101FF0A10
:104EB0000000004F22068101FF8A0000004F2206F9
:104EC0008101FF8A01000044122C91012E00000094
:104ED000004F244380612F000000004F1644826180
:104EE0002F0000000044122C91812F000000004F81
:104EF0001A4581812F0000000044122C9101060008
:104F000000000044122C918127000000004F344221
:104F10008000FF01FF7E05000000004F2843800154
:104F2000FF05080800000000004F1A44817E0500BC
:104F3000000000000000004F3540007E0501020225
:104F400000000000004F2540007E0501021D00000A
:104F50000000004F2540007E0500021D00000000FB
:104F6000004F3540007E0500021700000000004F92
:104F70003540007E0500020C009A0C00004F3540C1
:104F8000007E0500021900100B6B024F3540007EB9
:104F90000501020200000014804F3540007E05002C
:104FA0000211009A0C00004F3540007E05000207F8
:104FB00000021018004F2540007E0500022100006D
:104FC00000000061216490012A04B10400000090F7
:104FD000F3ECE030E65690F3A9E06407704E90F3EE
:104FE000AAE06405704690F3ABE06413703E90F362
:104FF000BCE054F0D394305033E0FDC4540F90051E
:1050000072F0ED540FA3F090F3BDE0FE540790054D
:1050100074F0EEC4131313540133333354F8FF9078
:105020000797E054F74FF04410F0803890F3EBE02E
:10503000FDC3135403900572F0ED131313541FFEB8
:105040005403A3F090F3EBE0C4135407900574F0FD
:10505000EE540133333354F8FF900797E054F74F81
:10506000F054EFF0900797E0FF30E472900572E0A3
:1050700014601614601B14602024037024EF30E3C6
:10508000209005727406F0801D9005727402F08005
:10509000159005727401F0800D9005727403F08014
:1050A00005E4900572F0900572E0FF64066003EF7E
:1050B0007010900573E024FA701A9005737404F070
:1050C0008060900573E014600B24FB600914600697
:1050D0002407700880469005737404F0803E9005A4
:1050E00072E014601614601B2402701F900797E092
:1050F00030E3189005727406F08015900572740103
:10510000F0800D9005727402F08005E4900572F055
:10511000900573E0146003047002800090057374BE
:1051200002F0900572E0FF90079BE0FE6F704290E6
:105130000573E0FF90079CE06F7036900574E0FF08
:1051400090079DE0FD6F70297BFF7A3B79AB900B58
:10515000DAEEF0A3EDF07F021298A57BFF7A3B799F
:10516000D990079CE0900BDAF07F021298A57F009F
:1051700022900572E090079BF0900573E090079CE9
:10518000F0900574E0FF90079DF07BFF7A3B79ABD0
:1051900090079BE0900BDAF0A3EFF07F011298A547
:1051A0007BFF7A3B79D990079CE0900BDAF07F0186
:1051B0001298A5900797E030E4357BFF7A3B79F7AA
:1051C0007F011298A590079BE0B403047F01800241
:1051D000E4FF12C5BC7F0112C59A12C5AB90079BB4
:1051E000E0FF12C42D90079DE0FF12C6FA800BE489
:1051F000FF12C5BC12C59A12C5AB7F01220A2D2D24
:1052000054785374617465203D20256264000A4D12
:1052100049504920496E434C6B203D20256C756BED
:10522000687A000A4D49504954585B485D3A2564F4
:105230002C25642C25642C25642C25642C25626483
:10524000000A4D49504954585B565D3A25642C2557
:10525000642C25642C25642C25642C256264000AAA
:1052600042797465436C6B203D2025754D687A004A
:105270000A25626420706F7274000A256264206CD3
:10528000616E65000A445048593B000A4353493B4C
:10529000000A7264646C795F6D61782069732025FF
:1052A0006C753B000A7264646C795F6D696E3120C5
:1052B000697320256C753B000A7264646C795F6DBC
:1052C000696E3220697320256C753B000A204D49B8
:1052D000504920656E61626C65643B000A204D494F
:1052E00050492064697361626C65643B0044637378
:1052F0002052656164203D207B0A003078253032E1
:1053000062782C007D0A000A205458504C4C2075BD
:105310006E6C6F636B3B000A5478706C6C206C6F22
:10532000636B3B000511000529001536C629804036
:105330000080E77B00000023660729B6206B00068B
:10534000338A001A7A29B75400000029B9003902BB
:105350006F29C03A86BC0208700AF029F11E29C6DE
:105360007008D002216F085A000000000000000001
:1053700029CD0029CF8B00804661008B29EC049752
:1053800000000029E61100008910800870087000F4
:1053900008021C021C0200020E002000BB000700D5
:1053A0000C0DB70CB7180010F0030C2000060B0B07
:1053B000330E1C2A38465462697077797B7D7E01F2
:1053C000020100094009BE19FC19FA19F81A381A25
:1053D000781AB62AF62B342B743B746BF400000059
:1053E000000000390301394400001535001536006E
:1053F000153A7705290005110029D68029B0030048
:10540000000000000000000000000000000000009C
:1054100000000000000000000000000000EDC39448
:105420000C4003025607EF120B0F54D60054DC0158
:1054300054E60254EC0354F20454F805550A065598
:105440001007551608551C0955220A55280B552ECC
:105450000C55400D55460E554C0F555210555811D0
:10546000555E12556413556A1455701555761655C8
:105470007B17558118558619558B1A55901B5595D4
:105480001C559A1D559F1E55A41F55A92055AE2188
:1054900055B32255B82355BD2455C22555C72655A9
:1054A000CC2755D12855D62955DB2A55E02B55E573
:1054B0002C55EA2D55EF2E55FE2F54DE3054E03199
:1054C00054FE32550433553434553A355516365555
:1054D00016370000560790D4130255F28002800060
:1054E00090D41302560190D4140255F290D41402B1
:1054F000560190D4150255F290D41502560190D45D
:105500001502560190D41502560190D4160255F298
:1055100090D41602560190D4170255F290D4170277
:10552000560190D4180255F290D41802560190D426
:10553000190255F290D4190255F290D4190255F27D
:1055400090D41902560190D41A0255F290D41A023E
:10555000560190D41B0255F290D41B02560190D4F0
:105560001C0255F290D41C02560190D41D0255F233
:1055700090D41D02560190D41E807790D41E0256FE
:105580000190D41F806C90D41F807690D4208062CC
:1055900090D420806C90D421805890D42180629047
:1055A000D422804E90D422805890D423804490D42A
:1055B00023804E90D424803A90D424804490D425E3
:1055C000803090D425803A90D426802690D42680AE
:1055D0003090D427801C90D427802690D428801225
:1055E00090D428801C90D429800890D429801290CF
:1055F000D429E0540FFFF0EDC454F04FF02290D4C2
:1056000029E054F0F04DF022900BAF7401F078C017
:105610007C0BFD7BFF7ABA79647E007F0212069EC6
:10562000900CE9E0FFB40108900BAF7401F0800F1B
:10563000EF70028004EFB40206900BAF7405F09097
:105640000BB07401F0A3742CF0A3E4F0A37464F025
:10565000A37401F0A3742CF0A3E4F0A374B4F0A33A
:105660007401F0A3742CF0A3E4F0A374F0F0A3741D
:1056700001F0A3742CF0FD7C01EF7009A304F0A3EA
:105680007445F08011900CE9E0B4020A900BBE74EE
:1056900001F0A374F4F07F907E01900BB0E0FBA3C7
:1056A000E0900BC0CBF0A3EBF0900BB2E0FBA3E0DB
:1056B000900BC2CBF0A3EBF0900BB4E0FBA3E09017
:1056C0000BC4CBF0A3EBF0900BB6E0FBA3E0900B88
:1056D000C6CBF0A3EBF0900BB8E0FBA3E0900BC8B7
:1056E000CBF0A3EBF0900BBAE0FBA3E0900BCACB9E
:1056F000F0A3EBF0900BBCE0FBA3E0900BCCCBF065
:10570000A3EBF0A3ECF0A3EDF0900BBEE0FDA3E063
:10571000900BD0CDF0A3EDF0A3EEF0A3EFF0900C42
:10572000ECE0548FFFF0900BAFE0C454F04F900CBE
:10573000ECF0E4FD900BAFE0FFEDC39F4003025798
:10574000E7ED25E025E024C0F582E4340BF583A3E2
:10575000E0FFED25E025E024EDF582E4340CF5834F
:10576000EFF0ED25E025E024C0F582E4340BF5836D
:10577000E0FFED25E025E024EEF582E4340CF5832E
:10578000EFF0ED25E025E024EEF582E4340CF5831E
:10579000C083C082E0FCED25E025E024C2F582E470
:1057A000340BF583E0FEA3E07802C333CE33CED8CA
:1057B000F94CD082D083F0ED25E025E024C2F582BB
:1057C000E4340BF583E0FEA3E07806CEC313CE13DA
:1057D000D8F9FFED25E025E024EFF582E4340CF55F
:1057E00083EFF00D025734900CF0743EF02290F3EA
:1057F000EDE020E7037F002290F3DBE0FE90F3DC96
:10580000E07C002400FFEC3E900577F0A3EFF090E1
:10581000F3E7E0FE90F3E8E02400FFEC3E9005792A
:10582000F0A3EFF090F3E1E0FE90F3E2E02400FF5C
:10583000EC3E900575F0A3EFF090F3DFE0547FFEAF
:1058400090F3E0E02400FFEC3E90057BF0A3EFF046
:1058500090F264E0FE90F265E02400FFEC3E9005DB
:105860007DF0A3EFF090079BE0B4031C90057EE071
:1058700025E0FF90057DE033FE900577E0B5061F3B
:10588000A3E0B5071A7F002290057DE0FEA3E0FFAC
:10589000900577E0B50608A3E0B507037F00221264
:1058A000C8D012A450E4FF12C5EF900577E0FCA326
:1058B000E0FDEC90F206F090F207EDF090F3DDE001
:1058C00090F20EF090F3DEE090F20FF090F20AE02A
:1058D000FD90057BE0FAA3E0FBEAFFED4F90F20AB2
:1058E000F090F20BEBF0900575E0FCA3E0FDEC907E
:1058F000F208F090F209EDF090F3E3E090F210F08E
:1059000090F3E4E090F211F090F3E5E0547F90F230
:1059100012F090F3E6E090F213F0900579E0FCA32A
:10592000E0FDEC90F20CF090F20DEDF090F3E9E078
:1059300090F214F090F3EAE090F215F0E4FF12C553
:10594000DE90079BE0B4032A900577E0C313F0A331
:10595000E013F0A3E0C313F0A3E013F0900575E0AB
:10596000C313F0A3E013F090057BE0C313F0A3E0B2
:1059700013F0E4FF12C5CD900577E0FCA3E0FDEC49
:1059800090F264F090F265EDF0900579E0FCA3E010
:10599000FDEC90F26AF090F26BEDF0900575E0FC92
:1059A000A3E0FDEC90F266F090F267EDF090F26803
:1059B000E0FD90057BE0FAA3E0FBEAFFED4F90F2FB
:1059C00068F090F269EBF07FF47E0112C6997F01D6
:1059D00022E4900BADF0A3F0EF70028010900B6DFD
:1059E000E06003E48007900B7BE06008E49009B777
:1059F000F0025B969009B7E014600C146036240244
:105A00006003025B8C80157B017A0979B87D287C64
:105A100000129FA5EF64016003025B967B017A0987
:105A200079B812C92C9009B7E004F09009B6740156
:105A3000F0025B96900B7BE06003025B85900B6548
:105A4000E064016003025B85A3E064016003025B24
:105A5000857B017A0979B87DF0FC129FA5EF64017E
:105A60006003025B5B900B80E0C394324003025BF7
:105A700044E004F0E4900BAEF012BD50EF702A90B9
:105A80000B65F0A3F0900B78F0900B80F0900B6D0D
:105A900004F0E4900B7BF0900B79F0FD7F10123155
:105AA000D4E49009B7F0025B509009B6E0B4011954
:105AB000E4F07D017F111231D41F1231D47B017AC1
:105AC0000979B812C92C025B507D017F111231D4C3
:105AD000900B7BE070577F04FE12BF80900B7874B0
